{
  "contractName": "addOnContract",
  "abi": [
    {
      "inputs": [
        {
          "internalType": "address",
          "name": "_proxyAddr",
          "type": "address"
        }
      ],
      "stateMutability": "nonpayable",
      "type": "constructor"
    },
    {
      "anonymous": false,
      "inputs": [
        {
          "indexed": true,
          "internalType": "address",
          "name": "owner",
          "type": "address"
        },
        {
          "indexed": true,
          "internalType": "address",
          "name": "approved",
          "type": "address"
        },
        {
          "indexed": true,
          "internalType": "uint256",
          "name": "tokenId",
          "type": "uint256"
        }
      ],
      "name": "Approval",
      "type": "event"
    },
    {
      "anonymous": false,
      "inputs": [
        {
          "indexed": true,
          "internalType": "address",
          "name": "owner",
          "type": "address"
        },
        {
          "indexed": true,
          "internalType": "address",
          "name": "operator",
          "type": "address"
        },
        {
          "indexed": false,
          "internalType": "bool",
          "name": "approved",
          "type": "bool"
        }
      ],
      "name": "ApprovalForAll",
      "type": "event"
    },
    {
      "anonymous": false,
      "inputs": [
        {
          "indexed": true,
          "internalType": "address",
          "name": "previousOwner",
          "type": "address"
        },
        {
          "indexed": true,
          "internalType": "address",
          "name": "newOwner",
          "type": "address"
        }
      ],
      "name": "OwnershipTransferred",
      "type": "event"
    },
    {
      "anonymous": false,
      "inputs": [
        {
          "indexed": false,
          "internalType": "uint256",
          "name": "productId",
          "type": "uint256"
        },
        {
          "indexed": false,
          "internalType": "address",
          "name": "_ownerAddress",
          "type": "address"
        }
      ],
      "name": "ProductBurned_cartArt_coder",
      "type": "event"
    },
    {
      "anonymous": false,
      "inputs": [
        {
          "indexed": false,
          "internalType": "address",
          "name": "_contract",
          "type": "address"
        }
      ],
      "name": "SetStoreContract",
      "type": "event"
    },
    {
      "anonymous": false,
      "inputs": [
        {
          "indexed": true,
          "internalType": "address",
          "name": "from",
          "type": "address"
        },
        {
          "indexed": true,
          "internalType": "address",
          "name": "to",
          "type": "address"
        },
        {
          "indexed": true,
          "internalType": "uint256",
          "name": "tokenId",
          "type": "uint256"
        }
      ],
      "name": "Transfer",
      "type": "event"
    },
    {
      "anonymous": false,
      "inputs": [
        {
          "indexed": true,
          "internalType": "address",
          "name": "previousProxy",
          "type": "address"
        },
        {
          "indexed": true,
          "internalType": "address",
          "name": "newProxy",
          "type": "address"
        }
      ],
      "name": "cartART",
      "type": "event"
    },
    {
      "inputs": [
        {
          "internalType": "address",
          "name": "_child",
          "type": "address"
        }
      ],
      "name": "_approveChildContract",
      "outputs": [],
      "stateMutability": "nonpayable",
      "type": "function"
    },
    {
      "inputs": [
        {
          "internalType": "address",
          "name": "to",
          "type": "address"
        },
        {
          "internalType": "uint256",
          "name": "tokenId",
          "type": "uint256"
        }
      ],
      "name": "approve",
      "outputs": [],
      "stateMutability": "nonpayable",
      "type": "function"
    },
    {
      "inputs": [
        {
          "internalType": "address",
          "name": "owner",
          "type": "address"
        }
      ],
      "name": "balanceOf",
      "outputs": [
        {
          "internalType": "uint256",
          "name": "",
          "type": "uint256"
        }
      ],
      "stateMutability": "view",
      "type": "function",
      "constant": true
    },
    {
      "inputs": [
        {
          "internalType": "uint256",
          "name": "tokenId",
          "type": "uint256"
        }
      ],
      "name": "getApproved",
      "outputs": [
        {
          "internalType": "address",
          "name": "",
          "type": "address"
        }
      ],
      "stateMutability": "view",
      "type": "function",
      "constant": true
    },
    {
      "inputs": [
        {
          "internalType": "address",
          "name": "owner",
          "type": "address"
        },
        {
          "internalType": "address",
          "name": "operator",
          "type": "address"
        }
      ],
      "name": "isApprovedForAll",
      "outputs": [
        {
          "internalType": "bool",
          "name": "",
          "type": "bool"
        }
      ],
      "stateMutability": "view",
      "type": "function",
      "constant": true
    },
    {
      "inputs": [],
      "name": "name",
      "outputs": [
        {
          "internalType": "string",
          "name": "",
          "type": "string"
        }
      ],
      "stateMutability": "view",
      "type": "function",
      "constant": true
    },
    {
      "inputs": [],
      "name": "owner",
      "outputs": [
        {
          "internalType": "address",
          "name": "",
          "type": "address"
        }
      ],
      "stateMutability": "view",
      "type": "function",
      "constant": true
    },
    {
      "inputs": [
        {
          "internalType": "uint256",
          "name": "tokenId",
          "type": "uint256"
        }
      ],
      "name": "ownerOf",
      "outputs": [
        {
          "internalType": "address",
          "name": "",
          "type": "address"
        }
      ],
      "stateMutability": "view",
      "type": "function",
      "constant": true
    },
    {
      "inputs": [],
      "name": "renounceOwnership",
      "outputs": [],
      "stateMutability": "nonpayable",
      "type": "function"
    },
    {
      "inputs": [
        {
          "internalType": "address",
          "name": "from",
          "type": "address"
        },
        {
          "internalType": "address",
          "name": "to",
          "type": "address"
        },
        {
          "internalType": "uint256",
          "name": "tokenId",
          "type": "uint256"
        }
      ],
      "name": "safeTransferFrom",
      "outputs": [],
      "stateMutability": "nonpayable",
      "type": "function"
    },
    {
      "inputs": [
        {
          "internalType": "address",
          "name": "from",
          "type": "address"
        },
        {
          "internalType": "address",
          "name": "to",
          "type": "address"
        },
        {
          "internalType": "uint256",
          "name": "tokenId",
          "type": "uint256"
        },
        {
          "internalType": "bytes",
          "name": "_data",
          "type": "bytes"
        }
      ],
      "name": "safeTransferFrom",
      "outputs": [],
      "stateMutability": "nonpayable",
      "type": "function"
    },
    {
      "inputs": [
        {
          "internalType": "address",
          "name": "operator",
          "type": "address"
        },
        {
          "internalType": "bool",
          "name": "approved",
          "type": "bool"
        }
      ],
      "name": "setApprovalForAll",
      "outputs": [],
      "stateMutability": "nonpayable",
      "type": "function"
    },
    {
      "inputs": [
        {
          "internalType": "address",
          "name": "_newProxyAddr",
          "type": "address"
        }
      ],
      "name": "setProxy",
      "outputs": [],
      "stateMutability": "nonpayable",
      "type": "function"
    },
    {
      "inputs": [
        {
          "internalType": "bytes4",
          "name": "interfaceId",
          "type": "bytes4"
        }
      ],
      "name": "supportsInterface",
      "outputs": [
        {
          "internalType": "bool",
          "name": "",
          "type": "bool"
        }
      ],
      "stateMutability": "view",
      "type": "function",
      "constant": true
    },
    {
      "inputs": [],
      "name": "symbol",
      "outputs": [
        {
          "internalType": "string",
          "name": "",
          "type": "string"
        }
      ],
      "stateMutability": "view",
      "type": "function",
      "constant": true
    },
    {
      "inputs": [
        {
          "internalType": "uint256",
          "name": "index",
          "type": "uint256"
        }
      ],
      "name": "tokenByIndex",
      "outputs": [
        {
          "internalType": "uint256",
          "name": "",
          "type": "uint256"
        }
      ],
      "stateMutability": "view",
      "type": "function",
      "constant": true
    },
    {
      "inputs": [
        {
          "internalType": "address",
          "name": "owner",
          "type": "address"
        },
        {
          "internalType": "uint256",
          "name": "index",
          "type": "uint256"
        }
      ],
      "name": "tokenOfOwnerByIndex",
      "outputs": [
        {
          "internalType": "uint256",
          "name": "",
          "type": "uint256"
        }
      ],
      "stateMutability": "view",
      "type": "function",
      "constant": true
    },
    {
      "inputs": [],
      "name": "totalSupply",
      "outputs": [
        {
          "internalType": "uint256",
          "name": "",
          "type": "uint256"
        }
      ],
      "stateMutability": "view",
      "type": "function",
      "constant": true
    },
    {
      "inputs": [
        {
          "internalType": "address",
          "name": "from",
          "type": "address"
        },
        {
          "internalType": "address",
          "name": "to",
          "type": "address"
        },
        {
          "internalType": "uint256",
          "name": "tokenId",
          "type": "uint256"
        }
      ],
      "name": "transferFrom",
      "outputs": [],
      "stateMutability": "nonpayable",
      "type": "function"
    },
    {
      "inputs": [
        {
          "internalType": "address",
          "name": "newOwner",
          "type": "address"
        }
      ],
      "name": "transferOwnership",
      "outputs": [],
      "stateMutability": "nonpayable",
      "type": "function"
    },
    {
      "inputs": [
        {
          "internalType": "uint256",
          "name": "tokenId",
          "type": "uint256"
        }
      ],
      "name": "getX",
      "outputs": [
        {
          "internalType": "uint256",
          "name": "",
          "type": "uint256"
        }
      ],
      "stateMutability": "view",
      "type": "function",
      "constant": true
    },
    {
      "inputs": [
        {
          "internalType": "uint256",
          "name": "tokenId",
          "type": "uint256"
        }
      ],
      "name": "getY",
      "outputs": [
        {
          "internalType": "uint256",
          "name": "",
          "type": "uint256"
        }
      ],
      "stateMutability": "view",
      "type": "function",
      "constant": true
    },
    {
      "inputs": [
        {
          "internalType": "uint256",
          "name": "tokenId",
          "type": "uint256"
        }
      ],
      "name": "getZ",
      "outputs": [
        {
          "internalType": "uint256",
          "name": "",
          "type": "uint256"
        }
      ],
      "stateMutability": "view",
      "type": "function",
      "constant": true
    },
    {
      "inputs": [
        {
          "internalType": "uint256",
          "name": "tokenId",
          "type": "uint256"
        }
      ],
      "name": "getC",
      "outputs": [
        {
          "internalType": "uint256",
          "name": "",
          "type": "uint256"
        }
      ],
      "stateMutability": "view",
      "type": "function",
      "constant": true
    },
    {
      "inputs": [
        {
          "internalType": "uint256",
          "name": "tokenId",
          "type": "uint256"
        }
      ],
      "name": "getO",
      "outputs": [
        {
          "internalType": "uint256",
          "name": "",
          "type": "uint256"
        }
      ],
      "stateMutability": "view",
      "type": "function",
      "constant": true
    },
    {
      "inputs": [
        {
          "internalType": "uint256",
          "name": "tokenId",
          "type": "uint256"
        }
      ],
      "name": "getR",
      "outputs": [
        {
          "internalType": "uint256",
          "name": "",
          "type": "uint256"
        }
      ],
      "stateMutability": "view",
      "type": "function",
      "constant": true
    },
    {
      "inputs": [
        {
          "internalType": "uint256",
          "name": "tokenId",
          "type": "uint256"
        }
      ],
      "name": "getI",
      "outputs": [
        {
          "internalType": "uint256",
          "name": "",
          "type": "uint256"
        }
      ],
      "stateMutability": "view",
      "type": "function",
      "constant": true
    },
    {
      "inputs": [
        {
          "internalType": "uint256",
          "name": "tokenId",
          "type": "uint256"
        }
      ],
      "name": "getP",
      "outputs": [
        {
          "internalType": "uint256",
          "name": "",
          "type": "uint256"
        }
      ],
      "stateMutability": "view",
      "type": "function",
      "constant": true
    },
    {
      "inputs": [
        {
          "internalType": "uint256",
          "name": "_tokenId",
          "type": "uint256"
        }
      ],
      "name": "tokenURI",
      "outputs": [
        {
          "internalType": "string",
          "name": "",
          "type": "string"
        }
      ],
      "stateMutability": "view",
      "type": "function",
      "constant": true
    },
    {
      "inputs": [
        {
          "internalType": "address",
          "name": "_to",
          "type": "address"
        },
        {
          "internalType": "uint256",
          "name": "_qty",
          "type": "uint256"
        },
        {
          "internalType": "uint256",
          "name": "_productId",
          "type": "uint256"
        },
        {
          "internalType": "string",
          "name": "_data",
          "type": "string"
        }
      ],
      "name": "buy",
      "outputs": [],
      "stateMutability": "nonpayable",
      "type": "function"
    },
    {
      "inputs": [
        {
          "internalType": "uint256",
          "name": "_tokenId",
          "type": "uint256"
        }
      ],
      "name": "burnPass",
      "outputs": [],
      "stateMutability": "nonpayable",
      "type": "function"
    },
    {
      "inputs": [
        {
          "internalType": "address",
          "name": "_owner",
          "type": "address"
        }
      ],
      "name": "tokensOfOwner",
      "outputs": [
        {
          "internalType": "uint256[]",
          "name": "",
          "type": "uint256[]"
        }
      ],
      "stateMutability": "view",
      "type": "function",
      "constant": true
    }
  ],
  "bytecode": "0x6080604052604051806104a00160405280600160ff168152602001600260ff168152602001600360ff168152602001600460ff168152602001600560ff168152602001600660ff168152602001600760ff168152602001600860ff168152602001600960ff168152602001600160ff168152602001600260ff168152602001600360ff168152602001600460ff168152602001600560ff168152602001600660ff168152602001600760ff168152602001600860ff168152602001600960ff168152602001600160ff168152602001600260ff168152602001600360ff168152602001600460ff168152602001600560ff168152602001600660ff168152602001600760ff168152602001600860ff168152602001600960ff168152602001600160ff168152602001600260ff168152602001600360ff168152602001600460ff168152602001600560ff168152602001600660ff168152602001600760ff168152602001600860ff168152602001600960ff168152602001600a60ff16815250601090602562000192929190620008e3565b5060405180610b000160405280600160ff168152602001600160ff168152602001600160ff168152602001600160ff168152602001600160ff168152602001600160ff168152602001600160ff168152602001600160ff168152602001600160ff168152602001600160ff168152602001600160ff168152602001600160ff168152602001600160ff168152602001600160ff168152602001600160ff168152602001600160ff168152602001600160ff168152602001600160ff168152602001600160ff168152602001600160ff168152602001600160ff168152602001600160ff168152602001600160ff168152602001600160ff168152602001600160ff168152602001600160ff168152602001600160ff168152602001600160ff168152602001600160ff168152602001600160ff168152602001600160ff168152602001600160ff168152602001600160ff168152602001600160ff168152602001600160ff168152602001600160ff168152602001600160ff168152602001600160ff168152602001600160ff168152602001600160ff168152602001600160ff168152602001600160ff168152602001600160ff168152602001600160ff168152602001600160ff168152602001600160ff168152602001600160ff168152602001600160ff168152602001600160ff168152602001600160ff168152602001600160ff168152602001600160ff168152602001600160ff168152602001600160ff168152602001600160ff168152602001600160ff168152602001600160ff168152602001600160ff168152602001600160ff168152602001600160ff168152602001600160ff168152602001600160ff168152602001600160ff168152602001600160ff168152602001600160ff168152602001600160ff168152602001600160ff168152602001600160ff168152602001600160ff168152602001600160ff168152602001600160ff168152602001600160ff168152602001600160ff168152602001600160ff168152602001600160ff168152602001600160ff168152602001600160ff168152602001600160ff168152602001600160ff168152602001600160ff168152602001600160ff168152602001600160ff168152602001600160ff168152602001600160ff168152602001600160ff168152602001600160ff168152602001600160ff168152602001600060ff1681525060119060586200051f92919062000991565b506040518060400160405280600160ff168152602001600260ff1681525060129060026200054f92919062000a3f565b503480156200055d57600080fd5b506040516200679438038062006794833981810160405281019062000583919062000bb4565b6040518060400160405280600581526020017f436f6465720000000000000000000000000000000000000000000000000000008152506040518060400160405280600981526020017f4c4f4f4b204c414253000000000000000000000000000000000000000000000081525081600090805190602001906200060792919062000aed565b5080600190805190602001906200062092919062000aed565b50505062000643620006376200069c60201b60201c565b620006a460201b60201c565b80600e60006101000a81548173ffffffffffffffffffffffffffffffffffffffff021916908373ffffffffffffffffffffffffffffffffffffffff16021790555062000695816200076a60201b60201c565b5062000d16565b600033905090565b6000600a60009054906101000a900473ffffffffffffffffffffffffffffffffffffffff16905081600a60006101000a81548173ffffffffffffffffffffffffffffffffffffffff021916908373ffffffffffffffffffffffffffffffffffffffff1602179055508173ffffffffffffffffffffffffffffffffffffffff168173ffffffffffffffffffffffffffffffffffffffff167f8be0079c531659141344cd1fd0a4f28419497f9722a3daafe3b4186f6b6457e060405160405180910390a35050565b6200077a6200069c60201b60201c565b73ffffffffffffffffffffffffffffffffffffffff16620007a0620008b960201b60201c565b73ffffffffffffffffffffffffffffffffffffffff1614620007f9576040517f08c379a0000000000000000000000000000000000000000000000000000000008152600401620007f09062000c07565b60405180910390fd5b8073ffffffffffffffffffffffffffffffffffffffff16600b60009054906101000a900473ffffffffffffffffffffffffffffffffffffffff1673ffffffffffffffffffffffffffffffffffffffff167f5b09f0d0a4cbf8770fd092cf5ee60221e5addb9d44f01f52b1e8c6fe34842e3f60405160405180910390a380600b60006101000a81548173ffffffffffffffffffffffffffffffffffffffff021916908373ffffffffffffffffffffffffffffffffffffffff16021790555050565b6000600a60009054906101000a900473ffffffffffffffffffffffffffffffffffffffff16905090565b82805482825590600052602060002090601f016020900481019282156200097e5791602002820160005b838211156200094d57835183826101000a81548160ff021916908360ff16021790555092602001926001016020816000010492830192600103026200090d565b80156200097c5782816101000a81549060ff02191690556001016020816000010492830192600103026200094d565b505b5090506200098d919062000b7e565b5090565b82805482825590600052602060002090601f0160209004810192821562000a2c5791602002820160005b83821115620009fb57835183826101000a81548160ff021916908360ff1602179055509260200192600101602081600001049283019260010302620009bb565b801562000a2a5782816101000a81549060ff0219169055600101602081600001049283019260010302620009fb565b505b50905062000a3b919062000b7e565b5090565b82805482825590600052602060002090601f0160209004810192821562000ada5791602002820160005b8382111562000aa957835183826101000a81548160ff021916908360ff160217905550926020019260010160208160000104928301926001030262000a69565b801562000ad85782816101000a81549060ff021916905560010160208160000104928301926001030262000aa9565b505b50905062000ae9919062000b7e565b5090565b82805462000afb9062000c6e565b90600052602060002090601f01602090048101928262000b1f576000855562000b6b565b82601f1062000b3a57805160ff191683800117855562000b6b565b8280016001018555821562000b6b579182015b8281111562000b6a57825182559160200191906001019062000b4d565b5b50905062000b7a919062000b7e565b5090565b5b8082111562000b9957600081600090555060010162000b7f565b5090565b60008151905062000bae8162000cfc565b92915050565b60006020828403121562000bc757600080fd5b600062000bd78482850162000b9d565b91505092915050565b600062000bef60208362000c29565b915062000bfc8262000cd3565b602082019050919050565b6000602082019050818103600083015262000c228162000be0565b9050919050565b600082825260208201905092915050565b600062000c478262000c4e565b9050919050565b600073ffffffffffffffffffffffffffffffffffffffff82169050919050565b6000600282049050600182168062000c8757607f821691505b6020821081141562000c9e5762000c9d62000ca4565b5b50919050565b7f4e487b7100000000000000000000000000000000000000000000000000000000600052602260045260246000fd5b7f4f776e61626c653a2063616c6c6572206973206e6f7420746865206f776e6572600082015250565b62000d078162000c3a565b811462000d1357600080fd5b50565b615a6e8062000d266000396000f3fe608060405234801561001057600080fd5b50600436106101f05760003560e01c8063845a46971161010f578063a22cb465116100a2578063d65024a511610071578063d65024a514610613578063e985e9c514610643578063f2fde38b14610673578063f7048c971461068f576101f0565b8063a22cb4651461057b578063b88d4fde14610597578063c87b56dd146105b3578063cef0ab95146105e3576101f0565b80638e5cb5f6116100de5780638e5cb5f6146104f557806395d89b411461052557806397107d6d146105435780639de876b91461055f576101f0565b8063845a4697146104475780638462151c1461047757806388dae602146104a75780638da5cb5b146104d7576101f0565b806345b5564811610187578063685a8e7811610156578063685a8e78146103c157806370a08231146103f1578063715018a6146104215780637f8ea7da1461042b576101f0565b806345b55648146103155780634f0b47f1146103455780634f6ccce7146103615780636352211e14610391576101f0565b806318160ddd116101c357806318160ddd1461028f57806323b872dd146102ad5780632f745c59146102c957806342842e0e146102f9576101f0565b806301ffc9a7146101f557806306fdde0314610225578063081812fc14610243578063095ea7b314610273575b600080fd5b61020f600480360381019061020a9190613eff565b6106bf565b60405161021c9190614984565b60405180910390f35b61022d610739565b60405161023a919061499f565b60405180910390f35b61025d60048036038101906102589190613f92565b6107cb565b60405161026a91906148fb565b60405180910390f35b61028d60048036038101906102889190613e48565b610850565b005b610297610968565b6040516102a49190614c21565b60405180910390f35b6102c760048036038101906102c29190613d42565b610975565b005b6102e360048036038101906102de9190613e48565b6109d5565b6040516102f09190614c21565b60405180910390f35b610313600480360381019061030e9190613d42565b610a7a565b005b61032f600480360381019061032a9190613f92565b610a9a565b60405161033c9190614c21565b60405180910390f35b61035f600480360381019061035a9190613f92565b610b59565b005b61037b60048036038101906103769190613f92565b610bec565b6040516103889190614c21565b60405180910390f35b6103ab60048036038101906103a69190613f92565b610c83565b6040516103b891906148fb565b60405180910390f35b6103db60048036038101906103d69190613f92565b610d35565b6040516103e89190614c21565b60405180910390f35b61040b60048036038101906104069190613cdd565b610df4565b6040516104189190614c21565b60405180910390f35b610429610eac565b005b61044560048036038101906104409190613cdd565b610f34565b005b610461600480360381019061045c9190613f92565b611068565b60405161046e9190614c21565b60405180910390f35b610491600480360381019061048c9190613cdd565b611127565b60405161049e9190614962565b60405180910390f35b6104c160048036038101906104bc9190613f92565b6112a3565b6040516104ce9190614c21565b60405180910390f35b6104df611362565b6040516104ec91906148fb565b60405180910390f35b61050f600480360381019061050a9190613f92565b61138c565b60405161051c9190614c21565b60405180910390f35b61052d61144b565b60405161053a919061499f565b60405180910390f35b61055d60048036038101906105589190613cdd565b6114dd565b005b61057960048036038101906105749190613e84565b611619565b005b61059560048036038101906105909190613e0c565b6117f8565b005b6105b160048036038101906105ac9190613d91565b611979565b005b6105cd60048036038101906105c89190613f92565b6119db565b6040516105da919061499f565b60405180910390f35b6105fd60048036038101906105f89190613f92565b6120e3565b60405161060a9190614c21565b60405180910390f35b61062d60048036038101906106289190613f92565b6121a2565b60405161063a9190614c21565b60405180910390f35b61065d60048036038101906106589190613d06565b612261565b60405161066a9190614984565b60405180910390f35b61068d60048036038101906106889190613cdd565b6122f5565b005b6106a960048036038101906106a49190613f92565b6123ed565b6040516106b69190614c21565b60405180910390f35b60007f780e9d63000000000000000000000000000000000000000000000000000000007bffffffffffffffffffffffffffffffffffffffffffffffffffffffff1916827bffffffffffffffffffffffffffffffffffffffffffffffffffffffff191614806107325750610731826124ac565b5b9050919050565b60606000805461074890614f7f565b80601f016020809104026020016040519081016040528092919081815260200182805461077490614f7f565b80156107c15780601f10610796576101008083540402835291602001916107c1565b820191906000526020600020905b8154815290600101906020018083116107a457829003601f168201915b5050505050905090565b60006107d68261258e565b610815576040517f08c379a000000000000000000000000000000000000000000000000000000000815260040161080c90614b41565b60405180910390fd5b6004600083815260200190815260200160002060009054906101000a900473ffffffffffffffffffffffffffffffffffffffff169050919050565b600061085b82610c83565b90508073ffffffffffffffffffffffffffffffffffffffff168373ffffffffffffffffffffffffffffffffffffffff1614156108cc576040517f08c379a00000000000000000000000000000000000000000000000000000000081526004016108c390614bc1565b60405180910390fd5b8073ffffffffffffffffffffffffffffffffffffffff166108eb6125fa565b73ffffffffffffffffffffffffffffffffffffffff16148061091a5750610919816109146125fa565b612261565b5b610959576040517f08c379a000000000000000000000000000000000000000000000000000000000815260040161095090614ac1565b60405180910390fd5b6109638383612602565b505050565b6000600880549050905090565b6109866109806125fa565b826126bb565b6109c5576040517f08c379a00000000000000000000000000000000000000000000000000000000081526004016109bc90614be1565b60405180910390fd5b6109d0838383612799565b505050565b60006109e083610df4565b8210610a21576040517f08c379a0000000000000000000000000000000000000000000000000000000008152600401610a18906149c1565b60405180910390fd5b600660008473ffffffffffffffffffffffffffffffffffffffff1673ffffffffffffffffffffffffffffffffffffffff168152602001908152602001600020600083815260200190815260200160002054905092915050565b610a9583838360405180602001604052806000815250611979565b505050565b6000610b52826040518060400160405280600281526020017f24490000000000000000000000000000000000000000000000000000000000008152506010805480602002602001604051908101604052809291908181526020018280548015610b4857602002820191906000526020600020906000905b82829054906101000a900460ff1660ff1681526020019060010190602082600001049283019260010382029150808411610b115790505b50505050506129f5565b9050919050565b610b616125fa565b73ffffffffffffffffffffffffffffffffffffffff16610b8082610c83565b73ffffffffffffffffffffffffffffffffffffffff1614610ba057600080fd5b610ba981612ca1565b7fddc940af5dcef10668383e61eaf68e7e128b01a0a5fc272c887d366b188fbe9d81610bd36125fa565b604051610be1929190614c3c565b60405180910390a150565b6000610bf6610968565b8210610c37576040517f08c379a0000000000000000000000000000000000000000000000000000000008152600401610c2e90614c01565b60405180910390fd5b60088281548110610c71577f4e487b7100000000000000000000000000000000000000000000000000000000600052603260045260246000fd5b90600052602060002001549050919050565b6000806002600084815260200190815260200160002060009054906101000a900473ffffffffffffffffffffffffffffffffffffffff169050600073ffffffffffffffffffffffffffffffffffffffff168173ffffffffffffffffffffffffffffffffffffffff161415610d2c576040517f08c379a0000000000000000000000000000000000000000000000000000000008152600401610d2390614b01565b60405180910390fd5b80915050919050565b6000610ded826040518060400160405280600281526020017f24500000000000000000000000000000000000000000000000000000000000008152506010805480602002602001604051908101604052809291908181526020018280548015610de357602002820191906000526020600020906000905b82829054906101000a900460ff1660ff1681526020019060010190602082600001049283019260010382029150808411610dac5790505b50505050506129f5565b9050919050565b60008073ffffffffffffffffffffffffffffffffffffffff168273ffffffffffffffffffffffffffffffffffffffff161415610e65576040517f08c379a0000000000000000000000000000000000000000000000000000000008152600401610e5c90614ae1565b60405180910390fd5b600360008373ffffffffffffffffffffffffffffffffffffffff1673ffffffffffffffffffffffffffffffffffffffff168152602001908152602001600020549050919050565b610eb46125fa565b73ffffffffffffffffffffffffffffffffffffffff16610ed2611362565b73ffffffffffffffffffffffffffffffffffffffff1614610f28576040517f08c379a0000000000000000000000000000000000000000000000000000000008152600401610f1f90614b81565b60405180910390fd5b610f326000612db2565b565b610f3c6125fa565b73ffffffffffffffffffffffffffffffffffffffff16610f5a611362565b73ffffffffffffffffffffffffffffffffffffffff1614610fb0576040517f08c379a0000000000000000000000000000000000000000000000000000000008152600401610fa790614b81565b60405180910390fd5b80600c60008373ffffffffffffffffffffffffffffffffffffffff1673ffffffffffffffffffffffffffffffffffffffff16815260200190815260200160002060006101000a81548173ffffffffffffffffffffffffffffffffffffffff021916908373ffffffffffffffffffffffffffffffffffffffff1602179055507f7a68f36d013025b936cfcf536ded8ac09f742b930c53cab42fb42cb75340095c8160405161105d91906148fb565b60405180910390a150565b6000611120826040518060400160405280600281526020017f2459000000000000000000000000000000000000000000000000000000000000815250601080548060200260200160405190810160405280929190818152602001828054801561111657602002820191906000526020600020906000905b82829054906101000a900460ff1660ff16815260200190600101906020826000010492830192600103820291508084116110df5790505b50505050506129f5565b9050919050565b6060600061113483610df4565b905060008114156111b757600067ffffffffffffffff811115611180577f4e487b7100000000000000000000000000000000000000000000000000000000600052604160045260246000fd5b6040519080825280602002602001820160405280156111ae5781602001602082028036833780820191505090505b5091505061129e565b60008167ffffffffffffffff8111156111f9577f4e487b7100000000000000000000000000000000000000000000000000000000600052604160045260246000fd5b6040519080825280602002602001820160405280156112275781602001602082028036833780820191505090505b50905060005b828110156112975761123f85826109d5565b828281518110611278577f4e487b7100000000000000000000000000000000000000000000000000000000600052603260045260246000fd5b602002602001018181525050808061128f90614fe2565b91505061122d565b8193505050505b919050565b600061135b826040518060400160405280600281526020017f245a000000000000000000000000000000000000000000000000000000000000815250601080548060200260200160405190810160405280929190818152602001828054801561135157602002820191906000526020600020906000905b82829054906101000a900460ff1660ff168152602001906001019060208260000104928301926001038202915080841161131a5790505b50505050506129f5565b9050919050565b6000600a60009054906101000a900473ffffffffffffffffffffffffffffffffffffffff16905090565b6000611444826040518060400160405280600281526020017f2458000000000000000000000000000000000000000000000000000000000000815250601080548060200260200160405190810160405280929190818152602001828054801561143a57602002820191906000526020600020906000905b82829054906101000a900460ff1660ff16815260200190600101906020826000010492830192600103820291508084116114035790505b50505050506129f5565b9050919050565b60606001805461145a90614f7f565b80601f016020809104026020016040519081016040528092919081815260200182805461148690614f7f565b80156114d35780601f106114a8576101008083540402835291602001916114d3565b820191906000526020600020905b8154815290600101906020018083116114b657829003601f168201915b5050505050905090565b6114e56125fa565b73ffffffffffffffffffffffffffffffffffffffff16611503611362565b73ffffffffffffffffffffffffffffffffffffffff1614611559576040517f08c379a000000000000000000000000000000000000000000000000000000000815260040161155090614b81565b60405180910390fd5b8073ffffffffffffffffffffffffffffffffffffffff16600b60009054906101000a900473ffffffffffffffffffffffffffffffffffffffff1673ffffffffffffffffffffffffffffffffffffffff167f5b09f0d0a4cbf8770fd092cf5ee60221e5addb9d44f01f52b1e8c6fe34842e3f60405160405180910390a380600b60006101000a81548173ffffffffffffffffffffffffffffffffffffffff021916908373ffffffffffffffffffffffffffffffffffffffff16021790555050565b600b60009054906101000a900473ffffffffffffffffffffffffffffffffffffffff1673ffffffffffffffffffffffffffffffffffffffff163373ffffffffffffffffffffffffffffffffffffffff16146116a9576040517f08c379a00000000000000000000000000000000000000000000000000000000081526004016116a090614a01565b60405180910390fd5b6000831180156116ba5750600a8311155b6116f9576040517f08c379a00000000000000000000000000000000000000000000000000000000081526004016116f090614b61565b60405180910390fd5b60005b838110156117f15760006001611710610968565b61171a9190614db4565b90506117268682612e78565b600e60009054906101000a900473ffffffffffffffffffffffffffffffffffffffff1673ffffffffffffffffffffffffffffffffffffffff166326ea96b8828887876040518563ffffffff1660e01b81526004016117879493929190614c65565b600060405180830381600087803b1580156117a157600080fd5b505af11580156117b5573d6000803e3d6000fd5b50505050600060405180604001604052808381526020018681525090506117dc8282613046565b505080806117e990614fe2565b9150506116fc565b5050505050565b6118006125fa565b73ffffffffffffffffffffffffffffffffffffffff168273ffffffffffffffffffffffffffffffffffffffff16141561186e576040517f08c379a000000000000000000000000000000000000000000000000000000000815260040161186590614a81565b60405180910390fd5b806005600061187b6125fa565b73ffffffffffffffffffffffffffffffffffffffff1673ffffffffffffffffffffffffffffffffffffffff16815260200190815260200160002060008473ffffffffffffffffffffffffffffffffffffffff1673ffffffffffffffffffffffffffffffffffffffff16815260200190815260200160002060006101000a81548160ff0219169083151502179055508173ffffffffffffffffffffffffffffffffffffffff166119286125fa565b73ffffffffffffffffffffffffffffffffffffffff167f17307eab39ab6107e8899845ad3d59bd9653f200f220920489ca2b5937696c318360405161196d9190614984565b60405180910390a35050565b61198a6119846125fa565b836126bb565b6119c9576040517f08c379a00000000000000000000000000000000000000000000000000000000081526004016119c090614be1565b60405180910390fd5b6119d584848484613075565b50505050565b60606119e5613b14565b6000600f60008581526020019081526020016000206001015490506000600e60009054906101000a900473ffffffffffffffffffffffffffffffffffffffff1673ffffffffffffffffffffffffffffffffffffffff16634c1b2f2e836040518263ffffffff1660e01b8152600401611a5d9190614c21565b60006040518083038186803b158015611a7557600080fd5b505afa158015611a89573d6000803e3d6000fd5b505050506040513d6000823e3d601f19601f82011682018060405250810190611ab29190613f51565b9050611ac5611ac08661138c565b6130d1565b604051602001611ad591906146f9565b60405160208183030381529060405283600060088110611b1e577f4e487b7100000000000000000000000000000000000000000000000000000000600052603260045260246000fd5b6020020181905250611b37611b3286611068565b6130d1565b604051602001611b4791906147ad565b60405160208183030381529060405283600160088110611b90577f4e487b7100000000000000000000000000000000000000000000000000000000600052603260045260246000fd5b6020020181905250611ba9611ba4866112a3565b6130d1565b604051602001611bb99190614726565b60405160208183030381529060405283600260088110611c02577f4e487b7100000000000000000000000000000000000000000000000000000000600052603260045260246000fd5b6020020181905250611c1b611c16866123ed565b6130d1565b604051602001611c2b9190614753565b60405160208183030381529060405283600360088110611c74577f4e487b7100000000000000000000000000000000000000000000000000000000600052603260045260246000fd5b6020020181905250611c8d611c88866120e3565b6130d1565b604051602001611c9d9190614780565b60405160208183030381529060405283600460088110611ce6577f4e487b7100000000000000000000000000000000000000000000000000000000600052603260045260246000fd5b6020020181905250611cff611cfa866121a2565b6130d1565b604051602001611d0f91906148ce565b60405160208183030381529060405283600560088110611d58577f4e487b7100000000000000000000000000000000000000000000000000000000600052603260045260246000fd5b6020020181905250611d71611d6c86610a9a565b6130d1565b604051602001611d8191906146cc565b60405160208183030381529060405283600660088110611dca577f4e487b7100000000000000000000000000000000000000000000000000000000600052603260045260246000fd5b6020020181905250611de3611dde86610d35565b6130d1565b604051602001611df3919061487f565b60405160208183030381529060405283600760088110611e3c577f4e487b7100000000000000000000000000000000000000000000000000000000600052603260045260246000fd5b6020020181905250600083600060088110611e80577f4e487b7100000000000000000000000000000000000000000000000000000000600052603260045260246000fd5b602002015184600160088110611ebf577f4e487b7100000000000000000000000000000000000000000000000000000000600052603260045260246000fd5b602002015185600260088110611efe577f4e487b7100000000000000000000000000000000000000000000000000000000600052603260045260246000fd5b602002015186600360088110611f3d577f4e487b7100000000000000000000000000000000000000000000000000000000600052603260045260246000fd5b602002015187600460088110611f7c577f4e487b7100000000000000000000000000000000000000000000000000000000600052603260045260246000fd5b602002015188600560088110611fbb577f4e487b7100000000000000000000000000000000000000000000000000000000600052603260045260246000fd5b602002015189600660088110611ffa577f4e487b7100000000000000000000000000000000000000000000000000000000600052603260045260246000fd5b60200201518a600760088110612039577f4e487b7100000000000000000000000000000000000000000000000000000000600052603260045260246000fd5b602002015160405160200161205598979695949392919061465a565b604051602081830303815290604052905060006120b2612074886130d1565b8461207e8a6130d1565b866120888c6130d1565b8760405160200161209e969594939291906147da565b60405160208183030381529060405261327e565b9050806040516020016120c591906148ac565b60405160208183030381529060405291508195505050505050919050565b600061219b826040518060400160405280600281526020017f244f000000000000000000000000000000000000000000000000000000000000815250601080548060200260200160405190810160405280929190818152602001828054801561219157602002820191906000526020600020906000905b82829054906101000a900460ff1660ff168152602001906001019060208260000104928301926001038202915080841161215a5790505b50505050506129f5565b9050919050565b600061225a826040518060400160405280600281526020017f2452000000000000000000000000000000000000000000000000000000000000815250601080548060200260200160405190810160405280929190818152602001828054801561225057602002820191906000526020600020906000905b82829054906101000a900460ff1660ff16815260200190600101906020826000010492830192600103820291508084116122195790505b50505050506129f5565b9050919050565b6000600560008473ffffffffffffffffffffffffffffffffffffffff1673ffffffffffffffffffffffffffffffffffffffff16815260200190815260200160002060008373ffffffffffffffffffffffffffffffffffffffff1673ffffffffffffffffffffffffffffffffffffffff16815260200190815260200160002060009054906101000a900460ff16905092915050565b6122fd6125fa565b73ffffffffffffffffffffffffffffffffffffffff1661231b611362565b73ffffffffffffffffffffffffffffffffffffffff1614612371576040517f08c379a000000000000000000000000000000000000000000000000000000000815260040161236890614b81565b60405180910390fd5b600073ffffffffffffffffffffffffffffffffffffffff168173ffffffffffffffffffffffffffffffffffffffff1614156123e1576040517f08c379a00000000000000000000000000000000000000000000000000000000081526004016123d890614a21565b60405180910390fd5b6123ea81612db2565b50565b60006124a5826040518060400160405280600281526020017f2443000000000000000000000000000000000000000000000000000000000000815250601080548060200260200160405190810160405280929190818152602001828054801561249b57602002820191906000526020600020906000905b82829054906101000a900460ff1660ff16815260200190600101906020826000010492830192600103820291508084116124645790505b50505050506129f5565b9050919050565b60007f80ac58cd000000000000000000000000000000000000000000000000000000007bffffffffffffffffffffffffffffffffffffffffffffffffffffffff1916827bffffffffffffffffffffffffffffffffffffffffffffffffffffffff1916148061257757507f5b5e139f000000000000000000000000000000000000000000000000000000007bffffffffffffffffffffffffffffffffffffffffffffffffffffffff1916827bffffffffffffffffffffffffffffffffffffffffffffffffffffffff1916145b8061258757506125868261343c565b5b9050919050565b60008073ffffffffffffffffffffffffffffffffffffffff166002600084815260200190815260200160002060009054906101000a900473ffffffffffffffffffffffffffffffffffffffff1673ffffffffffffffffffffffffffffffffffffffff1614159050919050565b600033905090565b816004600083815260200190815260200160002060006101000a81548173ffffffffffffffffffffffffffffffffffffffff021916908373ffffffffffffffffffffffffffffffffffffffff160217905550808273ffffffffffffffffffffffffffffffffffffffff1661267583610c83565b73ffffffffffffffffffffffffffffffffffffffff167f8c5be1e5ebec7d5bd14f71427d1e84f3dd0314c0f7b2291e5b200ac8c7c3b92560405160405180910390a45050565b60006126c68261258e565b612705576040517f08c379a00000000000000000000000000000000000000000000000000000000081526004016126fc90614aa1565b60405180910390fd5b600061271083610c83565b90508073ffffffffffffffffffffffffffffffffffffffff168473ffffffffffffffffffffffffffffffffffffffff16148061277f57508373ffffffffffffffffffffffffffffffffffffffff16612767846107cb565b73ffffffffffffffffffffffffffffffffffffffff16145b80612790575061278f8185612261565b5b91505092915050565b8273ffffffffffffffffffffffffffffffffffffffff166127b982610c83565b73ffffffffffffffffffffffffffffffffffffffff161461280f576040517f08c379a000000000000000000000000000000000000000000000000000000000815260040161280690614ba1565b60405180910390fd5b600073ffffffffffffffffffffffffffffffffffffffff168273ffffffffffffffffffffffffffffffffffffffff16141561287f576040517f08c379a000000000000000000000000000000000000000000000000000000000815260040161287690614a61565b60405180910390fd5b61288a8383836134a6565b612895600082612602565b6001600360008573ffffffffffffffffffffffffffffffffffffffff1673ffffffffffffffffffffffffffffffffffffffff16815260200190815260200160002060008282546128e59190614e95565b925050819055506001600360008473ffffffffffffffffffffffffffffffffffffffff1673ffffffffffffffffffffffffffffffffffffffff168152602001908152602001600020600082825461293c9190614db4565b92505081905550816002600083815260200190815260200160002060006101000a81548173ffffffffffffffffffffffffffffffffffffffff021916908373ffffffffffffffffffffffffffffffffffffffff160217905550808273ffffffffffffffffffffffffffffffffffffffff168473ffffffffffffffffffffffffffffffffffffffff167fddf252ad1be2c89b69c2b068fc378daa952ba7f163c4a11628f55a4df523b3ef60405160405180910390a4505050565b600080612a2a84612a05876130d1565b604051602001612a16929190614636565b6040516020818303038152906040526135ba565b9050600083845183612a3c919061502b565b81518110612a73577f4e487b7100000000000000000000000000000000000000000000000000000000600052603260045260246000fd5b602002602001015160ff1690506000601583612a8f919061502b565b9050600e811115612b14576012808054905084612aac919061502b565b81548110612ae3577f4e487b7100000000000000000000000000000000000000000000000000000000600052603260045260246000fd5b90600052602060002090602091828204019190069054906101000a900460ff1660ff1682612b119190614db4565b91505b60138110612c94576013811415612c19576012808054905084612b37919061502b565b81548110612b6e577f4e487b7100000000000000000000000000000000000000000000000000000000600052603260045260246000fd5b90600052602060002090602091828204019190069054906101000a900460ff1660ff166011808054905085612ba3919061502b565b81548110612bda577f4e487b7100000000000000000000000000000000000000000000000000000000600052603260045260246000fd5b90600052602060002090602091828204019190069054906101000a900460ff1660ff1683612c089190614e3b565b612c129190614db4565b9150612c93565b6011808054905084612c2b919061502b565b81548110612c62577f4e487b7100000000000000000000000000000000000000000000000000000000600052603260045260246000fd5b90600052602060002090602091828204019190069054906101000a900460ff1660ff1682612c909190614e3b565b91505b5b8193505050509392505050565b6000612cac82610c83565b9050612cba816000846134a6565b612cc5600083612602565b6001600360008373ffffffffffffffffffffffffffffffffffffffff1673ffffffffffffffffffffffffffffffffffffffff1681526020019081526020016000206000828254612d159190614e95565b925050819055506002600083815260200190815260200160002060006101000a81549073ffffffffffffffffffffffffffffffffffffffff021916905581600073ffffffffffffffffffffffffffffffffffffffff168273ffffffffffffffffffffffffffffffffffffffff167fddf252ad1be2c89b69c2b068fc378daa952ba7f163c4a11628f55a4df523b3ef60405160405180910390a45050565b6000600a60009054906101000a900473ffffffffffffffffffffffffffffffffffffffff16905081600a60006101000a81548173ffffffffffffffffffffffffffffffffffffffff021916908373ffffffffffffffffffffffffffffffffffffffff1602179055508173ffffffffffffffffffffffffffffffffffffffff168173ffffffffffffffffffffffffffffffffffffffff167f8be0079c531659141344cd1fd0a4f28419497f9722a3daafe3b4186f6b6457e060405160405180910390a35050565b600073ffffffffffffffffffffffffffffffffffffffff168273ffffffffffffffffffffffffffffffffffffffff161415612ee8576040517f08c379a0000000000000000000000000000000000000000000000000000000008152600401612edf90614b21565b60405180910390fd5b612ef18161258e565b15612f31576040517f08c379a0000000000000000000000000000000000000000000000000000000008152600401612f2890614a41565b60405180910390fd5b612f3d600083836134a6565b6001600360008473ffffffffffffffffffffffffffffffffffffffff1673ffffffffffffffffffffffffffffffffffffffff1681526020019081526020016000206000828254612f8d9190614db4565b92505081905550816002600083815260200190815260200160002060006101000a81548173ffffffffffffffffffffffffffffffffffffffff021916908373ffffffffffffffffffffffffffffffffffffffff160217905550808273ffffffffffffffffffffffffffffffffffffffff16600073ffffffffffffffffffffffffffffffffffffffff167fddf252ad1be2c89b69c2b068fc378daa952ba7f163c4a11628f55a4df523b3ef60405160405180910390a45050565b80600f600084815260200190815260200160002060008201518160000155602082015181600101559050505050565b613080848484612799565b61308c848484846135ed565b6130cb576040517f08c379a00000000000000000000000000000000000000000000000000000000081526004016130c2906149e1565b60405180910390fd5b50505050565b60606000821415613119576040518060400160405280600181526020017f30000000000000000000000000000000000000000000000000000000000000008152509050613279565b600082905060005b6000821461314b57808061313490614fe2565b915050600a826131449190614e0a565b9150613121565b60008167ffffffffffffffff81111561318d577f4e487b7100000000000000000000000000000000000000000000000000000000600052604160045260246000fd5b6040519080825280601f01601f1916602001820160405280156131bf5781602001600182028036833780820191505090505b5090505b60008514613272576001826131d89190614e95565b9150600a856131e7919061502b565b60306131f39190614db4565b60f81b81838151811061322f577f4e487b7100000000000000000000000000000000000000000000000000000000600052603260045260246000fd5b60200101907effffffffffffffffffffffffffffffffffffffffffffffffffffffffffffff1916908160001a905350600a8561326b9190614e0a565b94506131c3565b8093505050505b919050565b606060008251905060008114156132a75760405180602001604052806000815250915050613437565b600060036002836132b89190614db4565b6132c29190614e0a565b60046132ce9190614e3b565b905060006020826132df9190614db4565b67ffffffffffffffff81111561331e577f4e487b7100000000000000000000000000000000000000000000000000000000600052604160045260246000fd5b6040519080825280601f01601f1916602001820160405280156133505781602001600182028036833780820191505090505b50905060006040518060600160405280604081526020016159f9604091399050600181016020830160005b868110156133f45760038101905062ffffff818a015116603f8160121c168401518060081b905060ff603f83600c1c1686015116810190508060081b905060ff603f8360061c1686015116810190508060081b905060ff603f831686015116810190508060e01b9050808452600484019350505061337b565b50600386066001811461340e576002811461341e57613429565b613d3d60f01b6002830352613429565b603d60f81b60018303525b508484525050819450505050505b919050565b60007f01ffc9a7000000000000000000000000000000000000000000000000000000007bffffffffffffffffffffffffffffffffffffffffffffffffffffffff1916827bffffffffffffffffffffffffffffffffffffffffffffffffffffffff1916149050919050565b6134b1838383613784565b600073ffffffffffffffffffffffffffffffffffffffff168373ffffffffffffffffffffffffffffffffffffffff1614156134f4576134ef81613789565b613533565b8173ffffffffffffffffffffffffffffffffffffffff168373ffffffffffffffffffffffffffffffffffffffff16146135325761353183826137d2565b5b5b600073ffffffffffffffffffffffffffffffffffffffff168273ffffffffffffffffffffffffffffffffffffffff161415613576576135718161393f565b6135b5565b8273ffffffffffffffffffffffffffffffffffffffff168273ffffffffffffffffffffffffffffffffffffffff16146135b4576135b38282613a82565b5b5b505050565b6000816040516020016135cd919061461f565b6040516020818303038152906040528051906020012060001c9050919050565b600061360e8473ffffffffffffffffffffffffffffffffffffffff16613b01565b15613777578373ffffffffffffffffffffffffffffffffffffffff1663150b7a026136376125fa565b8786866040518563ffffffff1660e01b81526004016136599493929190614916565b602060405180830381600087803b15801561367357600080fd5b505af19250505080156136a457506040513d601f19601f820116820180604052508101906136a19190613f28565b60015b613727573d80600081146136d4576040519150601f19603f3d011682016040523d82523d6000602084013e6136d9565b606091505b5060008151141561371f576040517f08c379a0000000000000000000000000000000000000000000000000000000008152600401613716906149e1565b60405180910390fd5b805181602001fd5b63150b7a0260e01b7bffffffffffffffffffffffffffffffffffffffffffffffffffffffff1916817bffffffffffffffffffffffffffffffffffffffffffffffffffffffff19161491505061377c565b600190505b949350505050565b505050565b6008805490506009600083815260200190815260200160002081905550600881908060018154018082558091505060019003906000526020600020016000909190919091505550565b600060016137df84610df4565b6137e99190614e95565b90506000600760008481526020019081526020016000205490508181146138ce576000600660008673ffffffffffffffffffffffffffffffffffffffff1673ffffffffffffffffffffffffffffffffffffffff168152602001908152602001600020600084815260200190815260200160002054905080600660008773ffffffffffffffffffffffffffffffffffffffff1673ffffffffffffffffffffffffffffffffffffffff168152602001908152602001600020600084815260200190815260200160002081905550816007600083815260200190815260200160002081905550505b6007600084815260200190815260200160002060009055600660008573ffffffffffffffffffffffffffffffffffffffff1673ffffffffffffffffffffffffffffffffffffffff16815260200190815260200160002060008381526020019081526020016000206000905550505050565b600060016008805490506139539190614e95565b90506000600960008481526020019081526020016000205490506000600883815481106139a9577f4e487b7100000000000000000000000000000000000000000000000000000000600052603260045260246000fd5b9060005260206000200154905080600883815481106139f1577f4e487b7100000000000000000000000000000000000000000000000000000000600052603260045260246000fd5b906000526020600020018190555081600960008381526020019081526020016000208190555060096000858152602001908152602001600020600090556008805480613a66577f4e487b7100000000000000000000000000000000000000000000000000000000600052603160045260246000fd5b6001900381819060005260206000200160009055905550505050565b6000613a8d83610df4565b905081600660008573ffffffffffffffffffffffffffffffffffffffff1673ffffffffffffffffffffffffffffffffffffffff168152602001908152602001600020600083815260200190815260200160002081905550806007600084815260200190815260200160002081905550505050565b600080823b905060008111915050919050565b6040518061010001604052806008905b6060815260200190600190039081613b245790505090565b6000613b4f613b4a84614cd6565b614cb1565b905082815260208101848484011115613b6757600080fd5b613b72848285614f3d565b509392505050565b6000613b8d613b8884614d07565b614cb1565b905082815260208101848484011115613ba557600080fd5b613bb0848285614f3d565b509392505050565b6000613bcb613bc684614d07565b614cb1565b905082815260208101848484011115613be357600080fd5b613bee848285614f4c565b509392505050565b600081359050613c058161599c565b92915050565b600081359050613c1a816159b3565b92915050565b600081359050613c2f816159ca565b92915050565b600081519050613c44816159ca565b92915050565b600082601f830112613c5b57600080fd5b8135613c6b848260208601613b3c565b91505092915050565b600082601f830112613c8557600080fd5b8135613c95848260208601613b7a565b91505092915050565b600082601f830112613caf57600080fd5b8151613cbf848260208601613bb8565b91505092915050565b600081359050613cd7816159e1565b92915050565b600060208284031215613cef57600080fd5b6000613cfd84828501613bf6565b91505092915050565b60008060408385031215613d1957600080fd5b6000613d2785828601613bf6565b9250506020613d3885828601613bf6565b9150509250929050565b600080600060608486031215613d5757600080fd5b6000613d6586828701613bf6565b9350506020613d7686828701613bf6565b9250506040613d8786828701613cc8565b9150509250925092565b60008060008060808587031215613da757600080fd5b6000613db587828801613bf6565b9450506020613dc687828801613bf6565b9350506040613dd787828801613cc8565b925050606085013567ffffffffffffffff811115613df457600080fd5b613e0087828801613c4a565b91505092959194509250565b60008060408385031215613e1f57600080fd5b6000613e2d85828601613bf6565b9250506020613e3e85828601613c0b565b9150509250929050565b60008060408385031215613e5b57600080fd5b6000613e6985828601613bf6565b9250506020613e7a85828601613cc8565b9150509250929050565b60008060008060808587031215613e9a57600080fd5b6000613ea887828801613bf6565b9450506020613eb987828801613cc8565b9350506040613eca87828801613cc8565b925050606085013567ffffffffffffffff811115613ee757600080fd5b613ef387828801613c74565b91505092959194509250565b600060208284031215613f1157600080fd5b6000613f1f84828501613c20565b91505092915050565b600060208284031215613f3a57600080fd5b6000613f4884828501613c35565b91505092915050565b600060208284031215613f6357600080fd5b600082015167ffffffffffffffff811115613f7d57600080fd5b613f8984828501613c9e565b91505092915050565b600060208284031215613fa457600080fd5b6000613fb284828501613cc8565b91505092915050565b6000613fc78383614601565b60208301905092915050565b613fdc81614ec9565b82525050565b6000613fed82614d48565b613ff78185614d76565b935061400283614d38565b8060005b8381101561403357815161401a8882613fbb565b975061402583614d69565b925050600181019050614006565b5085935050505092915050565b61404981614edb565b82525050565b600061405a82614d53565b6140648185614d87565b9350614074818560208601614f4c565b61407d81615118565b840191505092915050565b600061409382614d5e565b61409d8185614d98565b93506140ad818560208601614f4c565b6140b681615118565b840191505092915050565b60006140cc82614d5e565b6140d68185614da9565b93506140e6818560208601614f4c565b80840191505092915050565b60006140ff601e83614da9565b915061410a82615129565b601e82019050919050565b6000614122602b83614d98565b915061412d82615152565b604082019050919050565b6000614145603283614d98565b9150614150826151a1565b604082019050919050565b6000614168602e83614d98565b9150614173826151f0565b604082019050919050565b600061418b602683614d98565b91506141968261523f565b604082019050919050565b60006141ae601e83614da9565b91506141b98261528e565b601e82019050919050565b60006141d1603483614da9565b91506141dc826152b7565b603482019050919050565b60006141f4601c83614d98565b91506141ff82615306565b602082019050919050565b6000614217600383614da9565b91506142228261532f565b600382019050919050565b600061423a601e83614da9565b915061424582615358565b601e82019050919050565b600061425d602483614d98565b915061426882615381565b604082019050919050565b6000614280601983614d98565b915061428b826153d0565b602082019050919050565b60006142a3601e83614da9565b91506142ae826153f9565b601e82019050919050565b60006142c6602c83614d98565b91506142d182615422565b604082019050919050565b60006142e9600283614da9565b91506142f482615471565b600282019050919050565b600061430c603883614d98565b91506143178261549a565b604082019050919050565b600061432f602a83614d98565b915061433a826154e9565b604082019050919050565b6000614352602983614d98565b915061435d82615538565b604082019050919050565b6000614375601e83614da9565b915061438082615587565b601e82019050919050565b6000614398601e83614da9565b91506143a3826155b0565b601e82019050919050565b60006143bb600283614da9565b91506143c6826155d9565b600282019050919050565b60006143de602083614d98565b91506143e982615602565b602082019050919050565b6000614401600d83614da9565b915061440c8261562b565b600d82019050919050565b6000614424602c83614d98565b915061442f82615654565b604082019050919050565b6000614447604783614d98565b9150614452826156a3565b606082019050919050565b600061446a602083614d98565b915061447582615718565b602082019050919050565b600061448d602983614d98565b915061449882615741565b604082019050919050565b60006144b0601283614da9565b91506144bb82615790565b601282019050919050565b60006144d3600283614da9565b91506144de826157b9565b600282019050919050565b60006144f6602183614d98565b9150614501826157e2565b604082019050919050565b6000614519601e83614da9565b915061452482615831565b601e82019050919050565b600061453c601d83614da9565b91506145478261585a565b601d82019050919050565b600061455f601e83614da9565b915061456a82615883565b601e82019050919050565b6000614582603183614d98565b915061458d826158ac565b604082019050919050565b60006145a5600283614da9565b91506145b0826158fb565b600282019050919050565b60006145c8602c83614d98565b91506145d382615924565b604082019050919050565b60006145eb601583614da9565b91506145f682615973565b601582019050919050565b61460a81614f33565b82525050565b61461981614f33565b82525050565b600061462b82846140c1565b915081905092915050565b600061464282856140c1565b915061464e82846140c1565b91508190509392505050565b6000614666828b6140c1565b9150614672828a6140c1565b915061467e82896140c1565b915061468a82886140c1565b915061469682876140c1565b91506146a282866140c1565b91506146ae82856140c1565b91506146ba82846140c1565b91508190509998505050505050505050565b60006146d7826140f2565b91506146e382846140c1565b91506146ee8261420a565b915081905092915050565b6000614704826141a1565b915061471082846140c1565b915061471b8261420a565b915081905092915050565b60006147318261422d565b915061473d82846140c1565b91506147488261420a565b915081905092915050565b600061475e82614296565b915061476a82846140c1565b91506147758261420a565b915081905092915050565b600061478b82614368565b915061479782846140c1565b91506147a28261420a565b915081905092915050565b60006147b88261438b565b91506147c482846140c1565b91506147cf8261420a565b915081905092915050565b60006147e5826144a3565b91506147f182896140c1565b91506147fc826143f4565b915061480882886140c1565b915061481382614598565b915061481f82876140c1565b915061482a826145de565b915061483682866140c1565b9150614841826142dc565b915061484d82856140c1565b9150614858826141c4565b915061486482846140c1565b915061486f826144c6565b9150819050979650505050505050565b600061488a8261450c565b915061489682846140c1565b91506148a1826143ae565b915081905092915050565b60006148b78261452f565b91506148c382846140c1565b915081905092915050565b60006148d982614552565b91506148e582846140c1565b91506148f08261420a565b915081905092915050565b60006020820190506149106000830184613fd3565b92915050565b600060808201905061492b6000830187613fd3565b6149386020830186613fd3565b6149456040830185614610565b8181036060830152614957818461404f565b905095945050505050565b6000602082019050818103600083015261497c8184613fe2565b905092915050565b60006020820190506149996000830184614040565b92915050565b600060208201905081810360008301526149b98184614088565b905092915050565b600060208201905081810360008301526149da81614115565b9050919050565b600060208201905081810360008301526149fa81614138565b9050919050565b60006020820190508181036000830152614a1a8161415b565b9050919050565b60006020820190508181036000830152614a3a8161417e565b9050919050565b60006020820190508181036000830152614a5a816141e7565b9050919050565b60006020820190508181036000830152614a7a81614250565b9050919050565b60006020820190508181036000830152614a9a81614273565b9050919050565b60006020820190508181036000830152614aba816142b9565b9050919050565b60006020820190508181036000830152614ada816142ff565b9050919050565b60006020820190508181036000830152614afa81614322565b9050919050565b60006020820190508181036000830152614b1a81614345565b9050919050565b60006020820190508181036000830152614b3a816143d1565b9050919050565b60006020820190508181036000830152614b5a81614417565b9050919050565b60006020820190508181036000830152614b7a8161443a565b9050919050565b60006020820190508181036000830152614b9a8161445d565b9050919050565b60006020820190508181036000830152614bba81614480565b9050919050565b60006020820190508181036000830152614bda816144e9565b9050919050565b60006020820190508181036000830152614bfa81614575565b9050919050565b60006020820190508181036000830152614c1a816145bb565b9050919050565b6000602082019050614c366000830184614610565b92915050565b6000604082019050614c516000830185614610565b614c5e6020830184613fd3565b9392505050565b6000608082019050614c7a6000830187614610565b614c876020830186613fd3565b614c946040830185614610565b8181036060830152614ca68184614088565b905095945050505050565b6000614cbb614ccc565b9050614cc78282614fb1565b919050565b6000604051905090565b600067ffffffffffffffff821115614cf157614cf06150e9565b5b614cfa82615118565b9050602081019050919050565b600067ffffffffffffffff821115614d2257614d216150e9565b5b614d2b82615118565b9050602081019050919050565b6000819050602082019050919050565b600081519050919050565b600081519050919050565b600081519050919050565b6000602082019050919050565b600082825260208201905092915050565b600082825260208201905092915050565b600082825260208201905092915050565b600081905092915050565b6000614dbf82614f33565b9150614dca83614f33565b9250827fffffffffffffffffffffffffffffffffffffffffffffffffffffffffffffffff03821115614dff57614dfe61505c565b5b828201905092915050565b6000614e1582614f33565b9150614e2083614f33565b925082614e3057614e2f61508b565b5b828204905092915050565b6000614e4682614f33565b9150614e5183614f33565b9250817fffffffffffffffffffffffffffffffffffffffffffffffffffffffffffffffff0483118215151615614e8a57614e8961505c565b5b828202905092915050565b6000614ea082614f33565b9150614eab83614f33565b925082821015614ebe57614ebd61505c565b5b828203905092915050565b6000614ed482614f13565b9050919050565b60008115159050919050565b60007fffffffff0000000000000000000000000000000000000000000000000000000082169050919050565b600073ffffffffffffffffffffffffffffffffffffffff82169050919050565b6000819050919050565b82818337600083830152505050565b60005b83811015614f6a578082015181840152602081019050614f4f565b83811115614f79576000848401525b50505050565b60006002820490506001821680614f9757607f821691505b60208210811415614fab57614faa6150ba565b5b50919050565b614fba82615118565b810181811067ffffffffffffffff82111715614fd957614fd86150e9565b5b80604052505050565b6000614fed82614f33565b91507fffffffffffffffffffffffffffffffffffffffffffffffffffffffffffffffff8214156150205761501f61505c565b5b600182019050919050565b600061503682614f33565b915061504183614f33565b9250826150515761505061508b565b5b828206905092915050565b7f4e487b7100000000000000000000000000000000000000000000000000000000600052601160045260246000fd5b7f4e487b7100000000000000000000000000000000000000000000000000000000600052601260045260246000fd5b7f4e487b7100000000000000000000000000000000000000000000000000000000600052602260045260246000fd5b7f4e487b7100000000000000000000000000000000000000000000000000000000600052604160045260246000fd5b6000601f19601f8301169050919050565b7f7b2274726169745f74797065223a202249222c202276616c7565223a20220000600082015250565b7f455243373231456e756d657261626c653a206f776e657220696e646578206f7560008201527f74206f6620626f756e6473000000000000000000000000000000000000000000602082015250565b7f4552433732313a207472616e7366657220746f206e6f6e20455243373231526560008201527f63656976657220696d706c656d656e7465720000000000000000000000000000602082015250565b7f4f6e6c792047656e6573697320466163746f727920697320616c6c6f7765642060008201527f746f206d696e7420746f6b656e73000000000000000000000000000000000000602082015250565b7f4f776e61626c653a206e6577206f776e657220697320746865207a65726f206160008201527f6464726573730000000000000000000000000000000000000000000000000000602082015250565b7f7b2274726169745f74797065223a202258222c202276616c7565223a20220000600082015250565b7f222c20226465736372697074696f6e223a2022436f646572204d65746170617360008201527f732e222c202261747472696275746573223a205b000000000000000000000000602082015250565b7f4552433732313a20746f6b656e20616c7265616479206d696e74656400000000600082015250565b7f227d2c0000000000000000000000000000000000000000000000000000000000600082015250565b7f7b2274726169745f74797065223a20225a222c202276616c7565223a20220000600082015250565b7f4552433732313a207472616e7366657220746f20746865207a65726f2061646460008201527f7265737300000000000000000000000000000000000000000000000000000000602082015250565b7f4552433732313a20617070726f766520746f2063616c6c657200000000000000600082015250565b7f7b2274726169745f74797065223a202243222c202276616c7565223a20220000600082015250565b7f4552433732313a206f70657261746f7220717565727920666f72206e6f6e657860008201527f697374656e7420746f6b656e0000000000000000000000000000000000000000602082015250565b7f612f000000000000000000000000000000000000000000000000000000000000600082015250565b7f4552433732313a20617070726f76652063616c6c6572206973206e6f74206f7760008201527f6e6572206e6f7220617070726f76656420666f7220616c6c0000000000000000602082015250565b7f4552433732313a2062616c616e636520717565727920666f7220746865207a6560008201527f726f206164647265737300000000000000000000000000000000000000000000602082015250565b7f4552433732313a206f776e657220717565727920666f72206e6f6e657869737460008201527f656e7420746f6b656e0000000000000000000000000000000000000000000000602082015250565b7f7b2274726169745f74797065223a20224f222c202276616c7565223a20220000600082015250565b7f7b2274726169745f74797065223a202259222c202276616c7565223a20220000600082015250565b7f227d000000000000000000000000000000000000000000000000000000000000600082015250565b7f4552433732313a206d696e7420746f20746865207a65726f2061646472657373600082015250565b7f222c2022696d616765223a202200000000000000000000000000000000000000600082015250565b7f4552433732313a20617070726f76656420717565727920666f72206e6f6e657860008201527f697374656e7420746f6b656e0000000000000000000000000000000000000000602082015250565b7f596f752063616e20627579206e6f206c657373207468616e20312c20616e642060008201527f6e6f206d6f7265207468616e2031302024434f4445522070617373657320617460208201527f20612074696d6500000000000000000000000000000000000000000000000000604082015250565b7f4f776e61626c653a2063616c6c6572206973206e6f7420746865206f776e6572600082015250565b7f4552433732313a207472616e73666572206f6620746f6b656e2074686174206960008201527f73206e6f74206f776e0000000000000000000000000000000000000000000000602082015250565b7f7b226e616d65223a202224434f44455220230000000000000000000000000000600082015250565b7f5d7d000000000000000000000000000000000000000000000000000000000000600082015250565b7f4552433732313a20617070726f76616c20746f2063757272656e74206f776e6560008201527f7200000000000000000000000000000000000000000000000000000000000000602082015250565b7f7b2274726169745f74797065223a202250222c202276616c7565223a20220000600082015250565b7f646174613a6170706c69636174696f6e2f6a736f6e3b6261736536342c000000600082015250565b7f7b2274726169745f74797065223a202252222c202276616c7565223a20220000600082015250565b7f4552433732313a207472616e736665722063616c6c6572206973206e6f74206f60008201527f776e6572206e6f7220617070726f766564000000000000000000000000000000602082015250565b7f692f000000000000000000000000000000000000000000000000000000000000600082015250565b7f455243373231456e756d657261626c653a20676c6f62616c20696e646578206f60008201527f7574206f6620626f756e64730000000000000000000000000000000000000000602082015250565b7f222c2022616e696d6174696f6e5f75726c223a20220000000000000000000000600082015250565b6159a581614ec9565b81146159b057600080fd5b50565b6159bc81614edb565b81146159c757600080fd5b50565b6159d381614ee7565b81146159de57600080fd5b50565b6159ea81614f33565b81146159f557600080fd5b5056fe4142434445464748494a4b4c4d4e4f505152535455565758595a6162636465666768696a6b6c6d6e6f707172737475767778797a303132333435363738392b2fa2646970667358221220d7b1bf709d353aa78e124750106a926aed532f72ac2a19e50fad1690804409b264736f6c63430008040033",
  "immutableReferences": {},
  "source": "// CODER\n// SPDX-License-Identifier: MIT\n\npragma solidity ^0.8.0;\npragma experimental ABIEncoderV2;\n\n// import 'hardhat/console.sol';\n// import 'https://github.com/OpenZeppelin/openzeppelin-contracts/blob/master/contracts/token/ERC721/extensions/ERC721Enumerable.sol';\n// import 'https://github.com/OpenZeppelin/openzeppelin-contracts/blob/master/contracts/utils/math/SafeMath.sol';\n// import 'https://github.com/OpenZeppelin/openzeppelin-contracts/blob/master/contracts/access/Ownable.sol';\n\nimport '../node_modules/@openzeppelin/contracts/token/ERC721/extensions/ERC721Enumerable.sol';\nimport '../node_modules/@openzeppelin/contracts/access/Ownable.sol';\nimport '../node_modules/@openzeppelin/contracts/utils/math/SafeMath.sol';\n\nimport './Proxy.sol';\nimport './GenesisCart.sol';\n\ncontract addOnContract is ERC721Enumerable, Ownable, Proxy {\n  using SafeMath for uint256;\n  using SafeMath for uint8;\n  address proxyAddr;\n\n  struct SoldMeta {\n    uint256 tokenId;\n    uint256 productId;\n  }\n\n  GenesisCart cartInstance;\n\n  mapping(uint256 => SoldMeta) private _soldProducts;\n\n  event ProductBurned_cartArt_coder(uint256 productId, address _ownerAddress);\n\n  constructor(address _proxyAddr) public ERC721('Coder', 'LOOK LABS') {\n    cartInstance = GenesisCart(_proxyAddr);\n    setProxy(_proxyAddr);\n  }\n\n  uint8[] private units = [\n    1,\n    2,\n    3,\n    4,\n    5,\n    6,\n    7,\n    8,\n    9,\n    1,\n    2,\n    3,\n    4,\n    5,\n    6,\n    7,\n    8,\n    9,\n    1,\n    2,\n    3,\n    4,\n    5,\n    6,\n    7,\n    8,\n    9,\n    1,\n    2,\n    3,\n    4,\n    5,\n    6,\n    7,\n    8,\n    9,\n    10\n  ];\n\n  uint8[] private multipliers = [\n    1,\n    1,\n    1,\n    1,\n    1,\n    1,\n    1,\n    1,\n    1,\n    1,\n    1,\n    1,\n    1,\n    1,\n    1,\n    1,\n    1,\n    1,\n    1,\n    1,\n    1,\n    1,\n    1,\n    1,\n    1,\n    1,\n    1,\n    1,\n    1,\n    1,\n    1,\n    1,\n    1,\n    1,\n    1,\n    1,\n    1,\n    1,\n    1,\n    1,\n    1,\n    1,\n    1,\n    1,\n    1,\n    1,\n    1,\n    1,\n    1,\n    1,\n    1,\n    1,\n    1,\n    1,\n    1,\n    1,\n    1,\n    1,\n    1,\n    1,\n    1,\n    1,\n    1,\n    1,\n    1,\n    1,\n    1,\n    1,\n    1,\n    1,\n    1,\n    1,\n    1,\n    1,\n    1,\n    1,\n    1,\n    1,\n    1,\n    1,\n    1,\n    1,\n    1,\n    1,\n    1,\n    1,\n    1,\n    0\n  ];\n\n  uint8[] private suffixes = [1, 2];\n\n  function random(string memory input) internal pure returns (uint256) {\n    return uint256(keccak256(abi.encodePacked(input)));\n  }\n\n  function getX(uint256 tokenId) public view returns (uint256) {\n    return code(tokenId, '$X', units);\n  }\n\n  function getY(uint256 tokenId) public view returns (uint256) {\n    return code(tokenId, '$Y', units);\n  }\n\n  function getZ(uint256 tokenId) public view returns (uint256) {\n    return code(tokenId, '$Z', units);\n  }\n\n  function getC(uint256 tokenId) public view returns (uint256) {\n    return code(tokenId, '$C', units);\n  }\n\n  function getO(uint256 tokenId) public view returns (uint256) {\n    return code(tokenId, '$O', units);\n  }\n\n  function getR(uint256 tokenId) public view returns (uint256) {\n    return code(tokenId, '$R', units);\n  }\n\n  function getI(uint256 tokenId) public view returns (uint256) {\n    return code(tokenId, '$I', units);\n  }\n\n  function getP(uint256 tokenId) public view returns (uint256) {\n    return code(tokenId, '$P', units);\n  }\n\n  function code(\n    uint256 tokenId,\n    string memory keyPrefix,\n    uint8[] memory sourceArray\n  ) internal view returns (uint256) {\n    uint256 rand = random(string(abi.encodePacked(keyPrefix, toStr(tokenId))));\n    uint256 output = sourceArray[rand % sourceArray.length];\n    uint256 luck = rand % 21;\n    if (luck > 14) {\n      output += suffixes[rand % suffixes.length];\n    }\n    if (luck >= 19) {\n      if (luck == 19) {\n        output =\n          (output * multipliers[rand % multipliers.length]) +\n          suffixes[rand % suffixes.length];\n      } else {\n        output = (output * multipliers[rand % multipliers.length]);\n      }\n    }\n    return output;\n  }\n\n  function tokenURI(uint256 _tokenId) public view override returns (string memory) {\n    string[8] memory meta;\n\n    uint256 productId = _soldProducts[_tokenId].productId;\n    string memory _tokenURI = cartInstance.getMetaURI(productId);\n\n    meta[0] = string(\n      abi.encodePacked('{\"trait_type\": \"X\", \"value\": \"', toStr(getX(_tokenId)), '\"},')\n    );\n    meta[1] = string(\n      abi.encodePacked('{\"trait_type\": \"Y\", \"value\": \"', toStr(getY(_tokenId)), '\"},')\n    );\n    meta[2] = string(\n      abi.encodePacked('{\"trait_type\": \"Z\", \"value\": \"', toStr(getZ(_tokenId)), '\"},')\n    );\n    meta[3] = string(\n      abi.encodePacked('{\"trait_type\": \"C\", \"value\": \"', toStr(getC(_tokenId)), '\"},')\n    );\n    meta[4] = string(\n      abi.encodePacked('{\"trait_type\": \"O\", \"value\": \"', toStr(getO(_tokenId)), '\"},')\n    );\n    meta[5] = string(\n      abi.encodePacked('{\"trait_type\": \"R\", \"value\": \"', toStr(getR(_tokenId)), '\"},')\n    );\n    meta[6] = string(\n      abi.encodePacked('{\"trait_type\": \"I\", \"value\": \"', toStr(getI(_tokenId)), '\"},')\n    );\n    meta[7] = string(\n      abi.encodePacked('{\"trait_type\": \"P\", \"value\": \"', toStr(getP(_tokenId)), '\"}')\n    );\n\n    string memory output = string(\n      abi.encodePacked(meta[0], meta[1], meta[2], meta[3], meta[4], meta[5], meta[6], meta[7])\n    );\n\n    string memory json = Base64.encode(\n      bytes(\n        string(\n          abi.encodePacked(\n            '{\"name\": \"$CODER #',\n            toStr(_tokenId),\n            '\", \"image\": \"',\n            _tokenURI,\n            'i/',\n            toStr(_tokenId),\n            '\", \"animation_url\": \"',\n            _tokenURI,\n            'a/',\n            toStr(_tokenId),\n            '\", \"description\": \"Coder Metapass.\", \"attributes\": [',\n            output,\n            ']}'\n          )\n        )\n      )\n    );\n    output = string(abi.encodePacked('data:application/json;base64,', json));\n\n    return output;\n  }\n\n  function buy(\n    address _to,\n    uint256 _qty,\n    uint256 _productId,\n    string memory _data\n  ) public onlyProxy {\n    require(\n      _qty > 0 && _qty <= 10,\n      'You can buy no less than 1, and no more than 10 $CODER passes at a time'\n    );\n\n    for (uint256 i = 0; i < _qty; i++) {\n      uint256 mintIndex = totalSupply() + 1;\n      _mint(_to, mintIndex);\n      cartInstance.productSold(mintIndex, _to, _productId, _data);\n      SoldMeta memory sold = SoldMeta(mintIndex, _productId);\n      _setTokenMeta(mintIndex, sold);\n    }\n  }\n\n  function toStr(uint256 value) internal pure returns (string memory) {\n    // Inspired by OraclizeAPI's implementation - MIT license\n    // https://github.com/oraclize/ethereum-api/blob/b42146b063c7d6ee1358846c198246239e9360e8/oraclizeAPI_0.4.25.sol\n\n    if (value == 0) {\n      return '0';\n    }\n    uint256 temp = value;\n    uint256 digits;\n    while (temp != 0) {\n      digits++;\n      temp /= 10;\n    }\n    bytes memory buffer = new bytes(digits);\n    while (value != 0) {\n      digits -= 1;\n      buffer[digits] = bytes1(uint8(48 + uint256(value % 10)));\n      value /= 10;\n    }\n    return string(buffer);\n  }\n\n  function burnPass(uint256 _tokenId) external {\n    require(ownerOf(_tokenId) == _msgSender());\n    _burn(_tokenId);\n    emit ProductBurned_cartArt_coder(_tokenId, _msgSender());\n  }\n\n  function tokensOfOwner(address _owner) external view returns (uint256[] memory) {\n    uint256 tokenCount = balanceOf(_owner);\n    if (tokenCount == 0) {\n      return new uint256[](0);\n    } else {\n      uint256[] memory result = new uint256[](tokenCount);\n      uint256 index;\n      for (index = 0; index < tokenCount; index++) {\n        result[index] = tokenOfOwnerByIndex(_owner, index);\n      }\n      return result;\n    }\n  }\n\n  function _setTokenMeta(uint256 _tokenId, SoldMeta memory _meta) private {\n    _soldProducts[_tokenId] = _meta;\n  }\n}\n\n/// [MIT License]\n/// @title Base64\n/// @notice Provides a function for encoding some bytes in base64\n/// @author Brecht Devos <brecht@loopring.org>\nlibrary Base64 {\n  bytes internal constant TABLE =\n    'ABCDEFGHIJKLMNOPQRSTUVWXYZabcdefghijklmnopqrstuvwxyz0123456789+/';\n\n  /// @notice Encodes some bytes to the base64 representation\n  function encode(bytes memory data) internal pure returns (string memory) {\n    uint256 len = data.length;\n    if (len == 0) return '';\n\n    // multiply by 4/3 rounded up\n    uint256 encodedLen = 4 * ((len + 2) / 3);\n\n    // Add some extra buffer at the end\n    bytes memory result = new bytes(encodedLen + 32);\n\n    bytes memory table = TABLE;\n\n    assembly {\n      let tablePtr := add(table, 1)\n      let resultPtr := add(result, 32)\n\n      for {\n        let i := 0\n      } lt(i, len) {\n\n      } {\n        i := add(i, 3)\n        let input := and(mload(add(data, i)), 0xffffff)\n\n        let out := mload(add(tablePtr, and(shr(18, input), 0x3F)))\n        out := shl(8, out)\n        out := add(out, and(mload(add(tablePtr, and(shr(12, input), 0x3F))), 0xFF))\n        out := shl(8, out)\n        out := add(out, and(mload(add(tablePtr, and(shr(6, input), 0x3F))), 0xFF))\n        out := shl(8, out)\n        out := add(out, and(mload(add(tablePtr, and(input, 0x3F))), 0xFF))\n        out := shl(224, out)\n\n        mstore(resultPtr, out)\n\n        resultPtr := add(resultPtr, 4)\n      }\n\n      switch mod(len, 3)\n      case 1 {\n        mstore(sub(resultPtr, 2), shl(240, 0x3d3d))\n      }\n      case 2 {\n        mstore(sub(resultPtr, 1), shl(248, 0x3d))\n      }\n\n      mstore(result, encodedLen)\n    }\n\n    return string(result);\n  }\n}\n",
  "sourcePath": "/Users/jordan/eliteWeb-v2/src/contracts/contracts/addOnContract.sol",
  "compiler": {
    "name": "solc",
    "version": "0.8.4+commit.c7e474f2.Emscripten.clang"
  },
  "schemaVersion": "3.4.1",
  "updatedAt": "2021-12-19T22:46:30.382Z",
  "networkType": "ethereum",
  "devdoc": {
    "kind": "dev",
    "methods": {
      "approve(address,uint256)": {
        "details": "See {IERC721-approve}."
      },
      "balanceOf(address)": {
        "details": "See {IERC721-balanceOf}."
      },
      "getApproved(uint256)": {
        "details": "See {IERC721-getApproved}."
      },
      "isApprovedForAll(address,address)": {
        "details": "See {IERC721-isApprovedForAll}."
      },
      "name()": {
        "details": "See {IERC721Metadata-name}."
      },
      "owner()": {
        "details": "Returns the address of the current owner."
      },
      "ownerOf(uint256)": {
        "details": "See {IERC721-ownerOf}."
      },
      "renounceOwnership()": {
        "details": "Leaves the contract without owner. It will not be possible to call `onlyOwner` functions anymore. Can only be called by the current owner. NOTE: Renouncing ownership will leave the contract without an owner, thereby removing any functionality that is only available to the owner."
      },
      "safeTransferFrom(address,address,uint256)": {
        "details": "See {IERC721-safeTransferFrom}."
      },
      "safeTransferFrom(address,address,uint256,bytes)": {
        "details": "See {IERC721-safeTransferFrom}."
      },
      "setApprovalForAll(address,bool)": {
        "details": "See {IERC721-setApprovalForAll}."
      },
      "supportsInterface(bytes4)": {
        "details": "See {IERC165-supportsInterface}."
      },
      "symbol()": {
        "details": "See {IERC721Metadata-symbol}."
      },
      "tokenByIndex(uint256)": {
        "details": "See {IERC721Enumerable-tokenByIndex}."
      },
      "tokenOfOwnerByIndex(address,uint256)": {
        "details": "See {IERC721Enumerable-tokenOfOwnerByIndex}."
      },
      "totalSupply()": {
        "details": "See {IERC721Enumerable-totalSupply}."
      },
      "transferFrom(address,address,uint256)": {
        "details": "See {IERC721-transferFrom}."
      },
      "transferOwnership(address)": {
        "details": "Transfers ownership of the contract to a new account (`newOwner`). Can only be called by the current owner."
      }
    },
    "version": 1
  },
  "userdoc": {
    "kind": "user",
    "methods": {},
    "version": 1
  }
}