{
  "contractName": "CartERC721",
  "abi": [
    {
      "inputs": [
        {
          "internalType": "address",
          "name": "_proxyAddr",
          "type": "address"
        }
      ],
      "stateMutability": "nonpayable",
      "type": "constructor"
    },
    {
      "anonymous": false,
      "inputs": [
        {
          "indexed": true,
          "internalType": "address",
          "name": "owner",
          "type": "address"
        },
        {
          "indexed": true,
          "internalType": "address",
          "name": "approved",
          "type": "address"
        },
        {
          "indexed": true,
          "internalType": "uint256",
          "name": "tokenId",
          "type": "uint256"
        }
      ],
      "name": "Approval",
      "type": "event"
    },
    {
      "anonymous": false,
      "inputs": [
        {
          "indexed": true,
          "internalType": "address",
          "name": "owner",
          "type": "address"
        },
        {
          "indexed": true,
          "internalType": "address",
          "name": "operator",
          "type": "address"
        },
        {
          "indexed": false,
          "internalType": "bool",
          "name": "approved",
          "type": "bool"
        }
      ],
      "name": "ApprovalForAll",
      "type": "event"
    },
    {
      "anonymous": false,
      "inputs": [
        {
          "indexed": true,
          "internalType": "address",
          "name": "previousOwner",
          "type": "address"
        },
        {
          "indexed": true,
          "internalType": "address",
          "name": "newOwner",
          "type": "address"
        }
      ],
      "name": "OwnershipTransferred",
      "type": "event"
    },
    {
      "anonymous": false,
      "inputs": [
        {
          "indexed": false,
          "internalType": "uint256",
          "name": "productId",
          "type": "uint256"
        },
        {
          "indexed": false,
          "internalType": "address",
          "name": "_ownerAddress",
          "type": "address"
        }
      ],
      "name": "ProductBurned_cartArt721",
      "type": "event"
    },
    {
      "anonymous": false,
      "inputs": [
        {
          "indexed": false,
          "internalType": "address",
          "name": "_contract",
          "type": "address"
        }
      ],
      "name": "SetStoreContract",
      "type": "event"
    },
    {
      "anonymous": false,
      "inputs": [
        {
          "indexed": true,
          "internalType": "address",
          "name": "from",
          "type": "address"
        },
        {
          "indexed": true,
          "internalType": "address",
          "name": "to",
          "type": "address"
        },
        {
          "indexed": true,
          "internalType": "uint256",
          "name": "tokenId",
          "type": "uint256"
        }
      ],
      "name": "Transfer",
      "type": "event"
    },
    {
      "anonymous": false,
      "inputs": [
        {
          "indexed": true,
          "internalType": "address",
          "name": "previousProxy",
          "type": "address"
        },
        {
          "indexed": true,
          "internalType": "address",
          "name": "newProxy",
          "type": "address"
        }
      ],
      "name": "cartART",
      "type": "event"
    },
    {
      "inputs": [
        {
          "internalType": "address",
          "name": "_child",
          "type": "address"
        }
      ],
      "name": "_approveChildContract",
      "outputs": [],
      "stateMutability": "nonpayable",
      "type": "function"
    },
    {
      "inputs": [
        {
          "internalType": "address",
          "name": "to",
          "type": "address"
        },
        {
          "internalType": "uint256",
          "name": "tokenId",
          "type": "uint256"
        }
      ],
      "name": "approve",
      "outputs": [],
      "stateMutability": "nonpayable",
      "type": "function"
    },
    {
      "inputs": [
        {
          "internalType": "address",
          "name": "owner",
          "type": "address"
        }
      ],
      "name": "balanceOf",
      "outputs": [
        {
          "internalType": "uint256",
          "name": "",
          "type": "uint256"
        }
      ],
      "stateMutability": "view",
      "type": "function",
      "constant": true
    },
    {
      "inputs": [
        {
          "internalType": "uint256",
          "name": "tokenId",
          "type": "uint256"
        }
      ],
      "name": "getApproved",
      "outputs": [
        {
          "internalType": "address",
          "name": "",
          "type": "address"
        }
      ],
      "stateMutability": "view",
      "type": "function",
      "constant": true
    },
    {
      "inputs": [
        {
          "internalType": "address",
          "name": "owner",
          "type": "address"
        },
        {
          "internalType": "address",
          "name": "operator",
          "type": "address"
        }
      ],
      "name": "isApprovedForAll",
      "outputs": [
        {
          "internalType": "bool",
          "name": "",
          "type": "bool"
        }
      ],
      "stateMutability": "view",
      "type": "function",
      "constant": true
    },
    {
      "inputs": [],
      "name": "name",
      "outputs": [
        {
          "internalType": "string",
          "name": "",
          "type": "string"
        }
      ],
      "stateMutability": "view",
      "type": "function",
      "constant": true
    },
    {
      "inputs": [],
      "name": "owner",
      "outputs": [
        {
          "internalType": "address",
          "name": "",
          "type": "address"
        }
      ],
      "stateMutability": "view",
      "type": "function",
      "constant": true
    },
    {
      "inputs": [
        {
          "internalType": "uint256",
          "name": "tokenId",
          "type": "uint256"
        }
      ],
      "name": "ownerOf",
      "outputs": [
        {
          "internalType": "address",
          "name": "",
          "type": "address"
        }
      ],
      "stateMutability": "view",
      "type": "function",
      "constant": true
    },
    {
      "inputs": [],
      "name": "renounceOwnership",
      "outputs": [],
      "stateMutability": "nonpayable",
      "type": "function"
    },
    {
      "inputs": [
        {
          "internalType": "address",
          "name": "from",
          "type": "address"
        },
        {
          "internalType": "address",
          "name": "to",
          "type": "address"
        },
        {
          "internalType": "uint256",
          "name": "tokenId",
          "type": "uint256"
        }
      ],
      "name": "safeTransferFrom",
      "outputs": [],
      "stateMutability": "nonpayable",
      "type": "function"
    },
    {
      "inputs": [
        {
          "internalType": "address",
          "name": "from",
          "type": "address"
        },
        {
          "internalType": "address",
          "name": "to",
          "type": "address"
        },
        {
          "internalType": "uint256",
          "name": "tokenId",
          "type": "uint256"
        },
        {
          "internalType": "bytes",
          "name": "_data",
          "type": "bytes"
        }
      ],
      "name": "safeTransferFrom",
      "outputs": [],
      "stateMutability": "nonpayable",
      "type": "function"
    },
    {
      "inputs": [
        {
          "internalType": "address",
          "name": "operator",
          "type": "address"
        },
        {
          "internalType": "bool",
          "name": "approved",
          "type": "bool"
        }
      ],
      "name": "setApprovalForAll",
      "outputs": [],
      "stateMutability": "nonpayable",
      "type": "function"
    },
    {
      "inputs": [
        {
          "internalType": "address",
          "name": "_newProxyAddr",
          "type": "address"
        }
      ],
      "name": "setProxy",
      "outputs": [],
      "stateMutability": "nonpayable",
      "type": "function"
    },
    {
      "inputs": [
        {
          "internalType": "bytes4",
          "name": "interfaceId",
          "type": "bytes4"
        }
      ],
      "name": "supportsInterface",
      "outputs": [
        {
          "internalType": "bool",
          "name": "",
          "type": "bool"
        }
      ],
      "stateMutability": "view",
      "type": "function",
      "constant": true
    },
    {
      "inputs": [],
      "name": "symbol",
      "outputs": [
        {
          "internalType": "string",
          "name": "",
          "type": "string"
        }
      ],
      "stateMutability": "view",
      "type": "function",
      "constant": true
    },
    {
      "inputs": [
        {
          "internalType": "uint256",
          "name": "index",
          "type": "uint256"
        }
      ],
      "name": "tokenByIndex",
      "outputs": [
        {
          "internalType": "uint256",
          "name": "",
          "type": "uint256"
        }
      ],
      "stateMutability": "view",
      "type": "function",
      "constant": true
    },
    {
      "inputs": [
        {
          "internalType": "address",
          "name": "owner",
          "type": "address"
        },
        {
          "internalType": "uint256",
          "name": "index",
          "type": "uint256"
        }
      ],
      "name": "tokenOfOwnerByIndex",
      "outputs": [
        {
          "internalType": "uint256",
          "name": "",
          "type": "uint256"
        }
      ],
      "stateMutability": "view",
      "type": "function",
      "constant": true
    },
    {
      "inputs": [],
      "name": "totalSupply",
      "outputs": [
        {
          "internalType": "uint256",
          "name": "",
          "type": "uint256"
        }
      ],
      "stateMutability": "view",
      "type": "function",
      "constant": true
    },
    {
      "inputs": [
        {
          "internalType": "address",
          "name": "from",
          "type": "address"
        },
        {
          "internalType": "address",
          "name": "to",
          "type": "address"
        },
        {
          "internalType": "uint256",
          "name": "tokenId",
          "type": "uint256"
        }
      ],
      "name": "transferFrom",
      "outputs": [],
      "stateMutability": "nonpayable",
      "type": "function"
    },
    {
      "inputs": [
        {
          "internalType": "address",
          "name": "newOwner",
          "type": "address"
        }
      ],
      "name": "transferOwnership",
      "outputs": [],
      "stateMutability": "nonpayable",
      "type": "function"
    },
    {
      "inputs": [
        {
          "internalType": "address",
          "name": "_to",
          "type": "address"
        },
        {
          "internalType": "uint256",
          "name": "_qty",
          "type": "uint256"
        },
        {
          "internalType": "uint256",
          "name": "_productId",
          "type": "uint256"
        },
        {
          "internalType": "string",
          "name": "_data",
          "type": "string"
        }
      ],
      "name": "buy",
      "outputs": [],
      "stateMutability": "nonpayable",
      "type": "function"
    },
    {
      "inputs": [
        {
          "internalType": "uint256",
          "name": "_tokenId",
          "type": "uint256"
        }
      ],
      "name": "burn",
      "outputs": [],
      "stateMutability": "nonpayable",
      "type": "function"
    },
    {
      "inputs": [
        {
          "internalType": "uint256",
          "name": "_tokenId",
          "type": "uint256"
        }
      ],
      "name": "tokenURI",
      "outputs": [
        {
          "internalType": "string",
          "name": "",
          "type": "string"
        }
      ],
      "stateMutability": "view",
      "type": "function",
      "constant": true
    },
    {
      "inputs": [
        {
          "internalType": "address",
          "name": "_owner",
          "type": "address"
        }
      ],
      "name": "tokensOfOwner",
      "outputs": [
        {
          "internalType": "uint256[]",
          "name": "",
          "type": "uint256[]"
        }
      ],
      "stateMutability": "view",
      "type": "function",
      "constant": true
    }
  ],
  "bytecode": "0x60806040523480156200001157600080fd5b50604051620044713803806200447183398181016040528101906200003791906200045e565b6040518060400160405280600f81526020017f636172742e6172742045524337323100000000000000000000000000000000008152506040518060400160405280600981526020017f4c4f4f4b204c41425300000000000000000000000000000000000000000000008152508160009080519060200190620000bb92919062000397565b508060019080519060200190620000d492919062000397565b505050620000f7620000eb6200015060201b60201c565b6200015860201b60201c565b80600d60006101000a81548173ffffffffffffffffffffffffffffffffffffffff021916908373ffffffffffffffffffffffffffffffffffffffff16021790555062000149816200021e60201b60201c565b50620005c0565b600033905090565b6000600a60009054906101000a900473ffffffffffffffffffffffffffffffffffffffff16905081600a60006101000a81548173ffffffffffffffffffffffffffffffffffffffff021916908373ffffffffffffffffffffffffffffffffffffffff1602179055508173ffffffffffffffffffffffffffffffffffffffff168173ffffffffffffffffffffffffffffffffffffffff167f8be0079c531659141344cd1fd0a4f28419497f9722a3daafe3b4186f6b6457e060405160405180910390a35050565b6200022e6200015060201b60201c565b73ffffffffffffffffffffffffffffffffffffffff16620002546200036d60201b60201c565b73ffffffffffffffffffffffffffffffffffffffff1614620002ad576040517f08c379a0000000000000000000000000000000000000000000000000000000008152600401620002a490620004b1565b60405180910390fd5b8073ffffffffffffffffffffffffffffffffffffffff16600b60009054906101000a900473ffffffffffffffffffffffffffffffffffffffff1673ffffffffffffffffffffffffffffffffffffffff167f5b09f0d0a4cbf8770fd092cf5ee60221e5addb9d44f01f52b1e8c6fe34842e3f60405160405180910390a380600b60006101000a81548173ffffffffffffffffffffffffffffffffffffffff021916908373ffffffffffffffffffffffffffffffffffffffff16021790555050565b6000600a60009054906101000a900473ffffffffffffffffffffffffffffffffffffffff16905090565b828054620003a59062000518565b90600052602060002090601f016020900481019282620003c9576000855562000415565b82601f10620003e457805160ff191683800117855562000415565b8280016001018555821562000415579182015b8281111562000414578251825591602001919060010190620003f7565b5b50905062000424919062000428565b5090565b5b808211156200044357600081600090555060010162000429565b5090565b6000815190506200045881620005a6565b92915050565b6000602082840312156200047157600080fd5b6000620004818482850162000447565b91505092915050565b600062000499602083620004d3565b9150620004a6826200057d565b602082019050919050565b60006020820190508181036000830152620004cc816200048a565b9050919050565b600082825260208201905092915050565b6000620004f182620004f8565b9050919050565b600073ffffffffffffffffffffffffffffffffffffffff82169050919050565b600060028204905060018216806200053157607f821691505b602082108114156200054857620005476200054e565b5b50919050565b7f4e487b7100000000000000000000000000000000000000000000000000000000600052602260045260246000fd5b7f4f776e61626c653a2063616c6c6572206973206e6f7420746865206f776e6572600082015250565b620005b181620004e4565b8114620005bd57600080fd5b50565b613ea180620005d06000396000f3fe608060405234801561001057600080fd5b50600436106101585760003560e01c8063715018a6116100c35780639de876b91161007c5780639de876b9146103d7578063a22cb465146103f3578063b88d4fde1461040f578063c87b56dd1461042b578063e985e9c51461045b578063f2fde38b1461048b57610158565b8063715018a6146103295780637f8ea7da146103335780638462151c1461034f5780638da5cb5b1461037f57806395d89b411461039d57806397107d6d146103bb57610158565b80632f745c59116101155780632f745c591461023157806342842e0e1461026157806342966c681461027d5780634f6ccce7146102995780636352211e146102c957806370a08231146102f957610158565b806301ffc9a71461015d57806306fdde031461018d578063081812fc146101ab578063095ea7b3146101db57806318160ddd146101f757806323b872dd14610215575b600080fd5b61017760048036038101906101729190612c28565b6104a7565b604051610184919061317f565b60405180910390f35b610195610521565b6040516101a2919061319a565b60405180910390f35b6101c560048036038101906101c09190612cbb565b6105b3565b6040516101d291906130f6565b60405180910390f35b6101f560048036038101906101f09190612b71565b610638565b005b6101ff610750565b60405161020c919061341c565b60405180910390f35b61022f600480360381019061022a9190612a6b565b61075d565b005b61024b60048036038101906102469190612b71565b6107bd565b604051610258919061341c565b60405180910390f35b61027b60048036038101906102769190612a6b565b610862565b005b61029760048036038101906102929190612cbb565b610882565b005b6102b360048036038101906102ae9190612cbb565b610915565b6040516102c0919061341c565b60405180910390f35b6102e360048036038101906102de9190612cbb565b6109ac565b6040516102f091906130f6565b60405180910390f35b610313600480360381019061030e9190612a06565b610a5e565b604051610320919061341c565b60405180910390f35b610331610b16565b005b61034d60048036038101906103489190612a06565b610b9e565b005b61036960048036038101906103649190612a06565b610cd2565b604051610376919061315d565b60405180910390f35b610387610e4e565b60405161039491906130f6565b60405180910390f35b6103a5610e78565b6040516103b2919061319a565b60405180910390f35b6103d560048036038101906103d09190612a06565b610f0a565b005b6103f160048036038101906103ec9190612bad565b611046565b005b61040d60048036038101906104089190612b35565b611225565b005b61042960048036038101906104249190612aba565b61123b565b005b61044560048036038101906104409190612cbb565b61129d565b604051610452919061319a565b60405180910390f35b61047560048036038101906104709190612a2f565b6113a1565b604051610482919061317f565b60405180910390f35b6104a560048036038101906104a09190612a06565b611435565b005b60007f780e9d63000000000000000000000000000000000000000000000000000000007bffffffffffffffffffffffffffffffffffffffffffffffffffffffff1916827bffffffffffffffffffffffffffffffffffffffffffffffffffffffff1916148061051a57506105198261152d565b5b9050919050565b60606000805461053090613720565b80601f016020809104026020016040519081016040528092919081815260200182805461055c90613720565b80156105a95780601f1061057e576101008083540402835291602001916105a9565b820191906000526020600020905b81548152906001019060200180831161058c57829003601f168201915b5050505050905090565b60006105be8261160f565b6105fd576040517f08c379a00000000000000000000000000000000000000000000000000000000081526004016105f49061333c565b60405180910390fd5b6004600083815260200190815260200160002060009054906101000a900473ffffffffffffffffffffffffffffffffffffffff169050919050565b6000610643826109ac565b90508073ffffffffffffffffffffffffffffffffffffffff168373ffffffffffffffffffffffffffffffffffffffff1614156106b4576040517f08c379a00000000000000000000000000000000000000000000000000000000081526004016106ab906133bc565b60405180910390fd5b8073ffffffffffffffffffffffffffffffffffffffff166106d361167b565b73ffffffffffffffffffffffffffffffffffffffff1614806107025750610701816106fc61167b565b6113a1565b5b610741576040517f08c379a0000000000000000000000000000000000000000000000000000000008152600401610738906132bc565b60405180910390fd5b61074b8383611683565b505050565b6000600880549050905090565b61076e61076861167b565b8261173c565b6107ad576040517f08c379a00000000000000000000000000000000000000000000000000000000081526004016107a4906133dc565b60405180910390fd5b6107b883838361181a565b505050565b60006107c883610a5e565b8210610809576040517f08c379a0000000000000000000000000000000000000000000000000000000008152600401610800906131bc565b60405180910390fd5b600660008473ffffffffffffffffffffffffffffffffffffffff1673ffffffffffffffffffffffffffffffffffffffff168152602001908152602001600020600083815260200190815260200160002054905092915050565b61087d8383836040518060200160405280600081525061123b565b505050565b61088a61167b565b73ffffffffffffffffffffffffffffffffffffffff166108a9826109ac565b73ffffffffffffffffffffffffffffffffffffffff16146108c957600080fd5b7fd9dcf46abb8e199182a2bc1082444702740990f616bc33b1e9a2183b5953fd41816108f361167b565b604051610901929190613437565b60405180910390a161091281611a76565b50565b600061091f610750565b8210610960576040517f08c379a0000000000000000000000000000000000000000000000000000000008152600401610957906133fc565b60405180910390fd5b6008828154811061099a577f4e487b7100000000000000000000000000000000000000000000000000000000600052603260045260246000fd5b90600052602060002001549050919050565b6000806002600084815260200190815260200160002060009054906101000a900473ffffffffffffffffffffffffffffffffffffffff169050600073ffffffffffffffffffffffffffffffffffffffff168173ffffffffffffffffffffffffffffffffffffffff161415610a55576040517f08c379a0000000000000000000000000000000000000000000000000000000008152600401610a4c906132fc565b60405180910390fd5b80915050919050565b60008073ffffffffffffffffffffffffffffffffffffffff168273ffffffffffffffffffffffffffffffffffffffff161415610acf576040517f08c379a0000000000000000000000000000000000000000000000000000000008152600401610ac6906132dc565b60405180910390fd5b600360008373ffffffffffffffffffffffffffffffffffffffff1673ffffffffffffffffffffffffffffffffffffffff168152602001908152602001600020549050919050565b610b1e61167b565b73ffffffffffffffffffffffffffffffffffffffff16610b3c610e4e565b73ffffffffffffffffffffffffffffffffffffffff1614610b92576040517f08c379a0000000000000000000000000000000000000000000000000000000008152600401610b899061335c565b60405180910390fd5b610b9c6000611b87565b565b610ba661167b565b73ffffffffffffffffffffffffffffffffffffffff16610bc4610e4e565b73ffffffffffffffffffffffffffffffffffffffff1614610c1a576040517f08c379a0000000000000000000000000000000000000000000000000000000008152600401610c119061335c565b60405180910390fd5b80600c60008373ffffffffffffffffffffffffffffffffffffffff1673ffffffffffffffffffffffffffffffffffffffff16815260200190815260200160002060006101000a81548173ffffffffffffffffffffffffffffffffffffffff021916908373ffffffffffffffffffffffffffffffffffffffff1602179055507f7a68f36d013025b936cfcf536ded8ac09f742b930c53cab42fb42cb75340095c81604051610cc791906130f6565b60405180910390a150565b60606000610cdf83610a5e565b90506000811415610d6257600067ffffffffffffffff811115610d2b577f4e487b7100000000000000000000000000000000000000000000000000000000600052604160045260246000fd5b604051908082528060200260200182016040528015610d595781602001602082028036833780820191505090505b50915050610e49565b60008167ffffffffffffffff811115610da4577f4e487b7100000000000000000000000000000000000000000000000000000000600052604160045260246000fd5b604051908082528060200260200182016040528015610dd25781602001602082028036833780820191505090505b50905060005b82811015610e4257610dea85826107bd565b828281518110610e23577f4e487b7100000000000000000000000000000000000000000000000000000000600052603260045260246000fd5b6020026020010181815250508080610e3a90613783565b915050610dd8565b8193505050505b919050565b6000600a60009054906101000a900473ffffffffffffffffffffffffffffffffffffffff16905090565b606060018054610e8790613720565b80601f0160208091040260200160405190810160405280929190818152602001828054610eb390613720565b8015610f005780601f10610ed557610100808354040283529160200191610f00565b820191906000526020600020905b815481529060010190602001808311610ee357829003601f168201915b5050505050905090565b610f1261167b565b73ffffffffffffffffffffffffffffffffffffffff16610f30610e4e565b73ffffffffffffffffffffffffffffffffffffffff1614610f86576040517f08c379a0000000000000000000000000000000000000000000000000000000008152600401610f7d9061335c565b60405180910390fd5b8073ffffffffffffffffffffffffffffffffffffffff16600b60009054906101000a900473ffffffffffffffffffffffffffffffffffffffff1673ffffffffffffffffffffffffffffffffffffffff167f5b09f0d0a4cbf8770fd092cf5ee60221e5addb9d44f01f52b1e8c6fe34842e3f60405160405180910390a380600b60006101000a81548173ffffffffffffffffffffffffffffffffffffffff021916908373ffffffffffffffffffffffffffffffffffffffff16021790555050565b600b60009054906101000a900473ffffffffffffffffffffffffffffffffffffffff1673ffffffffffffffffffffffffffffffffffffffff163373ffffffffffffffffffffffffffffffffffffffff16146110d6576040517f08c379a00000000000000000000000000000000000000000000000000000000081526004016110cd906131fc565b60405180910390fd5b6000831180156110e75750600a8311155b611126576040517f08c379a000000000000000000000000000000000000000000000000000000000815260040161111d9061339c565b60405180910390fd5b60005b8381101561121e576000600161113d610750565b61114791906135af565b90506000604051806040016040528083815260200186815250905061116c8783611c4d565b600d60009054906101000a900473ffffffffffffffffffffffffffffffffffffffff1673ffffffffffffffffffffffffffffffffffffffff166326ea96b8838988886040518563ffffffff1660e01b81526004016111cd9493929190613460565b600060405180830381600087803b1580156111e757600080fd5b505af11580156111fb573d6000803e3d6000fd5b505050506112098282611e1b565b5050808061121690613783565b915050611129565b5050505050565b61123761123061167b565b8383611e4a565b5050565b61124c61124661167b565b8361173c565b61128b576040517f08c379a0000000000000000000000000000000000000000000000000000000008152600401611282906133dc565b60405180910390fd5b61129784848484611fb7565b50505050565b60606000600e60008481526020019081526020016000206001015490506000600d60009054906101000a900473ffffffffffffffffffffffffffffffffffffffff1673ffffffffffffffffffffffffffffffffffffffff16634c1b2f2e836040518263ffffffff1660e01b8152600401611317919061341c565b60006040518083038186803b15801561132f57600080fd5b505afa158015611343573d6000803e3d6000fd5b505050506040513d6000823e3d601f19601f8201168201806040525081019061136c9190612c7a565b90508061137885612013565b6040516020016113899291906130d2565b60405160208183030381529060405292505050919050565b6000600560008473ffffffffffffffffffffffffffffffffffffffff1673ffffffffffffffffffffffffffffffffffffffff16815260200190815260200160002060008373ffffffffffffffffffffffffffffffffffffffff1673ffffffffffffffffffffffffffffffffffffffff16815260200190815260200160002060009054906101000a900460ff16905092915050565b61143d61167b565b73ffffffffffffffffffffffffffffffffffffffff1661145b610e4e565b73ffffffffffffffffffffffffffffffffffffffff16146114b1576040517f08c379a00000000000000000000000000000000000000000000000000000000081526004016114a89061335c565b60405180910390fd5b600073ffffffffffffffffffffffffffffffffffffffff168173ffffffffffffffffffffffffffffffffffffffff161415611521576040517f08c379a00000000000000000000000000000000000000000000000000000000081526004016115189061321c565b60405180910390fd5b61152a81611b87565b50565b60007f80ac58cd000000000000000000000000000000000000000000000000000000007bffffffffffffffffffffffffffffffffffffffffffffffffffffffff1916827bffffffffffffffffffffffffffffffffffffffffffffffffffffffff191614806115f857507f5b5e139f000000000000000000000000000000000000000000000000000000007bffffffffffffffffffffffffffffffffffffffffffffffffffffffff1916827bffffffffffffffffffffffffffffffffffffffffffffffffffffffff1916145b806116085750611607826121c0565b5b9050919050565b60008073ffffffffffffffffffffffffffffffffffffffff166002600084815260200190815260200160002060009054906101000a900473ffffffffffffffffffffffffffffffffffffffff1673ffffffffffffffffffffffffffffffffffffffff1614159050919050565b600033905090565b816004600083815260200190815260200160002060006101000a81548173ffffffffffffffffffffffffffffffffffffffff021916908373ffffffffffffffffffffffffffffffffffffffff160217905550808273ffffffffffffffffffffffffffffffffffffffff166116f6836109ac565b73ffffffffffffffffffffffffffffffffffffffff167f8c5be1e5ebec7d5bd14f71427d1e84f3dd0314c0f7b2291e5b200ac8c7c3b92560405160405180910390a45050565b60006117478261160f565b611786576040517f08c379a000000000000000000000000000000000000000000000000000000000815260040161177d9061329c565b60405180910390fd5b6000611791836109ac565b90508073ffffffffffffffffffffffffffffffffffffffff168473ffffffffffffffffffffffffffffffffffffffff16148061180057508373ffffffffffffffffffffffffffffffffffffffff166117e8846105b3565b73ffffffffffffffffffffffffffffffffffffffff16145b80611811575061181081856113a1565b5b91505092915050565b8273ffffffffffffffffffffffffffffffffffffffff1661183a826109ac565b73ffffffffffffffffffffffffffffffffffffffff1614611890576040517f08c379a00000000000000000000000000000000000000000000000000000000081526004016118879061337c565b60405180910390fd5b600073ffffffffffffffffffffffffffffffffffffffff168273ffffffffffffffffffffffffffffffffffffffff161415611900576040517f08c379a00000000000000000000000000000000000000000000000000000000081526004016118f79061325c565b60405180910390fd5b61190b83838361222a565b611916600082611683565b6001600360008573ffffffffffffffffffffffffffffffffffffffff1673ffffffffffffffffffffffffffffffffffffffff16815260200190815260200160002060008282546119669190613636565b925050819055506001600360008473ffffffffffffffffffffffffffffffffffffffff1673ffffffffffffffffffffffffffffffffffffffff16815260200190815260200160002060008282546119bd91906135af565b92505081905550816002600083815260200190815260200160002060006101000a81548173ffffffffffffffffffffffffffffffffffffffff021916908373ffffffffffffffffffffffffffffffffffffffff160217905550808273ffffffffffffffffffffffffffffffffffffffff168473ffffffffffffffffffffffffffffffffffffffff167fddf252ad1be2c89b69c2b068fc378daa952ba7f163c4a11628f55a4df523b3ef60405160405180910390a4505050565b6000611a81826109ac565b9050611a8f8160008461222a565b611a9a600083611683565b6001600360008373ffffffffffffffffffffffffffffffffffffffff1673ffffffffffffffffffffffffffffffffffffffff1681526020019081526020016000206000828254611aea9190613636565b925050819055506002600083815260200190815260200160002060006101000a81549073ffffffffffffffffffffffffffffffffffffffff021916905581600073ffffffffffffffffffffffffffffffffffffffff168273ffffffffffffffffffffffffffffffffffffffff167fddf252ad1be2c89b69c2b068fc378daa952ba7f163c4a11628f55a4df523b3ef60405160405180910390a45050565b6000600a60009054906101000a900473ffffffffffffffffffffffffffffffffffffffff16905081600a60006101000a81548173ffffffffffffffffffffffffffffffffffffffff021916908373ffffffffffffffffffffffffffffffffffffffff1602179055508173ffffffffffffffffffffffffffffffffffffffff168173ffffffffffffffffffffffffffffffffffffffff167f8be0079c531659141344cd1fd0a4f28419497f9722a3daafe3b4186f6b6457e060405160405180910390a35050565b600073ffffffffffffffffffffffffffffffffffffffff168273ffffffffffffffffffffffffffffffffffffffff161415611cbd576040517f08c379a0000000000000000000000000000000000000000000000000000000008152600401611cb49061331c565b60405180910390fd5b611cc68161160f565b15611d06576040517f08c379a0000000000000000000000000000000000000000000000000000000008152600401611cfd9061323c565b60405180910390fd5b611d126000838361222a565b6001600360008473ffffffffffffffffffffffffffffffffffffffff1673ffffffffffffffffffffffffffffffffffffffff1681526020019081526020016000206000828254611d6291906135af565b92505081905550816002600083815260200190815260200160002060006101000a81548173ffffffffffffffffffffffffffffffffffffffff021916908373ffffffffffffffffffffffffffffffffffffffff160217905550808273ffffffffffffffffffffffffffffffffffffffff16600073ffffffffffffffffffffffffffffffffffffffff167fddf252ad1be2c89b69c2b068fc378daa952ba7f163c4a11628f55a4df523b3ef60405160405180910390a45050565b80600e600084815260200190815260200160002060008201518160000155602082015181600101559050505050565b8173ffffffffffffffffffffffffffffffffffffffff168373ffffffffffffffffffffffffffffffffffffffff161415611eb9576040517f08c379a0000000000000000000000000000000000000000000000000000000008152600401611eb09061327c565b60405180910390fd5b80600560008573ffffffffffffffffffffffffffffffffffffffff1673ffffffffffffffffffffffffffffffffffffffff16815260200190815260200160002060008473ffffffffffffffffffffffffffffffffffffffff1673ffffffffffffffffffffffffffffffffffffffff16815260200190815260200160002060006101000a81548160ff0219169083151502179055508173ffffffffffffffffffffffffffffffffffffffff168373ffffffffffffffffffffffffffffffffffffffff167f17307eab39ab6107e8899845ad3d59bd9653f200f220920489ca2b5937696c3183604051611faa919061317f565b60405180910390a3505050565b611fc284848461181a565b611fce8484848461233e565b61200d576040517f08c379a0000000000000000000000000000000000000000000000000000000008152600401612004906131dc565b60405180910390fd5b50505050565b6060600082141561205b576040518060400160405280600181526020017f300000000000000000000000000000000000000000000000000000000000000081525090506121bb565b600082905060005b6000821461208d57808061207690613783565b915050600a826120869190613605565b9150612063565b60008167ffffffffffffffff8111156120cf577f4e487b7100000000000000000000000000000000000000000000000000000000600052604160045260246000fd5b6040519080825280601f01601f1916602001820160405280156121015781602001600182028036833780820191505090505b5090505b600085146121b45760018261211a9190613636565b9150600a8561212991906137cc565b603061213591906135af565b60f81b818381518110612171577f4e487b7100000000000000000000000000000000000000000000000000000000600052603260045260246000fd5b60200101907effffffffffffffffffffffffffffffffffffffffffffffffffffffffffffff1916908160001a905350600a856121ad9190613605565b9450612105565b8093505050505b919050565b60007f01ffc9a7000000000000000000000000000000000000000000000000000000007bffffffffffffffffffffffffffffffffffffffffffffffffffffffff1916827bffffffffffffffffffffffffffffffffffffffffffffffffffffffff1916149050919050565b6122358383836124d5565b600073ffffffffffffffffffffffffffffffffffffffff168373ffffffffffffffffffffffffffffffffffffffff16141561227857612273816124da565b6122b7565b8173ffffffffffffffffffffffffffffffffffffffff168373ffffffffffffffffffffffffffffffffffffffff16146122b6576122b58382612523565b5b5b600073ffffffffffffffffffffffffffffffffffffffff168273ffffffffffffffffffffffffffffffffffffffff1614156122fa576122f581612690565b612339565b8273ffffffffffffffffffffffffffffffffffffffff168273ffffffffffffffffffffffffffffffffffffffff16146123385761233782826127d3565b5b5b505050565b600061235f8473ffffffffffffffffffffffffffffffffffffffff16612852565b156124c8578373ffffffffffffffffffffffffffffffffffffffff1663150b7a0261238861167b565b8786866040518563ffffffff1660e01b81526004016123aa9493929190613111565b602060405180830381600087803b1580156123c457600080fd5b505af19250505080156123f557506040513d601f19601f820116820180604052508101906123f29190612c51565b60015b612478573d8060008114612425576040519150601f19603f3d011682016040523d82523d6000602084013e61242a565b606091505b50600081511415612470576040517f08c379a0000000000000000000000000000000000000000000000000000000008152600401612467906131dc565b60405180910390fd5b805181602001fd5b63150b7a0260e01b7bffffffffffffffffffffffffffffffffffffffffffffffffffffffff1916817bffffffffffffffffffffffffffffffffffffffffffffffffffffffff1916149150506124cd565b600190505b949350505050565b505050565b6008805490506009600083815260200190815260200160002081905550600881908060018154018082558091505060019003906000526020600020016000909190919091505550565b6000600161253084610a5e565b61253a9190613636565b905060006007600084815260200190815260200160002054905081811461261f576000600660008673ffffffffffffffffffffffffffffffffffffffff1673ffffffffffffffffffffffffffffffffffffffff168152602001908152602001600020600084815260200190815260200160002054905080600660008773ffffffffffffffffffffffffffffffffffffffff1673ffffffffffffffffffffffffffffffffffffffff168152602001908152602001600020600084815260200190815260200160002081905550816007600083815260200190815260200160002081905550505b6007600084815260200190815260200160002060009055600660008573ffffffffffffffffffffffffffffffffffffffff1673ffffffffffffffffffffffffffffffffffffffff16815260200190815260200160002060008381526020019081526020016000206000905550505050565b600060016008805490506126a49190613636565b90506000600960008481526020019081526020016000205490506000600883815481106126fa577f4e487b7100000000000000000000000000000000000000000000000000000000600052603260045260246000fd5b906000526020600020015490508060088381548110612742577f4e487b7100000000000000000000000000000000000000000000000000000000600052603260045260246000fd5b9060005260206000200181905550816009600083815260200190815260200160002081905550600960008581526020019081526020016000206000905560088054806127b7577f4e487b7100000000000000000000000000000000000000000000000000000000600052603160045260246000fd5b6001900381819060005260206000200160009055905550505050565b60006127de83610a5e565b905081600660008573ffffffffffffffffffffffffffffffffffffffff1673ffffffffffffffffffffffffffffffffffffffff168152602001908152602001600020600083815260200190815260200160002081905550806007600084815260200190815260200160002081905550505050565b600080823b905060008111915050919050565b6000612878612873846134d1565b6134ac565b90508281526020810184848401111561289057600080fd5b61289b8482856136de565b509392505050565b60006128b66128b184613502565b6134ac565b9050828152602081018484840111156128ce57600080fd5b6128d98482856136de565b509392505050565b60006128f46128ef84613502565b6134ac565b90508281526020810184848401111561290c57600080fd5b6129178482856136ed565b509392505050565b60008135905061292e81613e0f565b92915050565b60008135905061294381613e26565b92915050565b60008135905061295881613e3d565b92915050565b60008151905061296d81613e3d565b92915050565b600082601f83011261298457600080fd5b8135612994848260208601612865565b91505092915050565b600082601f8301126129ae57600080fd5b81356129be8482602086016128a3565b91505092915050565b600082601f8301126129d857600080fd5b81516129e88482602086016128e1565b91505092915050565b600081359050612a0081613e54565b92915050565b600060208284031215612a1857600080fd5b6000612a268482850161291f565b91505092915050565b60008060408385031215612a4257600080fd5b6000612a508582860161291f565b9250506020612a618582860161291f565b9150509250929050565b600080600060608486031215612a8057600080fd5b6000612a8e8682870161291f565b9350506020612a9f8682870161291f565b9250506040612ab0868287016129f1565b9150509250925092565b60008060008060808587031215612ad057600080fd5b6000612ade8782880161291f565b9450506020612aef8782880161291f565b9350506040612b00878288016129f1565b925050606085013567ffffffffffffffff811115612b1d57600080fd5b612b2987828801612973565b91505092959194509250565b60008060408385031215612b4857600080fd5b6000612b568582860161291f565b9250506020612b6785828601612934565b9150509250929050565b60008060408385031215612b8457600080fd5b6000612b928582860161291f565b9250506020612ba3858286016129f1565b9150509250929050565b60008060008060808587031215612bc357600080fd5b6000612bd18782880161291f565b9450506020612be2878288016129f1565b9350506040612bf3878288016129f1565b925050606085013567ffffffffffffffff811115612c1057600080fd5b612c1c8782880161299d565b91505092959194509250565b600060208284031215612c3a57600080fd5b6000612c4884828501612949565b91505092915050565b600060208284031215612c6357600080fd5b6000612c718482850161295e565b91505092915050565b600060208284031215612c8c57600080fd5b600082015167ffffffffffffffff811115612ca657600080fd5b612cb2848285016129c7565b91505092915050565b600060208284031215612ccd57600080fd5b6000612cdb848285016129f1565b91505092915050565b6000612cf083836130b4565b60208301905092915050565b612d058161366a565b82525050565b6000612d1682613543565b612d208185613571565b9350612d2b83613533565b8060005b83811015612d5c578151612d438882612ce4565b9750612d4e83613564565b925050600181019050612d2f565b5085935050505092915050565b612d728161367c565b82525050565b6000612d838261354e565b612d8d8185613582565b9350612d9d8185602086016136ed565b612da6816138b9565b840191505092915050565b6000612dbc82613559565b612dc68185613593565b9350612dd68185602086016136ed565b612ddf816138b9565b840191505092915050565b6000612df582613559565b612dff81856135a4565b9350612e0f8185602086016136ed565b80840191505092915050565b6000612e28602b83613593565b9150612e33826138ca565b604082019050919050565b6000612e4b603283613593565b9150612e5682613919565b604082019050919050565b6000612e6e602e83613593565b9150612e7982613968565b604082019050919050565b6000612e91602683613593565b9150612e9c826139b7565b604082019050919050565b6000612eb4601c83613593565b9150612ebf82613a06565b602082019050919050565b6000612ed7602483613593565b9150612ee282613a2f565b604082019050919050565b6000612efa601983613593565b9150612f0582613a7e565b602082019050919050565b6000612f1d602c83613593565b9150612f2882613aa7565b604082019050919050565b6000612f40603883613593565b9150612f4b82613af6565b604082019050919050565b6000612f63602a83613593565b9150612f6e82613b45565b604082019050919050565b6000612f86602983613593565b9150612f9182613b94565b604082019050919050565b6000612fa9602083613593565b9150612fb482613be3565b602082019050919050565b6000612fcc602c83613593565b9150612fd782613c0c565b604082019050919050565b6000612fef602083613593565b9150612ffa82613c5b565b602082019050919050565b6000613012602983613593565b915061301d82613c84565b604082019050919050565b6000613035603d83613593565b915061304082613cd3565b604082019050919050565b6000613058602183613593565b915061306382613d22565b604082019050919050565b600061307b603183613593565b915061308682613d71565b604082019050919050565b600061309e602c83613593565b91506130a982613dc0565b604082019050919050565b6130bd816136d4565b82525050565b6130cc816136d4565b82525050565b60006130de8285612dea565b91506130ea8284612dea565b91508190509392505050565b600060208201905061310b6000830184612cfc565b92915050565b60006080820190506131266000830187612cfc565b6131336020830186612cfc565b61314060408301856130c3565b81810360608301526131528184612d78565b905095945050505050565b600060208201905081810360008301526131778184612d0b565b905092915050565b60006020820190506131946000830184612d69565b92915050565b600060208201905081810360008301526131b48184612db1565b905092915050565b600060208201905081810360008301526131d581612e1b565b9050919050565b600060208201905081810360008301526131f581612e3e565b9050919050565b6000602082019050818103600083015261321581612e61565b9050919050565b6000602082019050818103600083015261323581612e84565b9050919050565b6000602082019050818103600083015261325581612ea7565b9050919050565b6000602082019050818103600083015261327581612eca565b9050919050565b6000602082019050818103600083015261329581612eed565b9050919050565b600060208201905081810360008301526132b581612f10565b9050919050565b600060208201905081810360008301526132d581612f33565b9050919050565b600060208201905081810360008301526132f581612f56565b9050919050565b6000602082019050818103600083015261331581612f79565b9050919050565b6000602082019050818103600083015261333581612f9c565b9050919050565b6000602082019050818103600083015261335581612fbf565b9050919050565b6000602082019050818103600083015261337581612fe2565b9050919050565b6000602082019050818103600083015261339581613005565b9050919050565b600060208201905081810360008301526133b581613028565b9050919050565b600060208201905081810360008301526133d58161304b565b9050919050565b600060208201905081810360008301526133f58161306e565b9050919050565b6000602082019050818103600083015261341581613091565b9050919050565b600060208201905061343160008301846130c3565b92915050565b600060408201905061344c60008301856130c3565b6134596020830184612cfc565b9392505050565b600060808201905061347560008301876130c3565b6134826020830186612cfc565b61348f60408301856130c3565b81810360608301526134a18184612db1565b905095945050505050565b60006134b66134c7565b90506134c28282613752565b919050565b6000604051905090565b600067ffffffffffffffff8211156134ec576134eb61388a565b5b6134f5826138b9565b9050602081019050919050565b600067ffffffffffffffff82111561351d5761351c61388a565b5b613526826138b9565b9050602081019050919050565b6000819050602082019050919050565b600081519050919050565b600081519050919050565b600081519050919050565b6000602082019050919050565b600082825260208201905092915050565b600082825260208201905092915050565b600082825260208201905092915050565b600081905092915050565b60006135ba826136d4565b91506135c5836136d4565b9250827fffffffffffffffffffffffffffffffffffffffffffffffffffffffffffffffff038211156135fa576135f96137fd565b5b828201905092915050565b6000613610826136d4565b915061361b836136d4565b92508261362b5761362a61382c565b5b828204905092915050565b6000613641826136d4565b915061364c836136d4565b92508282101561365f5761365e6137fd565b5b828203905092915050565b6000613675826136b4565b9050919050565b60008115159050919050565b60007fffffffff0000000000000000000000000000000000000000000000000000000082169050919050565b600073ffffffffffffffffffffffffffffffffffffffff82169050919050565b6000819050919050565b82818337600083830152505050565b60005b8381101561370b5780820151818401526020810190506136f0565b8381111561371a576000848401525b50505050565b6000600282049050600182168061373857607f821691505b6020821081141561374c5761374b61385b565b5b50919050565b61375b826138b9565b810181811067ffffffffffffffff8211171561377a5761377961388a565b5b80604052505050565b600061378e826136d4565b91507fffffffffffffffffffffffffffffffffffffffffffffffffffffffffffffffff8214156137c1576137c06137fd565b5b600182019050919050565b60006137d7826136d4565b91506137e2836136d4565b9250826137f2576137f161382c565b5b828206905092915050565b7f4e487b7100000000000000000000000000000000000000000000000000000000600052601160045260246000fd5b7f4e487b7100000000000000000000000000000000000000000000000000000000600052601260045260246000fd5b7f4e487b7100000000000000000000000000000000000000000000000000000000600052602260045260246000fd5b7f4e487b7100000000000000000000000000000000000000000000000000000000600052604160045260246000fd5b6000601f19601f8301169050919050565b7f455243373231456e756d657261626c653a206f776e657220696e646578206f7560008201527f74206f6620626f756e6473000000000000000000000000000000000000000000602082015250565b7f4552433732313a207472616e7366657220746f206e6f6e20455243373231526560008201527f63656976657220696d706c656d656e7465720000000000000000000000000000602082015250565b7f4f6e6c792047656e6573697320466163746f727920697320616c6c6f7765642060008201527f746f206d696e7420746f6b656e73000000000000000000000000000000000000602082015250565b7f4f776e61626c653a206e6577206f776e657220697320746865207a65726f206160008201527f6464726573730000000000000000000000000000000000000000000000000000602082015250565b7f4552433732313a20746f6b656e20616c7265616479206d696e74656400000000600082015250565b7f4552433732313a207472616e7366657220746f20746865207a65726f2061646460008201527f7265737300000000000000000000000000000000000000000000000000000000602082015250565b7f4552433732313a20617070726f766520746f2063616c6c657200000000000000600082015250565b7f4552433732313a206f70657261746f7220717565727920666f72206e6f6e657860008201527f697374656e7420746f6b656e0000000000000000000000000000000000000000602082015250565b7f4552433732313a20617070726f76652063616c6c6572206973206e6f74206f7760008201527f6e6572206e6f7220617070726f76656420666f7220616c6c0000000000000000602082015250565b7f4552433732313a2062616c616e636520717565727920666f7220746865207a6560008201527f726f206164647265737300000000000000000000000000000000000000000000602082015250565b7f4552433732313a206f776e657220717565727920666f72206e6f6e657869737460008201527f656e7420746f6b656e0000000000000000000000000000000000000000000000602082015250565b7f4552433732313a206d696e7420746f20746865207a65726f2061646472657373600082015250565b7f4552433732313a20617070726f76656420717565727920666f72206e6f6e657860008201527f697374656e7420746f6b656e0000000000000000000000000000000000000000602082015250565b7f4f776e61626c653a2063616c6c6572206973206e6f7420746865206f776e6572600082015250565b7f4552433732313a207472616e73666572206f6620746f6b656e2074686174206960008201527f73206e6f74206f776e0000000000000000000000000000000000000000000000602082015250565b7f596f752063616e20627579206e6f206c657373207468616e20312c20616e642060008201527f6e6f206d6f7265207468616e20617420746568652073616d6574696d65000000602082015250565b7f4552433732313a20617070726f76616c20746f2063757272656e74206f776e6560008201527f7200000000000000000000000000000000000000000000000000000000000000602082015250565b7f4552433732313a207472616e736665722063616c6c6572206973206e6f74206f60008201527f776e6572206e6f7220617070726f766564000000000000000000000000000000602082015250565b7f455243373231456e756d657261626c653a20676c6f62616c20696e646578206f60008201527f7574206f6620626f756e64730000000000000000000000000000000000000000602082015250565b613e188161366a565b8114613e2357600080fd5b50565b613e2f8161367c565b8114613e3a57600080fd5b50565b613e4681613688565b8114613e5157600080fd5b50565b613e5d816136d4565b8114613e6857600080fd5b5056fea2646970667358221220503e2e2ea928e635afd142e973ba093fa0f88059585de6c389e4c4f4f8e2151464736f6c63430008040033",
  "immutableReferences": {},
  "source": "// CYBER\n// SPDX-License-Identifier: MIT\n\npragma solidity ^0.8.0;\npragma experimental ABIEncoderV2;\n\n// import 'hardhat/console.sol';\n// import 'https://github.com/OpenZeppelin/openzeppelin-contracts/blob/master/contracts/token/ERC721/extensions/ERC721Enumerable.sol';\n// import 'https://github.com/OpenZeppelin/openzeppelin-contracts/blob/master/contracts/utils/math/SafeMath.sol';\n// import 'https://github.com/OpenZeppelin/openzeppelin-contracts/blob/master/contracts/utils/Strings.sol';\n// import 'https://github.com/OpenZeppelin/openzeppelin-contracts/blob/master/contracts/access/Ownable.sol';\n\nimport '../node_modules/@openzeppelin/contracts/token/ERC721/extensions/ERC721Enumerable.sol';\nimport '../node_modules/@openzeppelin/contracts/access/Ownable.sol';\nimport '../node_modules/@openzeppelin/contracts/utils/math/SafeMath.sol';\nimport '../node_modules/@openzeppelin/contracts/utils/Strings.sol';\n\nimport './Proxy.sol';\nimport './GenesisCart.sol';\n\ncontract CartERC721 is ERC721Enumerable, Ownable, Proxy {\n  using SafeMath for uint256;\n  using SafeMath for uint8;\n\n  GenesisCart cartInstance;\n\n  struct SoldMetaERC721 {\n    uint256 tokenId;\n    uint256 productId;\n  }\n\n  mapping(uint256 => SoldMetaERC721) private _soldProducts;\n\n  event ProductBurned_cartArt721(uint256 productId, address _ownerAddress);\n\n  constructor(address _proxyAddr) public ERC721('cart.art ERC721', 'LOOK LABS') {\n    cartInstance = GenesisCart(_proxyAddr);\n    setProxy(_proxyAddr);\n  }\n\n  function buy(\n    address _to,\n    uint256 _qty,\n    uint256 _productId,\n    string memory _data\n  ) public onlyProxy {\n    require(\n      _qty > 0 && _qty <= 10,\n      'You can buy no less than 1, and no more than at tehe sametime'\n    );\n    for (uint256 i = 0; i < _qty; i++) {\n      uint256 mintIndex = totalSupply() + 1;\n      SoldMetaERC721 memory sold = SoldMetaERC721(mintIndex, _productId);\n      _mint(_to, mintIndex);\n      cartInstance.productSold(mintIndex, _to, _productId, _data);\n      _setTokenMeta(mintIndex, sold);\n    }\n  }\n\n  function burn(uint256 _tokenId) external {\n    require(ownerOf(_tokenId) == _msgSender());\n    emit ProductBurned_cartArt721(_tokenId, _msgSender());\n    _burn(_tokenId);\n  }\n\n  function tokenURI(uint256 _tokenId) public view override returns (string memory) {\n    uint256 productId = _soldProducts[_tokenId].productId;\n    string memory _tokenURI = cartInstance.getMetaURI(productId);\n    return string(abi.encodePacked(_tokenURI, Strings.toString(_tokenId)));\n  }\n\n  function _setTokenMeta(uint256 _tokenId, SoldMetaERC721 memory _meta) private {\n    _soldProducts[_tokenId] = _meta;\n  }\n\n  function tokensOfOwner(address _owner) external view returns (uint256[] memory) {\n    uint256 tokenCount = balanceOf(_owner);\n    if (tokenCount == 0) {\n      return new uint256[](0);\n    } else {\n      uint256[] memory result = new uint256[](tokenCount);\n      uint256 index;\n      for (index = 0; index < tokenCount; index++) {\n        result[index] = tokenOfOwnerByIndex(_owner, index);\n      }\n      return result;\n    }\n  }\n}\n",
  "sourcePath": "/Volumes/Data/Git/cart-art-web/src/contracts/contracts/CartERC721.sol",
  "compiler": {
    "name": "solc",
    "version": "0.8.4+commit.c7e474f2.Emscripten.clang"
  },
  "schemaVersion": "3.4.3",
  "updatedAt": "2021-12-22T08:24:42.817Z",
  "networkType": "ethereum",
  "devdoc": {
    "kind": "dev",
    "methods": {
      "approve(address,uint256)": {
        "details": "See {IERC721-approve}."
      },
      "balanceOf(address)": {
        "details": "See {IERC721-balanceOf}."
      },
      "getApproved(uint256)": {
        "details": "See {IERC721-getApproved}."
      },
      "isApprovedForAll(address,address)": {
        "details": "See {IERC721-isApprovedForAll}."
      },
      "name()": {
        "details": "See {IERC721Metadata-name}."
      },
      "owner()": {
        "details": "Returns the address of the current owner."
      },
      "ownerOf(uint256)": {
        "details": "See {IERC721-ownerOf}."
      },
      "renounceOwnership()": {
        "details": "Leaves the contract without owner. It will not be possible to call `onlyOwner` functions anymore. Can only be called by the current owner. NOTE: Renouncing ownership will leave the contract without an owner, thereby removing any functionality that is only available to the owner."
      },
      "safeTransferFrom(address,address,uint256)": {
        "details": "See {IERC721-safeTransferFrom}."
      },
      "safeTransferFrom(address,address,uint256,bytes)": {
        "details": "See {IERC721-safeTransferFrom}."
      },
      "setApprovalForAll(address,bool)": {
        "details": "See {IERC721-setApprovalForAll}."
      },
      "supportsInterface(bytes4)": {
        "details": "See {IERC165-supportsInterface}."
      },
      "symbol()": {
        "details": "See {IERC721Metadata-symbol}."
      },
      "tokenByIndex(uint256)": {
        "details": "See {IERC721Enumerable-tokenByIndex}."
      },
      "tokenOfOwnerByIndex(address,uint256)": {
        "details": "See {IERC721Enumerable-tokenOfOwnerByIndex}."
      },
      "totalSupply()": {
        "details": "See {IERC721Enumerable-totalSupply}."
      },
      "transferFrom(address,address,uint256)": {
        "details": "See {IERC721-transferFrom}."
      },
      "transferOwnership(address)": {
        "details": "Transfers ownership of the contract to a new account (`newOwner`). Can only be called by the current owner."
      }
    },
    "version": 1
  },
  "userdoc": {
    "kind": "user",
    "methods": {},
    "version": 1
  }
}