{
  "contractName": "CartERC721",
  "abi": [
    {
      "inputs": [
        {
          "internalType": "address",
          "name": "_proxyAddr",
          "type": "address"
        }
      ],
      "stateMutability": "nonpayable",
      "type": "constructor"
    },
    {
      "anonymous": false,
      "inputs": [
        {
          "indexed": true,
          "internalType": "address",
          "name": "owner",
          "type": "address"
        },
        {
          "indexed": true,
          "internalType": "address",
          "name": "approved",
          "type": "address"
        },
        {
          "indexed": true,
          "internalType": "uint256",
          "name": "tokenId",
          "type": "uint256"
        }
      ],
      "name": "Approval",
      "type": "event"
    },
    {
      "anonymous": false,
      "inputs": [
        {
          "indexed": true,
          "internalType": "address",
          "name": "owner",
          "type": "address"
        },
        {
          "indexed": true,
          "internalType": "address",
          "name": "operator",
          "type": "address"
        },
        {
          "indexed": false,
          "internalType": "bool",
          "name": "approved",
          "type": "bool"
        }
      ],
      "name": "ApprovalForAll",
      "type": "event"
    },
    {
      "anonymous": false,
      "inputs": [
        {
          "indexed": true,
          "internalType": "address",
          "name": "previousOwner",
          "type": "address"
        },
        {
          "indexed": true,
          "internalType": "address",
          "name": "newOwner",
          "type": "address"
        }
      ],
      "name": "OwnershipTransferred",
      "type": "event"
    },
    {
      "anonymous": false,
      "inputs": [
        {
          "indexed": false,
          "internalType": "uint256",
          "name": "productId",
          "type": "uint256"
        },
        {
          "indexed": false,
          "internalType": "address",
          "name": "_ownerAddress",
          "type": "address"
        }
      ],
      "name": "ProductBurned_cartArt721",
      "type": "event"
    },
    {
      "anonymous": false,
      "inputs": [
        {
          "indexed": false,
          "internalType": "address",
          "name": "_contract",
          "type": "address"
        }
      ],
      "name": "SetStoreContract",
      "type": "event"
    },
    {
      "anonymous": false,
      "inputs": [
        {
          "indexed": true,
          "internalType": "address",
          "name": "from",
          "type": "address"
        },
        {
          "indexed": true,
          "internalType": "address",
          "name": "to",
          "type": "address"
        },
        {
          "indexed": true,
          "internalType": "uint256",
          "name": "tokenId",
          "type": "uint256"
        }
      ],
      "name": "Transfer",
      "type": "event"
    },
    {
      "anonymous": false,
      "inputs": [
        {
          "indexed": true,
          "internalType": "address",
          "name": "previousProxy",
          "type": "address"
        },
        {
          "indexed": true,
          "internalType": "address",
          "name": "newProxy",
          "type": "address"
        }
      ],
      "name": "cartART",
      "type": "event"
    },
    {
      "inputs": [
        {
          "internalType": "address",
          "name": "_child",
          "type": "address"
        }
      ],
      "name": "_approveChildContract",
      "outputs": [],
      "stateMutability": "nonpayable",
      "type": "function"
    },
    {
      "inputs": [
        {
          "internalType": "address",
          "name": "to",
          "type": "address"
        },
        {
          "internalType": "uint256",
          "name": "tokenId",
          "type": "uint256"
        }
      ],
      "name": "approve",
      "outputs": [],
      "stateMutability": "nonpayable",
      "type": "function"
    },
    {
      "inputs": [
        {
          "internalType": "address",
          "name": "owner",
          "type": "address"
        }
      ],
      "name": "balanceOf",
      "outputs": [
        {
          "internalType": "uint256",
          "name": "",
          "type": "uint256"
        }
      ],
      "stateMutability": "view",
      "type": "function",
      "constant": true
    },
    {
      "inputs": [
        {
          "internalType": "uint256",
          "name": "tokenId",
          "type": "uint256"
        }
      ],
      "name": "getApproved",
      "outputs": [
        {
          "internalType": "address",
          "name": "",
          "type": "address"
        }
      ],
      "stateMutability": "view",
      "type": "function",
      "constant": true
    },
    {
      "inputs": [
        {
          "internalType": "address",
          "name": "owner",
          "type": "address"
        },
        {
          "internalType": "address",
          "name": "operator",
          "type": "address"
        }
      ],
      "name": "isApprovedForAll",
      "outputs": [
        {
          "internalType": "bool",
          "name": "",
          "type": "bool"
        }
      ],
      "stateMutability": "view",
      "type": "function",
      "constant": true
    },
    {
      "inputs": [],
      "name": "name",
      "outputs": [
        {
          "internalType": "string",
          "name": "",
          "type": "string"
        }
      ],
      "stateMutability": "view",
      "type": "function",
      "constant": true
    },
    {
      "inputs": [],
      "name": "owner",
      "outputs": [
        {
          "internalType": "address",
          "name": "",
          "type": "address"
        }
      ],
      "stateMutability": "view",
      "type": "function",
      "constant": true
    },
    {
      "inputs": [
        {
          "internalType": "uint256",
          "name": "tokenId",
          "type": "uint256"
        }
      ],
      "name": "ownerOf",
      "outputs": [
        {
          "internalType": "address",
          "name": "",
          "type": "address"
        }
      ],
      "stateMutability": "view",
      "type": "function",
      "constant": true
    },
    {
      "inputs": [],
      "name": "renounceOwnership",
      "outputs": [],
      "stateMutability": "nonpayable",
      "type": "function"
    },
    {
      "inputs": [
        {
          "internalType": "address",
          "name": "from",
          "type": "address"
        },
        {
          "internalType": "address",
          "name": "to",
          "type": "address"
        },
        {
          "internalType": "uint256",
          "name": "tokenId",
          "type": "uint256"
        }
      ],
      "name": "safeTransferFrom",
      "outputs": [],
      "stateMutability": "nonpayable",
      "type": "function"
    },
    {
      "inputs": [
        {
          "internalType": "address",
          "name": "from",
          "type": "address"
        },
        {
          "internalType": "address",
          "name": "to",
          "type": "address"
        },
        {
          "internalType": "uint256",
          "name": "tokenId",
          "type": "uint256"
        },
        {
          "internalType": "bytes",
          "name": "_data",
          "type": "bytes"
        }
      ],
      "name": "safeTransferFrom",
      "outputs": [],
      "stateMutability": "nonpayable",
      "type": "function"
    },
    {
      "inputs": [
        {
          "internalType": "address",
          "name": "operator",
          "type": "address"
        },
        {
          "internalType": "bool",
          "name": "approved",
          "type": "bool"
        }
      ],
      "name": "setApprovalForAll",
      "outputs": [],
      "stateMutability": "nonpayable",
      "type": "function"
    },
    {
      "inputs": [
        {
          "internalType": "address",
          "name": "_newProxyAddr",
          "type": "address"
        }
      ],
      "name": "setProxy",
      "outputs": [],
      "stateMutability": "nonpayable",
      "type": "function"
    },
    {
      "inputs": [
        {
          "internalType": "bytes4",
          "name": "interfaceId",
          "type": "bytes4"
        }
      ],
      "name": "supportsInterface",
      "outputs": [
        {
          "internalType": "bool",
          "name": "",
          "type": "bool"
        }
      ],
      "stateMutability": "view",
      "type": "function",
      "constant": true
    },
    {
      "inputs": [],
      "name": "symbol",
      "outputs": [
        {
          "internalType": "string",
          "name": "",
          "type": "string"
        }
      ],
      "stateMutability": "view",
      "type": "function",
      "constant": true
    },
    {
      "inputs": [
        {
          "internalType": "uint256",
          "name": "index",
          "type": "uint256"
        }
      ],
      "name": "tokenByIndex",
      "outputs": [
        {
          "internalType": "uint256",
          "name": "",
          "type": "uint256"
        }
      ],
      "stateMutability": "view",
      "type": "function",
      "constant": true
    },
    {
      "inputs": [
        {
          "internalType": "address",
          "name": "owner",
          "type": "address"
        },
        {
          "internalType": "uint256",
          "name": "index",
          "type": "uint256"
        }
      ],
      "name": "tokenOfOwnerByIndex",
      "outputs": [
        {
          "internalType": "uint256",
          "name": "",
          "type": "uint256"
        }
      ],
      "stateMutability": "view",
      "type": "function",
      "constant": true
    },
    {
      "inputs": [],
      "name": "totalSupply",
      "outputs": [
        {
          "internalType": "uint256",
          "name": "",
          "type": "uint256"
        }
      ],
      "stateMutability": "view",
      "type": "function",
      "constant": true
    },
    {
      "inputs": [
        {
          "internalType": "address",
          "name": "from",
          "type": "address"
        },
        {
          "internalType": "address",
          "name": "to",
          "type": "address"
        },
        {
          "internalType": "uint256",
          "name": "tokenId",
          "type": "uint256"
        }
      ],
      "name": "transferFrom",
      "outputs": [],
      "stateMutability": "nonpayable",
      "type": "function"
    },
    {
      "inputs": [
        {
          "internalType": "address",
          "name": "newOwner",
          "type": "address"
        }
      ],
      "name": "transferOwnership",
      "outputs": [],
      "stateMutability": "nonpayable",
      "type": "function"
    },
    {
      "inputs": [
        {
          "internalType": "address",
          "name": "_to",
          "type": "address"
        },
        {
          "internalType": "uint256",
          "name": "_qty",
          "type": "uint256"
        },
        {
          "internalType": "uint256",
          "name": "_productId",
          "type": "uint256"
        },
        {
          "internalType": "string",
          "name": "_data",
          "type": "string"
        }
      ],
      "name": "buy",
      "outputs": [],
      "stateMutability": "nonpayable",
      "type": "function"
    },
    {
      "inputs": [
        {
          "internalType": "uint256",
          "name": "_tokenId",
          "type": "uint256"
        }
      ],
      "name": "burn",
      "outputs": [],
      "stateMutability": "nonpayable",
      "type": "function"
    },
    {
      "inputs": [
        {
          "internalType": "uint256",
          "name": "_tokenId",
          "type": "uint256"
        }
      ],
      "name": "tokenURI",
      "outputs": [
        {
          "internalType": "string",
          "name": "",
          "type": "string"
        }
      ],
      "stateMutability": "view",
      "type": "function",
      "constant": true
    },
    {
      "inputs": [
        {
          "internalType": "address",
          "name": "_owner",
          "type": "address"
        }
      ],
      "name": "tokensOfOwner",
      "outputs": [
        {
          "internalType": "uint256[]",
          "name": "",
          "type": "uint256[]"
        }
      ],
      "stateMutability": "view",
      "type": "function",
      "constant": true
    }
  ],
  "bytecode": "0x60806040523480156200001157600080fd5b506040516200446f3803806200446f83398181016040528101906200003791906200045e565b6040518060400160405280600f81526020017f636172742e6172742045524337323100000000000000000000000000000000008152506040518060400160405280600981526020017f4c4f4f4b204c41425300000000000000000000000000000000000000000000008152508160009080519060200190620000bb92919062000397565b508060019080519060200190620000d492919062000397565b505050620000f7620000eb6200015060201b60201c565b6200015860201b60201c565b80600d60006101000a81548173ffffffffffffffffffffffffffffffffffffffff021916908373ffffffffffffffffffffffffffffffffffffffff16021790555062000149816200021e60201b60201c565b50620005c0565b600033905090565b6000600a60009054906101000a900473ffffffffffffffffffffffffffffffffffffffff16905081600a60006101000a81548173ffffffffffffffffffffffffffffffffffffffff021916908373ffffffffffffffffffffffffffffffffffffffff1602179055508173ffffffffffffffffffffffffffffffffffffffff168173ffffffffffffffffffffffffffffffffffffffff167f8be0079c531659141344cd1fd0a4f28419497f9722a3daafe3b4186f6b6457e060405160405180910390a35050565b6200022e6200015060201b60201c565b73ffffffffffffffffffffffffffffffffffffffff16620002546200036d60201b60201c565b73ffffffffffffffffffffffffffffffffffffffff1614620002ad576040517f08c379a0000000000000000000000000000000000000000000000000000000008152600401620002a490620004b1565b60405180910390fd5b8073ffffffffffffffffffffffffffffffffffffffff16600b60009054906101000a900473ffffffffffffffffffffffffffffffffffffffff1673ffffffffffffffffffffffffffffffffffffffff167f5b09f0d0a4cbf8770fd092cf5ee60221e5addb9d44f01f52b1e8c6fe34842e3f60405160405180910390a380600b60006101000a81548173ffffffffffffffffffffffffffffffffffffffff021916908373ffffffffffffffffffffffffffffffffffffffff16021790555050565b6000600a60009054906101000a900473ffffffffffffffffffffffffffffffffffffffff16905090565b828054620003a59062000518565b90600052602060002090601f016020900481019282620003c9576000855562000415565b82601f10620003e457805160ff191683800117855562000415565b8280016001018555821562000415579182015b8281111562000414578251825591602001919060010190620003f7565b5b50905062000424919062000428565b5090565b5b808211156200044357600081600090555060010162000429565b5090565b6000815190506200045881620005a6565b92915050565b6000602082840312156200047157600080fd5b6000620004818482850162000447565b91505092915050565b600062000499602083620004d3565b9150620004a6826200057d565b602082019050919050565b60006020820190508181036000830152620004cc816200048a565b9050919050565b600082825260208201905092915050565b6000620004f182620004f8565b9050919050565b600073ffffffffffffffffffffffffffffffffffffffff82169050919050565b600060028204905060018216806200053157607f821691505b602082108114156200054857620005476200054e565b5b50919050565b7f4e487b7100000000000000000000000000000000000000000000000000000000600052602260045260246000fd5b7f4f776e61626c653a2063616c6c6572206973206e6f7420746865206f776e6572600082015250565b620005b181620004e4565b8114620005bd57600080fd5b50565b613e9f80620005d06000396000f3fe608060405234801561001057600080fd5b50600436106101585760003560e01c8063715018a6116100c35780639de876b91161007c5780639de876b9146103d7578063a22cb465146103f3578063b88d4fde1461040f578063c87b56dd1461042b578063e985e9c51461045b578063f2fde38b1461048b57610158565b8063715018a6146103295780637f8ea7da146103335780638462151c1461034f5780638da5cb5b1461037f57806395d89b411461039d57806397107d6d146103bb57610158565b80632f745c59116101155780632f745c591461023157806342842e0e1461026157806342966c681461027d5780634f6ccce7146102995780636352211e146102c957806370a08231146102f957610158565b806301ffc9a71461015d57806306fdde031461018d578063081812fc146101ab578063095ea7b3146101db57806318160ddd146101f757806323b872dd14610215575b600080fd5b61017760048036038101906101729190612c26565b6104a7565b604051610184919061317d565b60405180910390f35b610195610521565b6040516101a29190613198565b60405180910390f35b6101c560048036038101906101c09190612cb9565b6105b3565b6040516101d291906130f4565b60405180910390f35b6101f560048036038101906101f09190612b6f565b610638565b005b6101ff610750565b60405161020c919061341a565b60405180910390f35b61022f600480360381019061022a9190612a69565b61075d565b005b61024b60048036038101906102469190612b6f565b6107bd565b604051610258919061341a565b60405180910390f35b61027b60048036038101906102769190612a69565b610862565b005b61029760048036038101906102929190612cb9565b610882565b005b6102b360048036038101906102ae9190612cb9565b610915565b6040516102c0919061341a565b60405180910390f35b6102e360048036038101906102de9190612cb9565b6109ac565b6040516102f091906130f4565b60405180910390f35b610313600480360381019061030e9190612a04565b610a5e565b604051610320919061341a565b60405180910390f35b610331610b16565b005b61034d60048036038101906103489190612a04565b610b9e565b005b61036960048036038101906103649190612a04565b610cd2565b604051610376919061315b565b60405180910390f35b610387610e4e565b60405161039491906130f4565b60405180910390f35b6103a5610e78565b6040516103b29190613198565b60405180910390f35b6103d560048036038101906103d09190612a04565b610f0a565b005b6103f160048036038101906103ec9190612bab565b611046565b005b61040d60048036038101906104089190612b33565b611225565b005b61042960048036038101906104249190612ab8565b6113a6565b005b61044560048036038101906104409190612cb9565b611408565b6040516104529190613198565b60405180910390f35b61047560048036038101906104709190612a2d565b61150c565b604051610482919061317d565b60405180910390f35b6104a560048036038101906104a09190612a04565b6115a0565b005b60007f780e9d63000000000000000000000000000000000000000000000000000000007bffffffffffffffffffffffffffffffffffffffffffffffffffffffff1916827bffffffffffffffffffffffffffffffffffffffffffffffffffffffff1916148061051a575061051982611698565b5b9050919050565b6060600080546105309061371e565b80601f016020809104026020016040519081016040528092919081815260200182805461055c9061371e565b80156105a95780601f1061057e576101008083540402835291602001916105a9565b820191906000526020600020905b81548152906001019060200180831161058c57829003601f168201915b5050505050905090565b60006105be8261177a565b6105fd576040517f08c379a00000000000000000000000000000000000000000000000000000000081526004016105f49061333a565b60405180910390fd5b6004600083815260200190815260200160002060009054906101000a900473ffffffffffffffffffffffffffffffffffffffff169050919050565b6000610643826109ac565b90508073ffffffffffffffffffffffffffffffffffffffff168373ffffffffffffffffffffffffffffffffffffffff1614156106b4576040517f08c379a00000000000000000000000000000000000000000000000000000000081526004016106ab906133ba565b60405180910390fd5b8073ffffffffffffffffffffffffffffffffffffffff166106d36117e6565b73ffffffffffffffffffffffffffffffffffffffff1614806107025750610701816106fc6117e6565b61150c565b5b610741576040517f08c379a0000000000000000000000000000000000000000000000000000000008152600401610738906132ba565b60405180910390fd5b61074b83836117ee565b505050565b6000600880549050905090565b61076e6107686117e6565b826118a7565b6107ad576040517f08c379a00000000000000000000000000000000000000000000000000000000081526004016107a4906133da565b60405180910390fd5b6107b8838383611985565b505050565b60006107c883610a5e565b8210610809576040517f08c379a0000000000000000000000000000000000000000000000000000000008152600401610800906131ba565b60405180910390fd5b600660008473ffffffffffffffffffffffffffffffffffffffff1673ffffffffffffffffffffffffffffffffffffffff168152602001908152602001600020600083815260200190815260200160002054905092915050565b61087d838383604051806020016040528060008152506113a6565b505050565b61088a6117e6565b73ffffffffffffffffffffffffffffffffffffffff166108a9826109ac565b73ffffffffffffffffffffffffffffffffffffffff16146108c957600080fd5b7fd9dcf46abb8e199182a2bc1082444702740990f616bc33b1e9a2183b5953fd41816108f36117e6565b604051610901929190613435565b60405180910390a161091281611be1565b50565b600061091f610750565b8210610960576040517f08c379a0000000000000000000000000000000000000000000000000000000008152600401610957906133fa565b60405180910390fd5b6008828154811061099a577f4e487b7100000000000000000000000000000000000000000000000000000000600052603260045260246000fd5b90600052602060002001549050919050565b6000806002600084815260200190815260200160002060009054906101000a900473ffffffffffffffffffffffffffffffffffffffff169050600073ffffffffffffffffffffffffffffffffffffffff168173ffffffffffffffffffffffffffffffffffffffff161415610a55576040517f08c379a0000000000000000000000000000000000000000000000000000000008152600401610a4c906132fa565b60405180910390fd5b80915050919050565b60008073ffffffffffffffffffffffffffffffffffffffff168273ffffffffffffffffffffffffffffffffffffffff161415610acf576040517f08c379a0000000000000000000000000000000000000000000000000000000008152600401610ac6906132da565b60405180910390fd5b600360008373ffffffffffffffffffffffffffffffffffffffff1673ffffffffffffffffffffffffffffffffffffffff168152602001908152602001600020549050919050565b610b1e6117e6565b73ffffffffffffffffffffffffffffffffffffffff16610b3c610e4e565b73ffffffffffffffffffffffffffffffffffffffff1614610b92576040517f08c379a0000000000000000000000000000000000000000000000000000000008152600401610b899061335a565b60405180910390fd5b610b9c6000611cf2565b565b610ba66117e6565b73ffffffffffffffffffffffffffffffffffffffff16610bc4610e4e565b73ffffffffffffffffffffffffffffffffffffffff1614610c1a576040517f08c379a0000000000000000000000000000000000000000000000000000000008152600401610c119061335a565b60405180910390fd5b80600c60008373ffffffffffffffffffffffffffffffffffffffff1673ffffffffffffffffffffffffffffffffffffffff16815260200190815260200160002060006101000a81548173ffffffffffffffffffffffffffffffffffffffff021916908373ffffffffffffffffffffffffffffffffffffffff1602179055507f7a68f36d013025b936cfcf536ded8ac09f742b930c53cab42fb42cb75340095c81604051610cc791906130f4565b60405180910390a150565b60606000610cdf83610a5e565b90506000811415610d6257600067ffffffffffffffff811115610d2b577f4e487b7100000000000000000000000000000000000000000000000000000000600052604160045260246000fd5b604051908082528060200260200182016040528015610d595781602001602082028036833780820191505090505b50915050610e49565b60008167ffffffffffffffff811115610da4577f4e487b7100000000000000000000000000000000000000000000000000000000600052604160045260246000fd5b604051908082528060200260200182016040528015610dd25781602001602082028036833780820191505090505b50905060005b82811015610e4257610dea85826107bd565b828281518110610e23577f4e487b7100000000000000000000000000000000000000000000000000000000600052603260045260246000fd5b6020026020010181815250508080610e3a90613781565b915050610dd8565b8193505050505b919050565b6000600a60009054906101000a900473ffffffffffffffffffffffffffffffffffffffff16905090565b606060018054610e879061371e565b80601f0160208091040260200160405190810160405280929190818152602001828054610eb39061371e565b8015610f005780601f10610ed557610100808354040283529160200191610f00565b820191906000526020600020905b815481529060010190602001808311610ee357829003601f168201915b5050505050905090565b610f126117e6565b73ffffffffffffffffffffffffffffffffffffffff16610f30610e4e565b73ffffffffffffffffffffffffffffffffffffffff1614610f86576040517f08c379a0000000000000000000000000000000000000000000000000000000008152600401610f7d9061335a565b60405180910390fd5b8073ffffffffffffffffffffffffffffffffffffffff16600b60009054906101000a900473ffffffffffffffffffffffffffffffffffffffff1673ffffffffffffffffffffffffffffffffffffffff167f5b09f0d0a4cbf8770fd092cf5ee60221e5addb9d44f01f52b1e8c6fe34842e3f60405160405180910390a380600b60006101000a81548173ffffffffffffffffffffffffffffffffffffffff021916908373ffffffffffffffffffffffffffffffffffffffff16021790555050565b600b60009054906101000a900473ffffffffffffffffffffffffffffffffffffffff1673ffffffffffffffffffffffffffffffffffffffff163373ffffffffffffffffffffffffffffffffffffffff16146110d6576040517f08c379a00000000000000000000000000000000000000000000000000000000081526004016110cd906131fa565b60405180910390fd5b6000831180156110e75750600a8311155b611126576040517f08c379a000000000000000000000000000000000000000000000000000000000815260040161111d9061339a565b60405180910390fd5b60005b8381101561121e576000600161113d610750565b61114791906135ad565b90506000604051806040016040528083815260200186815250905061116c8783611db8565b600d60009054906101000a900473ffffffffffffffffffffffffffffffffffffffff1673ffffffffffffffffffffffffffffffffffffffff166326ea96b8838988886040518563ffffffff1660e01b81526004016111cd949392919061345e565b600060405180830381600087803b1580156111e757600080fd5b505af11580156111fb573d6000803e3d6000fd5b505050506112098282611f86565b5050808061121690613781565b915050611129565b5050505050565b61122d6117e6565b73ffffffffffffffffffffffffffffffffffffffff168273ffffffffffffffffffffffffffffffffffffffff16141561129b576040517f08c379a00000000000000000000000000000000000000000000000000000000081526004016112929061327a565b60405180910390fd5b80600560006112a86117e6565b73ffffffffffffffffffffffffffffffffffffffff1673ffffffffffffffffffffffffffffffffffffffff16815260200190815260200160002060008473ffffffffffffffffffffffffffffffffffffffff1673ffffffffffffffffffffffffffffffffffffffff16815260200190815260200160002060006101000a81548160ff0219169083151502179055508173ffffffffffffffffffffffffffffffffffffffff166113556117e6565b73ffffffffffffffffffffffffffffffffffffffff167f17307eab39ab6107e8899845ad3d59bd9653f200f220920489ca2b5937696c318360405161139a919061317d565b60405180910390a35050565b6113b76113b16117e6565b836118a7565b6113f6576040517f08c379a00000000000000000000000000000000000000000000000000000000081526004016113ed906133da565b60405180910390fd5b61140284848484611fb5565b50505050565b60606000600e60008481526020019081526020016000206001015490506000600d60009054906101000a900473ffffffffffffffffffffffffffffffffffffffff1673ffffffffffffffffffffffffffffffffffffffff16634c1b2f2e836040518263ffffffff1660e01b8152600401611482919061341a565b60006040518083038186803b15801561149a57600080fd5b505afa1580156114ae573d6000803e3d6000fd5b505050506040513d6000823e3d601f19601f820116820180604052508101906114d79190612c78565b9050806114e385612011565b6040516020016114f49291906130d0565b60405160208183030381529060405292505050919050565b6000600560008473ffffffffffffffffffffffffffffffffffffffff1673ffffffffffffffffffffffffffffffffffffffff16815260200190815260200160002060008373ffffffffffffffffffffffffffffffffffffffff1673ffffffffffffffffffffffffffffffffffffffff16815260200190815260200160002060009054906101000a900460ff16905092915050565b6115a86117e6565b73ffffffffffffffffffffffffffffffffffffffff166115c6610e4e565b73ffffffffffffffffffffffffffffffffffffffff161461161c576040517f08c379a00000000000000000000000000000000000000000000000000000000081526004016116139061335a565b60405180910390fd5b600073ffffffffffffffffffffffffffffffffffffffff168173ffffffffffffffffffffffffffffffffffffffff16141561168c576040517f08c379a00000000000000000000000000000000000000000000000000000000081526004016116839061321a565b60405180910390fd5b61169581611cf2565b50565b60007f80ac58cd000000000000000000000000000000000000000000000000000000007bffffffffffffffffffffffffffffffffffffffffffffffffffffffff1916827bffffffffffffffffffffffffffffffffffffffffffffffffffffffff1916148061176357507f5b5e139f000000000000000000000000000000000000000000000000000000007bffffffffffffffffffffffffffffffffffffffffffffffffffffffff1916827bffffffffffffffffffffffffffffffffffffffffffffffffffffffff1916145b806117735750611772826121be565b5b9050919050565b60008073ffffffffffffffffffffffffffffffffffffffff166002600084815260200190815260200160002060009054906101000a900473ffffffffffffffffffffffffffffffffffffffff1673ffffffffffffffffffffffffffffffffffffffff1614159050919050565b600033905090565b816004600083815260200190815260200160002060006101000a81548173ffffffffffffffffffffffffffffffffffffffff021916908373ffffffffffffffffffffffffffffffffffffffff160217905550808273ffffffffffffffffffffffffffffffffffffffff16611861836109ac565b73ffffffffffffffffffffffffffffffffffffffff167f8c5be1e5ebec7d5bd14f71427d1e84f3dd0314c0f7b2291e5b200ac8c7c3b92560405160405180910390a45050565b60006118b28261177a565b6118f1576040517f08c379a00000000000000000000000000000000000000000000000000000000081526004016118e89061329a565b60405180910390fd5b60006118fc836109ac565b90508073ffffffffffffffffffffffffffffffffffffffff168473ffffffffffffffffffffffffffffffffffffffff16148061196b57508373ffffffffffffffffffffffffffffffffffffffff16611953846105b3565b73ffffffffffffffffffffffffffffffffffffffff16145b8061197c575061197b818561150c565b5b91505092915050565b8273ffffffffffffffffffffffffffffffffffffffff166119a5826109ac565b73ffffffffffffffffffffffffffffffffffffffff16146119fb576040517f08c379a00000000000000000000000000000000000000000000000000000000081526004016119f29061337a565b60405180910390fd5b600073ffffffffffffffffffffffffffffffffffffffff168273ffffffffffffffffffffffffffffffffffffffff161415611a6b576040517f08c379a0000000000000000000000000000000000000000000000000000000008152600401611a629061325a565b60405180910390fd5b611a76838383612228565b611a816000826117ee565b6001600360008573ffffffffffffffffffffffffffffffffffffffff1673ffffffffffffffffffffffffffffffffffffffff1681526020019081526020016000206000828254611ad19190613634565b925050819055506001600360008473ffffffffffffffffffffffffffffffffffffffff1673ffffffffffffffffffffffffffffffffffffffff1681526020019081526020016000206000828254611b2891906135ad565b92505081905550816002600083815260200190815260200160002060006101000a81548173ffffffffffffffffffffffffffffffffffffffff021916908373ffffffffffffffffffffffffffffffffffffffff160217905550808273ffffffffffffffffffffffffffffffffffffffff168473ffffffffffffffffffffffffffffffffffffffff167fddf252ad1be2c89b69c2b068fc378daa952ba7f163c4a11628f55a4df523b3ef60405160405180910390a4505050565b6000611bec826109ac565b9050611bfa81600084612228565b611c056000836117ee565b6001600360008373ffffffffffffffffffffffffffffffffffffffff1673ffffffffffffffffffffffffffffffffffffffff1681526020019081526020016000206000828254611c559190613634565b925050819055506002600083815260200190815260200160002060006101000a81549073ffffffffffffffffffffffffffffffffffffffff021916905581600073ffffffffffffffffffffffffffffffffffffffff168273ffffffffffffffffffffffffffffffffffffffff167fddf252ad1be2c89b69c2b068fc378daa952ba7f163c4a11628f55a4df523b3ef60405160405180910390a45050565b6000600a60009054906101000a900473ffffffffffffffffffffffffffffffffffffffff16905081600a60006101000a81548173ffffffffffffffffffffffffffffffffffffffff021916908373ffffffffffffffffffffffffffffffffffffffff1602179055508173ffffffffffffffffffffffffffffffffffffffff168173ffffffffffffffffffffffffffffffffffffffff167f8be0079c531659141344cd1fd0a4f28419497f9722a3daafe3b4186f6b6457e060405160405180910390a35050565b600073ffffffffffffffffffffffffffffffffffffffff168273ffffffffffffffffffffffffffffffffffffffff161415611e28576040517f08c379a0000000000000000000000000000000000000000000000000000000008152600401611e1f9061331a565b60405180910390fd5b611e318161177a565b15611e71576040517f08c379a0000000000000000000000000000000000000000000000000000000008152600401611e689061323a565b60405180910390fd5b611e7d60008383612228565b6001600360008473ffffffffffffffffffffffffffffffffffffffff1673ffffffffffffffffffffffffffffffffffffffff1681526020019081526020016000206000828254611ecd91906135ad565b92505081905550816002600083815260200190815260200160002060006101000a81548173ffffffffffffffffffffffffffffffffffffffff021916908373ffffffffffffffffffffffffffffffffffffffff160217905550808273ffffffffffffffffffffffffffffffffffffffff16600073ffffffffffffffffffffffffffffffffffffffff167fddf252ad1be2c89b69c2b068fc378daa952ba7f163c4a11628f55a4df523b3ef60405160405180910390a45050565b80600e600084815260200190815260200160002060008201518160000155602082015181600101559050505050565b611fc0848484611985565b611fcc8484848461233c565b61200b576040517f08c379a0000000000000000000000000000000000000000000000000000000008152600401612002906131da565b60405180910390fd5b50505050565b60606000821415612059576040518060400160405280600181526020017f300000000000000000000000000000000000000000000000000000000000000081525090506121b9565b600082905060005b6000821461208b57808061207490613781565b915050600a826120849190613603565b9150612061565b60008167ffffffffffffffff8111156120cd577f4e487b7100000000000000000000000000000000000000000000000000000000600052604160045260246000fd5b6040519080825280601f01601f1916602001820160405280156120ff5781602001600182028036833780820191505090505b5090505b600085146121b2576001826121189190613634565b9150600a8561212791906137ca565b603061213391906135ad565b60f81b81838151811061216f577f4e487b7100000000000000000000000000000000000000000000000000000000600052603260045260246000fd5b60200101907effffffffffffffffffffffffffffffffffffffffffffffffffffffffffffff1916908160001a905350600a856121ab9190613603565b9450612103565b8093505050505b919050565b60007f01ffc9a7000000000000000000000000000000000000000000000000000000007bffffffffffffffffffffffffffffffffffffffffffffffffffffffff1916827bffffffffffffffffffffffffffffffffffffffffffffffffffffffff1916149050919050565b6122338383836124d3565b600073ffffffffffffffffffffffffffffffffffffffff168373ffffffffffffffffffffffffffffffffffffffff16141561227657612271816124d8565b6122b5565b8173ffffffffffffffffffffffffffffffffffffffff168373ffffffffffffffffffffffffffffffffffffffff16146122b4576122b38382612521565b5b5b600073ffffffffffffffffffffffffffffffffffffffff168273ffffffffffffffffffffffffffffffffffffffff1614156122f8576122f38161268e565b612337565b8273ffffffffffffffffffffffffffffffffffffffff168273ffffffffffffffffffffffffffffffffffffffff16146123365761233582826127d1565b5b5b505050565b600061235d8473ffffffffffffffffffffffffffffffffffffffff16612850565b156124c6578373ffffffffffffffffffffffffffffffffffffffff1663150b7a026123866117e6565b8786866040518563ffffffff1660e01b81526004016123a8949392919061310f565b602060405180830381600087803b1580156123c257600080fd5b505af19250505080156123f357506040513d601f19601f820116820180604052508101906123f09190612c4f565b60015b612476573d8060008114612423576040519150601f19603f3d011682016040523d82523d6000602084013e612428565b606091505b5060008151141561246e576040517f08c379a0000000000000000000000000000000000000000000000000000000008152600401612465906131da565b60405180910390fd5b805181602001fd5b63150b7a0260e01b7bffffffffffffffffffffffffffffffffffffffffffffffffffffffff1916817bffffffffffffffffffffffffffffffffffffffffffffffffffffffff1916149150506124cb565b600190505b949350505050565b505050565b6008805490506009600083815260200190815260200160002081905550600881908060018154018082558091505060019003906000526020600020016000909190919091505550565b6000600161252e84610a5e565b6125389190613634565b905060006007600084815260200190815260200160002054905081811461261d576000600660008673ffffffffffffffffffffffffffffffffffffffff1673ffffffffffffffffffffffffffffffffffffffff168152602001908152602001600020600084815260200190815260200160002054905080600660008773ffffffffffffffffffffffffffffffffffffffff1673ffffffffffffffffffffffffffffffffffffffff168152602001908152602001600020600084815260200190815260200160002081905550816007600083815260200190815260200160002081905550505b6007600084815260200190815260200160002060009055600660008573ffffffffffffffffffffffffffffffffffffffff1673ffffffffffffffffffffffffffffffffffffffff16815260200190815260200160002060008381526020019081526020016000206000905550505050565b600060016008805490506126a29190613634565b90506000600960008481526020019081526020016000205490506000600883815481106126f8577f4e487b7100000000000000000000000000000000000000000000000000000000600052603260045260246000fd5b906000526020600020015490508060088381548110612740577f4e487b7100000000000000000000000000000000000000000000000000000000600052603260045260246000fd5b9060005260206000200181905550816009600083815260200190815260200160002081905550600960008581526020019081526020016000206000905560088054806127b5577f4e487b7100000000000000000000000000000000000000000000000000000000600052603160045260246000fd5b6001900381819060005260206000200160009055905550505050565b60006127dc83610a5e565b905081600660008573ffffffffffffffffffffffffffffffffffffffff1673ffffffffffffffffffffffffffffffffffffffff168152602001908152602001600020600083815260200190815260200160002081905550806007600084815260200190815260200160002081905550505050565b600080823b905060008111915050919050565b6000612876612871846134cf565b6134aa565b90508281526020810184848401111561288e57600080fd5b6128998482856136dc565b509392505050565b60006128b46128af84613500565b6134aa565b9050828152602081018484840111156128cc57600080fd5b6128d78482856136dc565b509392505050565b60006128f26128ed84613500565b6134aa565b90508281526020810184848401111561290a57600080fd5b6129158482856136eb565b509392505050565b60008135905061292c81613e0d565b92915050565b60008135905061294181613e24565b92915050565b60008135905061295681613e3b565b92915050565b60008151905061296b81613e3b565b92915050565b600082601f83011261298257600080fd5b8135612992848260208601612863565b91505092915050565b600082601f8301126129ac57600080fd5b81356129bc8482602086016128a1565b91505092915050565b600082601f8301126129d657600080fd5b81516129e68482602086016128df565b91505092915050565b6000813590506129fe81613e52565b92915050565b600060208284031215612a1657600080fd5b6000612a248482850161291d565b91505092915050565b60008060408385031215612a4057600080fd5b6000612a4e8582860161291d565b9250506020612a5f8582860161291d565b9150509250929050565b600080600060608486031215612a7e57600080fd5b6000612a8c8682870161291d565b9350506020612a9d8682870161291d565b9250506040612aae868287016129ef565b9150509250925092565b60008060008060808587031215612ace57600080fd5b6000612adc8782880161291d565b9450506020612aed8782880161291d565b9350506040612afe878288016129ef565b925050606085013567ffffffffffffffff811115612b1b57600080fd5b612b2787828801612971565b91505092959194509250565b60008060408385031215612b4657600080fd5b6000612b548582860161291d565b9250506020612b6585828601612932565b9150509250929050565b60008060408385031215612b8257600080fd5b6000612b908582860161291d565b9250506020612ba1858286016129ef565b9150509250929050565b60008060008060808587031215612bc157600080fd5b6000612bcf8782880161291d565b9450506020612be0878288016129ef565b9350506040612bf1878288016129ef565b925050606085013567ffffffffffffffff811115612c0e57600080fd5b612c1a8782880161299b565b91505092959194509250565b600060208284031215612c3857600080fd5b6000612c4684828501612947565b91505092915050565b600060208284031215612c6157600080fd5b6000612c6f8482850161295c565b91505092915050565b600060208284031215612c8a57600080fd5b600082015167ffffffffffffffff811115612ca457600080fd5b612cb0848285016129c5565b91505092915050565b600060208284031215612ccb57600080fd5b6000612cd9848285016129ef565b91505092915050565b6000612cee83836130b2565b60208301905092915050565b612d0381613668565b82525050565b6000612d1482613541565b612d1e818561356f565b9350612d2983613531565b8060005b83811015612d5a578151612d418882612ce2565b9750612d4c83613562565b925050600181019050612d2d565b5085935050505092915050565b612d708161367a565b82525050565b6000612d818261354c565b612d8b8185613580565b9350612d9b8185602086016136eb565b612da4816138b7565b840191505092915050565b6000612dba82613557565b612dc48185613591565b9350612dd48185602086016136eb565b612ddd816138b7565b840191505092915050565b6000612df382613557565b612dfd81856135a2565b9350612e0d8185602086016136eb565b80840191505092915050565b6000612e26602b83613591565b9150612e31826138c8565b604082019050919050565b6000612e49603283613591565b9150612e5482613917565b604082019050919050565b6000612e6c602e83613591565b9150612e7782613966565b604082019050919050565b6000612e8f602683613591565b9150612e9a826139b5565b604082019050919050565b6000612eb2601c83613591565b9150612ebd82613a04565b602082019050919050565b6000612ed5602483613591565b9150612ee082613a2d565b604082019050919050565b6000612ef8601983613591565b9150612f0382613a7c565b602082019050919050565b6000612f1b602c83613591565b9150612f2682613aa5565b604082019050919050565b6000612f3e603883613591565b9150612f4982613af4565b604082019050919050565b6000612f61602a83613591565b9150612f6c82613b43565b604082019050919050565b6000612f84602983613591565b9150612f8f82613b92565b604082019050919050565b6000612fa7602083613591565b9150612fb282613be1565b602082019050919050565b6000612fca602c83613591565b9150612fd582613c0a565b604082019050919050565b6000612fed602083613591565b9150612ff882613c59565b602082019050919050565b6000613010602983613591565b915061301b82613c82565b604082019050919050565b6000613033603d83613591565b915061303e82613cd1565b604082019050919050565b6000613056602183613591565b915061306182613d20565b604082019050919050565b6000613079603183613591565b915061308482613d6f565b604082019050919050565b600061309c602c83613591565b91506130a782613dbe565b604082019050919050565b6130bb816136d2565b82525050565b6130ca816136d2565b82525050565b60006130dc8285612de8565b91506130e88284612de8565b91508190509392505050565b60006020820190506131096000830184612cfa565b92915050565b60006080820190506131246000830187612cfa565b6131316020830186612cfa565b61313e60408301856130c1565b81810360608301526131508184612d76565b905095945050505050565b600060208201905081810360008301526131758184612d09565b905092915050565b60006020820190506131926000830184612d67565b92915050565b600060208201905081810360008301526131b28184612daf565b905092915050565b600060208201905081810360008301526131d381612e19565b9050919050565b600060208201905081810360008301526131f381612e3c565b9050919050565b6000602082019050818103600083015261321381612e5f565b9050919050565b6000602082019050818103600083015261323381612e82565b9050919050565b6000602082019050818103600083015261325381612ea5565b9050919050565b6000602082019050818103600083015261327381612ec8565b9050919050565b6000602082019050818103600083015261329381612eeb565b9050919050565b600060208201905081810360008301526132b381612f0e565b9050919050565b600060208201905081810360008301526132d381612f31565b9050919050565b600060208201905081810360008301526132f381612f54565b9050919050565b6000602082019050818103600083015261331381612f77565b9050919050565b6000602082019050818103600083015261333381612f9a565b9050919050565b6000602082019050818103600083015261335381612fbd565b9050919050565b6000602082019050818103600083015261337381612fe0565b9050919050565b6000602082019050818103600083015261339381613003565b9050919050565b600060208201905081810360008301526133b381613026565b9050919050565b600060208201905081810360008301526133d381613049565b9050919050565b600060208201905081810360008301526133f38161306c565b9050919050565b600060208201905081810360008301526134138161308f565b9050919050565b600060208201905061342f60008301846130c1565b92915050565b600060408201905061344a60008301856130c1565b6134576020830184612cfa565b9392505050565b600060808201905061347360008301876130c1565b6134806020830186612cfa565b61348d60408301856130c1565b818103606083015261349f8184612daf565b905095945050505050565b60006134b46134c5565b90506134c08282613750565b919050565b6000604051905090565b600067ffffffffffffffff8211156134ea576134e9613888565b5b6134f3826138b7565b9050602081019050919050565b600067ffffffffffffffff82111561351b5761351a613888565b5b613524826138b7565b9050602081019050919050565b6000819050602082019050919050565b600081519050919050565b600081519050919050565b600081519050919050565b6000602082019050919050565b600082825260208201905092915050565b600082825260208201905092915050565b600082825260208201905092915050565b600081905092915050565b60006135b8826136d2565b91506135c3836136d2565b9250827fffffffffffffffffffffffffffffffffffffffffffffffffffffffffffffffff038211156135f8576135f76137fb565b5b828201905092915050565b600061360e826136d2565b9150613619836136d2565b9250826136295761362861382a565b5b828204905092915050565b600061363f826136d2565b915061364a836136d2565b92508282101561365d5761365c6137fb565b5b828203905092915050565b6000613673826136b2565b9050919050565b60008115159050919050565b60007fffffffff0000000000000000000000000000000000000000000000000000000082169050919050565b600073ffffffffffffffffffffffffffffffffffffffff82169050919050565b6000819050919050565b82818337600083830152505050565b60005b838110156137095780820151818401526020810190506136ee565b83811115613718576000848401525b50505050565b6000600282049050600182168061373657607f821691505b6020821081141561374a57613749613859565b5b50919050565b613759826138b7565b810181811067ffffffffffffffff8211171561377857613777613888565b5b80604052505050565b600061378c826136d2565b91507fffffffffffffffffffffffffffffffffffffffffffffffffffffffffffffffff8214156137bf576137be6137fb565b5b600182019050919050565b60006137d5826136d2565b91506137e0836136d2565b9250826137f0576137ef61382a565b5b828206905092915050565b7f4e487b7100000000000000000000000000000000000000000000000000000000600052601160045260246000fd5b7f4e487b7100000000000000000000000000000000000000000000000000000000600052601260045260246000fd5b7f4e487b7100000000000000000000000000000000000000000000000000000000600052602260045260246000fd5b7f4e487b7100000000000000000000000000000000000000000000000000000000600052604160045260246000fd5b6000601f19601f8301169050919050565b7f455243373231456e756d657261626c653a206f776e657220696e646578206f7560008201527f74206f6620626f756e6473000000000000000000000000000000000000000000602082015250565b7f4552433732313a207472616e7366657220746f206e6f6e20455243373231526560008201527f63656976657220696d706c656d656e7465720000000000000000000000000000602082015250565b7f4f6e6c792047656e6573697320466163746f727920697320616c6c6f7765642060008201527f746f206d696e7420746f6b656e73000000000000000000000000000000000000602082015250565b7f4f776e61626c653a206e6577206f776e657220697320746865207a65726f206160008201527f6464726573730000000000000000000000000000000000000000000000000000602082015250565b7f4552433732313a20746f6b656e20616c7265616479206d696e74656400000000600082015250565b7f4552433732313a207472616e7366657220746f20746865207a65726f2061646460008201527f7265737300000000000000000000000000000000000000000000000000000000602082015250565b7f4552433732313a20617070726f766520746f2063616c6c657200000000000000600082015250565b7f4552433732313a206f70657261746f7220717565727920666f72206e6f6e657860008201527f697374656e7420746f6b656e0000000000000000000000000000000000000000602082015250565b7f4552433732313a20617070726f76652063616c6c6572206973206e6f74206f7760008201527f6e6572206e6f7220617070726f76656420666f7220616c6c0000000000000000602082015250565b7f4552433732313a2062616c616e636520717565727920666f7220746865207a6560008201527f726f206164647265737300000000000000000000000000000000000000000000602082015250565b7f4552433732313a206f776e657220717565727920666f72206e6f6e657869737460008201527f656e7420746f6b656e0000000000000000000000000000000000000000000000602082015250565b7f4552433732313a206d696e7420746f20746865207a65726f2061646472657373600082015250565b7f4552433732313a20617070726f76656420717565727920666f72206e6f6e657860008201527f697374656e7420746f6b656e0000000000000000000000000000000000000000602082015250565b7f4f776e61626c653a2063616c6c6572206973206e6f7420746865206f776e6572600082015250565b7f4552433732313a207472616e73666572206f6620746f6b656e2074686174206960008201527f73206e6f74206f776e0000000000000000000000000000000000000000000000602082015250565b7f596f752063616e20627579206e6f206c657373207468616e20312c20616e642060008201527f6e6f206d6f7265207468616e20617420746568652073616d6574696d65000000602082015250565b7f4552433732313a20617070726f76616c20746f2063757272656e74206f776e6560008201527f7200000000000000000000000000000000000000000000000000000000000000602082015250565b7f4552433732313a207472616e736665722063616c6c6572206973206e6f74206f60008201527f776e6572206e6f7220617070726f766564000000000000000000000000000000602082015250565b7f455243373231456e756d657261626c653a20676c6f62616c20696e646578206f60008201527f7574206f6620626f756e64730000000000000000000000000000000000000000602082015250565b613e1681613668565b8114613e2157600080fd5b50565b613e2d8161367a565b8114613e3857600080fd5b50565b613e4481613686565b8114613e4f57600080fd5b50565b613e5b816136d2565b8114613e6657600080fd5b5056fea26469706673582212204099a4e39b81f7bc03554b59f9f18e3267fe076f139ae6c288c39d02aba13f7064736f6c63430008040033",
  "immutableReferences": {},
  "source": "// CYBER\n// SPDX-License-Identifier: MIT\n\npragma solidity ^0.8.0;\npragma experimental ABIEncoderV2;\n\n// import 'hardhat/console.sol';\n// import 'https://github.com/OpenZeppelin/openzeppelin-contracts/blob/master/contracts/token/ERC721/extensions/ERC721Enumerable.sol';\n// import 'https://github.com/OpenZeppelin/openzeppelin-contracts/blob/master/contracts/utils/math/SafeMath.sol';\n// import 'https://github.com/OpenZeppelin/openzeppelin-contracts/blob/master/contracts/utils/Strings.sol';\n// import 'https://github.com/OpenZeppelin/openzeppelin-contracts/blob/master/contracts/access/Ownable.sol';\n\nimport '../node_modules/@openzeppelin/contracts/token/ERC721/extensions/ERC721Enumerable.sol';\nimport '../node_modules/@openzeppelin/contracts/access/Ownable.sol';\nimport '../node_modules/@openzeppelin/contracts/utils/math/SafeMath.sol';\nimport '../node_modules/@openzeppelin/contracts/utils/Strings.sol';\n\nimport './Proxy.sol';\nimport './GenesisCart.sol';\n\ncontract CartERC721 is ERC721Enumerable, Ownable, Proxy {\n  using SafeMath for uint256;\n  using SafeMath for uint8;\n\n  GenesisCart cartInstance;\n\n  struct SoldMetaERC721 {\n    uint256 tokenId;\n    uint256 productId;\n  }\n\n  mapping(uint256 => SoldMetaERC721) private _soldProducts;\n\n  event ProductBurned_cartArt721(uint256 productId, address _ownerAddress);\n\n  constructor(address _proxyAddr) public ERC721('cart.art ERC721', 'LOOK LABS') {\n    cartInstance = GenesisCart(_proxyAddr);\n    setProxy(_proxyAddr);\n  }\n\n  function buy(\n    address _to,\n    uint256 _qty,\n    uint256 _productId,\n    string memory _data\n  ) public onlyProxy {\n    require(\n      _qty > 0 && _qty <= 10,\n      'You can buy no less than 1, and no more than at tehe sametime'\n    );\n    for (uint256 i = 0; i < _qty; i++) {\n      uint256 mintIndex = totalSupply() + 1;\n      SoldMetaERC721 memory sold = SoldMetaERC721(mintIndex, _productId);\n      _mint(_to, mintIndex);\n      cartInstance.productSold(mintIndex, _to, _productId, _data);\n      _setTokenMeta(mintIndex, sold);\n    }\n  }\n\n  function burn(uint256 _tokenId) external {\n    require(ownerOf(_tokenId) == _msgSender());\n    emit ProductBurned_cartArt721(_tokenId, _msgSender());\n    _burn(_tokenId);\n  }\n\n  function tokenURI(uint256 _tokenId) public view override returns (string memory) {\n    uint256 productId = _soldProducts[_tokenId].productId;\n    string memory _tokenURI = cartInstance.getMetaURI(productId);\n    return string(abi.encodePacked(_tokenURI, Strings.toString(_tokenId)));\n  }\n\n  function _setTokenMeta(uint256 _tokenId, SoldMetaERC721 memory _meta) private {\n    _soldProducts[_tokenId] = _meta;\n  }\n\n  function tokensOfOwner(address _owner) external view returns (uint256[] memory) {\n    uint256 tokenCount = balanceOf(_owner);\n    if (tokenCount == 0) {\n      return new uint256[](0);\n    } else {\n      uint256[] memory result = new uint256[](tokenCount);\n      uint256 index;\n      for (index = 0; index < tokenCount; index++) {\n        result[index] = tokenOfOwnerByIndex(_owner, index);\n      }\n      return result;\n    }\n  }\n}\n",
  "sourcePath": "/Users/jordan/eliteWeb-v2/src/contracts/contracts/CartERC721.sol",
  "compiler": {
    "name": "solc",
    "version": "0.8.4+commit.c7e474f2.Emscripten.clang"
  },
  "schemaVersion": "3.4.1",
  "updatedAt": "2021-12-19T22:46:30.346Z",
  "networkType": "ethereum",
  "devdoc": {
    "kind": "dev",
    "methods": {
      "approve(address,uint256)": {
        "details": "See {IERC721-approve}."
      },
      "balanceOf(address)": {
        "details": "See {IERC721-balanceOf}."
      },
      "getApproved(uint256)": {
        "details": "See {IERC721-getApproved}."
      },
      "isApprovedForAll(address,address)": {
        "details": "See {IERC721-isApprovedForAll}."
      },
      "name()": {
        "details": "See {IERC721Metadata-name}."
      },
      "owner()": {
        "details": "Returns the address of the current owner."
      },
      "ownerOf(uint256)": {
        "details": "See {IERC721-ownerOf}."
      },
      "renounceOwnership()": {
        "details": "Leaves the contract without owner. It will not be possible to call `onlyOwner` functions anymore. Can only be called by the current owner. NOTE: Renouncing ownership will leave the contract without an owner, thereby removing any functionality that is only available to the owner."
      },
      "safeTransferFrom(address,address,uint256)": {
        "details": "See {IERC721-safeTransferFrom}."
      },
      "safeTransferFrom(address,address,uint256,bytes)": {
        "details": "See {IERC721-safeTransferFrom}."
      },
      "setApprovalForAll(address,bool)": {
        "details": "See {IERC721-setApprovalForAll}."
      },
      "supportsInterface(bytes4)": {
        "details": "See {IERC165-supportsInterface}."
      },
      "symbol()": {
        "details": "See {IERC721Metadata-symbol}."
      },
      "tokenByIndex(uint256)": {
        "details": "See {IERC721Enumerable-tokenByIndex}."
      },
      "tokenOfOwnerByIndex(address,uint256)": {
        "details": "See {IERC721Enumerable-tokenOfOwnerByIndex}."
      },
      "totalSupply()": {
        "details": "See {IERC721Enumerable-totalSupply}."
      },
      "transferFrom(address,address,uint256)": {
        "details": "See {IERC721-transferFrom}."
      },
      "transferOwnership(address)": {
        "details": "Transfers ownership of the contract to a new account (`newOwner`). Can only be called by the current owner."
      }
    },
    "version": 1
  },
  "userdoc": {
    "kind": "user",
    "methods": {},
    "version": 1
  }
}