{
  "contractName": "CartERC1155",
  "abi": [
    {
      "inputs": [
        {
          "internalType": "address",
          "name": "_proxyAddr",
          "type": "address"
        }
      ],
      "stateMutability": "nonpayable",
      "type": "constructor"
    },
    {
      "anonymous": false,
      "inputs": [
        {
          "indexed": true,
          "internalType": "address",
          "name": "account",
          "type": "address"
        },
        {
          "indexed": true,
          "internalType": "address",
          "name": "operator",
          "type": "address"
        },
        {
          "indexed": false,
          "internalType": "bool",
          "name": "approved",
          "type": "bool"
        }
      ],
      "name": "ApprovalForAll",
      "type": "event"
    },
    {
      "anonymous": false,
      "inputs": [
        {
          "indexed": true,
          "internalType": "address",
          "name": "previousOwner",
          "type": "address"
        },
        {
          "indexed": true,
          "internalType": "address",
          "name": "newOwner",
          "type": "address"
        }
      ],
      "name": "OwnershipTransferred",
      "type": "event"
    },
    {
      "anonymous": false,
      "inputs": [
        {
          "indexed": false,
          "internalType": "uint256",
          "name": "productId",
          "type": "uint256"
        },
        {
          "indexed": false,
          "internalType": "address",
          "name": "_ownerAddress",
          "type": "address"
        }
      ],
      "name": "ProductBurned_cartArt1155",
      "type": "event"
    },
    {
      "anonymous": false,
      "inputs": [
        {
          "indexed": false,
          "internalType": "address",
          "name": "_contract",
          "type": "address"
        }
      ],
      "name": "SetStoreContract",
      "type": "event"
    },
    {
      "anonymous": false,
      "inputs": [
        {
          "indexed": true,
          "internalType": "address",
          "name": "operator",
          "type": "address"
        },
        {
          "indexed": true,
          "internalType": "address",
          "name": "from",
          "type": "address"
        },
        {
          "indexed": true,
          "internalType": "address",
          "name": "to",
          "type": "address"
        },
        {
          "indexed": false,
          "internalType": "uint256[]",
          "name": "ids",
          "type": "uint256[]"
        },
        {
          "indexed": false,
          "internalType": "uint256[]",
          "name": "values",
          "type": "uint256[]"
        }
      ],
      "name": "TransferBatch",
      "type": "event"
    },
    {
      "anonymous": false,
      "inputs": [
        {
          "indexed": true,
          "internalType": "address",
          "name": "operator",
          "type": "address"
        },
        {
          "indexed": true,
          "internalType": "address",
          "name": "from",
          "type": "address"
        },
        {
          "indexed": true,
          "internalType": "address",
          "name": "to",
          "type": "address"
        },
        {
          "indexed": false,
          "internalType": "uint256",
          "name": "id",
          "type": "uint256"
        },
        {
          "indexed": false,
          "internalType": "uint256",
          "name": "value",
          "type": "uint256"
        }
      ],
      "name": "TransferSingle",
      "type": "event"
    },
    {
      "anonymous": false,
      "inputs": [
        {
          "indexed": false,
          "internalType": "string",
          "name": "value",
          "type": "string"
        },
        {
          "indexed": true,
          "internalType": "uint256",
          "name": "id",
          "type": "uint256"
        }
      ],
      "name": "URI",
      "type": "event"
    },
    {
      "anonymous": false,
      "inputs": [
        {
          "indexed": true,
          "internalType": "address",
          "name": "previousProxy",
          "type": "address"
        },
        {
          "indexed": true,
          "internalType": "address",
          "name": "newProxy",
          "type": "address"
        }
      ],
      "name": "cartART",
      "type": "event"
    },
    {
      "inputs": [
        {
          "internalType": "address",
          "name": "_child",
          "type": "address"
        }
      ],
      "name": "_approveChildContract",
      "outputs": [],
      "stateMutability": "nonpayable",
      "type": "function"
    },
    {
      "inputs": [
        {
          "internalType": "address",
          "name": "account",
          "type": "address"
        },
        {
          "internalType": "uint256",
          "name": "id",
          "type": "uint256"
        }
      ],
      "name": "balanceOf",
      "outputs": [
        {
          "internalType": "uint256",
          "name": "",
          "type": "uint256"
        }
      ],
      "stateMutability": "view",
      "type": "function",
      "constant": true
    },
    {
      "inputs": [
        {
          "internalType": "address[]",
          "name": "accounts",
          "type": "address[]"
        },
        {
          "internalType": "uint256[]",
          "name": "ids",
          "type": "uint256[]"
        }
      ],
      "name": "balanceOfBatch",
      "outputs": [
        {
          "internalType": "uint256[]",
          "name": "",
          "type": "uint256[]"
        }
      ],
      "stateMutability": "view",
      "type": "function",
      "constant": true
    },
    {
      "inputs": [
        {
          "internalType": "uint256",
          "name": "id",
          "type": "uint256"
        }
      ],
      "name": "exists",
      "outputs": [
        {
          "internalType": "bool",
          "name": "",
          "type": "bool"
        }
      ],
      "stateMutability": "view",
      "type": "function",
      "constant": true
    },
    {
      "inputs": [
        {
          "internalType": "address",
          "name": "account",
          "type": "address"
        },
        {
          "internalType": "address",
          "name": "operator",
          "type": "address"
        }
      ],
      "name": "isApprovedForAll",
      "outputs": [
        {
          "internalType": "bool",
          "name": "",
          "type": "bool"
        }
      ],
      "stateMutability": "view",
      "type": "function",
      "constant": true
    },
    {
      "inputs": [],
      "name": "owner",
      "outputs": [
        {
          "internalType": "address",
          "name": "",
          "type": "address"
        }
      ],
      "stateMutability": "view",
      "type": "function",
      "constant": true
    },
    {
      "inputs": [],
      "name": "renounceOwnership",
      "outputs": [],
      "stateMutability": "nonpayable",
      "type": "function"
    },
    {
      "inputs": [
        {
          "internalType": "address",
          "name": "from",
          "type": "address"
        },
        {
          "internalType": "address",
          "name": "to",
          "type": "address"
        },
        {
          "internalType": "uint256[]",
          "name": "ids",
          "type": "uint256[]"
        },
        {
          "internalType": "uint256[]",
          "name": "amounts",
          "type": "uint256[]"
        },
        {
          "internalType": "bytes",
          "name": "data",
          "type": "bytes"
        }
      ],
      "name": "safeBatchTransferFrom",
      "outputs": [],
      "stateMutability": "nonpayable",
      "type": "function"
    },
    {
      "inputs": [
        {
          "internalType": "address",
          "name": "from",
          "type": "address"
        },
        {
          "internalType": "address",
          "name": "to",
          "type": "address"
        },
        {
          "internalType": "uint256",
          "name": "id",
          "type": "uint256"
        },
        {
          "internalType": "uint256",
          "name": "amount",
          "type": "uint256"
        },
        {
          "internalType": "bytes",
          "name": "data",
          "type": "bytes"
        }
      ],
      "name": "safeTransferFrom",
      "outputs": [],
      "stateMutability": "nonpayable",
      "type": "function"
    },
    {
      "inputs": [
        {
          "internalType": "address",
          "name": "operator",
          "type": "address"
        },
        {
          "internalType": "bool",
          "name": "approved",
          "type": "bool"
        }
      ],
      "name": "setApprovalForAll",
      "outputs": [],
      "stateMutability": "nonpayable",
      "type": "function"
    },
    {
      "inputs": [
        {
          "internalType": "address",
          "name": "_newProxyAddr",
          "type": "address"
        }
      ],
      "name": "setProxy",
      "outputs": [],
      "stateMutability": "nonpayable",
      "type": "function"
    },
    {
      "inputs": [
        {
          "internalType": "bytes4",
          "name": "interfaceId",
          "type": "bytes4"
        }
      ],
      "name": "supportsInterface",
      "outputs": [
        {
          "internalType": "bool",
          "name": "",
          "type": "bool"
        }
      ],
      "stateMutability": "view",
      "type": "function",
      "constant": true
    },
    {
      "inputs": [
        {
          "internalType": "uint256",
          "name": "id",
          "type": "uint256"
        }
      ],
      "name": "totalSupply",
      "outputs": [
        {
          "internalType": "uint256",
          "name": "",
          "type": "uint256"
        }
      ],
      "stateMutability": "view",
      "type": "function",
      "constant": true
    },
    {
      "inputs": [
        {
          "internalType": "address",
          "name": "newOwner",
          "type": "address"
        }
      ],
      "name": "transferOwnership",
      "outputs": [],
      "stateMutability": "nonpayable",
      "type": "function"
    },
    {
      "inputs": [
        {
          "internalType": "address",
          "name": "_to",
          "type": "address"
        },
        {
          "internalType": "uint256",
          "name": "_qty",
          "type": "uint256"
        },
        {
          "internalType": "uint256",
          "name": "_productId",
          "type": "uint256"
        },
        {
          "internalType": "string",
          "name": "_data",
          "type": "string"
        }
      ],
      "name": "buy",
      "outputs": [],
      "stateMutability": "nonpayable",
      "type": "function"
    },
    {
      "inputs": [
        {
          "internalType": "uint256",
          "name": "_tokenId",
          "type": "uint256"
        }
      ],
      "name": "uri",
      "outputs": [
        {
          "internalType": "string",
          "name": "",
          "type": "string"
        }
      ],
      "stateMutability": "view",
      "type": "function",
      "constant": true
    },
    {
      "inputs": [
        {
          "internalType": "address",
          "name": "_owner",
          "type": "address"
        },
        {
          "internalType": "uint256",
          "name": "tokenId",
          "type": "uint256"
        },
        {
          "internalType": "uint256",
          "name": "_qty",
          "type": "uint256"
        }
      ],
      "name": "burn",
      "outputs": [],
      "stateMutability": "nonpayable",
      "type": "function"
    }
  ],
  "bytecode": "0x60806040526000600760006101000a81548160ff021916908360ff1602179055503480156200002d57600080fd5b50604051620045b0380380620045b0833981810160405281019062000053919062000418565b604051806020016040528060008152506200007481620000ee60201b60201c565b5062000095620000896200010a60201b60201c565b6200011260201b60201c565b80600760016101000a81548173ffffffffffffffffffffffffffffffffffffffff021916908373ffffffffffffffffffffffffffffffffffffffff160217905550620000e781620001d860201b60201c565b506200057a565b80600290805190602001906200010692919062000351565b5050565b600033905090565b6000600460009054906101000a900473ffffffffffffffffffffffffffffffffffffffff16905081600460006101000a81548173ffffffffffffffffffffffffffffffffffffffff021916908373ffffffffffffffffffffffffffffffffffffffff1602179055508173ffffffffffffffffffffffffffffffffffffffff168173ffffffffffffffffffffffffffffffffffffffff167f8be0079c531659141344cd1fd0a4f28419497f9722a3daafe3b4186f6b6457e060405160405180910390a35050565b620001e86200010a60201b60201c565b73ffffffffffffffffffffffffffffffffffffffff166200020e6200032760201b60201c565b73ffffffffffffffffffffffffffffffffffffffff161462000267576040517f08c379a00000000000000000000000000000000000000000000000000000000081526004016200025e906200046b565b60405180910390fd5b8073ffffffffffffffffffffffffffffffffffffffff16600560009054906101000a900473ffffffffffffffffffffffffffffffffffffffff1673ffffffffffffffffffffffffffffffffffffffff167f5b09f0d0a4cbf8770fd092cf5ee60221e5addb9d44f01f52b1e8c6fe34842e3f60405160405180910390a380600560006101000a81548173ffffffffffffffffffffffffffffffffffffffff021916908373ffffffffffffffffffffffffffffffffffffffff16021790555050565b6000600460009054906101000a900473ffffffffffffffffffffffffffffffffffffffff16905090565b8280546200035f90620004d2565b90600052602060002090601f016020900481019282620003835760008555620003cf565b82601f106200039e57805160ff1916838001178555620003cf565b82800160010185558215620003cf579182015b82811115620003ce578251825591602001919060010190620003b1565b5b509050620003de9190620003e2565b5090565b5b80821115620003fd576000816000905550600101620003e3565b5090565b600081519050620004128162000560565b92915050565b6000602082840312156200042b57600080fd5b60006200043b8482850162000401565b91505092915050565b6000620004536020836200048d565b9150620004608262000537565b602082019050919050565b60006020820190508181036000830152620004868162000444565b9050919050565b600082825260208201905092915050565b6000620004ab82620004b2565b9050919050565b600073ffffffffffffffffffffffffffffffffffffffff82169050919050565b60006002820490506001821680620004eb57607f821691505b6020821081141562000502576200050162000508565b5b50919050565b7f4e487b7100000000000000000000000000000000000000000000000000000000600052602260045260246000fd5b7f4f776e61626c653a2063616c6c6572206973206e6f7420746865206f776e6572600082015250565b6200056b816200049e565b81146200057757600080fd5b50565b614026806200058a6000396000f3fe608060405234801561001057600080fd5b506004361061010a5760003560e01c80638da5cb5b116100a2578063bd85b03911610071578063bd85b039146102b3578063e985e9c5146102e3578063f242432a14610313578063f2fde38b1461032f578063f5298aca1461034b5761010a565b80638da5cb5b1461024157806397107d6d1461025f5780639de876b91461027b578063a22cb465146102975761010a565b80634e1273f4116100de5780634e1273f4146101bb5780634f558e79146101eb578063715018a61461021b5780637f8ea7da146102255761010a565b8062fdd58e1461010f57806301ffc9a71461013f5780630e89341c1461016f5780632eb2c2d61461019f575b600080fd5b61012960048036038101906101249190612b17565b610367565b60405161013691906134a4565b60405180910390f35b61015960048036038101906101549190612c89565b610430565b6040516101669190613247565b60405180910390f35b61018960048036038101906101849190612d1c565b610512565b6040516101969190613262565b60405180910390f35b6101b960048036038101906101b4919061298d565b610665565b005b6101d560048036038101906101d09190612c1d565b610706565b6040516101e291906131ee565b60405180910390f35b61020560048036038101906102009190612d1c565b6108b7565b6040516102129190613247565b60405180910390f35b6102236108cb565b005b61023f600480360381019061023a9190612928565b610953565b005b610249610a87565b6040516102569190613111565b60405180910390f35b61027960048036038101906102749190612928565b610ab1565b005b61029560048036038101906102909190612ba2565b610bed565b005b6102b160048036038101906102ac9190612adb565b610ee2565b005b6102cd60048036038101906102c89190612d1c565b610ef8565b6040516102da91906134a4565b60405180910390f35b6102fd60048036038101906102f89190612951565b610f15565b60405161030a9190613247565b60405180910390f35b61032d60048036038101906103289190612a4c565b610fa9565b005b61034960048036038101906103449190612928565b61104a565b005b61036560048036038101906103609190612b53565b611142565b005b60008073ffffffffffffffffffffffffffffffffffffffff168373ffffffffffffffffffffffffffffffffffffffff1614156103d8576040517f08c379a00000000000000000000000000000000000000000000000000000000081526004016103cf906132c4565b60405180910390fd5b60008083815260200190815260200160002060008473ffffffffffffffffffffffffffffffffffffffff1673ffffffffffffffffffffffffffffffffffffffff16815260200190815260200160002054905092915050565b60007fd9b67a26000000000000000000000000000000000000000000000000000000007bffffffffffffffffffffffffffffffffffffffffffffffffffffffff1916827bffffffffffffffffffffffffffffffffffffffffffffffffffffffff191614806104fb57507f0e89341c000000000000000000000000000000000000000000000000000000007bffffffffffffffffffffffffffffffffffffffffffffffffffffffff1916827bffffffffffffffffffffffffffffffffffffffffffffffffffffffff1916145b8061050b575061050a8261119d565b5b9050919050565b606060005b600760009054906101000a900460ff1660ff16811161065e57826008600083815260200190815260200160002060010154141561064b576000600760019054906101000a900473ffffffffffffffffffffffffffffffffffffffff1673ffffffffffffffffffffffffffffffffffffffff16634c1b2f2e60086000858152602001908152602001600020600001546040518263ffffffff1660e01b81526004016105c191906134a4565b60006040518083038186803b1580156105d957600080fd5b505afa1580156105ed573d6000803e3d6000fd5b505050506040513d6000823e3d601f19601f820116820180604052508101906106169190612cdb565b90508061062285611207565b6040516020016106339291906130ed565b60405160208183030381529060405292505050610660565b80806106569061389e565b915050610517565b505b919050565b61066d6113b4565b73ffffffffffffffffffffffffffffffffffffffff168573ffffffffffffffffffffffffffffffffffffffff1614806106b357506106b2856106ad6113b4565b610f15565b5b6106f2576040517f08c379a00000000000000000000000000000000000000000000000000000000081526004016106e990613384565b60405180910390fd5b6106ff85858585856113bc565b5050505050565b6060815183511461074c576040517f08c379a000000000000000000000000000000000000000000000000000000000815260040161074390613444565b60405180910390fd5b6000835167ffffffffffffffff81111561078f577f4e487b7100000000000000000000000000000000000000000000000000000000600052604160045260246000fd5b6040519080825280602002602001820160405280156107bd5781602001602082028036833780820191505090505b50905060005b84518110156108ac57610856858281518110610808577f4e487b7100000000000000000000000000000000000000000000000000000000600052603260045260246000fd5b6020026020010151858381518110610849577f4e487b7100000000000000000000000000000000000000000000000000000000600052603260045260246000fd5b6020026020010151610367565b82828151811061088f577f4e487b7100000000000000000000000000000000000000000000000000000000600052603260045260246000fd5b602002602001018181525050806108a59061389e565b90506107c3565b508091505092915050565b6000806108c383610ef8565b119050919050565b6108d36113b4565b73ffffffffffffffffffffffffffffffffffffffff166108f1610a87565b73ffffffffffffffffffffffffffffffffffffffff1614610947576040517f08c379a000000000000000000000000000000000000000000000000000000000815260040161093e906133e4565b60405180910390fd5b610951600061171c565b565b61095b6113b4565b73ffffffffffffffffffffffffffffffffffffffff16610979610a87565b73ffffffffffffffffffffffffffffffffffffffff16146109cf576040517f08c379a00000000000000000000000000000000000000000000000000000000081526004016109c6906133e4565b60405180910390fd5b80600660008373ffffffffffffffffffffffffffffffffffffffff1673ffffffffffffffffffffffffffffffffffffffff16815260200190815260200160002060006101000a81548173ffffffffffffffffffffffffffffffffffffffff021916908373ffffffffffffffffffffffffffffffffffffffff1602179055507f7a68f36d013025b936cfcf536ded8ac09f742b930c53cab42fb42cb75340095c81604051610a7c9190613111565b60405180910390a150565b6000600460009054906101000a900473ffffffffffffffffffffffffffffffffffffffff16905090565b610ab96113b4565b73ffffffffffffffffffffffffffffffffffffffff16610ad7610a87565b73ffffffffffffffffffffffffffffffffffffffff1614610b2d576040517f08c379a0000000000000000000000000000000000000000000000000000000008152600401610b24906133e4565b60405180910390fd5b8073ffffffffffffffffffffffffffffffffffffffff16600560009054906101000a900473ffffffffffffffffffffffffffffffffffffffff1673ffffffffffffffffffffffffffffffffffffffff167f5b09f0d0a4cbf8770fd092cf5ee60221e5addb9d44f01f52b1e8c6fe34842e3f60405160405180910390a380600560006101000a81548173ffffffffffffffffffffffffffffffffffffffff021916908373ffffffffffffffffffffffffffffffffffffffff16021790555050565b600560009054906101000a900473ffffffffffffffffffffffffffffffffffffffff1673ffffffffffffffffffffffffffffffffffffffff163373ffffffffffffffffffffffffffffffffffffffff1614610c7d576040517f08c379a0000000000000000000000000000000000000000000000000000000008152600401610c74906132e4565b60405180910390fd5b600083118015610c8e5750600a8311155b610ccd576040517f08c379a0000000000000000000000000000000000000000000000000000000008152600401610cc490613404565b60405180910390fd5b60008260086000858152602001908152602001600020600001541415610d0b5760086000848152602001908152602001600020600101549050610d58565b6001600760008282829054906101000a900460ff16610d2a919061370e565b92506101000a81548160ff021916908360ff160217905550600760009054906101000a900460ff1660ff1690505b610d998582866040518060400160405280600381526020017f30783000000000000000000000000000000000000000000000000000000000008152506117e2565b600760019054906101000a900473ffffffffffffffffffffffffffffffffffffffff1673ffffffffffffffffffffffffffffffffffffffff166326ea96b8828786866040518563ffffffff1660e01b8152600401610dfa94939291906134e8565b600060405180830381600087803b158015610e1457600080fd5b505af1158015610e28573d6000803e3d6000fd5b5050505060006040518060600160405280858152602001838152602001610e4d6113b4565b73ffffffffffffffffffffffffffffffffffffffff1681525090508060086000868152602001908152602001600020600082015181600001556020820151816001015560408201518160020160006101000a81548173ffffffffffffffffffffffffffffffffffffffff021916908373ffffffffffffffffffffffffffffffffffffffff160217905550905050505050505050565b610ef4610eed6113b4565b8383611978565b5050565b600060036000838152602001908152602001600020549050919050565b6000600160008473ffffffffffffffffffffffffffffffffffffffff1673ffffffffffffffffffffffffffffffffffffffff16815260200190815260200160002060008373ffffffffffffffffffffffffffffffffffffffff1673ffffffffffffffffffffffffffffffffffffffff16815260200190815260200160002060009054906101000a900460ff16905092915050565b610fb16113b4565b73ffffffffffffffffffffffffffffffffffffffff168573ffffffffffffffffffffffffffffffffffffffff161480610ff75750610ff685610ff16113b4565b610f15565b5b611036576040517f08c379a000000000000000000000000000000000000000000000000000000000815260040161102d90613344565b60405180910390fd5b6110438585858585611ae5565b5050505050565b6110526113b4565b73ffffffffffffffffffffffffffffffffffffffff16611070610a87565b73ffffffffffffffffffffffffffffffffffffffff16146110c6576040517f08c379a00000000000000000000000000000000000000000000000000000000081526004016110bd906133e4565b60405180910390fd5b600073ffffffffffffffffffffffffffffffffffffffff168173ffffffffffffffffffffffffffffffffffffffff161415611136576040517f08c379a000000000000000000000000000000000000000000000000000000000815260040161112d90613304565b60405180910390fd5b61113f8161171c565b50565b61114b82611d67565b61115457600080fd5b61115f838383611d7d565b7fdd08783447b0883f5bc12a1a009c6f1c2b89bf9877c222a30c5df5d2e7b4b21882846040516111909291906134bf565b60405180910390a1505050565b60007f01ffc9a7000000000000000000000000000000000000000000000000000000007bffffffffffffffffffffffffffffffffffffffffffffffffffffffff1916827bffffffffffffffffffffffffffffffffffffffffffffffffffffffff1916149050919050565b6060600082141561124f576040518060400160405280600181526020017f300000000000000000000000000000000000000000000000000000000000000081525090506113af565b600082905060005b6000821461128157808061126a9061389e565b915050600a8261127a9190613745565b9150611257565b60008167ffffffffffffffff8111156112c3577f4e487b7100000000000000000000000000000000000000000000000000000000600052604160045260246000fd5b6040519080825280601f01601f1916602001820160405280156112f55781602001600182028036833780820191505090505b5090505b600085146113a85760018261130e9190613776565b9150600a8561131d91906138e7565b603061132991906136b8565b60f81b818381518110611365577f4e487b7100000000000000000000000000000000000000000000000000000000600052603260045260246000fd5b60200101907effffffffffffffffffffffffffffffffffffffffffffffffffffffffffffff1916908160001a905350600a856113a19190613745565b94506112f9565b8093505050505b919050565b600033905090565b8151835114611400576040517f08c379a00000000000000000000000000000000000000000000000000000000081526004016113f790613464565b60405180910390fd5b600073ffffffffffffffffffffffffffffffffffffffff168473ffffffffffffffffffffffffffffffffffffffff161415611470576040517f08c379a000000000000000000000000000000000000000000000000000000000815260040161146790613364565b60405180910390fd5b600061147a6113b4565b905061148a818787878787611f9a565b60005b84518110156116875760008582815181106114d1577f4e487b7100000000000000000000000000000000000000000000000000000000600052603260045260246000fd5b602002602001015190506000858381518110611516577f4e487b7100000000000000000000000000000000000000000000000000000000600052603260045260246000fd5b60200260200101519050600080600084815260200190815260200160002060008b73ffffffffffffffffffffffffffffffffffffffff1673ffffffffffffffffffffffffffffffffffffffff168152602001908152602001600020549050818110156115b7576040517f08c379a00000000000000000000000000000000000000000000000000000000081526004016115ae906133c4565b60405180910390fd5b81810360008085815260200190815260200160002060008c73ffffffffffffffffffffffffffffffffffffffff1673ffffffffffffffffffffffffffffffffffffffff168152602001908152602001600020819055508160008085815260200190815260200160002060008b73ffffffffffffffffffffffffffffffffffffffff1673ffffffffffffffffffffffffffffffffffffffff168152602001908152602001600020600082825461166c91906136b8565b92505081905550505050806116809061389e565b905061148d565b508473ffffffffffffffffffffffffffffffffffffffff168673ffffffffffffffffffffffffffffffffffffffff168273ffffffffffffffffffffffffffffffffffffffff167f4a39dc06d4c0dbc64b70af90fd698a233a518aa5d07e595d983b8c0526c8f7fb87876040516116fe929190613210565b60405180910390a46117148187878787876121ac565b505050505050565b6000600460009054906101000a900473ffffffffffffffffffffffffffffffffffffffff16905081600460006101000a81548173ffffffffffffffffffffffffffffffffffffffff021916908373ffffffffffffffffffffffffffffffffffffffff1602179055508173ffffffffffffffffffffffffffffffffffffffff168173ffffffffffffffffffffffffffffffffffffffff167f8be0079c531659141344cd1fd0a4f28419497f9722a3daafe3b4186f6b6457e060405160405180910390a35050565b600073ffffffffffffffffffffffffffffffffffffffff168473ffffffffffffffffffffffffffffffffffffffff161415611852576040517f08c379a000000000000000000000000000000000000000000000000000000000815260040161184990613484565b60405180910390fd5b600061185c6113b4565b905061187d8160008761186e88612393565b61187788612393565b87611f9a565b8260008086815260200190815260200160002060008773ffffffffffffffffffffffffffffffffffffffff1673ffffffffffffffffffffffffffffffffffffffff16815260200190815260200160002060008282546118dc91906136b8565b925050819055508473ffffffffffffffffffffffffffffffffffffffff16600073ffffffffffffffffffffffffffffffffffffffff168273ffffffffffffffffffffffffffffffffffffffff167fc3d58168c5ae7397731d063d5bbf3d657854427343f4c083240f7aacaa2d0f62878760405161195a929190613534565b60405180910390a461197181600087878787612459565b5050505050565b8173ffffffffffffffffffffffffffffffffffffffff168373ffffffffffffffffffffffffffffffffffffffff1614156119e7576040517f08c379a00000000000000000000000000000000000000000000000000000000081526004016119de90613424565b60405180910390fd5b80600160008573ffffffffffffffffffffffffffffffffffffffff1673ffffffffffffffffffffffffffffffffffffffff16815260200190815260200160002060008473ffffffffffffffffffffffffffffffffffffffff1673ffffffffffffffffffffffffffffffffffffffff16815260200190815260200160002060006101000a81548160ff0219169083151502179055508173ffffffffffffffffffffffffffffffffffffffff168373ffffffffffffffffffffffffffffffffffffffff167f17307eab39ab6107e8899845ad3d59bd9653f200f220920489ca2b5937696c3183604051611ad89190613247565b60405180910390a3505050565b600073ffffffffffffffffffffffffffffffffffffffff168473ffffffffffffffffffffffffffffffffffffffff161415611b55576040517f08c379a0000000000000000000000000000000000000000000000000000000008152600401611b4c90613364565b60405180910390fd5b6000611b5f6113b4565b9050611b7f818787611b7088612393565b611b7988612393565b87611f9a565b600080600086815260200190815260200160002060008873ffffffffffffffffffffffffffffffffffffffff1673ffffffffffffffffffffffffffffffffffffffff16815260200190815260200160002054905083811015611c16576040517f08c379a0000000000000000000000000000000000000000000000000000000008152600401611c0d906133c4565b60405180910390fd5b83810360008087815260200190815260200160002060008973ffffffffffffffffffffffffffffffffffffffff1673ffffffffffffffffffffffffffffffffffffffff168152602001908152602001600020819055508360008087815260200190815260200160002060008873ffffffffffffffffffffffffffffffffffffffff1673ffffffffffffffffffffffffffffffffffffffff1681526020019081526020016000206000828254611ccb91906136b8565b925050819055508573ffffffffffffffffffffffffffffffffffffffff168773ffffffffffffffffffffffffffffffffffffffff168373ffffffffffffffffffffffffffffffffffffffff167fc3d58168c5ae7397731d063d5bbf3d657854427343f4c083240f7aacaa2d0f628888604051611d48929190613534565b60405180910390a4611d5e828888888888612459565b50505050505050565b600080611d743384610367565b14159050919050565b600073ffffffffffffffffffffffffffffffffffffffff168373ffffffffffffffffffffffffffffffffffffffff161415611ded576040517f08c379a0000000000000000000000000000000000000000000000000000000008152600401611de4906133a4565b60405180910390fd5b6000611df76113b4565b9050611e2781856000611e0987612393565b611e1287612393565b60405180602001604052806000815250611f9a565b600080600085815260200190815260200160002060008673ffffffffffffffffffffffffffffffffffffffff1673ffffffffffffffffffffffffffffffffffffffff16815260200190815260200160002054905082811015611ebe576040517f08c379a0000000000000000000000000000000000000000000000000000000008152600401611eb590613324565b60405180910390fd5b82810360008086815260200190815260200160002060008773ffffffffffffffffffffffffffffffffffffffff1673ffffffffffffffffffffffffffffffffffffffff16815260200190815260200160002081905550600073ffffffffffffffffffffffffffffffffffffffff168573ffffffffffffffffffffffffffffffffffffffff168373ffffffffffffffffffffffffffffffffffffffff167fc3d58168c5ae7397731d063d5bbf3d657854427343f4c083240f7aacaa2d0f628787604051611f8b929190613534565b60405180910390a45050505050565b611fa8868686868686612640565b600073ffffffffffffffffffffffffffffffffffffffff168573ffffffffffffffffffffffffffffffffffffffff1614156120a65760005b83518110156120a457828181518110612022577f4e487b7100000000000000000000000000000000000000000000000000000000600052603260045260246000fd5b602002602001015160036000868481518110612067577f4e487b7100000000000000000000000000000000000000000000000000000000600052603260045260246000fd5b60200260200101518152602001908152602001600020600082825461208c91906136b8565b925050819055508061209d9061389e565b9050611fe0565b505b600073ffffffffffffffffffffffffffffffffffffffff168473ffffffffffffffffffffffffffffffffffffffff1614156121a45760005b83518110156121a257828181518110612120577f4e487b7100000000000000000000000000000000000000000000000000000000600052603260045260246000fd5b602002602001015160036000868481518110612165577f4e487b7100000000000000000000000000000000000000000000000000000000600052603260045260246000fd5b60200260200101518152602001908152602001600020600082825461218a9190613776565b925050819055508061219b9061389e565b90506120de565b505b505050505050565b6121cb8473ffffffffffffffffffffffffffffffffffffffff16612648565b1561238b578373ffffffffffffffffffffffffffffffffffffffff1663bc197c8187878686866040518663ffffffff1660e01b815260040161221195949392919061312c565b602060405180830381600087803b15801561222b57600080fd5b505af192505050801561225c57506040513d601f19601f820116820180604052508101906122599190612cb2565b60015b612302576122686139a5565b806308c379a014156122c5575061227d613efe565b8061228857506122c7565b806040517f08c379a00000000000000000000000000000000000000000000000000000000081526004016122bc9190613262565b60405180910390fd5b505b6040517f08c379a00000000000000000000000000000000000000000000000000000000081526004016122f990613284565b60405180910390fd5b63bc197c8160e01b7bffffffffffffffffffffffffffffffffffffffffffffffffffffffff1916817bffffffffffffffffffffffffffffffffffffffffffffffffffffffff191614612389576040517f08c379a0000000000000000000000000000000000000000000000000000000008152600401612380906132a4565b60405180910390fd5b505b505050505050565b60606000600167ffffffffffffffff8111156123d8577f4e487b7100000000000000000000000000000000000000000000000000000000600052604160045260246000fd5b6040519080825280602002602001820160405280156124065781602001602082028036833780820191505090505b5090508281600081518110612444577f4e487b7100000000000000000000000000000000000000000000000000000000600052603260045260246000fd5b60200260200101818152505080915050919050565b6124788473ffffffffffffffffffffffffffffffffffffffff16612648565b15612638578373ffffffffffffffffffffffffffffffffffffffff1663f23a6e6187878686866040518663ffffffff1660e01b81526004016124be959493929190613194565b602060405180830381600087803b1580156124d857600080fd5b505af192505050801561250957506040513d601f19601f820116820180604052508101906125069190612cb2565b60015b6125af576125156139a5565b806308c379a01415612572575061252a613efe565b806125355750612574565b806040517f08c379a00000000000000000000000000000000000000000000000000000000081526004016125699190613262565b60405180910390fd5b505b6040517f08c379a00000000000000000000000000000000000000000000000000000000081526004016125a690613284565b60405180910390fd5b63f23a6e6160e01b7bffffffffffffffffffffffffffffffffffffffffffffffffffffffff1916817bffffffffffffffffffffffffffffffffffffffffffffffffffffffff191614612636576040517f08c379a000000000000000000000000000000000000000000000000000000000815260040161262d906132a4565b60405180910390fd5b505b505050505050565b505050505050565b600080823b905060008111915050919050565b600061266e61266984613582565b61355d565b9050808382526020820190508285602086028201111561268d57600080fd5b60005b858110156126bd57816126a388826127ed565b845260208401935060208301925050600181019050612690565b5050509392505050565b60006126da6126d5846135ae565b61355d565b905080838252602082019050828560208602820111156126f957600080fd5b60005b85811015612729578161270f8882612913565b8452602084019350602083019250506001810190506126fc565b5050509392505050565b6000612746612741846135da565b61355d565b90508281526020810184848401111561275e57600080fd5b61276984828561382b565b509392505050565b600061278461277f8461360b565b61355d565b90508281526020810184848401111561279c57600080fd5b6127a784828561382b565b509392505050565b60006127c26127bd8461360b565b61355d565b9050828152602081018484840111156127da57600080fd5b6127e584828561383a565b509392505050565b6000813590506127fc81613f94565b92915050565b600082601f83011261281357600080fd5b813561282384826020860161265b565b91505092915050565b600082601f83011261283d57600080fd5b813561284d8482602086016126c7565b91505092915050565b60008135905061286581613fab565b92915050565b60008135905061287a81613fc2565b92915050565b60008151905061288f81613fc2565b92915050565b600082601f8301126128a657600080fd5b81356128b6848260208601612733565b91505092915050565b600082601f8301126128d057600080fd5b81356128e0848260208601612771565b91505092915050565b600082601f8301126128fa57600080fd5b815161290a8482602086016127af565b91505092915050565b60008135905061292281613fd9565b92915050565b60006020828403121561293a57600080fd5b6000612948848285016127ed565b91505092915050565b6000806040838503121561296457600080fd5b6000612972858286016127ed565b9250506020612983858286016127ed565b9150509250929050565b600080600080600060a086880312156129a557600080fd5b60006129b3888289016127ed565b95505060206129c4888289016127ed565b945050604086013567ffffffffffffffff8111156129e157600080fd5b6129ed8882890161282c565b935050606086013567ffffffffffffffff811115612a0a57600080fd5b612a168882890161282c565b925050608086013567ffffffffffffffff811115612a3357600080fd5b612a3f88828901612895565b9150509295509295909350565b600080600080600060a08688031215612a6457600080fd5b6000612a72888289016127ed565b9550506020612a83888289016127ed565b9450506040612a9488828901612913565b9350506060612aa588828901612913565b925050608086013567ffffffffffffffff811115612ac257600080fd5b612ace88828901612895565b9150509295509295909350565b60008060408385031215612aee57600080fd5b6000612afc858286016127ed565b9250506020612b0d85828601612856565b9150509250929050565b60008060408385031215612b2a57600080fd5b6000612b38858286016127ed565b9250506020612b4985828601612913565b9150509250929050565b600080600060608486031215612b6857600080fd5b6000612b76868287016127ed565b9350506020612b8786828701612913565b9250506040612b9886828701612913565b9150509250925092565b60008060008060808587031215612bb857600080fd5b6000612bc6878288016127ed565b9450506020612bd787828801612913565b9350506040612be887828801612913565b925050606085013567ffffffffffffffff811115612c0557600080fd5b612c11878288016128bf565b91505092959194509250565b60008060408385031215612c3057600080fd5b600083013567ffffffffffffffff811115612c4a57600080fd5b612c5685828601612802565b925050602083013567ffffffffffffffff811115612c7357600080fd5b612c7f8582860161282c565b9150509250929050565b600060208284031215612c9b57600080fd5b6000612ca98482850161286b565b91505092915050565b600060208284031215612cc457600080fd5b6000612cd284828501612880565b91505092915050565b600060208284031215612ced57600080fd5b600082015167ffffffffffffffff811115612d0757600080fd5b612d13848285016128e9565b91505092915050565b600060208284031215612d2e57600080fd5b6000612d3c84828501612913565b91505092915050565b6000612d5183836130cf565b60208301905092915050565b612d66816137aa565b82525050565b6000612d778261364c565b612d81818561367a565b9350612d8c8361363c565b8060005b83811015612dbd578151612da48882612d45565b9750612daf8361366d565b925050600181019050612d90565b5085935050505092915050565b612dd3816137bc565b82525050565b6000612de482613657565b612dee818561368b565b9350612dfe81856020860161383a565b612e07816139c7565b840191505092915050565b6000612e1d82613662565b612e27818561369c565b9350612e3781856020860161383a565b612e40816139c7565b840191505092915050565b6000612e5682613662565b612e6081856136ad565b9350612e7081856020860161383a565b80840191505092915050565b6000612e8960348361369c565b9150612e94826139e5565b604082019050919050565b6000612eac60288361369c565b9150612eb782613a34565b604082019050919050565b6000612ecf602b8361369c565b9150612eda82613a83565b604082019050919050565b6000612ef2602e8361369c565b9150612efd82613ad2565b604082019050919050565b6000612f1560268361369c565b9150612f2082613b21565b604082019050919050565b6000612f3860248361369c565b9150612f4382613b70565b604082019050919050565b6000612f5b60298361369c565b9150612f6682613bbf565b604082019050919050565b6000612f7e60258361369c565b9150612f8982613c0e565b604082019050919050565b6000612fa160328361369c565b9150612fac82613c5d565b604082019050919050565b6000612fc460238361369c565b9150612fcf82613cac565b604082019050919050565b6000612fe7602a8361369c565b9150612ff282613cfb565b604082019050919050565b600061300a60208361369c565b915061301582613d4a565b602082019050919050565b600061302d603d8361369c565b915061303882613d73565b604082019050919050565b600061305060298361369c565b915061305b82613dc2565b604082019050919050565b600061307360298361369c565b915061307e82613e11565b604082019050919050565b600061309660288361369c565b91506130a182613e60565b604082019050919050565b60006130b960218361369c565b91506130c482613eaf565b604082019050919050565b6130d881613814565b82525050565b6130e781613814565b82525050565b60006130f98285612e4b565b91506131058284612e4b565b91508190509392505050565b60006020820190506131266000830184612d5d565b92915050565b600060a0820190506131416000830188612d5d565b61314e6020830187612d5d565b81810360408301526131608186612d6c565b905081810360608301526131748185612d6c565b905081810360808301526131888184612dd9565b90509695505050505050565b600060a0820190506131a96000830188612d5d565b6131b66020830187612d5d565b6131c360408301866130de565b6131d060608301856130de565b81810360808301526131e28184612dd9565b90509695505050505050565b600060208201905081810360008301526132088184612d6c565b905092915050565b6000604082019050818103600083015261322a8185612d6c565b9050818103602083015261323e8184612d6c565b90509392505050565b600060208201905061325c6000830184612dca565b92915050565b6000602082019050818103600083015261327c8184612e12565b905092915050565b6000602082019050818103600083015261329d81612e7c565b9050919050565b600060208201905081810360008301526132bd81612e9f565b9050919050565b600060208201905081810360008301526132dd81612ec2565b9050919050565b600060208201905081810360008301526132fd81612ee5565b9050919050565b6000602082019050818103600083015261331d81612f08565b9050919050565b6000602082019050818103600083015261333d81612f2b565b9050919050565b6000602082019050818103600083015261335d81612f4e565b9050919050565b6000602082019050818103600083015261337d81612f71565b9050919050565b6000602082019050818103600083015261339d81612f94565b9050919050565b600060208201905081810360008301526133bd81612fb7565b9050919050565b600060208201905081810360008301526133dd81612fda565b9050919050565b600060208201905081810360008301526133fd81612ffd565b9050919050565b6000602082019050818103600083015261341d81613020565b9050919050565b6000602082019050818103600083015261343d81613043565b9050919050565b6000602082019050818103600083015261345d81613066565b9050919050565b6000602082019050818103600083015261347d81613089565b9050919050565b6000602082019050818103600083015261349d816130ac565b9050919050565b60006020820190506134b960008301846130de565b92915050565b60006040820190506134d460008301856130de565b6134e16020830184612d5d565b9392505050565b60006080820190506134fd60008301876130de565b61350a6020830186612d5d565b61351760408301856130de565b81810360608301526135298184612e12565b905095945050505050565b600060408201905061354960008301856130de565b61355660208301846130de565b9392505050565b6000613567613578565b9050613573828261386d565b919050565b6000604051905090565b600067ffffffffffffffff82111561359d5761359c613976565b5b602082029050602081019050919050565b600067ffffffffffffffff8211156135c9576135c8613976565b5b602082029050602081019050919050565b600067ffffffffffffffff8211156135f5576135f4613976565b5b6135fe826139c7565b9050602081019050919050565b600067ffffffffffffffff82111561362657613625613976565b5b61362f826139c7565b9050602081019050919050565b6000819050602082019050919050565b600081519050919050565b600081519050919050565b600081519050919050565b6000602082019050919050565b600082825260208201905092915050565b600082825260208201905092915050565b600082825260208201905092915050565b600081905092915050565b60006136c382613814565b91506136ce83613814565b9250827fffffffffffffffffffffffffffffffffffffffffffffffffffffffffffffffff0382111561370357613702613918565b5b828201905092915050565b60006137198261381e565b91506137248361381e565b92508260ff0382111561373a57613739613918565b5b828201905092915050565b600061375082613814565b915061375b83613814565b92508261376b5761376a613947565b5b828204905092915050565b600061378182613814565b915061378c83613814565b92508282101561379f5761379e613918565b5b828203905092915050565b60006137b5826137f4565b9050919050565b60008115159050919050565b60007fffffffff0000000000000000000000000000000000000000000000000000000082169050919050565b600073ffffffffffffffffffffffffffffffffffffffff82169050919050565b6000819050919050565b600060ff82169050919050565b82818337600083830152505050565b60005b8381101561385857808201518184015260208101905061383d565b83811115613867576000848401525b50505050565b613876826139c7565b810181811067ffffffffffffffff8211171561389557613894613976565b5b80604052505050565b60006138a982613814565b91507fffffffffffffffffffffffffffffffffffffffffffffffffffffffffffffffff8214156138dc576138db613918565b5b600182019050919050565b60006138f282613814565b91506138fd83613814565b92508261390d5761390c613947565b5b828206905092915050565b7f4e487b7100000000000000000000000000000000000000000000000000000000600052601160045260246000fd5b7f4e487b7100000000000000000000000000000000000000000000000000000000600052601260045260246000fd5b7f4e487b7100000000000000000000000000000000000000000000000000000000600052604160045260246000fd5b600060033d11156139c45760046000803e6139c16000516139d8565b90505b90565b6000601f19601f8301169050919050565b60008160e01c9050919050565b7f455243313135353a207472616e7366657220746f206e6f6e204552433131353560008201527f526563656976657220696d706c656d656e746572000000000000000000000000602082015250565b7f455243313135353a204552433131353552656365697665722072656a6563746560008201527f6420746f6b656e73000000000000000000000000000000000000000000000000602082015250565b7f455243313135353a2062616c616e636520717565727920666f7220746865207a60008201527f65726f2061646472657373000000000000000000000000000000000000000000602082015250565b7f4f6e6c792047656e6573697320466163746f727920697320616c6c6f7765642060008201527f746f206d696e7420746f6b656e73000000000000000000000000000000000000602082015250565b7f4f776e61626c653a206e6577206f776e657220697320746865207a65726f206160008201527f6464726573730000000000000000000000000000000000000000000000000000602082015250565b7f455243313135353a206275726e20616d6f756e7420657863656564732062616c60008201527f616e636500000000000000000000000000000000000000000000000000000000602082015250565b7f455243313135353a2063616c6c6572206973206e6f74206f776e6572206e6f7260008201527f20617070726f7665640000000000000000000000000000000000000000000000602082015250565b7f455243313135353a207472616e7366657220746f20746865207a65726f20616460008201527f6472657373000000000000000000000000000000000000000000000000000000602082015250565b7f455243313135353a207472616e736665722063616c6c6572206973206e6f742060008201527f6f776e6572206e6f7220617070726f7665640000000000000000000000000000602082015250565b7f455243313135353a206275726e2066726f6d20746865207a65726f206164647260008201527f6573730000000000000000000000000000000000000000000000000000000000602082015250565b7f455243313135353a20696e73756666696369656e742062616c616e636520666f60008201527f72207472616e7366657200000000000000000000000000000000000000000000602082015250565b7f4f776e61626c653a2063616c6c6572206973206e6f7420746865206f776e6572600082015250565b7f596f752063616e20627579206e6f206c657373207468616e20312c20616e642060008201527f6e6f206d6f7265207468616e20617420746568652073616d6574696d65000000602082015250565b7f455243313135353a2073657474696e6720617070726f76616c2073746174757360008201527f20666f722073656c660000000000000000000000000000000000000000000000602082015250565b7f455243313135353a206163636f756e747320616e6420696473206c656e67746860008201527f206d69736d617463680000000000000000000000000000000000000000000000602082015250565b7f455243313135353a2069647320616e6420616d6f756e7473206c656e6774682060008201527f6d69736d61746368000000000000000000000000000000000000000000000000602082015250565b7f455243313135353a206d696e7420746f20746865207a65726f2061646472657360008201527f7300000000000000000000000000000000000000000000000000000000000000602082015250565b600060443d1015613f0e57613f91565b613f16613578565b60043d036004823e80513d602482011167ffffffffffffffff82111715613f3e575050613f91565b808201805167ffffffffffffffff811115613f5c5750505050613f91565b80602083010160043d038501811115613f79575050505050613f91565b613f888260200185018661386d565b82955050505050505b90565b613f9d816137aa565b8114613fa857600080fd5b50565b613fb4816137bc565b8114613fbf57600080fd5b50565b613fcb816137c8565b8114613fd657600080fd5b50565b613fe281613814565b8114613fed57600080fd5b5056fea2646970667358221220ab52e643da0d2f98cbed008ef4badf7181c9a2d8e47c0969ace610be81724f2764736f6c63430008040033",
  "immutableReferences": {},
  "source": "// CYBER\n// SPDX-License-Identifier: MIT\n\npragma solidity ^0.8.0;\npragma experimental ABIEncoderV2;\n\n// import 'https://github.com/OpenZeppelin/openzeppelin-contracts/blob/master/contracts/token/ERC1155/extensions/ERC1155Supply.sol';\n// import 'https://github.com/OpenZeppelin/openzeppelin-contracts/blob/master/contracts/access/Ownable.sol';\n// import 'https://github.com/OpenZeppelin/openzeppelin-contracts/blob/master/contracts/utils/math/SafeMath.sol';\n// import 'https://github.com/OpenZeppelin/openzeppelin-contracts/blob/master/contracts/utils/Strings.sol';\n\nimport '../node_modules/@openzeppelin/contracts/token/ERC1155/extensions/ERC1155Supply.sol';\nimport '../node_modules/@openzeppelin/contracts/access/Ownable.sol';\nimport '../node_modules/@openzeppelin/contracts/utils/math/SafeMath.sol';\nimport '../node_modules/@openzeppelin/contracts/utils/Strings.sol';\n\nimport './Proxy.sol';\nimport './GenesisCart.sol';\n\ncontract CartERC1155 is ERC1155Supply, Ownable, Proxy {\n  using SafeMath for uint256;\n  using SafeMath for uint8;\n  uint8 tokenCounter = 0;\n  GenesisCart cartInstance;\n\n  struct SoldMetaERC1155 {\n    uint256 productId;\n    uint256 tokenId;\n    address owner;\n  }\n\n  mapping(uint256 => SoldMetaERC1155) private _soldProducts;\n  event ProductBurned_cartArt1155(uint256 productId, address _ownerAddress);\n\n  constructor(address _proxyAddr) public ERC1155('') {\n    cartInstance = GenesisCart(_proxyAddr);\n    setProxy(_proxyAddr);\n  }\n\n  function buy(\n    address _to,\n    uint256 _qty,\n    uint256 _productId,\n    string memory _data\n  ) public onlyProxy {\n    require(\n      _qty > 0 && _qty <= 10,\n      'You can buy no less than 1, and no more than at tehe sametime'\n    );\n\n    uint256 _counderId;\n\n    if (_soldProducts[_productId].productId == _productId) {\n      _counderId = _soldProducts[_productId].tokenId;\n    } else {\n      tokenCounter += 1;\n      _counderId = tokenCounter;\n    }\n\n    _mint(_to, _counderId, _qty, '0x0');\n    cartInstance.productSold(_counderId, _to, _productId, _data);\n    SoldMetaERC1155 memory sold = SoldMetaERC1155(_productId, _counderId, _msgSender());\n    _soldProducts[_productId] = sold;\n  }\n\n  function uri(uint256 _tokenId) public view override returns (string memory) {\n    for (uint256 i = 0; i <= tokenCounter; i++) {\n      if (_soldProducts[i].tokenId == _tokenId) {\n        string memory _tokenURI = cartInstance.getMetaURI(_soldProducts[i].productId);\n        return string(abi.encodePacked(_tokenURI, Strings.toString(_tokenId)));\n      }\n    }\n  }\n\n  function burn(\n    address _owner,\n    uint256 tokenId,\n    uint256 _qty\n  ) public {\n    require(_ownerOf(tokenId));\n    _burn(_owner, tokenId, _qty); // address account, uint256 id\n    emit ProductBurned_cartArt1155(tokenId, _owner);\n  }\n\n  function _ownerOf(uint256 tokenId) internal view returns (bool) {\n    return balanceOf(msg.sender, tokenId) != 0;\n  }\n}\n",
  "sourcePath": "/Volumes/Data/Git/cart-art-web/src/contracts/contracts/CartERC1155.sol",
  "compiler": {
    "name": "solc",
    "version": "0.8.4+commit.c7e474f2.Emscripten.clang"
  },
  "schemaVersion": "3.4.3",
  "updatedAt": "2021-12-22T08:24:43.146Z",
  "networkType": "ethereum",
  "devdoc": {
    "kind": "dev",
    "methods": {
      "balanceOf(address,uint256)": {
        "details": "See {IERC1155-balanceOf}. Requirements: - `account` cannot be the zero address."
      },
      "balanceOfBatch(address[],uint256[])": {
        "details": "See {IERC1155-balanceOfBatch}. Requirements: - `accounts` and `ids` must have the same length."
      },
      "exists(uint256)": {
        "details": "Indicates whether any token exist with a given id, or not."
      },
      "isApprovedForAll(address,address)": {
        "details": "See {IERC1155-isApprovedForAll}."
      },
      "owner()": {
        "details": "Returns the address of the current owner."
      },
      "renounceOwnership()": {
        "details": "Leaves the contract without owner. It will not be possible to call `onlyOwner` functions anymore. Can only be called by the current owner. NOTE: Renouncing ownership will leave the contract without an owner, thereby removing any functionality that is only available to the owner."
      },
      "safeBatchTransferFrom(address,address,uint256[],uint256[],bytes)": {
        "details": "See {IERC1155-safeBatchTransferFrom}."
      },
      "safeTransferFrom(address,address,uint256,uint256,bytes)": {
        "details": "See {IERC1155-safeTransferFrom}."
      },
      "setApprovalForAll(address,bool)": {
        "details": "See {IERC1155-setApprovalForAll}."
      },
      "supportsInterface(bytes4)": {
        "details": "See {IERC165-supportsInterface}."
      },
      "totalSupply(uint256)": {
        "details": "Total amount of tokens in with a given id."
      },
      "transferOwnership(address)": {
        "details": "Transfers ownership of the contract to a new account (`newOwner`). Can only be called by the current owner."
      }
    },
    "version": 1
  },
  "userdoc": {
    "kind": "user",
    "methods": {},
    "version": 1
  }
}