{
  "contractName": "GenesisCart",
  "abi": [
    {
      "inputs": [],
      "stateMutability": "nonpayable",
      "type": "constructor"
    },
    {
      "anonymous": false,
      "inputs": [
        {
          "indexed": false,
          "internalType": "uint256",
          "name": "productId",
          "type": "uint256"
        }
      ],
      "name": "BackInStock",
      "type": "event"
    },
    {
      "anonymous": false,
      "inputs": [
        {
          "indexed": false,
          "internalType": "uint256",
          "name": "productId",
          "type": "uint256"
        }
      ],
      "name": "DeleteProduct",
      "type": "event"
    },
    {
      "anonymous": false,
      "inputs": [
        {
          "indexed": false,
          "internalType": "uint256",
          "name": "productId",
          "type": "uint256"
        }
      ],
      "name": "NewPrice",
      "type": "event"
    },
    {
      "anonymous": false,
      "inputs": [
        {
          "indexed": false,
          "internalType": "uint256",
          "name": "productId",
          "type": "uint256"
        }
      ],
      "name": "NewProduct",
      "type": "event"
    },
    {
      "anonymous": false,
      "inputs": [
        {
          "indexed": true,
          "internalType": "address",
          "name": "previousOwner",
          "type": "address"
        },
        {
          "indexed": true,
          "internalType": "address",
          "name": "newOwner",
          "type": "address"
        }
      ],
      "name": "OwnershipTransferred",
      "type": "event"
    },
    {
      "anonymous": false,
      "inputs": [
        {
          "indexed": false,
          "internalType": "uint256",
          "name": "_productId",
          "type": "uint256"
        },
        {
          "indexed": false,
          "internalType": "uint256",
          "name": "_tokenId",
          "type": "uint256"
        },
        {
          "indexed": false,
          "internalType": "address",
          "name": "_ownerAddress",
          "type": "address"
        },
        {
          "indexed": false,
          "internalType": "string",
          "name": "_name",
          "type": "string"
        },
        {
          "indexed": false,
          "internalType": "uint256",
          "name": "_qty",
          "type": "uint256"
        },
        {
          "indexed": false,
          "internalType": "string",
          "name": "_data",
          "type": "string"
        }
      ],
      "name": "ProductSold",
      "type": "event"
    },
    {
      "anonymous": false,
      "inputs": [
        {
          "indexed": false,
          "internalType": "uint256",
          "name": "productId",
          "type": "uint256"
        }
      ],
      "name": "ProductUpdated",
      "type": "event"
    },
    {
      "anonymous": false,
      "inputs": [
        {
          "indexed": false,
          "internalType": "address",
          "name": "_contract",
          "type": "address"
        }
      ],
      "name": "SetStoreContract",
      "type": "event"
    },
    {
      "anonymous": false,
      "inputs": [
        {
          "indexed": false,
          "internalType": "uint256",
          "name": "productId",
          "type": "uint256"
        }
      ],
      "name": "SoldOut",
      "type": "event"
    },
    {
      "anonymous": false,
      "inputs": [
        {
          "indexed": true,
          "internalType": "address",
          "name": "previousProxy",
          "type": "address"
        },
        {
          "indexed": true,
          "internalType": "address",
          "name": "newProxy",
          "type": "address"
        }
      ],
      "name": "cartART",
      "type": "event"
    },
    {
      "inputs": [
        {
          "internalType": "address",
          "name": "_child",
          "type": "address"
        }
      ],
      "name": "_approveChildContract",
      "outputs": [],
      "stateMutability": "nonpayable",
      "type": "function"
    },
    {
      "inputs": [
        {
          "internalType": "string",
          "name": "_name",
          "type": "string"
        },
        {
          "internalType": "uint256",
          "name": "_price",
          "type": "uint256"
        },
        {
          "internalType": "uint8",
          "name": "_qty",
          "type": "uint8"
        },
        {
          "internalType": "uint256",
          "name": "_contractType",
          "type": "uint256"
        },
        {
          "internalType": "uint256",
          "name": "_category",
          "type": "uint256"
        },
        {
          "internalType": "bool",
          "name": "_onSale",
          "type": "bool"
        },
        {
          "internalType": "string",
          "name": "_url",
          "type": "string"
        }
      ],
      "name": "addProduct",
      "outputs": [
        {
          "internalType": "bool",
          "name": "success",
          "type": "bool"
        }
      ],
      "stateMutability": "nonpayable",
      "type": "function"
    },
    {
      "inputs": [
        {
          "internalType": "uint256",
          "name": "_id",
          "type": "uint256"
        }
      ],
      "name": "deleteProduct",
      "outputs": [
        {
          "internalType": "bool",
          "name": "success",
          "type": "bool"
        }
      ],
      "stateMutability": "nonpayable",
      "type": "function"
    },
    {
      "inputs": [],
      "name": "discountGroup",
      "outputs": [
        {
          "internalType": "bool",
          "name": "valid",
          "type": "bool"
        },
        {
          "internalType": "uint256",
          "name": "amount",
          "type": "uint256"
        }
      ],
      "stateMutability": "view",
      "type": "function",
      "constant": true
    },
    {
      "inputs": [
        {
          "internalType": "uint256",
          "name": "",
          "type": "uint256"
        }
      ],
      "name": "discountedProducts",
      "outputs": [
        {
          "internalType": "uint256",
          "name": "product",
          "type": "uint256"
        },
        {
          "internalType": "bool",
          "name": "valid",
          "type": "bool"
        },
        {
          "internalType": "uint256",
          "name": "amount",
          "type": "uint256"
        }
      ],
      "stateMutability": "view",
      "type": "function",
      "constant": true
    },
    {
      "inputs": [],
      "name": "getProducts",
      "outputs": [
        {
          "components": [
            {
              "internalType": "uint256",
              "name": "id",
              "type": "uint256"
            },
            {
              "internalType": "string",
              "name": "name",
              "type": "string"
            },
            {
              "internalType": "uint256",
              "name": "price",
              "type": "uint256"
            },
            {
              "internalType": "uint8",
              "name": "qty",
              "type": "uint8"
            },
            {
              "internalType": "uint256",
              "name": "contractType",
              "type": "uint256"
            },
            {
              "internalType": "uint256",
              "name": "category",
              "type": "uint256"
            },
            {
              "internalType": "bool",
              "name": "sale",
              "type": "bool"
            },
            {
              "internalType": "string",
              "name": "url",
              "type": "string"
            }
          ],
          "internalType": "struct Product.Product[]",
          "name": "",
          "type": "tuple[]"
        }
      ],
      "stateMutability": "view",
      "type": "function",
      "constant": true
    },
    {
      "inputs": [],
      "name": "owner",
      "outputs": [
        {
          "internalType": "address",
          "name": "",
          "type": "address"
        }
      ],
      "stateMutability": "view",
      "type": "function",
      "constant": true
    },
    {
      "inputs": [
        {
          "internalType": "uint256",
          "name": "",
          "type": "uint256"
        }
      ],
      "name": "products",
      "outputs": [
        {
          "internalType": "uint256",
          "name": "id",
          "type": "uint256"
        },
        {
          "internalType": "string",
          "name": "name",
          "type": "string"
        },
        {
          "internalType": "uint256",
          "name": "price",
          "type": "uint256"
        },
        {
          "internalType": "uint8",
          "name": "qty",
          "type": "uint8"
        },
        {
          "internalType": "uint256",
          "name": "contractType",
          "type": "uint256"
        },
        {
          "internalType": "uint256",
          "name": "category",
          "type": "uint256"
        },
        {
          "internalType": "bool",
          "name": "sale",
          "type": "bool"
        },
        {
          "internalType": "string",
          "name": "url",
          "type": "string"
        }
      ],
      "stateMutability": "view",
      "type": "function",
      "constant": true
    },
    {
      "inputs": [],
      "name": "renounceOwnership",
      "outputs": [],
      "stateMutability": "nonpayable",
      "type": "function"
    },
    {
      "inputs": [
        {
          "internalType": "uint256[]",
          "name": "_productIds",
          "type": "uint256[]"
        },
        {
          "internalType": "bool",
          "name": "_enabled",
          "type": "bool"
        },
        {
          "internalType": "uint256",
          "name": "_discountAmount",
          "type": "uint256"
        }
      ],
      "name": "setDiscountGroup",
      "outputs": [],
      "stateMutability": "nonpayable",
      "type": "function"
    },
    {
      "inputs": [
        {
          "internalType": "uint256",
          "name": "_productId",
          "type": "uint256"
        },
        {
          "internalType": "bool",
          "name": "_enabled",
          "type": "bool"
        },
        {
          "internalType": "uint256",
          "name": "_discountAmount",
          "type": "uint256"
        }
      ],
      "name": "setDiscountProduct",
      "outputs": [],
      "stateMutability": "nonpayable",
      "type": "function"
    },
    {
      "inputs": [
        {
          "internalType": "address",
          "name": "_newProxyAddr",
          "type": "address"
        }
      ],
      "name": "setProxy",
      "outputs": [],
      "stateMutability": "nonpayable",
      "type": "function"
    },
    {
      "inputs": [
        {
          "internalType": "address",
          "name": "newOwner",
          "type": "address"
        }
      ],
      "name": "transferOwnership",
      "outputs": [],
      "stateMutability": "nonpayable",
      "type": "function"
    },
    {
      "inputs": [
        {
          "internalType": "uint256",
          "name": "_id",
          "type": "uint256"
        },
        {
          "internalType": "uint8",
          "name": "_price",
          "type": "uint8"
        }
      ],
      "name": "updatePrice",
      "outputs": [
        {
          "internalType": "bool",
          "name": "success",
          "type": "bool"
        }
      ],
      "stateMutability": "nonpayable",
      "type": "function"
    },
    {
      "inputs": [
        {
          "internalType": "uint256",
          "name": "_id",
          "type": "uint256"
        },
        {
          "internalType": "string",
          "name": "_name",
          "type": "string"
        },
        {
          "internalType": "uint256",
          "name": "_price",
          "type": "uint256"
        },
        {
          "internalType": "uint8",
          "name": "_qty",
          "type": "uint8"
        },
        {
          "internalType": "uint256",
          "name": "_contractType",
          "type": "uint256"
        },
        {
          "internalType": "uint256",
          "name": "_cateogry",
          "type": "uint256"
        },
        {
          "internalType": "bool",
          "name": "_onSale",
          "type": "bool"
        },
        {
          "internalType": "string",
          "name": "_url",
          "type": "string"
        }
      ],
      "name": "updateProduct",
      "outputs": [
        {
          "internalType": "bool",
          "name": "success",
          "type": "bool"
        }
      ],
      "stateMutability": "nonpayable",
      "type": "function"
    },
    {
      "inputs": [
        {
          "internalType": "uint256",
          "name": "_id",
          "type": "uint256"
        },
        {
          "internalType": "uint8",
          "name": "_qty",
          "type": "uint8"
        }
      ],
      "name": "updateStock",
      "outputs": [
        {
          "internalType": "bool",
          "name": "success",
          "type": "bool"
        }
      ],
      "stateMutability": "nonpayable",
      "type": "function"
    },
    {
      "inputs": [],
      "name": "vault",
      "outputs": [
        {
          "internalType": "address",
          "name": "",
          "type": "address"
        }
      ],
      "stateMutability": "view",
      "type": "function",
      "constant": true
    },
    {
      "inputs": [
        {
          "internalType": "uint256[]",
          "name": "_products",
          "type": "uint256[]"
        },
        {
          "internalType": "uint256[]",
          "name": "_qty",
          "type": "uint256[]"
        },
        {
          "internalType": "string[]",
          "name": "_data",
          "type": "string[]"
        }
      ],
      "name": "checkOut",
      "outputs": [],
      "stateMutability": "payable",
      "type": "function",
      "payable": true
    },
    {
      "inputs": [
        {
          "internalType": "uint256[]",
          "name": "_products",
          "type": "uint256[]"
        },
        {
          "internalType": "uint256[]",
          "name": "_qty",
          "type": "uint256[]"
        }
      ],
      "name": "calculatePrice",
      "outputs": [
        {
          "internalType": "uint256",
          "name": "price",
          "type": "uint256"
        }
      ],
      "stateMutability": "view",
      "type": "function",
      "constant": true
    },
    {
      "inputs": [
        {
          "internalType": "uint256",
          "name": "_tokenId",
          "type": "uint256"
        },
        {
          "internalType": "address",
          "name": "_ownerAddress",
          "type": "address"
        },
        {
          "internalType": "uint256",
          "name": "_productId",
          "type": "uint256"
        },
        {
          "internalType": "string",
          "name": "_data",
          "type": "string"
        }
      ],
      "name": "productSold",
      "outputs": [],
      "stateMutability": "nonpayable",
      "type": "function"
    },
    {
      "inputs": [
        {
          "internalType": "address",
          "name": "_newVaultAddress",
          "type": "address"
        }
      ],
      "name": "setVault",
      "outputs": [],
      "stateMutability": "nonpayable",
      "type": "function"
    },
    {
      "inputs": [
        {
          "internalType": "uint256",
          "name": "_amount",
          "type": "uint256"
        }
      ],
      "name": "withdraw",
      "outputs": [],
      "stateMutability": "nonpayable",
      "type": "function"
    },
    {
      "inputs": [],
      "name": "withdrawAll",
      "outputs": [],
      "stateMutability": "payable",
      "type": "function",
      "payable": true
    },
    {
      "inputs": [
        {
          "internalType": "uint256",
          "name": "_id",
          "type": "uint256"
        }
      ],
      "name": "getMetaURI",
      "outputs": [
        {
          "internalType": "string",
          "name": "_name",
          "type": "string"
        }
      ],
      "stateMutability": "view",
      "type": "function",
      "constant": true
    }
  ],
  "bytecode": "0x60806040523480156200001157600080fd5b5062000032620000266200023c60201b60201c565b6200024460201b60201c565b3060405162000041906200047a565b6200004d9190620004dc565b604051809103906000f0801580156200006a573d6000803e3d6000fd5b50600960006101000a81548173ffffffffffffffffffffffffffffffffffffffff021916908373ffffffffffffffffffffffffffffffffffffffff16021790555030604051620000ba9062000488565b620000c69190620004dc565b604051809103906000f080158015620000e3573d6000803e3d6000fd5b50600a60006101000a81548173ffffffffffffffffffffffffffffffffffffffff021916908373ffffffffffffffffffffffffffffffffffffffff16021790555030604051620001339062000496565b6200013f9190620004dc565b604051809103906000f0801580156200015c573d6000803e3d6000fd5b50600b60006101000a81548173ffffffffffffffffffffffffffffffffffffffff021916908373ffffffffffffffffffffffffffffffffffffffff160217905550620001d0600960009054906101000a900473ffffffffffffffffffffffffffffffffffffffff166200030860201b60201c565b62000203600a60009054906101000a900473ffffffffffffffffffffffffffffffffffffffff166200030860201b60201c565b62000236600b60009054906101000a900473ffffffffffffffffffffffffffffffffffffffff166200030860201b60201c565b62000589565b600033905090565b60008060009054906101000a900473ffffffffffffffffffffffffffffffffffffffff169050816000806101000a81548173ffffffffffffffffffffffffffffffffffffffff021916908373ffffffffffffffffffffffffffffffffffffffff1602179055508173ffffffffffffffffffffffffffffffffffffffff168173ffffffffffffffffffffffffffffffffffffffff167f8be0079c531659141344cd1fd0a4f28419497f9722a3daafe3b4186f6b6457e060405160405180910390a35050565b620003186200023c60201b60201c565b73ffffffffffffffffffffffffffffffffffffffff166200033e6200045160201b60201c565b73ffffffffffffffffffffffffffffffffffffffff161462000397576040517f08c379a00000000000000000000000000000000000000000000000000000000081526004016200038e90620004f9565b60405180910390fd5b80600860008373ffffffffffffffffffffffffffffffffffffffff1673ffffffffffffffffffffffffffffffffffffffff16815260200190815260200160002060006101000a81548173ffffffffffffffffffffffffffffffffffffffff021916908373ffffffffffffffffffffffffffffffffffffffff1602179055507f7a68f36d013025b936cfcf536ded8ac09f742b930c53cab42fb42cb75340095c81604051620004469190620004dc565b60405180910390a150565b60008060009054906101000a900473ffffffffffffffffffffffffffffffffffffffff16905090565b61446f8062004a1683390190565b6144128062008e8583390190565b616794806200d29783390190565b620004af816200052c565b82525050565b6000620004c46020836200051b565b9150620004d18262000560565b602082019050919050565b6000602082019050620004f36000830184620004a4565b92915050565b600060208201905081810360008301526200051481620004b5565b9050919050565b600082825260208201905092915050565b6000620005398262000540565b9050919050565b600073ffffffffffffffffffffffffffffffffffffffff82169050919050565b7f4f776e61626c653a2063616c6c6572206973206e6f7420746865206f776e6572600082015250565b61447d80620005996000396000f3fe60806040526004361061014b5760003560e01c8063853828b6116100b6578063c29b2f201161006f578063c29b2f201461048e578063da200cac146104b9578063e095cda0146104e2578063ed90c7b71461051f578063f2fde38b1461055c578063fbfa77cf146105855761014b565b8063853828b61461038d5780638da5cb5b146103975780638f3d0821146103c257806397107d6d146103eb578063a329a10514610414578063ad1751fb146104515761014b565b80636817031b116101085780636817031b14610264578063715018a61461028d57806371709e19146102a45780637759ebd4146102e35780637acc0b20146103205780637f8ea7da146103645761014b565b80631886fe66146101505780631b51e3e71461017c57806326ea96b8146101985780632e1a7d4d146101c15780633877007e146101ea5780634c1b2f2e14610227575b600080fd5b34801561015c57600080fd5b506101656105b0565b604051610173929190613969565b60405180910390f35b61019660048036038101906101919190612eb8565b6105cf565b005b3480156101a457600080fd5b506101bf60048036038101906101ba91906130ad565b610914565b005b3480156101cd57600080fd5b506101e860048036038101906101e39190613084565b610b24565b005b3480156101f657600080fd5b50610211600480360381019061020c9190613259565b610ccb565b60405161021e919061394e565b60405180910390f35b34801561023357600080fd5b5061024e60048036038101906102499190613084565b610dff565b60405161025b9190613992565b60405180910390f35b34801561027057600080fd5b5061028b60048036038101906102869190612de2565b610ea7565b005b34801561029957600080fd5b506102a2610f67565b005b3480156102b057600080fd5b506102cb60048036038101906102c69190613084565b610fef565b6040516102da93929190613b6f565b60405180910390f35b3480156102ef57600080fd5b5061030a60048036038101906103059190613177565b611026565b604051610317919061394e565b60405180910390f35b34801561032c57600080fd5b5061034760048036038101906103429190613084565b61123f565b60405161035b989796959493929190613ba6565b60405180910390f35b34801561037057600080fd5b5061038b60048036038101906103869190612de2565b6113b1565b005b6103956114e5565b005b3480156103a357600080fd5b506103ac61168b565b6040516103b991906138a3565b60405180910390f35b3480156103ce57600080fd5b506103e960048036038101906103e49190612f4f565b6116b4565b005b3480156103f757600080fd5b50610412600480360381019061040d9190612de2565b6117a4565b005b34801561042057600080fd5b5061043b60048036038101906104369190613259565b6118e0565b604051610448919061394e565b60405180910390f35b34801561045d57600080fd5b5061047860048036038101906104739190612e4c565b611a03565b6040516104859190613b54565b60405180910390f35b34801561049a57600080fd5b506104a3611ea2565b6040516104b0919061390a565b60405180910390f35b3480156104c557600080fd5b506104e060048036038101906104db9190613128565b612151565b005b3480156104ee57600080fd5b5061050960048036038101906105049190612fb6565b61223f565b604051610516919061394e565b60405180910390f35b34801561052b57600080fd5b5061054660048036038101906105419190613084565b612470565b604051610553919061394e565b60405180910390f35b34801561056857600080fd5b50610583600480360381019061057e9190612de2565b61276b565b005b34801561059157600080fd5b5061059a612863565b6040516105a791906138a3565b60405180910390f35b60038060010160009054906101000a900460ff16908060020154905082565b6105d98383611a03565b34101561061b576040517f08c379a000000000000000000000000000000000000000000000000000000000815260040161061290613a34565b60405180910390fd5b60005b835181101561090e576000838281518110610662577f4e487b7100000000000000000000000000000000000000000000000000000000600052603260045260246000fd5b6020026020010151905060008583815181106106a7577f4e487b7100000000000000000000000000000000000000000000000000000000600052603260045260246000fd5b6020026020010151905060008484815181106106ec577f4e487b7100000000000000000000000000000000000000000000000000000000600052603260045260246000fd5b6020026020010151905060018060008481526020019081526020016000206004015414156107ac57600960009054906101000a900473ffffffffffffffffffffffffffffffffffffffff1673ffffffffffffffffffffffffffffffffffffffff16639de876b9338585856040518563ffffffff1660e01b815260040161077594939291906138be565b600060405180830381600087803b15801561078f57600080fd5b505af11580156107a3573d6000803e3d6000fd5b505050506108f8565b60026001600084815260200190815260200160002060040154141561086357600a60009054906101000a900473ffffffffffffffffffffffffffffffffffffffff1673ffffffffffffffffffffffffffffffffffffffff16639de876b9338585856040518563ffffffff1660e01b815260040161082c94939291906138be565b600060405180830381600087803b15801561084657600080fd5b505af115801561085a573d6000803e3d6000fd5b505050506108f7565b600b60009054906101000a900473ffffffffffffffffffffffffffffffffffffffff1673ffffffffffffffffffffffffffffffffffffffff16639de876b9338585856040518563ffffffff1660e01b81526004016108c494939291906138be565b600060405180830381600087803b1580156108de57600080fd5b505af11580156108f2573d6000803e3d6000fd5b505050505b5b505050808061090690614083565b91505061061e565b50505050565b600860003373ffffffffffffffffffffffffffffffffffffffff1673ffffffffffffffffffffffffffffffffffffffff16815260200190815260200160002060009054906101000a900473ffffffffffffffffffffffffffffffffffffffff1673ffffffffffffffffffffffffffffffffffffffff163373ffffffffffffffffffffffffffffffffffffffff16146109e1576040517f08c379a00000000000000000000000000000000000000000000000000000000081526004016109d890613a14565b60405180910390fd5b7fa6e344314a04e2c38149f360629c82acd61577d2fdff75a5d745802000a17bea828585600160008781526020019081526020016000206001016001600088815260200190815260200160002060030160009054906101000a900460ff1686604051610a5296959493929190613c32565b60405180910390a1600180600084815260200190815260200160002060030160009054906101000a900460ff16610a899190613f1f565b6001600084815260200190815260200160002060030160006101000a81548160ff021916908360ff16021790555060006001600084815260200190815260200160002060030160009054906101000a900460ff1660ff161415610b1e577f7e1f5a77187e90f1751221bbd46ae08322d11774a58ae99cdb7d8573f4140c9082604051610b159190613b54565b60405180910390a15b50505050565b610b2c612889565b73ffffffffffffffffffffffffffffffffffffffff16610b4a61168b565b73ffffffffffffffffffffffffffffffffffffffff1614610ba0576040517f08c379a0000000000000000000000000000000000000000000000000000000008152600401610b9790613ad4565b60405180910390fd5b600073ffffffffffffffffffffffffffffffffffffffff16600c60009054906101000a900473ffffffffffffffffffffffffffffffffffffffff1673ffffffffffffffffffffffffffffffffffffffff161415610c32576040517f08c379a0000000000000000000000000000000000000000000000000000000008152600401610c2990613ab4565b60405180910390fd5b600c60009054906101000a900473ffffffffffffffffffffffffffffffffffffffff1673ffffffffffffffffffffffffffffffffffffffff166108fc829081150290604051600060405180830381858888f19350505050610cc8576040517f08c379a0000000000000000000000000000000000000000000000000000000008152600401610cbf906139f4565b60405180910390fd5b50565b6000610cd5612889565b73ffffffffffffffffffffffffffffffffffffffff16610cf361168b565b73ffffffffffffffffffffffffffffffffffffffff1614610d49576040517f08c379a0000000000000000000000000000000000000000000000000000000008152600401610d4090613ad4565b60405180910390fd5b60008260ff1611610d8f576040517f08c379a0000000000000000000000000000000000000000000000000000000008152600401610d8690613a74565b60405180910390fd5b816001600085815260200190815260200160002060030160006101000a81548160ff021916908360ff1602179055507f43d475c806fc60255eab636e322e96eb8717db52046340f0238acb0dd7c1691983604051610ded9190613b54565b60405180910390a16001905092915050565b6060600160008381526020019081526020016000206007018054610e2290614006565b80601f0160208091040260200160405190810160405280929190818152602001828054610e4e90614006565b8015610e9b5780601f10610e7057610100808354040283529160200191610e9b565b820191906000526020600020905b815481529060010190602001808311610e7e57829003601f168201915b50505050509050919050565b610eaf612889565b73ffffffffffffffffffffffffffffffffffffffff16610ecd61168b565b73ffffffffffffffffffffffffffffffffffffffff1614610f23576040517f08c379a0000000000000000000000000000000000000000000000000000000008152600401610f1a90613ad4565b60405180910390fd5b80600c60006101000a81548173ffffffffffffffffffffffffffffffffffffffff021916908373ffffffffffffffffffffffffffffffffffffffff16021790555050565b610f6f612889565b73ffffffffffffffffffffffffffffffffffffffff16610f8d61168b565b73ffffffffffffffffffffffffffffffffffffffff1614610fe3576040517f08c379a0000000000000000000000000000000000000000000000000000000008152600401610fda90613ad4565b60405180910390fd5b610fed6000612891565b565b60066020528060005260406000206000915090508060000154908060010160009054906101000a900460ff16908060020154905083565b6000611030612889565b73ffffffffffffffffffffffffffffffffffffffff1661104e61168b565b73ffffffffffffffffffffffffffffffffffffffff16146110a4576040517f08c379a000000000000000000000000000000000000000000000000000000000815260040161109b90613ad4565b60405180910390fd5b868660ff166000821180156110b95750600081115b6110f8576040517f08c379a00000000000000000000000000000000000000000000000000000000081526004016110ef90613a54565b60405180910390fd5b60006040518061010001604052808d81526020018c81526020018b81526020018a60ff168152602001898152602001888152602001871515815260200186815250905080600160008e81526020019081526020016000206000820151816000015560208201518160010190805190602001906111759291906129bb565b506040820151816002015560608201518160030160006101000a81548160ff021916908360ff1602179055506080820151816004015560a0820151816005015560c08201518160060160006101000a81548160ff02191690831515021790555060e08201518160070190805190602001906111f19291906129bb565b509050507feca6714fcf568fb34cf9db4a414cb0cc48e93c5d4e1ba0582a46ea3704cf24d58c6040516112249190613b54565b60405180910390a16001935050505098975050505050505050565b600160205280600052604060002060009150905080600001549080600101805461126890614006565b80601f016020809104026020016040519081016040528092919081815260200182805461129490614006565b80156112e15780601f106112b6576101008083540402835291602001916112e1565b820191906000526020600020905b8154815290600101906020018083116112c457829003601f168201915b5050505050908060020154908060030160009054906101000a900460ff16908060040154908060050154908060060160009054906101000a900460ff169080600701805461132e90614006565b80601f016020809104026020016040519081016040528092919081815260200182805461135a90614006565b80156113a75780601f1061137c576101008083540402835291602001916113a7565b820191906000526020600020905b81548152906001019060200180831161138a57829003601f168201915b5050505050905088565b6113b9612889565b73ffffffffffffffffffffffffffffffffffffffff166113d761168b565b73ffffffffffffffffffffffffffffffffffffffff161461142d576040517f08c379a000000000000000000000000000000000000000000000000000000000815260040161142490613ad4565b60405180910390fd5b80600860008373ffffffffffffffffffffffffffffffffffffffff1673ffffffffffffffffffffffffffffffffffffffff16815260200190815260200160002060006101000a81548173ffffffffffffffffffffffffffffffffffffffff021916908373ffffffffffffffffffffffffffffffffffffffff1602179055507f7a68f36d013025b936cfcf536ded8ac09f742b930c53cab42fb42cb75340095c816040516114da91906138a3565b60405180910390a150565b6114ed612889565b73ffffffffffffffffffffffffffffffffffffffff1661150b61168b565b73ffffffffffffffffffffffffffffffffffffffff1614611561576040517f08c379a000000000000000000000000000000000000000000000000000000000815260040161155890613ad4565b60405180910390fd5b600073ffffffffffffffffffffffffffffffffffffffff16600c60009054906101000a900473ffffffffffffffffffffffffffffffffffffffff1673ffffffffffffffffffffffffffffffffffffffff1614156115f3576040517f08c379a00000000000000000000000000000000000000000000000000000000081526004016115ea90613ab4565b60405180910390fd5b600c60009054906101000a900473ffffffffffffffffffffffffffffffffffffffff1673ffffffffffffffffffffffffffffffffffffffff166108fc479081150290604051600060405180830381858888f19350505050611689576040517f08c379a000000000000000000000000000000000000000000000000000000000815260040161168090613b14565b60405180910390fd5b565b60008060009054906101000a900473ffffffffffffffffffffffffffffffffffffffff16905090565b6116bc612889565b73ffffffffffffffffffffffffffffffffffffffff166116da61168b565b73ffffffffffffffffffffffffffffffffffffffff1614611730576040517f08c379a000000000000000000000000000000000000000000000000000000000815260040161172790613ad4565b60405180910390fd5b6000604051806060016040528085815260200184151581526020018381525090508060036000820151816000019080519060200190611770929190612a41565b5060208201518160010160006101000a81548160ff0219169083151502179055506040820151816002015590505050505050565b6117ac612889565b73ffffffffffffffffffffffffffffffffffffffff166117ca61168b565b73ffffffffffffffffffffffffffffffffffffffff1614611820576040517f08c379a000000000000000000000000000000000000000000000000000000000815260040161181790613ad4565b60405180910390fd5b8073ffffffffffffffffffffffffffffffffffffffff16600760009054906101000a900473ffffffffffffffffffffffffffffffffffffffff1673ffffffffffffffffffffffffffffffffffffffff167f5b09f0d0a4cbf8770fd092cf5ee60221e5addb9d44f01f52b1e8c6fe34842e3f60405160405180910390a380600760006101000a81548173ffffffffffffffffffffffffffffffffffffffff021916908373ffffffffffffffffffffffffffffffffffffffff16021790555050565b60006118ea612889565b73ffffffffffffffffffffffffffffffffffffffff1661190861168b565b73ffffffffffffffffffffffffffffffffffffffff161461195e576040517f08c379a000000000000000000000000000000000000000000000000000000000815260040161195590613ad4565b60405180910390fd5b60008260ff16116119a4576040517f08c379a000000000000000000000000000000000000000000000000000000000815260040161199b90613a94565b60405180910390fd5b8160ff1660016000858152602001908152602001600020600201819055507f270b316b51ab2cf3a3bb8ca4d22e76a327d05e762fcaa8bd6afaf8cfde9270b7836040516119f19190613b54565b60405180910390a16001905092915050565b60008060005b8451811015611cb1576000858281518110611a4d577f4e487b7100000000000000000000000000000000000000000000000000000000600052603260045260246000fd5b602002602001015190506000858381518110611a92577f4e487b7100000000000000000000000000000000000000000000000000000000600052603260045260246000fd5b602002602001015190508551875114611ae0576040517f08c379a0000000000000000000000000000000000000000000000000000000008152600401611ad7906139d4565b60405180910390fd5b600081118015611af15750600a8111155b611b30576040517f08c379a0000000000000000000000000000000000000000000000000000000008152600401611b2790613af4565b60405180910390fd5b81600160008481526020019081526020016000206000015414611b88576040517f08c379a0000000000000000000000000000000000000000000000000000000008152600401611b7f90613b34565b60405180910390fd5b60006001600084815260200190815260200160002060030160009054906101000a900460ff1660ff1611611bf1576040517f08c379a0000000000000000000000000000000000000000000000000000000008152600401611be8906139d4565b60405180910390fd5b611c2c611c1d82600160008681526020019081526020016000206002015461295590919063ffffffff16565b8561296b90919063ffffffff16565b9350600115156006600084815260200190815260200160002060010160009054906101000a900460ff1615151415611c9c57611c99611c8a82600660008681526020019081526020016000206002015461295590919063ffffffff16565b8561298190919063ffffffff16565b93505b50508080611ca990614083565b915050611a09565b508373__Helper________________________________639ec8b02690916040518263ffffffff1660e01b8152600401611ceb919061392c565b60006040518083038186803b158015611d0357600080fd5b505af4158015611d17573d6000803e3d6000fd5b505050506040513d6000823e3d601f19601f82011682018060405250810190611d409190612e0b565b604051602001611d509190613875565b604051602081830303815290604052805190602001206003600001604051602001611d7b919061388c565b604051602081830303815290604052805190602001201415611e985760008373__Helper________________________________639ec8b02690916040518263ffffffff1660e01b8152600401611dd2919061392c565b60006040518083038186803b158015611dea57600080fd5b505af4158015611dfe573d6000803e3d6000fd5b505050506040513d6000823e3d601f19601f82011682018060405250810190611e279190612e0b565b9050611e94611e8582600081518110611e69577f4e487b7100000000000000000000000000000000000000000000000000000000600052603260045260246000fd5b602002602001015160036002015461295590919063ffffffff16565b8361298190919063ffffffff16565b9150505b8091505092915050565b60606000611eb06002612997565b67ffffffffffffffff811115611eef577f4e487b7100000000000000000000000000000000000000000000000000000000600052604160045260246000fd5b604051908082528060200260200182016040528015611f2857816020015b611f15612a8e565b815260200190600190039081611f0d5790505b5090506000805b611f396002612997565b81101561214857600160008281526020019081526020016000206040518061010001604052908160008201548152602001600182018054611f7990614006565b80601f0160208091040260200160405190810160405280929190818152602001828054611fa590614006565b8015611ff25780601f10611fc757610100808354040283529160200191611ff2565b820191906000526020600020905b815481529060010190602001808311611fd557829003601f168201915b50505050508152602001600282015481526020016003820160009054906101000a900460ff1660ff1660ff16815260200160048201548152602001600582015481526020016006820160009054906101000a900460ff1615151515815260200160078201805461206190614006565b80601f016020809104026020016040519081016040528092919081815260200182805461208d90614006565b80156120da5780601f106120af576101008083540402835291602001916120da565b820191906000526020600020905b8154815290600101906020018083116120bd57829003601f168201915b50505050508152505083838151811061211c577f4e487b7100000000000000000000000000000000000000000000000000000000600052603260045260246000fd5b6020026020010181905250818061213290614083565b925050808061214090614083565b915050611f2f565b50819250505090565b612159612889565b73ffffffffffffffffffffffffffffffffffffffff1661217761168b565b73ffffffffffffffffffffffffffffffffffffffff16146121cd576040517f08c379a00000000000000000000000000000000000000000000000000000000081526004016121c490613ad4565b60405180910390fd5b60006040518060600160405280858152602001841515815260200183815250905080600660008681526020019081526020016000206000820151816000015560208201518160010160006101000a81548160ff0219169083151502179055506040820151816002015590505050505050565b6000612249612889565b73ffffffffffffffffffffffffffffffffffffffff1661226761168b565b73ffffffffffffffffffffffffffffffffffffffff16146122bd576040517f08c379a00000000000000000000000000000000000000000000000000000000081526004016122b490613ad4565b60405180910390fd5b868660ff166000821180156122d25750600081115b612311576040517f08c379a000000000000000000000000000000000000000000000000000000000815260040161230890613a54565b60405180910390fd5b600061231d6002612997565b905060006040518061010001604052808381526020018d81526020018c81526020018b60ff1681526020018a81526020018981526020018815158152602001878152509050806001600084815260200190815260200160002060008201518160000155602082015181600101908051906020019061239c9291906129bb565b506040820151816002015560608201518160030160006101000a81548160ff021916908360ff1602179055506080820151816004015560a0820151816005015560c08201518160060160006101000a81548160ff02191690831515021790555060e08201518160070190805190602001906124189291906129bb565b509050507f4cf76794269f0514dbcdb5cbc4ab9cbdc6bf693c5c45e36dc94b2e7384d49c798260405161244b9190613b54565b60405180910390a161245d60026129a5565b6001945050505050979650505050505050565b600061247a612889565b73ffffffffffffffffffffffffffffffffffffffff1661249861168b565b73ffffffffffffffffffffffffffffffffffffffff16146124ee576040517f08c379a00000000000000000000000000000000000000000000000000000000081526004016124e590613ad4565b60405180910390fd5b600060016000848152602001908152602001600020604051806101000160405290816000820154815260200160018201805461252990614006565b80601f016020809104026020016040519081016040528092919081815260200182805461255590614006565b80156125a25780601f10612577576101008083540402835291602001916125a2565b820191906000526020600020905b81548152906001019060200180831161258557829003601f168201915b50505050508152602001600282015481526020016003820160009054906101000a900460ff1660ff1660ff16815260200160048201548152602001600582015481526020016006820160009054906101000a900460ff1615151515815260200160078201805461261190614006565b80601f016020809104026020016040519081016040528092919081815260200182805461263d90614006565b801561268a5780601f1061265f5761010080835404028352916020019161268a565b820191906000526020600020905b81548152906001019060200180831161266d57829003601f168201915b5050505050815250509050828160000151141561276057600160008481526020019081526020016000206000808201600090556001820160006126cd9190612ad8565b60028201600090556003820160006101000a81549060ff0219169055600482016000905560058201600090556006820160006101000a81549060ff021916905560078201600061271d9190612ad8565b50507f0e10ee3ece1ddd5966cebc571a843f6af8abd1fa7b2ef3d7279c44873b1e7bf88360405161274e9190613b54565b60405180910390a16001915050612766565b60009150505b919050565b612773612889565b73ffffffffffffffffffffffffffffffffffffffff1661279161168b565b73ffffffffffffffffffffffffffffffffffffffff16146127e7576040517f08c379a00000000000000000000000000000000000000000000000000000000081526004016127de90613ad4565b60405180910390fd5b600073ffffffffffffffffffffffffffffffffffffffff168173ffffffffffffffffffffffffffffffffffffffff161415612857576040517f08c379a000000000000000000000000000000000000000000000000000000000815260040161284e906139b4565b60405180910390fd5b61286081612891565b50565b600c60009054906101000a900473ffffffffffffffffffffffffffffffffffffffff1681565b600033905090565b60008060009054906101000a900473ffffffffffffffffffffffffffffffffffffffff169050816000806101000a81548173ffffffffffffffffffffffffffffffffffffffff021916908373ffffffffffffffffffffffffffffffffffffffff1602179055508173ffffffffffffffffffffffffffffffffffffffff168173ffffffffffffffffffffffffffffffffffffffff167f8be0079c531659141344cd1fd0a4f28419497f9722a3daafe3b4186f6b6457e060405160405180910390a35050565b600081836129639190613e91565b905092915050565b600081836129799190613e3b565b905092915050565b6000818361298f9190613eeb565b905092915050565b600081600001549050919050565b6001816000016000828254019250508190555050565b8280546129c790614006565b90600052602060002090601f0160209004810192826129e95760008555612a30565b82601f10612a0257805160ff1916838001178555612a30565b82800160010185558215612a30579182015b82811115612a2f578251825591602001919060010190612a14565b5b509050612a3d9190612b18565b5090565b828054828255906000526020600020908101928215612a7d579160200282015b82811115612a7c578251825591602001919060010190612a61565b5b509050612a8a9190612b18565b5090565b604051806101000160405280600081526020016060815260200160008152602001600060ff1681526020016000815260200160008152602001600015158152602001606081525090565b508054612ae490614006565b6000825580601f10612af65750612b15565b601f016020900490600052602060002090810190612b149190612b18565b5b50565b5b80821115612b31576000816000905550600101612b19565b5090565b6000612b48612b4384613cc6565b613ca1565b90508083825260208201905082856020860282011115612b6757600080fd5b60005b85811015612bb157813567ffffffffffffffff811115612b8957600080fd5b808601612b968982612d79565b85526020850194506020840193505050600181019050612b6a565b5050509392505050565b6000612bce612bc984613cf2565b613ca1565b90508083825260208201905082856020860282011115612bed57600080fd5b60005b85811015612c1d5781612c038882612da3565b845260208401935060208301925050600181019050612bf0565b5050509392505050565b6000612c3a612c3584613cf2565b613ca1565b90508083825260208201905082856020860282011115612c5957600080fd5b60005b85811015612c895781612c6f8882612db8565b845260208401935060208301925050600181019050612c5c565b5050509392505050565b6000612ca6612ca184613d1e565b613ca1565b905082815260208101848484011115612cbe57600080fd5b612cc9848285613fc4565b509392505050565b600081359050612ce0816143eb565b92915050565b600082601f830112612cf757600080fd5b8135612d07848260208601612b35565b91505092915050565b600082601f830112612d2157600080fd5b8135612d31848260208601612bbb565b91505092915050565b600082601f830112612d4b57600080fd5b8151612d5b848260208601612c27565b91505092915050565b600081359050612d7381614402565b92915050565b600082601f830112612d8a57600080fd5b8135612d9a848260208601612c93565b91505092915050565b600081359050612db281614419565b92915050565b600081519050612dc781614419565b92915050565b600081359050612ddc81614430565b92915050565b600060208284031215612df457600080fd5b6000612e0284828501612cd1565b91505092915050565b600060208284031215612e1d57600080fd5b600082015167ffffffffffffffff811115612e3757600080fd5b612e4384828501612d3a565b91505092915050565b60008060408385031215612e5f57600080fd5b600083013567ffffffffffffffff811115612e7957600080fd5b612e8585828601612d10565b925050602083013567ffffffffffffffff811115612ea257600080fd5b612eae85828601612d10565b9150509250929050565b600080600060608486031215612ecd57600080fd5b600084013567ffffffffffffffff811115612ee757600080fd5b612ef386828701612d10565b935050602084013567ffffffffffffffff811115612f1057600080fd5b612f1c86828701612d10565b925050604084013567ffffffffffffffff811115612f3957600080fd5b612f4586828701612ce6565b9150509250925092565b600080600060608486031215612f6457600080fd5b600084013567ffffffffffffffff811115612f7e57600080fd5b612f8a86828701612d10565b9350506020612f9b86828701612d64565b9250506040612fac86828701612da3565b9150509250925092565b600080600080600080600060e0888a031215612fd157600080fd5b600088013567ffffffffffffffff811115612feb57600080fd5b612ff78a828b01612d79565b97505060206130088a828b01612da3565b96505060406130198a828b01612dcd565b955050606061302a8a828b01612da3565b945050608061303b8a828b01612da3565b93505060a061304c8a828b01612d64565b92505060c088013567ffffffffffffffff81111561306957600080fd5b6130758a828b01612d79565b91505092959891949750929550565b60006020828403121561309657600080fd5b60006130a484828501612da3565b91505092915050565b600080600080608085870312156130c357600080fd5b60006130d187828801612da3565b94505060206130e287828801612cd1565b93505060406130f387828801612da3565b925050606085013567ffffffffffffffff81111561311057600080fd5b61311c87828801612d79565b91505092959194509250565b60008060006060848603121561313d57600080fd5b600061314b86828701612da3565b935050602061315c86828701612d64565b925050604061316d86828701612da3565b9150509250925092565b600080600080600080600080610100898b03121561319457600080fd5b60006131a28b828c01612da3565b985050602089013567ffffffffffffffff8111156131bf57600080fd5b6131cb8b828c01612d79565b97505060406131dc8b828c01612da3565b96505060606131ed8b828c01612dcd565b95505060806131fe8b828c01612da3565b94505060a061320f8b828c01612da3565b93505060c06132208b828c01612d64565b92505060e089013567ffffffffffffffff81111561323d57600080fd5b6132498b828c01612d79565b9150509295985092959890939650565b6000806040838503121561326c57600080fd5b600061327a85828601612da3565b925050602061328b85828601612dcd565b9150509250929050565b60006132a18383613755565b905092915050565b60006132b5838361382a565b60208301905092915050565b60006132cd8383613839565b60208301905092915050565b6132e281613f5d565b82525050565b60006132f382613d99565b6132fd8185613dec565b93508360208202850161330f85613d4f565b8060005b8581101561334b578484038952815161332c8582613295565b945061333783613dc5565b925060208a01995050600181019050613313565b50829750879550505050505092915050565b600061336882613da4565b6133728185613dfd565b935061337d83613d5f565b8060005b838110156133ae57815161339588826132c1565b97506133a083613dd2565b925050600181019050613381565b5085935050505092915050565b60006133c682613da4565b6133d08185613e0e565b93506133db83613d5f565b8060005b8381101561340c5781516133f388826132a9565b97506133fe83613dd2565b9250506001810190506133df565b5085935050505092915050565b600061342482613daf565b61342e8185613e0e565b935061343983613d6f565b8060005b838110156134715761344e82614159565b61345888826132a9565b975061346383613ddf565b92505060018101905061343d565b5085935050505092915050565b61348781613f6f565b82525050565b61349681613f6f565b82525050565b60006134a782613dba565b6134b18185613e19565b93506134c1818560208601613fd3565b6134ca8161416c565b840191505092915050565b60006134e082613dba565b6134ea8185613e2a565b93506134fa818560208601613fd3565b6135038161416c565b840191505092915050565b6000815461351b81614006565b6135258186613e2a565b94506001821660008114613540576001811461355257613585565b60ff1983168652602086019350613585565b61355b85613d84565b60005b8381101561357d5781548189015260018201915060208101905061355e565b808801955050505b50505092915050565b600061359b602683613e2a565b91506135a68261418a565b604082019050919050565b60006135be601e83613e2a565b91506135c9826141d9565b602082019050919050565b60006135e1600e83613e2a565b91506135ec82614202565b602082019050919050565b6000613604602083613e2a565b915061360f8261422b565b602082019050919050565b6000613627601283613e2a565b915061363282614254565b602082019050919050565b600061364a600f83613e2a565b91506136558261427d565b602082019050919050565b600061366d600b83613e2a565b9150613678826142a6565b602082019050919050565b6000613690600d83613e2a565b915061369b826142cf565b602082019050919050565b60006136b3600883613e2a565b91506136be826142f8565b602082019050919050565b60006136d6602083613e2a565b91506136e182614321565b602082019050919050565b60006136f9602983613e2a565b91506137048261434a565b604082019050919050565b600061371c601383613e2a565b915061372782614399565b602082019050919050565b600061373f601283613e2a565b915061374a826143c2565b602082019050919050565b60006101008301600083015161376e600086018261380c565b5060208301518482036020860152613786828261349c565b915050604083015161379b604086018261380c565b5060608301516137ae6060860182613857565b5060808301516137c1608086018261380c565b5060a08301516137d460a086018261380c565b5060c08301516137e760c086018261347e565b5060e083015184820360e08601526137ff828261349c565b9150508091505092915050565b61381581613f9b565b82525050565b61382481613f9b565b82525050565b61383381613f9b565b82525050565b61384281613f9b565b82525050565b61385181613fb2565b82525050565b61386081613fa5565b82525050565b61386f81613fa5565b82525050565b600061388182846133bb565b915081905092915050565b60006138988284613419565b915081905092915050565b60006020820190506138b860008301846132d9565b92915050565b60006080820190506138d360008301876132d9565b6138e0602083018661381b565b6138ed604083018561381b565b81810360608301526138ff81846134d5565b905095945050505050565b6000602082019050818103600083015261392481846132e8565b905092915050565b60006020820190508181036000830152613946818461335d565b905092915050565b6000602082019050613963600083018461348d565b92915050565b600060408201905061397e600083018561348d565b61398b602083018461381b565b9392505050565b600060208201905081810360008301526139ac81846134d5565b905092915050565b600060208201905081810360008301526139cd8161358e565b9050919050565b600060208201905081810360008301526139ed816135b1565b9050919050565b60006020820190508181036000830152613a0d816135d4565b9050919050565b60006020820190508181036000830152613a2d816135f7565b9050919050565b60006020820190508181036000830152613a4d8161361a565b9050919050565b60006020820190508181036000830152613a6d8161363d565b9050919050565b60006020820190508181036000830152613a8d81613660565b9050919050565b60006020820190508181036000830152613aad81613683565b9050919050565b60006020820190508181036000830152613acd816136a6565b9050919050565b60006020820190508181036000830152613aed816136c9565b9050919050565b60006020820190508181036000830152613b0d816136ec565b9050919050565b60006020820190508181036000830152613b2d8161370f565b9050919050565b60006020820190508181036000830152613b4d81613732565b9050919050565b6000602082019050613b69600083018461381b565b92915050565b6000606082019050613b84600083018661381b565b613b91602083018561348d565b613b9e604083018461381b565b949350505050565b600061010082019050613bbc600083018b61381b565b8181036020830152613bce818a6134d5565b9050613bdd604083018961381b565b613bea6060830188613866565b613bf7608083018761381b565b613c0460a083018661381b565b613c1160c083018561348d565b81810360e0830152613c2381846134d5565b90509998505050505050505050565b600060c082019050613c47600083018961381b565b613c54602083018861381b565b613c6160408301876132d9565b8181036060830152613c73818661350e565b9050613c826080830185613848565b81810360a0830152613c9481846134d5565b9050979650505050505050565b6000613cab613cbc565b9050613cb78282614052565b919050565b6000604051905090565b600067ffffffffffffffff821115613ce157613ce061412a565b5b602082029050602081019050919050565b600067ffffffffffffffff821115613d0d57613d0c61412a565b5b602082029050602081019050919050565b600067ffffffffffffffff821115613d3957613d3861412a565b5b613d428261416c565b9050602081019050919050565b6000819050602082019050919050565b6000819050602082019050919050565b60008190508160005260206000209050919050565b60008190508160005260206000209050919050565b600081519050919050565b600081519050919050565b600081549050919050565b600081519050919050565b6000602082019050919050565b6000602082019050919050565b6000600182019050919050565b600082825260208201905092915050565b600082825260208201905092915050565b600081905092915050565b600082825260208201905092915050565b600082825260208201905092915050565b6000613e4682613f9b565b9150613e5183613f9b565b9250827fffffffffffffffffffffffffffffffffffffffffffffffffffffffffffffffff03821115613e8657613e856140cc565b5b828201905092915050565b6000613e9c82613f9b565b9150613ea783613f9b565b9250817fffffffffffffffffffffffffffffffffffffffffffffffffffffffffffffffff0483118215151615613ee057613edf6140cc565b5b828202905092915050565b6000613ef682613f9b565b9150613f0183613f9b565b925082821015613f1457613f136140cc565b5b828203905092915050565b6000613f2a82613fa5565b9150613f3583613fa5565b925082821015613f4857613f476140cc565b5b828203905092915050565b6000819050919050565b6000613f6882613f7b565b9050919050565b60008115159050919050565b600073ffffffffffffffffffffffffffffffffffffffff82169050919050565b6000819050919050565b600060ff82169050919050565b6000613fbd82613fa5565b9050919050565b82818337600083830152505050565b60005b83811015613ff1578082015181840152602081019050613fd6565b83811115614000576000848401525b50505050565b6000600282049050600182168061401e57607f821691505b60208210811415614032576140316140fb565b5b50919050565b600061404b6140468361417d565b613f53565b9050919050565b61405b8261416c565b810181811067ffffffffffffffff8211171561407a5761407961412a565b5b80604052505050565b600061408e82613f9b565b91507fffffffffffffffffffffffffffffffffffffffffffffffffffffffffffffffff8214156140c1576140c06140cc565b5b600182019050919050565b7f4e487b7100000000000000000000000000000000000000000000000000000000600052601160045260246000fd5b7f4e487b7100000000000000000000000000000000000000000000000000000000600052602260045260246000fd5b7f4e487b7100000000000000000000000000000000000000000000000000000000600052604160045260246000fd5b60006141658254614038565b9050919050565b6000601f19601f8301169050919050565b60008160001c9050919050565b7f4f776e61626c653a206e6577206f776e657220697320746865207a65726f206160008201527f6464726573730000000000000000000000000000000000000000000000000000602082015250565b7f4e6f742076616c69642071747920666f7220656163682070726f647563740000600082015250565b7f6469646e27742077697468726177000000000000000000000000000000000000600082015250565b7f4f6e6c7920636172742e617274206368696c6472656e20636f6e747261637473600082015250565b7f4e6f7420656e6f7567682062616c616e63650000000000000000000000000000600082015250565b7f496e76616c69642070726f647563740000000000000000000000000000000000600082015250565b7f496e76616c696420515459000000000000000000000000000000000000000000600082015250565b7f496e76616c696420507269636500000000000000000000000000000000000000600082015250565b7f6e6f207661756c74000000000000000000000000000000000000000000000000600082015250565b7f4f776e61626c653a2063616c6c6572206973206e6f7420746865206f776e6572600082015250565b7f43616e27742062757920302070726f6475637473206f72206d696e74206d6f7260008201527f65207468616e2031300000000000000000000000000000000000000000000000602082015250565b7f6469646e277420776974686472617720616c6c00000000000000000000000000600082015250565b7f4e6f20737563682070726f647563742049440000000000000000000000000000600082015250565b6143f481613f5d565b81146143ff57600080fd5b50565b61440b81613f6f565b811461441657600080fd5b50565b61442281613f9b565b811461442d57600080fd5b50565b61443981613fa5565b811461444457600080fd5b5056fea26469706673582212206328cbde4a3c2b78dc4d7431e2957c233fd17f916ee99cc8de983cc3b2011c0d64736f6c6343000804003360806040523480156200001157600080fd5b506040516200446f3803806200446f83398181016040528101906200003791906200045e565b6040518060400160405280600f81526020017f636172742e6172742045524337323100000000000000000000000000000000008152506040518060400160405280600981526020017f4c4f4f4b204c41425300000000000000000000000000000000000000000000008152508160009080519060200190620000bb92919062000397565b508060019080519060200190620000d492919062000397565b505050620000f7620000eb6200015060201b60201c565b6200015860201b60201c565b80600d60006101000a81548173ffffffffffffffffffffffffffffffffffffffff021916908373ffffffffffffffffffffffffffffffffffffffff16021790555062000149816200021e60201b60201c565b50620005c0565b600033905090565b6000600a60009054906101000a900473ffffffffffffffffffffffffffffffffffffffff16905081600a60006101000a81548173ffffffffffffffffffffffffffffffffffffffff021916908373ffffffffffffffffffffffffffffffffffffffff1602179055508173ffffffffffffffffffffffffffffffffffffffff168173ffffffffffffffffffffffffffffffffffffffff167f8be0079c531659141344cd1fd0a4f28419497f9722a3daafe3b4186f6b6457e060405160405180910390a35050565b6200022e6200015060201b60201c565b73ffffffffffffffffffffffffffffffffffffffff16620002546200036d60201b60201c565b73ffffffffffffffffffffffffffffffffffffffff1614620002ad576040517f08c379a0000000000000000000000000000000000000000000000000000000008152600401620002a490620004b1565b60405180910390fd5b8073ffffffffffffffffffffffffffffffffffffffff16600b60009054906101000a900473ffffffffffffffffffffffffffffffffffffffff1673ffffffffffffffffffffffffffffffffffffffff167f5b09f0d0a4cbf8770fd092cf5ee60221e5addb9d44f01f52b1e8c6fe34842e3f60405160405180910390a380600b60006101000a81548173ffffffffffffffffffffffffffffffffffffffff021916908373ffffffffffffffffffffffffffffffffffffffff16021790555050565b6000600a60009054906101000a900473ffffffffffffffffffffffffffffffffffffffff16905090565b828054620003a59062000518565b90600052602060002090601f016020900481019282620003c9576000855562000415565b82601f10620003e457805160ff191683800117855562000415565b8280016001018555821562000415579182015b8281111562000414578251825591602001919060010190620003f7565b5b50905062000424919062000428565b5090565b5b808211156200044357600081600090555060010162000429565b5090565b6000815190506200045881620005a6565b92915050565b6000602082840312156200047157600080fd5b6000620004818482850162000447565b91505092915050565b600062000499602083620004d3565b9150620004a6826200057d565b602082019050919050565b60006020820190508181036000830152620004cc816200048a565b9050919050565b600082825260208201905092915050565b6000620004f182620004f8565b9050919050565b600073ffffffffffffffffffffffffffffffffffffffff82169050919050565b600060028204905060018216806200053157607f821691505b602082108114156200054857620005476200054e565b5b50919050565b7f4e487b7100000000000000000000000000000000000000000000000000000000600052602260045260246000fd5b7f4f776e61626c653a2063616c6c6572206973206e6f7420746865206f776e6572600082015250565b620005b181620004e4565b8114620005bd57600080fd5b50565b613e9f80620005d06000396000f3fe608060405234801561001057600080fd5b50600436106101585760003560e01c8063715018a6116100c35780639de876b91161007c5780639de876b9146103d7578063a22cb465146103f3578063b88d4fde1461040f578063c87b56dd1461042b578063e985e9c51461045b578063f2fde38b1461048b57610158565b8063715018a6146103295780637f8ea7da146103335780638462151c1461034f5780638da5cb5b1461037f57806395d89b411461039d57806397107d6d146103bb57610158565b80632f745c59116101155780632f745c591461023157806342842e0e1461026157806342966c681461027d5780634f6ccce7146102995780636352211e146102c957806370a08231146102f957610158565b806301ffc9a71461015d57806306fdde031461018d578063081812fc146101ab578063095ea7b3146101db57806318160ddd146101f757806323b872dd14610215575b600080fd5b61017760048036038101906101729190612c26565b6104a7565b604051610184919061317d565b60405180910390f35b610195610521565b6040516101a29190613198565b60405180910390f35b6101c560048036038101906101c09190612cb9565b6105b3565b6040516101d291906130f4565b60405180910390f35b6101f560048036038101906101f09190612b6f565b610638565b005b6101ff610750565b60405161020c919061341a565b60405180910390f35b61022f600480360381019061022a9190612a69565b61075d565b005b61024b60048036038101906102469190612b6f565b6107bd565b604051610258919061341a565b60405180910390f35b61027b60048036038101906102769190612a69565b610862565b005b61029760048036038101906102929190612cb9565b610882565b005b6102b360048036038101906102ae9190612cb9565b610915565b6040516102c0919061341a565b60405180910390f35b6102e360048036038101906102de9190612cb9565b6109ac565b6040516102f091906130f4565b60405180910390f35b610313600480360381019061030e9190612a04565b610a5e565b604051610320919061341a565b60405180910390f35b610331610b16565b005b61034d60048036038101906103489190612a04565b610b9e565b005b61036960048036038101906103649190612a04565b610cd2565b604051610376919061315b565b60405180910390f35b610387610e4e565b60405161039491906130f4565b60405180910390f35b6103a5610e78565b6040516103b29190613198565b60405180910390f35b6103d560048036038101906103d09190612a04565b610f0a565b005b6103f160048036038101906103ec9190612bab565b611046565b005b61040d60048036038101906104089190612b33565b611225565b005b61042960048036038101906104249190612ab8565b6113a6565b005b61044560048036038101906104409190612cb9565b611408565b6040516104529190613198565b60405180910390f35b61047560048036038101906104709190612a2d565b61150c565b604051610482919061317d565b60405180910390f35b6104a560048036038101906104a09190612a04565b6115a0565b005b60007f780e9d63000000000000000000000000000000000000000000000000000000007bffffffffffffffffffffffffffffffffffffffffffffffffffffffff1916827bffffffffffffffffffffffffffffffffffffffffffffffffffffffff1916148061051a575061051982611698565b5b9050919050565b6060600080546105309061371e565b80601f016020809104026020016040519081016040528092919081815260200182805461055c9061371e565b80156105a95780601f1061057e576101008083540402835291602001916105a9565b820191906000526020600020905b81548152906001019060200180831161058c57829003601f168201915b5050505050905090565b60006105be8261177a565b6105fd576040517f08c379a00000000000000000000000000000000000000000000000000000000081526004016105f49061333a565b60405180910390fd5b6004600083815260200190815260200160002060009054906101000a900473ffffffffffffffffffffffffffffffffffffffff169050919050565b6000610643826109ac565b90508073ffffffffffffffffffffffffffffffffffffffff168373ffffffffffffffffffffffffffffffffffffffff1614156106b4576040517f08c379a00000000000000000000000000000000000000000000000000000000081526004016106ab906133ba565b60405180910390fd5b8073ffffffffffffffffffffffffffffffffffffffff166106d36117e6565b73ffffffffffffffffffffffffffffffffffffffff1614806107025750610701816106fc6117e6565b61150c565b5b610741576040517f08c379a0000000000000000000000000000000000000000000000000000000008152600401610738906132ba565b60405180910390fd5b61074b83836117ee565b505050565b6000600880549050905090565b61076e6107686117e6565b826118a7565b6107ad576040517f08c379a00000000000000000000000000000000000000000000000000000000081526004016107a4906133da565b60405180910390fd5b6107b8838383611985565b505050565b60006107c883610a5e565b8210610809576040517f08c379a0000000000000000000000000000000000000000000000000000000008152600401610800906131ba565b60405180910390fd5b600660008473ffffffffffffffffffffffffffffffffffffffff1673ffffffffffffffffffffffffffffffffffffffff168152602001908152602001600020600083815260200190815260200160002054905092915050565b61087d838383604051806020016040528060008152506113a6565b505050565b61088a6117e6565b73ffffffffffffffffffffffffffffffffffffffff166108a9826109ac565b73ffffffffffffffffffffffffffffffffffffffff16146108c957600080fd5b7fd9dcf46abb8e199182a2bc1082444702740990f616bc33b1e9a2183b5953fd41816108f36117e6565b604051610901929190613435565b60405180910390a161091281611be1565b50565b600061091f610750565b8210610960576040517f08c379a0000000000000000000000000000000000000000000000000000000008152600401610957906133fa565b60405180910390fd5b6008828154811061099a577f4e487b7100000000000000000000000000000000000000000000000000000000600052603260045260246000fd5b90600052602060002001549050919050565b6000806002600084815260200190815260200160002060009054906101000a900473ffffffffffffffffffffffffffffffffffffffff169050600073ffffffffffffffffffffffffffffffffffffffff168173ffffffffffffffffffffffffffffffffffffffff161415610a55576040517f08c379a0000000000000000000000000000000000000000000000000000000008152600401610a4c906132fa565b60405180910390fd5b80915050919050565b60008073ffffffffffffffffffffffffffffffffffffffff168273ffffffffffffffffffffffffffffffffffffffff161415610acf576040517f08c379a0000000000000000000000000000000000000000000000000000000008152600401610ac6906132da565b60405180910390fd5b600360008373ffffffffffffffffffffffffffffffffffffffff1673ffffffffffffffffffffffffffffffffffffffff168152602001908152602001600020549050919050565b610b1e6117e6565b73ffffffffffffffffffffffffffffffffffffffff16610b3c610e4e565b73ffffffffffffffffffffffffffffffffffffffff1614610b92576040517f08c379a0000000000000000000000000000000000000000000000000000000008152600401610b899061335a565b60405180910390fd5b610b9c6000611cf2565b565b610ba66117e6565b73ffffffffffffffffffffffffffffffffffffffff16610bc4610e4e565b73ffffffffffffffffffffffffffffffffffffffff1614610c1a576040517f08c379a0000000000000000000000000000000000000000000000000000000008152600401610c119061335a565b60405180910390fd5b80600c60008373ffffffffffffffffffffffffffffffffffffffff1673ffffffffffffffffffffffffffffffffffffffff16815260200190815260200160002060006101000a81548173ffffffffffffffffffffffffffffffffffffffff021916908373ffffffffffffffffffffffffffffffffffffffff1602179055507f7a68f36d013025b936cfcf536ded8ac09f742b930c53cab42fb42cb75340095c81604051610cc791906130f4565b60405180910390a150565b60606000610cdf83610a5e565b90506000811415610d6257600067ffffffffffffffff811115610d2b577f4e487b7100000000000000000000000000000000000000000000000000000000600052604160045260246000fd5b604051908082528060200260200182016040528015610d595781602001602082028036833780820191505090505b50915050610e49565b60008167ffffffffffffffff811115610da4577f4e487b7100000000000000000000000000000000000000000000000000000000600052604160045260246000fd5b604051908082528060200260200182016040528015610dd25781602001602082028036833780820191505090505b50905060005b82811015610e4257610dea85826107bd565b828281518110610e23577f4e487b7100000000000000000000000000000000000000000000000000000000600052603260045260246000fd5b6020026020010181815250508080610e3a90613781565b915050610dd8565b8193505050505b919050565b6000600a60009054906101000a900473ffffffffffffffffffffffffffffffffffffffff16905090565b606060018054610e879061371e565b80601f0160208091040260200160405190810160405280929190818152602001828054610eb39061371e565b8015610f005780601f10610ed557610100808354040283529160200191610f00565b820191906000526020600020905b815481529060010190602001808311610ee357829003601f168201915b5050505050905090565b610f126117e6565b73ffffffffffffffffffffffffffffffffffffffff16610f30610e4e565b73ffffffffffffffffffffffffffffffffffffffff1614610f86576040517f08c379a0000000000000000000000000000000000000000000000000000000008152600401610f7d9061335a565b60405180910390fd5b8073ffffffffffffffffffffffffffffffffffffffff16600b60009054906101000a900473ffffffffffffffffffffffffffffffffffffffff1673ffffffffffffffffffffffffffffffffffffffff167f5b09f0d0a4cbf8770fd092cf5ee60221e5addb9d44f01f52b1e8c6fe34842e3f60405160405180910390a380600b60006101000a81548173ffffffffffffffffffffffffffffffffffffffff021916908373ffffffffffffffffffffffffffffffffffffffff16021790555050565b600b60009054906101000a900473ffffffffffffffffffffffffffffffffffffffff1673ffffffffffffffffffffffffffffffffffffffff163373ffffffffffffffffffffffffffffffffffffffff16146110d6576040517f08c379a00000000000000000000000000000000000000000000000000000000081526004016110cd906131fa565b60405180910390fd5b6000831180156110e75750600a8311155b611126576040517f08c379a000000000000000000000000000000000000000000000000000000000815260040161111d9061339a565b60405180910390fd5b60005b8381101561121e576000600161113d610750565b61114791906135ad565b90506000604051806040016040528083815260200186815250905061116c8783611db8565b600d60009054906101000a900473ffffffffffffffffffffffffffffffffffffffff1673ffffffffffffffffffffffffffffffffffffffff166326ea96b8838988886040518563ffffffff1660e01b81526004016111cd949392919061345e565b600060405180830381600087803b1580156111e757600080fd5b505af11580156111fb573d6000803e3d6000fd5b505050506112098282611f86565b5050808061121690613781565b915050611129565b5050505050565b61122d6117e6565b73ffffffffffffffffffffffffffffffffffffffff168273ffffffffffffffffffffffffffffffffffffffff16141561129b576040517f08c379a00000000000000000000000000000000000000000000000000000000081526004016112929061327a565b60405180910390fd5b80600560006112a86117e6565b73ffffffffffffffffffffffffffffffffffffffff1673ffffffffffffffffffffffffffffffffffffffff16815260200190815260200160002060008473ffffffffffffffffffffffffffffffffffffffff1673ffffffffffffffffffffffffffffffffffffffff16815260200190815260200160002060006101000a81548160ff0219169083151502179055508173ffffffffffffffffffffffffffffffffffffffff166113556117e6565b73ffffffffffffffffffffffffffffffffffffffff167f17307eab39ab6107e8899845ad3d59bd9653f200f220920489ca2b5937696c318360405161139a919061317d565b60405180910390a35050565b6113b76113b16117e6565b836118a7565b6113f6576040517f08c379a00000000000000000000000000000000000000000000000000000000081526004016113ed906133da565b60405180910390fd5b61140284848484611fb5565b50505050565b60606000600e60008481526020019081526020016000206001015490506000600d60009054906101000a900473ffffffffffffffffffffffffffffffffffffffff1673ffffffffffffffffffffffffffffffffffffffff16634c1b2f2e836040518263ffffffff1660e01b8152600401611482919061341a565b60006040518083038186803b15801561149a57600080fd5b505afa1580156114ae573d6000803e3d6000fd5b505050506040513d6000823e3d601f19601f820116820180604052508101906114d79190612c78565b9050806114e385612011565b6040516020016114f49291906130d0565b60405160208183030381529060405292505050919050565b6000600560008473ffffffffffffffffffffffffffffffffffffffff1673ffffffffffffffffffffffffffffffffffffffff16815260200190815260200160002060008373ffffffffffffffffffffffffffffffffffffffff1673ffffffffffffffffffffffffffffffffffffffff16815260200190815260200160002060009054906101000a900460ff16905092915050565b6115a86117e6565b73ffffffffffffffffffffffffffffffffffffffff166115c6610e4e565b73ffffffffffffffffffffffffffffffffffffffff161461161c576040517f08c379a00000000000000000000000000000000000000000000000000000000081526004016116139061335a565b60405180910390fd5b600073ffffffffffffffffffffffffffffffffffffffff168173ffffffffffffffffffffffffffffffffffffffff16141561168c576040517f08c379a00000000000000000000000000000000000000000000000000000000081526004016116839061321a565b60405180910390fd5b61169581611cf2565b50565b60007f80ac58cd000000000000000000000000000000000000000000000000000000007bffffffffffffffffffffffffffffffffffffffffffffffffffffffff1916827bffffffffffffffffffffffffffffffffffffffffffffffffffffffff1916148061176357507f5b5e139f000000000000000000000000000000000000000000000000000000007bffffffffffffffffffffffffffffffffffffffffffffffffffffffff1916827bffffffffffffffffffffffffffffffffffffffffffffffffffffffff1916145b806117735750611772826121be565b5b9050919050565b60008073ffffffffffffffffffffffffffffffffffffffff166002600084815260200190815260200160002060009054906101000a900473ffffffffffffffffffffffffffffffffffffffff1673ffffffffffffffffffffffffffffffffffffffff1614159050919050565b600033905090565b816004600083815260200190815260200160002060006101000a81548173ffffffffffffffffffffffffffffffffffffffff021916908373ffffffffffffffffffffffffffffffffffffffff160217905550808273ffffffffffffffffffffffffffffffffffffffff16611861836109ac565b73ffffffffffffffffffffffffffffffffffffffff167f8c5be1e5ebec7d5bd14f71427d1e84f3dd0314c0f7b2291e5b200ac8c7c3b92560405160405180910390a45050565b60006118b28261177a565b6118f1576040517f08c379a00000000000000000000000000000000000000000000000000000000081526004016118e89061329a565b60405180910390fd5b60006118fc836109ac565b90508073ffffffffffffffffffffffffffffffffffffffff168473ffffffffffffffffffffffffffffffffffffffff16148061196b57508373ffffffffffffffffffffffffffffffffffffffff16611953846105b3565b73ffffffffffffffffffffffffffffffffffffffff16145b8061197c575061197b818561150c565b5b91505092915050565b8273ffffffffffffffffffffffffffffffffffffffff166119a5826109ac565b73ffffffffffffffffffffffffffffffffffffffff16146119fb576040517f08c379a00000000000000000000000000000000000000000000000000000000081526004016119f29061337a565b60405180910390fd5b600073ffffffffffffffffffffffffffffffffffffffff168273ffffffffffffffffffffffffffffffffffffffff161415611a6b576040517f08c379a0000000000000000000000000000000000000000000000000000000008152600401611a629061325a565b60405180910390fd5b611a76838383612228565b611a816000826117ee565b6001600360008573ffffffffffffffffffffffffffffffffffffffff1673ffffffffffffffffffffffffffffffffffffffff1681526020019081526020016000206000828254611ad19190613634565b925050819055506001600360008473ffffffffffffffffffffffffffffffffffffffff1673ffffffffffffffffffffffffffffffffffffffff1681526020019081526020016000206000828254611b2891906135ad565b92505081905550816002600083815260200190815260200160002060006101000a81548173ffffffffffffffffffffffffffffffffffffffff021916908373ffffffffffffffffffffffffffffffffffffffff160217905550808273ffffffffffffffffffffffffffffffffffffffff168473ffffffffffffffffffffffffffffffffffffffff167fddf252ad1be2c89b69c2b068fc378daa952ba7f163c4a11628f55a4df523b3ef60405160405180910390a4505050565b6000611bec826109ac565b9050611bfa81600084612228565b611c056000836117ee565b6001600360008373ffffffffffffffffffffffffffffffffffffffff1673ffffffffffffffffffffffffffffffffffffffff1681526020019081526020016000206000828254611c559190613634565b925050819055506002600083815260200190815260200160002060006101000a81549073ffffffffffffffffffffffffffffffffffffffff021916905581600073ffffffffffffffffffffffffffffffffffffffff168273ffffffffffffffffffffffffffffffffffffffff167fddf252ad1be2c89b69c2b068fc378daa952ba7f163c4a11628f55a4df523b3ef60405160405180910390a45050565b6000600a60009054906101000a900473ffffffffffffffffffffffffffffffffffffffff16905081600a60006101000a81548173ffffffffffffffffffffffffffffffffffffffff021916908373ffffffffffffffffffffffffffffffffffffffff1602179055508173ffffffffffffffffffffffffffffffffffffffff168173ffffffffffffffffffffffffffffffffffffffff167f8be0079c531659141344cd1fd0a4f28419497f9722a3daafe3b4186f6b6457e060405160405180910390a35050565b600073ffffffffffffffffffffffffffffffffffffffff168273ffffffffffffffffffffffffffffffffffffffff161415611e28576040517f08c379a0000000000000000000000000000000000000000000000000000000008152600401611e1f9061331a565b60405180910390fd5b611e318161177a565b15611e71576040517f08c379a0000000000000000000000000000000000000000000000000000000008152600401611e689061323a565b60405180910390fd5b611e7d60008383612228565b6001600360008473ffffffffffffffffffffffffffffffffffffffff1673ffffffffffffffffffffffffffffffffffffffff1681526020019081526020016000206000828254611ecd91906135ad565b92505081905550816002600083815260200190815260200160002060006101000a81548173ffffffffffffffffffffffffffffffffffffffff021916908373ffffffffffffffffffffffffffffffffffffffff160217905550808273ffffffffffffffffffffffffffffffffffffffff16600073ffffffffffffffffffffffffffffffffffffffff167fddf252ad1be2c89b69c2b068fc378daa952ba7f163c4a11628f55a4df523b3ef60405160405180910390a45050565b80600e600084815260200190815260200160002060008201518160000155602082015181600101559050505050565b611fc0848484611985565b611fcc8484848461233c565b61200b576040517f08c379a0000000000000000000000000000000000000000000000000000000008152600401612002906131da565b60405180910390fd5b50505050565b60606000821415612059576040518060400160405280600181526020017f300000000000000000000000000000000000000000000000000000000000000081525090506121b9565b600082905060005b6000821461208b57808061207490613781565b915050600a826120849190613603565b9150612061565b60008167ffffffffffffffff8111156120cd577f4e487b7100000000000000000000000000000000000000000000000000000000600052604160045260246000fd5b6040519080825280601f01601f1916602001820160405280156120ff5781602001600182028036833780820191505090505b5090505b600085146121b2576001826121189190613634565b9150600a8561212791906137ca565b603061213391906135ad565b60f81b81838151811061216f577f4e487b7100000000000000000000000000000000000000000000000000000000600052603260045260246000fd5b60200101907effffffffffffffffffffffffffffffffffffffffffffffffffffffffffffff1916908160001a905350600a856121ab9190613603565b9450612103565b8093505050505b919050565b60007f01ffc9a7000000000000000000000000000000000000000000000000000000007bffffffffffffffffffffffffffffffffffffffffffffffffffffffff1916827bffffffffffffffffffffffffffffffffffffffffffffffffffffffff1916149050919050565b6122338383836124d3565b600073ffffffffffffffffffffffffffffffffffffffff168373ffffffffffffffffffffffffffffffffffffffff16141561227657612271816124d8565b6122b5565b8173ffffffffffffffffffffffffffffffffffffffff168373ffffffffffffffffffffffffffffffffffffffff16146122b4576122b38382612521565b5b5b600073ffffffffffffffffffffffffffffffffffffffff168273ffffffffffffffffffffffffffffffffffffffff1614156122f8576122f38161268e565b612337565b8273ffffffffffffffffffffffffffffffffffffffff168273ffffffffffffffffffffffffffffffffffffffff16146123365761233582826127d1565b5b5b505050565b600061235d8473ffffffffffffffffffffffffffffffffffffffff16612850565b156124c6578373ffffffffffffffffffffffffffffffffffffffff1663150b7a026123866117e6565b8786866040518563ffffffff1660e01b81526004016123a8949392919061310f565b602060405180830381600087803b1580156123c257600080fd5b505af19250505080156123f357506040513d601f19601f820116820180604052508101906123f09190612c4f565b60015b612476573d8060008114612423576040519150601f19603f3d011682016040523d82523d6000602084013e612428565b606091505b5060008151141561246e576040517f08c379a0000000000000000000000000000000000000000000000000000000008152600401612465906131da565b60405180910390fd5b805181602001fd5b63150b7a0260e01b7bffffffffffffffffffffffffffffffffffffffffffffffffffffffff1916817bffffffffffffffffffffffffffffffffffffffffffffffffffffffff1916149150506124cb565b600190505b949350505050565b505050565b6008805490506009600083815260200190815260200160002081905550600881908060018154018082558091505060019003906000526020600020016000909190919091505550565b6000600161252e84610a5e565b6125389190613634565b905060006007600084815260200190815260200160002054905081811461261d576000600660008673ffffffffffffffffffffffffffffffffffffffff1673ffffffffffffffffffffffffffffffffffffffff168152602001908152602001600020600084815260200190815260200160002054905080600660008773ffffffffffffffffffffffffffffffffffffffff1673ffffffffffffffffffffffffffffffffffffffff168152602001908152602001600020600084815260200190815260200160002081905550816007600083815260200190815260200160002081905550505b6007600084815260200190815260200160002060009055600660008573ffffffffffffffffffffffffffffffffffffffff1673ffffffffffffffffffffffffffffffffffffffff16815260200190815260200160002060008381526020019081526020016000206000905550505050565b600060016008805490506126a29190613634565b90506000600960008481526020019081526020016000205490506000600883815481106126f8577f4e487b7100000000000000000000000000000000000000000000000000000000600052603260045260246000fd5b906000526020600020015490508060088381548110612740577f4e487b7100000000000000000000000000000000000000000000000000000000600052603260045260246000fd5b9060005260206000200181905550816009600083815260200190815260200160002081905550600960008581526020019081526020016000206000905560088054806127b5577f4e487b7100000000000000000000000000000000000000000000000000000000600052603160045260246000fd5b6001900381819060005260206000200160009055905550505050565b60006127dc83610a5e565b905081600660008573ffffffffffffffffffffffffffffffffffffffff1673ffffffffffffffffffffffffffffffffffffffff168152602001908152602001600020600083815260200190815260200160002081905550806007600084815260200190815260200160002081905550505050565b600080823b905060008111915050919050565b6000612876612871846134cf565b6134aa565b90508281526020810184848401111561288e57600080fd5b6128998482856136dc565b509392505050565b60006128b46128af84613500565b6134aa565b9050828152602081018484840111156128cc57600080fd5b6128d78482856136dc565b509392505050565b60006128f26128ed84613500565b6134aa565b90508281526020810184848401111561290a57600080fd5b6129158482856136eb565b509392505050565b60008135905061292c81613e0d565b92915050565b60008135905061294181613e24565b92915050565b60008135905061295681613e3b565b92915050565b60008151905061296b81613e3b565b92915050565b600082601f83011261298257600080fd5b8135612992848260208601612863565b91505092915050565b600082601f8301126129ac57600080fd5b81356129bc8482602086016128a1565b91505092915050565b600082601f8301126129d657600080fd5b81516129e68482602086016128df565b91505092915050565b6000813590506129fe81613e52565b92915050565b600060208284031215612a1657600080fd5b6000612a248482850161291d565b91505092915050565b60008060408385031215612a4057600080fd5b6000612a4e8582860161291d565b9250506020612a5f8582860161291d565b9150509250929050565b600080600060608486031215612a7e57600080fd5b6000612a8c8682870161291d565b9350506020612a9d8682870161291d565b9250506040612aae868287016129ef565b9150509250925092565b60008060008060808587031215612ace57600080fd5b6000612adc8782880161291d565b9450506020612aed8782880161291d565b9350506040612afe878288016129ef565b925050606085013567ffffffffffffffff811115612b1b57600080fd5b612b2787828801612971565b91505092959194509250565b60008060408385031215612b4657600080fd5b6000612b548582860161291d565b9250506020612b6585828601612932565b9150509250929050565b60008060408385031215612b8257600080fd5b6000612b908582860161291d565b9250506020612ba1858286016129ef565b9150509250929050565b60008060008060808587031215612bc157600080fd5b6000612bcf8782880161291d565b9450506020612be0878288016129ef565b9350506040612bf1878288016129ef565b925050606085013567ffffffffffffffff811115612c0e57600080fd5b612c1a8782880161299b565b91505092959194509250565b600060208284031215612c3857600080fd5b6000612c4684828501612947565b91505092915050565b600060208284031215612c6157600080fd5b6000612c6f8482850161295c565b91505092915050565b600060208284031215612c8a57600080fd5b600082015167ffffffffffffffff811115612ca457600080fd5b612cb0848285016129c5565b91505092915050565b600060208284031215612ccb57600080fd5b6000612cd9848285016129ef565b91505092915050565b6000612cee83836130b2565b60208301905092915050565b612d0381613668565b82525050565b6000612d1482613541565b612d1e818561356f565b9350612d2983613531565b8060005b83811015612d5a578151612d418882612ce2565b9750612d4c83613562565b925050600181019050612d2d565b5085935050505092915050565b612d708161367a565b82525050565b6000612d818261354c565b612d8b8185613580565b9350612d9b8185602086016136eb565b612da4816138b7565b840191505092915050565b6000612dba82613557565b612dc48185613591565b9350612dd48185602086016136eb565b612ddd816138b7565b840191505092915050565b6000612df382613557565b612dfd81856135a2565b9350612e0d8185602086016136eb565b80840191505092915050565b6000612e26602b83613591565b9150612e31826138c8565b604082019050919050565b6000612e49603283613591565b9150612e5482613917565b604082019050919050565b6000612e6c602e83613591565b9150612e7782613966565b604082019050919050565b6000612e8f602683613591565b9150612e9a826139b5565b604082019050919050565b6000612eb2601c83613591565b9150612ebd82613a04565b602082019050919050565b6000612ed5602483613591565b9150612ee082613a2d565b604082019050919050565b6000612ef8601983613591565b9150612f0382613a7c565b602082019050919050565b6000612f1b602c83613591565b9150612f2682613aa5565b604082019050919050565b6000612f3e603883613591565b9150612f4982613af4565b604082019050919050565b6000612f61602a83613591565b9150612f6c82613b43565b604082019050919050565b6000612f84602983613591565b9150612f8f82613b92565b604082019050919050565b6000612fa7602083613591565b9150612fb282613be1565b602082019050919050565b6000612fca602c83613591565b9150612fd582613c0a565b604082019050919050565b6000612fed602083613591565b9150612ff882613c59565b602082019050919050565b6000613010602983613591565b915061301b82613c82565b604082019050919050565b6000613033603d83613591565b915061303e82613cd1565b604082019050919050565b6000613056602183613591565b915061306182613d20565b604082019050919050565b6000613079603183613591565b915061308482613d6f565b604082019050919050565b600061309c602c83613591565b91506130a782613dbe565b604082019050919050565b6130bb816136d2565b82525050565b6130ca816136d2565b82525050565b60006130dc8285612de8565b91506130e88284612de8565b91508190509392505050565b60006020820190506131096000830184612cfa565b92915050565b60006080820190506131246000830187612cfa565b6131316020830186612cfa565b61313e60408301856130c1565b81810360608301526131508184612d76565b905095945050505050565b600060208201905081810360008301526131758184612d09565b905092915050565b60006020820190506131926000830184612d67565b92915050565b600060208201905081810360008301526131b28184612daf565b905092915050565b600060208201905081810360008301526131d381612e19565b9050919050565b600060208201905081810360008301526131f381612e3c565b9050919050565b6000602082019050818103600083015261321381612e5f565b9050919050565b6000602082019050818103600083015261323381612e82565b9050919050565b6000602082019050818103600083015261325381612ea5565b9050919050565b6000602082019050818103600083015261327381612ec8565b9050919050565b6000602082019050818103600083015261329381612eeb565b9050919050565b600060208201905081810360008301526132b381612f0e565b9050919050565b600060208201905081810360008301526132d381612f31565b9050919050565b600060208201905081810360008301526132f381612f54565b9050919050565b6000602082019050818103600083015261331381612f77565b9050919050565b6000602082019050818103600083015261333381612f9a565b9050919050565b6000602082019050818103600083015261335381612fbd565b9050919050565b6000602082019050818103600083015261337381612fe0565b9050919050565b6000602082019050818103600083015261339381613003565b9050919050565b600060208201905081810360008301526133b381613026565b9050919050565b600060208201905081810360008301526133d381613049565b9050919050565b600060208201905081810360008301526133f38161306c565b9050919050565b600060208201905081810360008301526134138161308f565b9050919050565b600060208201905061342f60008301846130c1565b92915050565b600060408201905061344a60008301856130c1565b6134576020830184612cfa565b9392505050565b600060808201905061347360008301876130c1565b6134806020830186612cfa565b61348d60408301856130c1565b818103606083015261349f8184612daf565b905095945050505050565b60006134b46134c5565b90506134c08282613750565b919050565b6000604051905090565b600067ffffffffffffffff8211156134ea576134e9613888565b5b6134f3826138b7565b9050602081019050919050565b600067ffffffffffffffff82111561351b5761351a613888565b5b613524826138b7565b9050602081019050919050565b6000819050602082019050919050565b600081519050919050565b600081519050919050565b600081519050919050565b6000602082019050919050565b600082825260208201905092915050565b600082825260208201905092915050565b600082825260208201905092915050565b600081905092915050565b60006135b8826136d2565b91506135c3836136d2565b9250827fffffffffffffffffffffffffffffffffffffffffffffffffffffffffffffffff038211156135f8576135f76137fb565b5b828201905092915050565b600061360e826136d2565b9150613619836136d2565b9250826136295761362861382a565b5b828204905092915050565b600061363f826136d2565b915061364a836136d2565b92508282101561365d5761365c6137fb565b5b828203905092915050565b6000613673826136b2565b9050919050565b60008115159050919050565b60007fffffffff0000000000000000000000000000000000000000000000000000000082169050919050565b600073ffffffffffffffffffffffffffffffffffffffff82169050919050565b6000819050919050565b82818337600083830152505050565b60005b838110156137095780820151818401526020810190506136ee565b83811115613718576000848401525b50505050565b6000600282049050600182168061373657607f821691505b6020821081141561374a57613749613859565b5b50919050565b613759826138b7565b810181811067ffffffffffffffff8211171561377857613777613888565b5b80604052505050565b600061378c826136d2565b91507fffffffffffffffffffffffffffffffffffffffffffffffffffffffffffffffff8214156137bf576137be6137fb565b5b600182019050919050565b60006137d5826136d2565b91506137e0836136d2565b9250826137f0576137ef61382a565b5b828206905092915050565b7f4e487b7100000000000000000000000000000000000000000000000000000000600052601160045260246000fd5b7f4e487b7100000000000000000000000000000000000000000000000000000000600052601260045260246000fd5b7f4e487b7100000000000000000000000000000000000000000000000000000000600052602260045260246000fd5b7f4e487b7100000000000000000000000000000000000000000000000000000000600052604160045260246000fd5b6000601f19601f8301169050919050565b7f455243373231456e756d657261626c653a206f776e657220696e646578206f7560008201527f74206f6620626f756e6473000000000000000000000000000000000000000000602082015250565b7f4552433732313a207472616e7366657220746f206e6f6e20455243373231526560008201527f63656976657220696d706c656d656e7465720000000000000000000000000000602082015250565b7f4f6e6c792047656e6573697320466163746f727920697320616c6c6f7765642060008201527f746f206d696e7420746f6b656e73000000000000000000000000000000000000602082015250565b7f4f776e61626c653a206e6577206f776e657220697320746865207a65726f206160008201527f6464726573730000000000000000000000000000000000000000000000000000602082015250565b7f4552433732313a20746f6b656e20616c7265616479206d696e74656400000000600082015250565b7f4552433732313a207472616e7366657220746f20746865207a65726f2061646460008201527f7265737300000000000000000000000000000000000000000000000000000000602082015250565b7f4552433732313a20617070726f766520746f2063616c6c657200000000000000600082015250565b7f4552433732313a206f70657261746f7220717565727920666f72206e6f6e657860008201527f697374656e7420746f6b656e0000000000000000000000000000000000000000602082015250565b7f4552433732313a20617070726f76652063616c6c6572206973206e6f74206f7760008201527f6e6572206e6f7220617070726f76656420666f7220616c6c0000000000000000602082015250565b7f4552433732313a2062616c616e636520717565727920666f7220746865207a6560008201527f726f206164647265737300000000000000000000000000000000000000000000602082015250565b7f4552433732313a206f776e657220717565727920666f72206e6f6e657869737460008201527f656e7420746f6b656e0000000000000000000000000000000000000000000000602082015250565b7f4552433732313a206d696e7420746f20746865207a65726f2061646472657373600082015250565b7f4552433732313a20617070726f76656420717565727920666f72206e6f6e657860008201527f697374656e7420746f6b656e0000000000000000000000000000000000000000602082015250565b7f4f776e61626c653a2063616c6c6572206973206e6f7420746865206f776e6572600082015250565b7f4552433732313a207472616e73666572206f6620746f6b656e2074686174206960008201527f73206e6f74206f776e0000000000000000000000000000000000000000000000602082015250565b7f596f752063616e20627579206e6f206c657373207468616e20312c20616e642060008201527f6e6f206d6f7265207468616e20617420746568652073616d6574696d65000000602082015250565b7f4552433732313a20617070726f76616c20746f2063757272656e74206f776e6560008201527f7200000000000000000000000000000000000000000000000000000000000000602082015250565b7f4552433732313a207472616e736665722063616c6c6572206973206e6f74206f60008201527f776e6572206e6f7220617070726f766564000000000000000000000000000000602082015250565b7f455243373231456e756d657261626c653a20676c6f62616c20696e646578206f60008201527f7574206f6620626f756e64730000000000000000000000000000000000000000602082015250565b613e1681613668565b8114613e2157600080fd5b50565b613e2d8161367a565b8114613e3857600080fd5b50565b613e4481613686565b8114613e4f57600080fd5b50565b613e5b816136d2565b8114613e6657600080fd5b5056fea26469706673582212204099a4e39b81f7bc03554b59f9f18e3267fe076f139ae6c288c39d02aba13f7064736f6c6343000804003360806040526000600760006101000a81548160ff021916908360ff1602179055503480156200002d57600080fd5b506040516200441238038062004412833981810160405281019062000053919062000418565b604051806020016040528060008152506200007481620000ee60201b60201c565b5062000095620000896200010a60201b60201c565b6200011260201b60201c565b80600760016101000a81548173ffffffffffffffffffffffffffffffffffffffff021916908373ffffffffffffffffffffffffffffffffffffffff160217905550620000e781620001d860201b60201c565b506200057a565b80600290805190602001906200010692919062000351565b5050565b600033905090565b6000600460009054906101000a900473ffffffffffffffffffffffffffffffffffffffff16905081600460006101000a81548173ffffffffffffffffffffffffffffffffffffffff021916908373ffffffffffffffffffffffffffffffffffffffff1602179055508173ffffffffffffffffffffffffffffffffffffffff168173ffffffffffffffffffffffffffffffffffffffff167f8be0079c531659141344cd1fd0a4f28419497f9722a3daafe3b4186f6b6457e060405160405180910390a35050565b620001e86200010a60201b60201c565b73ffffffffffffffffffffffffffffffffffffffff166200020e6200032760201b60201c565b73ffffffffffffffffffffffffffffffffffffffff161462000267576040517f08c379a00000000000000000000000000000000000000000000000000000000081526004016200025e906200046b565b60405180910390fd5b8073ffffffffffffffffffffffffffffffffffffffff16600560009054906101000a900473ffffffffffffffffffffffffffffffffffffffff1673ffffffffffffffffffffffffffffffffffffffff167f5b09f0d0a4cbf8770fd092cf5ee60221e5addb9d44f01f52b1e8c6fe34842e3f60405160405180910390a380600560006101000a81548173ffffffffffffffffffffffffffffffffffffffff021916908373ffffffffffffffffffffffffffffffffffffffff16021790555050565b6000600460009054906101000a900473ffffffffffffffffffffffffffffffffffffffff16905090565b8280546200035f90620004d2565b90600052602060002090601f016020900481019282620003835760008555620003cf565b82601f106200039e57805160ff1916838001178555620003cf565b82800160010185558215620003cf579182015b82811115620003ce578251825591602001919060010190620003b1565b5b509050620003de9190620003e2565b5090565b5b80821115620003fd576000816000905550600101620003e3565b5090565b600081519050620004128162000560565b92915050565b6000602082840312156200042b57600080fd5b60006200043b8482850162000401565b91505092915050565b6000620004536020836200048d565b9150620004608262000537565b602082019050919050565b60006020820190508181036000830152620004868162000444565b9050919050565b600082825260208201905092915050565b6000620004ab82620004b2565b9050919050565b600073ffffffffffffffffffffffffffffffffffffffff82169050919050565b60006002820490506001821680620004eb57607f821691505b6020821081141562000502576200050162000508565b5b50919050565b7f4e487b7100000000000000000000000000000000000000000000000000000000600052602260045260246000fd5b7f4f776e61626c653a2063616c6c6572206973206e6f7420746865206f776e6572600082015250565b6200056b816200049e565b81146200057757600080fd5b50565b613e88806200058a6000396000f3fe608060405234801561001057600080fd5b506004361061010a5760003560e01c80638da5cb5b116100a2578063bd85b03911610071578063bd85b039146102b3578063e985e9c5146102e3578063f242432a14610313578063f2fde38b1461032f578063f5298aca1461034b5761010a565b80638da5cb5b1461024157806397107d6d1461025f5780639de876b91461027b578063a22cb465146102975761010a565b80634e1273f4116100de5780634e1273f4146101bb5780634f558e79146101eb578063715018a61461021b5780637f8ea7da146102255761010a565b8062fdd58e1461010f57806301ffc9a71461013f5780630e89341c1461016f5780632eb2c2d61461019f575b600080fd5b61012960048036038101906101249190612979565b610367565b6040516101369190613306565b60405180910390f35b61015960048036038101906101549190612aeb565b610430565b60405161016691906130a9565b60405180910390f35b61018960048036038101906101849190612b7e565b610512565b60405161019691906130c4565b60405180910390f35b6101b960048036038101906101b491906127ef565b610665565b005b6101d560048036038101906101d09190612a7f565b610706565b6040516101e29190613050565b60405180910390f35b61020560048036038101906102009190612b7e565b6108b7565b60405161021291906130a9565b60405180910390f35b6102236108cb565b005b61023f600480360381019061023a919061278a565b610953565b005b610249610a87565b6040516102569190612f73565b60405180910390f35b6102796004803603810190610274919061278a565b610ab1565b005b61029560048036038101906102909190612a04565b610bed565b005b6102b160048036038101906102ac919061293d565b610ee2565b005b6102cd60048036038101906102c89190612b7e565b611063565b6040516102da9190613306565b60405180910390f35b6102fd60048036038101906102f891906127b3565b611080565b60405161030a91906130a9565b60405180910390f35b61032d600480360381019061032891906128ae565b611114565b005b6103496004803603810190610344919061278a565b6111b5565b005b610365600480360381019061036091906129b5565b6112ad565b005b60008073ffffffffffffffffffffffffffffffffffffffff168373ffffffffffffffffffffffffffffffffffffffff1614156103d8576040517f08c379a00000000000000000000000000000000000000000000000000000000081526004016103cf90613126565b60405180910390fd5b60008083815260200190815260200160002060008473ffffffffffffffffffffffffffffffffffffffff1673ffffffffffffffffffffffffffffffffffffffff16815260200190815260200160002054905092915050565b60007fd9b67a26000000000000000000000000000000000000000000000000000000007bffffffffffffffffffffffffffffffffffffffffffffffffffffffff1916827bffffffffffffffffffffffffffffffffffffffffffffffffffffffff191614806104fb57507f0e89341c000000000000000000000000000000000000000000000000000000007bffffffffffffffffffffffffffffffffffffffffffffffffffffffff1916827bffffffffffffffffffffffffffffffffffffffffffffffffffffffff1916145b8061050b575061050a82611308565b5b9050919050565b606060005b600760009054906101000a900460ff1660ff16811161065e57826008600083815260200190815260200160002060010154141561064b576000600760019054906101000a900473ffffffffffffffffffffffffffffffffffffffff1673ffffffffffffffffffffffffffffffffffffffff16634c1b2f2e60086000858152602001908152602001600020600001546040518263ffffffff1660e01b81526004016105c19190613306565b60006040518083038186803b1580156105d957600080fd5b505afa1580156105ed573d6000803e3d6000fd5b505050506040513d6000823e3d601f19601f820116820180604052508101906106169190612b3d565b90508061062285611372565b604051602001610633929190612f4f565b60405160208183030381529060405292505050610660565b808061065690613700565b915050610517565b505b919050565b61066d61151f565b73ffffffffffffffffffffffffffffffffffffffff168573ffffffffffffffffffffffffffffffffffffffff1614806106b357506106b2856106ad61151f565b611080565b5b6106f2576040517f08c379a00000000000000000000000000000000000000000000000000000000081526004016106e9906131e6565b60405180910390fd5b6106ff8585858585611527565b5050505050565b6060815183511461074c576040517f08c379a0000000000000000000000000000000000000000000000000000000008152600401610743906132a6565b60405180910390fd5b6000835167ffffffffffffffff81111561078f577f4e487b7100000000000000000000000000000000000000000000000000000000600052604160045260246000fd5b6040519080825280602002602001820160405280156107bd5781602001602082028036833780820191505090505b50905060005b84518110156108ac57610856858281518110610808577f4e487b7100000000000000000000000000000000000000000000000000000000600052603260045260246000fd5b6020026020010151858381518110610849577f4e487b7100000000000000000000000000000000000000000000000000000000600052603260045260246000fd5b6020026020010151610367565b82828151811061088f577f4e487b7100000000000000000000000000000000000000000000000000000000600052603260045260246000fd5b602002602001018181525050806108a590613700565b90506107c3565b508091505092915050565b6000806108c383611063565b119050919050565b6108d361151f565b73ffffffffffffffffffffffffffffffffffffffff166108f1610a87565b73ffffffffffffffffffffffffffffffffffffffff1614610947576040517f08c379a000000000000000000000000000000000000000000000000000000000815260040161093e90613246565b60405180910390fd5b6109516000611887565b565b61095b61151f565b73ffffffffffffffffffffffffffffffffffffffff16610979610a87565b73ffffffffffffffffffffffffffffffffffffffff16146109cf576040517f08c379a00000000000000000000000000000000000000000000000000000000081526004016109c690613246565b60405180910390fd5b80600660008373ffffffffffffffffffffffffffffffffffffffff1673ffffffffffffffffffffffffffffffffffffffff16815260200190815260200160002060006101000a81548173ffffffffffffffffffffffffffffffffffffffff021916908373ffffffffffffffffffffffffffffffffffffffff1602179055507f7a68f36d013025b936cfcf536ded8ac09f742b930c53cab42fb42cb75340095c81604051610a7c9190612f73565b60405180910390a150565b6000600460009054906101000a900473ffffffffffffffffffffffffffffffffffffffff16905090565b610ab961151f565b73ffffffffffffffffffffffffffffffffffffffff16610ad7610a87565b73ffffffffffffffffffffffffffffffffffffffff1614610b2d576040517f08c379a0000000000000000000000000000000000000000000000000000000008152600401610b2490613246565b60405180910390fd5b8073ffffffffffffffffffffffffffffffffffffffff16600560009054906101000a900473ffffffffffffffffffffffffffffffffffffffff1673ffffffffffffffffffffffffffffffffffffffff167f5b09f0d0a4cbf8770fd092cf5ee60221e5addb9d44f01f52b1e8c6fe34842e3f60405160405180910390a380600560006101000a81548173ffffffffffffffffffffffffffffffffffffffff021916908373ffffffffffffffffffffffffffffffffffffffff16021790555050565b600560009054906101000a900473ffffffffffffffffffffffffffffffffffffffff1673ffffffffffffffffffffffffffffffffffffffff163373ffffffffffffffffffffffffffffffffffffffff1614610c7d576040517f08c379a0000000000000000000000000000000000000000000000000000000008152600401610c7490613146565b60405180910390fd5b600083118015610c8e5750600a8311155b610ccd576040517f08c379a0000000000000000000000000000000000000000000000000000000008152600401610cc490613266565b60405180910390fd5b60008260086000858152602001908152602001600020600001541415610d0b5760086000848152602001908152602001600020600101549050610d58565b6001600760008282829054906101000a900460ff16610d2a9190613570565b92506101000a81548160ff021916908360ff160217905550600760009054906101000a900460ff1660ff1690505b610d998582866040518060400160405280600381526020017f307830000000000000000000000000000000000000000000000000000000000081525061194d565b600760019054906101000a900473ffffffffffffffffffffffffffffffffffffffff1673ffffffffffffffffffffffffffffffffffffffff166326ea96b8828786866040518563ffffffff1660e01b8152600401610dfa949392919061334a565b600060405180830381600087803b158015610e1457600080fd5b505af1158015610e28573d6000803e3d6000fd5b5050505060006040518060600160405280858152602001838152602001610e4d61151f565b73ffffffffffffffffffffffffffffffffffffffff1681525090508060086000868152602001908152602001600020600082015181600001556020820151816001015560408201518160020160006101000a81548173ffffffffffffffffffffffffffffffffffffffff021916908373ffffffffffffffffffffffffffffffffffffffff160217905550905050505050505050565b8173ffffffffffffffffffffffffffffffffffffffff16610f0161151f565b73ffffffffffffffffffffffffffffffffffffffff161415610f58576040517f08c379a0000000000000000000000000000000000000000000000000000000008152600401610f4f90613286565b60405180910390fd5b8060016000610f6561151f565b73ffffffffffffffffffffffffffffffffffffffff1673ffffffffffffffffffffffffffffffffffffffff16815260200190815260200160002060008473ffffffffffffffffffffffffffffffffffffffff1673ffffffffffffffffffffffffffffffffffffffff16815260200190815260200160002060006101000a81548160ff0219169083151502179055508173ffffffffffffffffffffffffffffffffffffffff1661101261151f565b73ffffffffffffffffffffffffffffffffffffffff167f17307eab39ab6107e8899845ad3d59bd9653f200f220920489ca2b5937696c318360405161105791906130a9565b60405180910390a35050565b600060036000838152602001908152602001600020549050919050565b6000600160008473ffffffffffffffffffffffffffffffffffffffff1673ffffffffffffffffffffffffffffffffffffffff16815260200190815260200160002060008373ffffffffffffffffffffffffffffffffffffffff1673ffffffffffffffffffffffffffffffffffffffff16815260200190815260200160002060009054906101000a900460ff16905092915050565b61111c61151f565b73ffffffffffffffffffffffffffffffffffffffff168573ffffffffffffffffffffffffffffffffffffffff16148061116257506111618561115c61151f565b611080565b5b6111a1576040517f08c379a0000000000000000000000000000000000000000000000000000000008152600401611198906131a6565b60405180910390fd5b6111ae8585858585611989565b5050505050565b6111bd61151f565b73ffffffffffffffffffffffffffffffffffffffff166111db610a87565b73ffffffffffffffffffffffffffffffffffffffff1614611231576040517f08c379a000000000000000000000000000000000000000000000000000000000815260040161122890613246565b60405180910390fd5b600073ffffffffffffffffffffffffffffffffffffffff168173ffffffffffffffffffffffffffffffffffffffff1614156112a1576040517f08c379a000000000000000000000000000000000000000000000000000000000815260040161129890613166565b60405180910390fd5b6112aa81611887565b50565b6112b682611c0b565b6112bf57600080fd5b6112ca838383611c21565b7fdd08783447b0883f5bc12a1a009c6f1c2b89bf9877c222a30c5df5d2e7b4b21882846040516112fb929190613321565b60405180910390a1505050565b60007f01ffc9a7000000000000000000000000000000000000000000000000000000007bffffffffffffffffffffffffffffffffffffffffffffffffffffffff1916827bffffffffffffffffffffffffffffffffffffffffffffffffffffffff1916149050919050565b606060008214156113ba576040518060400160405280600181526020017f3000000000000000000000000000000000000000000000000000000000000000815250905061151a565b600082905060005b600082146113ec5780806113d590613700565b915050600a826113e591906135a7565b91506113c2565b60008167ffffffffffffffff81111561142e577f4e487b7100000000000000000000000000000000000000000000000000000000600052604160045260246000fd5b6040519080825280601f01601f1916602001820160405280156114605781602001600182028036833780820191505090505b5090505b600085146115135760018261147991906135d8565b9150600a856114889190613749565b6030611494919061351a565b60f81b8183815181106114d0577f4e487b7100000000000000000000000000000000000000000000000000000000600052603260045260246000fd5b60200101907effffffffffffffffffffffffffffffffffffffffffffffffffffffffffffff1916908160001a905350600a8561150c91906135a7565b9450611464565b8093505050505b919050565b600033905090565b815183511461156b576040517f08c379a0000000000000000000000000000000000000000000000000000000008152600401611562906132c6565b60405180910390fd5b600073ffffffffffffffffffffffffffffffffffffffff168473ffffffffffffffffffffffffffffffffffffffff1614156115db576040517f08c379a00000000000000000000000000000000000000000000000000000000081526004016115d2906131c6565b60405180910390fd5b60006115e561151f565b90506115f5818787878787611c5b565b60005b84518110156117f257600085828151811061163c577f4e487b7100000000000000000000000000000000000000000000000000000000600052603260045260246000fd5b602002602001015190506000858381518110611681577f4e487b7100000000000000000000000000000000000000000000000000000000600052603260045260246000fd5b60200260200101519050600080600084815260200190815260200160002060008b73ffffffffffffffffffffffffffffffffffffffff1673ffffffffffffffffffffffffffffffffffffffff16815260200190815260200160002054905081811015611722576040517f08c379a000000000000000000000000000000000000000000000000000000000815260040161171990613226565b60405180910390fd5b81810360008085815260200190815260200160002060008c73ffffffffffffffffffffffffffffffffffffffff1673ffffffffffffffffffffffffffffffffffffffff168152602001908152602001600020819055508160008085815260200190815260200160002060008b73ffffffffffffffffffffffffffffffffffffffff1673ffffffffffffffffffffffffffffffffffffffff16815260200190815260200160002060008282546117d7919061351a565b92505081905550505050806117eb90613700565b90506115f8565b508473ffffffffffffffffffffffffffffffffffffffff168673ffffffffffffffffffffffffffffffffffffffff168273ffffffffffffffffffffffffffffffffffffffff167f4a39dc06d4c0dbc64b70af90fd698a233a518aa5d07e595d983b8c0526c8f7fb8787604051611869929190613072565b60405180910390a461187f818787878787611c63565b505050505050565b6000600460009054906101000a900473ffffffffffffffffffffffffffffffffffffffff16905081600460006101000a81548173ffffffffffffffffffffffffffffffffffffffff021916908373ffffffffffffffffffffffffffffffffffffffff1602179055508173ffffffffffffffffffffffffffffffffffffffff168173ffffffffffffffffffffffffffffffffffffffff167f8be0079c531659141344cd1fd0a4f28419497f9722a3daafe3b4186f6b6457e060405160405180910390a35050565b61195984848484611e4a565b8160036000858152602001908152602001600020600082825461197c919061351a565b9250508190555050505050565b600073ffffffffffffffffffffffffffffffffffffffff168473ffffffffffffffffffffffffffffffffffffffff1614156119f9576040517f08c379a00000000000000000000000000000000000000000000000000000000081526004016119f0906131c6565b60405180910390fd5b6000611a0361151f565b9050611a23818787611a1488611fe0565b611a1d88611fe0565b87611c5b565b600080600086815260200190815260200160002060008873ffffffffffffffffffffffffffffffffffffffff1673ffffffffffffffffffffffffffffffffffffffff16815260200190815260200160002054905083811015611aba576040517f08c379a0000000000000000000000000000000000000000000000000000000008152600401611ab190613226565b60405180910390fd5b83810360008087815260200190815260200160002060008973ffffffffffffffffffffffffffffffffffffffff1673ffffffffffffffffffffffffffffffffffffffff168152602001908152602001600020819055508360008087815260200190815260200160002060008873ffffffffffffffffffffffffffffffffffffffff1673ffffffffffffffffffffffffffffffffffffffff1681526020019081526020016000206000828254611b6f919061351a565b925050819055508573ffffffffffffffffffffffffffffffffffffffff168773ffffffffffffffffffffffffffffffffffffffff168373ffffffffffffffffffffffffffffffffffffffff167fc3d58168c5ae7397731d063d5bbf3d657854427343f4c083240f7aacaa2d0f628888604051611bec929190613396565b60405180910390a4611c028288888888886120a6565b50505050505050565b600080611c183384610367565b14159050919050565b611c2c83838361228d565b80600360008481526020019081526020016000206000828254611c4f91906135d8565b92505081905550505050565b505050505050565b611c828473ffffffffffffffffffffffffffffffffffffffff166124aa565b15611e42578373ffffffffffffffffffffffffffffffffffffffff1663bc197c8187878686866040518663ffffffff1660e01b8152600401611cc8959493929190612f8e565b602060405180830381600087803b158015611ce257600080fd5b505af1925050508015611d1357506040513d601f19601f82011682018060405250810190611d109190612b14565b60015b611db957611d1f613807565b806308c379a01415611d7c5750611d34613d60565b80611d3f5750611d7e565b806040517f08c379a0000000000000000000000000000000000000000000000000000000008152600401611d7391906130c4565b60405180910390fd5b505b6040517f08c379a0000000000000000000000000000000000000000000000000000000008152600401611db0906130e6565b60405180910390fd5b63bc197c8160e01b7bffffffffffffffffffffffffffffffffffffffffffffffffffffffff1916817bffffffffffffffffffffffffffffffffffffffffffffffffffffffff191614611e40576040517f08c379a0000000000000000000000000000000000000000000000000000000008152600401611e3790613106565b60405180910390fd5b505b505050505050565b600073ffffffffffffffffffffffffffffffffffffffff168473ffffffffffffffffffffffffffffffffffffffff161415611eba576040517f08c379a0000000000000000000000000000000000000000000000000000000008152600401611eb1906132e6565b60405180910390fd5b6000611ec461151f565b9050611ee581600087611ed688611fe0565b611edf88611fe0565b87611c5b565b8260008086815260200190815260200160002060008773ffffffffffffffffffffffffffffffffffffffff1673ffffffffffffffffffffffffffffffffffffffff1681526020019081526020016000206000828254611f44919061351a565b925050819055508473ffffffffffffffffffffffffffffffffffffffff16600073ffffffffffffffffffffffffffffffffffffffff168273ffffffffffffffffffffffffffffffffffffffff167fc3d58168c5ae7397731d063d5bbf3d657854427343f4c083240f7aacaa2d0f628787604051611fc2929190613396565b60405180910390a4611fd9816000878787876120a6565b5050505050565b60606000600167ffffffffffffffff811115612025577f4e487b7100000000000000000000000000000000000000000000000000000000600052604160045260246000fd5b6040519080825280602002602001820160405280156120535781602001602082028036833780820191505090505b5090508281600081518110612091577f4e487b7100000000000000000000000000000000000000000000000000000000600052603260045260246000fd5b60200260200101818152505080915050919050565b6120c58473ffffffffffffffffffffffffffffffffffffffff166124aa565b15612285578373ffffffffffffffffffffffffffffffffffffffff1663f23a6e6187878686866040518663ffffffff1660e01b815260040161210b959493929190612ff6565b602060405180830381600087803b15801561212557600080fd5b505af192505050801561215657506040513d601f19601f820116820180604052508101906121539190612b14565b60015b6121fc57612162613807565b806308c379a014156121bf5750612177613d60565b8061218257506121c1565b806040517f08c379a00000000000000000000000000000000000000000000000000000000081526004016121b691906130c4565b60405180910390fd5b505b6040517f08c379a00000000000000000000000000000000000000000000000000000000081526004016121f3906130e6565b60405180910390fd5b63f23a6e6160e01b7bffffffffffffffffffffffffffffffffffffffffffffffffffffffff1916817bffffffffffffffffffffffffffffffffffffffffffffffffffffffff191614612283576040517f08c379a000000000000000000000000000000000000000000000000000000000815260040161227a90613106565b60405180910390fd5b505b505050505050565b600073ffffffffffffffffffffffffffffffffffffffff168373ffffffffffffffffffffffffffffffffffffffff1614156122fd576040517f08c379a00000000000000000000000000000000000000000000000000000000081526004016122f490613206565b60405180910390fd5b600061230761151f565b90506123378185600061231987611fe0565b61232287611fe0565b60405180602001604052806000815250611c5b565b600080600085815260200190815260200160002060008673ffffffffffffffffffffffffffffffffffffffff1673ffffffffffffffffffffffffffffffffffffffff168152602001908152602001600020549050828110156123ce576040517f08c379a00000000000000000000000000000000000000000000000000000000081526004016123c590613186565b60405180910390fd5b82810360008086815260200190815260200160002060008773ffffffffffffffffffffffffffffffffffffffff1673ffffffffffffffffffffffffffffffffffffffff16815260200190815260200160002081905550600073ffffffffffffffffffffffffffffffffffffffff168573ffffffffffffffffffffffffffffffffffffffff168373ffffffffffffffffffffffffffffffffffffffff167fc3d58168c5ae7397731d063d5bbf3d657854427343f4c083240f7aacaa2d0f62878760405161249b929190613396565b60405180910390a45050505050565b600080823b905060008111915050919050565b60006124d06124cb846133e4565b6133bf565b905080838252602082019050828560208602820111156124ef57600080fd5b60005b8581101561251f5781612505888261264f565b8452602084019350602083019250506001810190506124f2565b5050509392505050565b600061253c61253784613410565b6133bf565b9050808382526020820190508285602086028201111561255b57600080fd5b60005b8581101561258b57816125718882612775565b84526020840193506020830192505060018101905061255e565b5050509392505050565b60006125a86125a38461343c565b6133bf565b9050828152602081018484840111156125c057600080fd5b6125cb84828561368d565b509392505050565b60006125e66125e18461346d565b6133bf565b9050828152602081018484840111156125fe57600080fd5b61260984828561368d565b509392505050565b600061262461261f8461346d565b6133bf565b90508281526020810184848401111561263c57600080fd5b61264784828561369c565b509392505050565b60008135905061265e81613df6565b92915050565b600082601f83011261267557600080fd5b81356126858482602086016124bd565b91505092915050565b600082601f83011261269f57600080fd5b81356126af848260208601612529565b91505092915050565b6000813590506126c781613e0d565b92915050565b6000813590506126dc81613e24565b92915050565b6000815190506126f181613e24565b92915050565b600082601f83011261270857600080fd5b8135612718848260208601612595565b91505092915050565b600082601f83011261273257600080fd5b81356127428482602086016125d3565b91505092915050565b600082601f83011261275c57600080fd5b815161276c848260208601612611565b91505092915050565b60008135905061278481613e3b565b92915050565b60006020828403121561279c57600080fd5b60006127aa8482850161264f565b91505092915050565b600080604083850312156127c657600080fd5b60006127d48582860161264f565b92505060206127e58582860161264f565b9150509250929050565b600080600080600060a0868803121561280757600080fd5b60006128158882890161264f565b95505060206128268882890161264f565b945050604086013567ffffffffffffffff81111561284357600080fd5b61284f8882890161268e565b935050606086013567ffffffffffffffff81111561286c57600080fd5b6128788882890161268e565b925050608086013567ffffffffffffffff81111561289557600080fd5b6128a1888289016126f7565b9150509295509295909350565b600080600080600060a086880312156128c657600080fd5b60006128d48882890161264f565b95505060206128e58882890161264f565b94505060406128f688828901612775565b935050606061290788828901612775565b925050608086013567ffffffffffffffff81111561292457600080fd5b612930888289016126f7565b9150509295509295909350565b6000806040838503121561295057600080fd5b600061295e8582860161264f565b925050602061296f858286016126b8565b9150509250929050565b6000806040838503121561298c57600080fd5b600061299a8582860161264f565b92505060206129ab85828601612775565b9150509250929050565b6000806000606084860312156129ca57600080fd5b60006129d88682870161264f565b93505060206129e986828701612775565b92505060406129fa86828701612775565b9150509250925092565b60008060008060808587031215612a1a57600080fd5b6000612a288782880161264f565b9450506020612a3987828801612775565b9350506040612a4a87828801612775565b925050606085013567ffffffffffffffff811115612a6757600080fd5b612a7387828801612721565b91505092959194509250565b60008060408385031215612a9257600080fd5b600083013567ffffffffffffffff811115612aac57600080fd5b612ab885828601612664565b925050602083013567ffffffffffffffff811115612ad557600080fd5b612ae18582860161268e565b9150509250929050565b600060208284031215612afd57600080fd5b6000612b0b848285016126cd565b91505092915050565b600060208284031215612b2657600080fd5b6000612b34848285016126e2565b91505092915050565b600060208284031215612b4f57600080fd5b600082015167ffffffffffffffff811115612b6957600080fd5b612b758482850161274b565b91505092915050565b600060208284031215612b9057600080fd5b6000612b9e84828501612775565b91505092915050565b6000612bb38383612f31565b60208301905092915050565b612bc88161360c565b82525050565b6000612bd9826134ae565b612be381856134dc565b9350612bee8361349e565b8060005b83811015612c1f578151612c068882612ba7565b9750612c11836134cf565b925050600181019050612bf2565b5085935050505092915050565b612c358161361e565b82525050565b6000612c46826134b9565b612c5081856134ed565b9350612c6081856020860161369c565b612c6981613829565b840191505092915050565b6000612c7f826134c4565b612c8981856134fe565b9350612c9981856020860161369c565b612ca281613829565b840191505092915050565b6000612cb8826134c4565b612cc2818561350f565b9350612cd281856020860161369c565b80840191505092915050565b6000612ceb6034836134fe565b9150612cf682613847565b604082019050919050565b6000612d0e6028836134fe565b9150612d1982613896565b604082019050919050565b6000612d31602b836134fe565b9150612d3c826138e5565b604082019050919050565b6000612d54602e836134fe565b9150612d5f82613934565b604082019050919050565b6000612d776026836134fe565b9150612d8282613983565b604082019050919050565b6000612d9a6024836134fe565b9150612da5826139d2565b604082019050919050565b6000612dbd6029836134fe565b9150612dc882613a21565b604082019050919050565b6000612de06025836134fe565b9150612deb82613a70565b604082019050919050565b6000612e036032836134fe565b9150612e0e82613abf565b604082019050919050565b6000612e266023836134fe565b9150612e3182613b0e565b604082019050919050565b6000612e49602a836134fe565b9150612e5482613b5d565b604082019050919050565b6000612e6c6020836134fe565b9150612e7782613bac565b602082019050919050565b6000612e8f603d836134fe565b9150612e9a82613bd5565b604082019050919050565b6000612eb26029836134fe565b9150612ebd82613c24565b604082019050919050565b6000612ed56029836134fe565b9150612ee082613c73565b604082019050919050565b6000612ef86028836134fe565b9150612f0382613cc2565b604082019050919050565b6000612f1b6021836134fe565b9150612f2682613d11565b604082019050919050565b612f3a81613676565b82525050565b612f4981613676565b82525050565b6000612f5b8285612cad565b9150612f678284612cad565b91508190509392505050565b6000602082019050612f886000830184612bbf565b92915050565b600060a082019050612fa36000830188612bbf565b612fb06020830187612bbf565b8181036040830152612fc28186612bce565b90508181036060830152612fd68185612bce565b90508181036080830152612fea8184612c3b565b90509695505050505050565b600060a08201905061300b6000830188612bbf565b6130186020830187612bbf565b6130256040830186612f40565b6130326060830185612f40565b81810360808301526130448184612c3b565b90509695505050505050565b6000602082019050818103600083015261306a8184612bce565b905092915050565b6000604082019050818103600083015261308c8185612bce565b905081810360208301526130a08184612bce565b90509392505050565b60006020820190506130be6000830184612c2c565b92915050565b600060208201905081810360008301526130de8184612c74565b905092915050565b600060208201905081810360008301526130ff81612cde565b9050919050565b6000602082019050818103600083015261311f81612d01565b9050919050565b6000602082019050818103600083015261313f81612d24565b9050919050565b6000602082019050818103600083015261315f81612d47565b9050919050565b6000602082019050818103600083015261317f81612d6a565b9050919050565b6000602082019050818103600083015261319f81612d8d565b9050919050565b600060208201905081810360008301526131bf81612db0565b9050919050565b600060208201905081810360008301526131df81612dd3565b9050919050565b600060208201905081810360008301526131ff81612df6565b9050919050565b6000602082019050818103600083015261321f81612e19565b9050919050565b6000602082019050818103600083015261323f81612e3c565b9050919050565b6000602082019050818103600083015261325f81612e5f565b9050919050565b6000602082019050818103600083015261327f81612e82565b9050919050565b6000602082019050818103600083015261329f81612ea5565b9050919050565b600060208201905081810360008301526132bf81612ec8565b9050919050565b600060208201905081810360008301526132df81612eeb565b9050919050565b600060208201905081810360008301526132ff81612f0e565b9050919050565b600060208201905061331b6000830184612f40565b92915050565b60006040820190506133366000830185612f40565b6133436020830184612bbf565b9392505050565b600060808201905061335f6000830187612f40565b61336c6020830186612bbf565b6133796040830185612f40565b818103606083015261338b8184612c74565b905095945050505050565b60006040820190506133ab6000830185612f40565b6133b86020830184612f40565b9392505050565b60006133c96133da565b90506133d582826136cf565b919050565b6000604051905090565b600067ffffffffffffffff8211156133ff576133fe6137d8565b5b602082029050602081019050919050565b600067ffffffffffffffff82111561342b5761342a6137d8565b5b602082029050602081019050919050565b600067ffffffffffffffff821115613457576134566137d8565b5b61346082613829565b9050602081019050919050565b600067ffffffffffffffff821115613488576134876137d8565b5b61349182613829565b9050602081019050919050565b6000819050602082019050919050565b600081519050919050565b600081519050919050565b600081519050919050565b6000602082019050919050565b600082825260208201905092915050565b600082825260208201905092915050565b600082825260208201905092915050565b600081905092915050565b600061352582613676565b915061353083613676565b9250827fffffffffffffffffffffffffffffffffffffffffffffffffffffffffffffffff038211156135655761356461377a565b5b828201905092915050565b600061357b82613680565b915061358683613680565b92508260ff0382111561359c5761359b61377a565b5b828201905092915050565b60006135b282613676565b91506135bd83613676565b9250826135cd576135cc6137a9565b5b828204905092915050565b60006135e382613676565b91506135ee83613676565b9250828210156136015761360061377a565b5b828203905092915050565b600061361782613656565b9050919050565b60008115159050919050565b60007fffffffff0000000000000000000000000000000000000000000000000000000082169050919050565b600073ffffffffffffffffffffffffffffffffffffffff82169050919050565b6000819050919050565b600060ff82169050919050565b82818337600083830152505050565b60005b838110156136ba57808201518184015260208101905061369f565b838111156136c9576000848401525b50505050565b6136d882613829565b810181811067ffffffffffffffff821117156136f7576136f66137d8565b5b80604052505050565b600061370b82613676565b91507fffffffffffffffffffffffffffffffffffffffffffffffffffffffffffffffff82141561373e5761373d61377a565b5b600182019050919050565b600061375482613676565b915061375f83613676565b92508261376f5761376e6137a9565b5b828206905092915050565b7f4e487b7100000000000000000000000000000000000000000000000000000000600052601160045260246000fd5b7f4e487b7100000000000000000000000000000000000000000000000000000000600052601260045260246000fd5b7f4e487b7100000000000000000000000000000000000000000000000000000000600052604160045260246000fd5b600060033d11156138265760046000803e61382360005161383a565b90505b90565b6000601f19601f8301169050919050565b60008160e01c9050919050565b7f455243313135353a207472616e7366657220746f206e6f6e204552433131353560008201527f526563656976657220696d706c656d656e746572000000000000000000000000602082015250565b7f455243313135353a204552433131353552656365697665722072656a6563746560008201527f6420746f6b656e73000000000000000000000000000000000000000000000000602082015250565b7f455243313135353a2062616c616e636520717565727920666f7220746865207a60008201527f65726f2061646472657373000000000000000000000000000000000000000000602082015250565b7f4f6e6c792047656e6573697320466163746f727920697320616c6c6f7765642060008201527f746f206d696e7420746f6b656e73000000000000000000000000000000000000602082015250565b7f4f776e61626c653a206e6577206f776e657220697320746865207a65726f206160008201527f6464726573730000000000000000000000000000000000000000000000000000602082015250565b7f455243313135353a206275726e20616d6f756e7420657863656564732062616c60008201527f616e636500000000000000000000000000000000000000000000000000000000602082015250565b7f455243313135353a2063616c6c6572206973206e6f74206f776e6572206e6f7260008201527f20617070726f7665640000000000000000000000000000000000000000000000602082015250565b7f455243313135353a207472616e7366657220746f20746865207a65726f20616460008201527f6472657373000000000000000000000000000000000000000000000000000000602082015250565b7f455243313135353a207472616e736665722063616c6c6572206973206e6f742060008201527f6f776e6572206e6f7220617070726f7665640000000000000000000000000000602082015250565b7f455243313135353a206275726e2066726f6d20746865207a65726f206164647260008201527f6573730000000000000000000000000000000000000000000000000000000000602082015250565b7f455243313135353a20696e73756666696369656e742062616c616e636520666f60008201527f72207472616e7366657200000000000000000000000000000000000000000000602082015250565b7f4f776e61626c653a2063616c6c6572206973206e6f7420746865206f776e6572600082015250565b7f596f752063616e20627579206e6f206c657373207468616e20312c20616e642060008201527f6e6f206d6f7265207468616e20617420746568652073616d6574696d65000000602082015250565b7f455243313135353a2073657474696e6720617070726f76616c2073746174757360008201527f20666f722073656c660000000000000000000000000000000000000000000000602082015250565b7f455243313135353a206163636f756e747320616e6420696473206c656e67746860008201527f206d69736d617463680000000000000000000000000000000000000000000000602082015250565b7f455243313135353a2069647320616e6420616d6f756e7473206c656e6774682060008201527f6d69736d61746368000000000000000000000000000000000000000000000000602082015250565b7f455243313135353a206d696e7420746f20746865207a65726f2061646472657360008201527f7300000000000000000000000000000000000000000000000000000000000000602082015250565b600060443d1015613d7057613df3565b613d786133da565b60043d036004823e80513d602482011167ffffffffffffffff82111715613da0575050613df3565b808201805167ffffffffffffffff811115613dbe5750505050613df3565b80602083010160043d038501811115613ddb575050505050613df3565b613dea826020018501866136cf565b82955050505050505b90565b613dff8161360c565b8114613e0a57600080fd5b50565b613e168161361e565b8114613e2157600080fd5b50565b613e2d8161362a565b8114613e3857600080fd5b50565b613e4481613676565b8114613e4f57600080fd5b5056fea26469706673582212205e7a45bfe9fd88ca9313f005866a07299b0befff521b3626bc0a46b55b57893c64736f6c634300080400336080604052604051806104a00160405280600160ff168152602001600260ff168152602001600360ff168152602001600460ff168152602001600560ff168152602001600660ff168152602001600760ff168152602001600860ff168152602001600960ff168152602001600160ff168152602001600260ff168152602001600360ff168152602001600460ff168152602001600560ff168152602001600660ff168152602001600760ff168152602001600860ff168152602001600960ff168152602001600160ff168152602001600260ff168152602001600360ff168152602001600460ff168152602001600560ff168152602001600660ff168152602001600760ff168152602001600860ff168152602001600960ff168152602001600160ff168152602001600260ff168152602001600360ff168152602001600460ff168152602001600560ff168152602001600660ff168152602001600760ff168152602001600860ff168152602001600960ff168152602001600a60ff16815250601090602562000192929190620008e3565b5060405180610b000160405280600160ff168152602001600160ff168152602001600160ff168152602001600160ff168152602001600160ff168152602001600160ff168152602001600160ff168152602001600160ff168152602001600160ff168152602001600160ff168152602001600160ff168152602001600160ff168152602001600160ff168152602001600160ff168152602001600160ff168152602001600160ff168152602001600160ff168152602001600160ff168152602001600160ff168152602001600160ff168152602001600160ff168152602001600160ff168152602001600160ff168152602001600160ff168152602001600160ff168152602001600160ff168152602001600160ff168152602001600160ff168152602001600160ff168152602001600160ff168152602001600160ff168152602001600160ff168152602001600160ff168152602001600160ff168152602001600160ff168152602001600160ff168152602001600160ff168152602001600160ff168152602001600160ff168152602001600160ff168152602001600160ff168152602001600160ff168152602001600160ff168152602001600160ff168152602001600160ff168152602001600160ff168152602001600160ff168152602001600160ff168152602001600160ff168152602001600160ff168152602001600160ff168152602001600160ff168152602001600160ff168152602001600160ff168152602001600160ff168152602001600160ff168152602001600160ff168152602001600160ff168152602001600160ff168152602001600160ff168152602001600160ff168152602001600160ff168152602001600160ff168152602001600160ff168152602001600160ff168152602001600160ff168152602001600160ff168152602001600160ff168152602001600160ff168152602001600160ff168152602001600160ff168152602001600160ff168152602001600160ff168152602001600160ff168152602001600160ff168152602001600160ff168152602001600160ff168152602001600160ff168152602001600160ff168152602001600160ff168152602001600160ff168152602001600160ff168152602001600160ff168152602001600160ff168152602001600160ff168152602001600160ff168152602001600160ff168152602001600060ff1681525060119060586200051f92919062000991565b506040518060400160405280600160ff168152602001600260ff1681525060129060026200054f92919062000a3f565b503480156200055d57600080fd5b506040516200679438038062006794833981810160405281019062000583919062000bb4565b6040518060400160405280600581526020017f436f6465720000000000000000000000000000000000000000000000000000008152506040518060400160405280600981526020017f4c4f4f4b204c414253000000000000000000000000000000000000000000000081525081600090805190602001906200060792919062000aed565b5080600190805190602001906200062092919062000aed565b50505062000643620006376200069c60201b60201c565b620006a460201b60201c565b80600e60006101000a81548173ffffffffffffffffffffffffffffffffffffffff021916908373ffffffffffffffffffffffffffffffffffffffff16021790555062000695816200076a60201b60201c565b5062000d16565b600033905090565b6000600a60009054906101000a900473ffffffffffffffffffffffffffffffffffffffff16905081600a60006101000a81548173ffffffffffffffffffffffffffffffffffffffff021916908373ffffffffffffffffffffffffffffffffffffffff1602179055508173ffffffffffffffffffffffffffffffffffffffff168173ffffffffffffffffffffffffffffffffffffffff167f8be0079c531659141344cd1fd0a4f28419497f9722a3daafe3b4186f6b6457e060405160405180910390a35050565b6200077a6200069c60201b60201c565b73ffffffffffffffffffffffffffffffffffffffff16620007a0620008b960201b60201c565b73ffffffffffffffffffffffffffffffffffffffff1614620007f9576040517f08c379a0000000000000000000000000000000000000000000000000000000008152600401620007f09062000c07565b60405180910390fd5b8073ffffffffffffffffffffffffffffffffffffffff16600b60009054906101000a900473ffffffffffffffffffffffffffffffffffffffff1673ffffffffffffffffffffffffffffffffffffffff167f5b09f0d0a4cbf8770fd092cf5ee60221e5addb9d44f01f52b1e8c6fe34842e3f60405160405180910390a380600b60006101000a81548173ffffffffffffffffffffffffffffffffffffffff021916908373ffffffffffffffffffffffffffffffffffffffff16021790555050565b6000600a60009054906101000a900473ffffffffffffffffffffffffffffffffffffffff16905090565b82805482825590600052602060002090601f016020900481019282156200097e5791602002820160005b838211156200094d57835183826101000a81548160ff021916908360ff16021790555092602001926001016020816000010492830192600103026200090d565b80156200097c5782816101000a81549060ff02191690556001016020816000010492830192600103026200094d565b505b5090506200098d919062000b7e565b5090565b82805482825590600052602060002090601f0160209004810192821562000a2c5791602002820160005b83821115620009fb57835183826101000a81548160ff021916908360ff1602179055509260200192600101602081600001049283019260010302620009bb565b801562000a2a5782816101000a81549060ff0219169055600101602081600001049283019260010302620009fb565b505b50905062000a3b919062000b7e565b5090565b82805482825590600052602060002090601f0160209004810192821562000ada5791602002820160005b8382111562000aa957835183826101000a81548160ff021916908360ff160217905550926020019260010160208160000104928301926001030262000a69565b801562000ad85782816101000a81549060ff021916905560010160208160000104928301926001030262000aa9565b505b50905062000ae9919062000b7e565b5090565b82805462000afb9062000c6e565b90600052602060002090601f01602090048101928262000b1f576000855562000b6b565b82601f1062000b3a57805160ff191683800117855562000b6b565b8280016001018555821562000b6b579182015b8281111562000b6a57825182559160200191906001019062000b4d565b5b50905062000b7a919062000b7e565b5090565b5b8082111562000b9957600081600090555060010162000b7f565b5090565b60008151905062000bae8162000cfc565b92915050565b60006020828403121562000bc757600080fd5b600062000bd78482850162000b9d565b91505092915050565b600062000bef60208362000c29565b915062000bfc8262000cd3565b602082019050919050565b6000602082019050818103600083015262000c228162000be0565b9050919050565b600082825260208201905092915050565b600062000c478262000c4e565b9050919050565b600073ffffffffffffffffffffffffffffffffffffffff82169050919050565b6000600282049050600182168062000c8757607f821691505b6020821081141562000c9e5762000c9d62000ca4565b5b50919050565b7f4e487b7100000000000000000000000000000000000000000000000000000000600052602260045260246000fd5b7f4f776e61626c653a2063616c6c6572206973206e6f7420746865206f776e6572600082015250565b62000d078162000c3a565b811462000d1357600080fd5b50565b615a6e8062000d266000396000f3fe608060405234801561001057600080fd5b50600436106101f05760003560e01c8063845a46971161010f578063a22cb465116100a2578063d65024a511610071578063d65024a514610613578063e985e9c514610643578063f2fde38b14610673578063f7048c971461068f576101f0565b8063a22cb4651461057b578063b88d4fde14610597578063c87b56dd146105b3578063cef0ab95146105e3576101f0565b80638e5cb5f6116100de5780638e5cb5f6146104f557806395d89b411461052557806397107d6d146105435780639de876b91461055f576101f0565b8063845a4697146104475780638462151c1461047757806388dae602146104a75780638da5cb5b146104d7576101f0565b806345b5564811610187578063685a8e7811610156578063685a8e78146103c157806370a08231146103f1578063715018a6146104215780637f8ea7da1461042b576101f0565b806345b55648146103155780634f0b47f1146103455780634f6ccce7146103615780636352211e14610391576101f0565b806318160ddd116101c357806318160ddd1461028f57806323b872dd146102ad5780632f745c59146102c957806342842e0e146102f9576101f0565b806301ffc9a7146101f557806306fdde0314610225578063081812fc14610243578063095ea7b314610273575b600080fd5b61020f600480360381019061020a9190613eff565b6106bf565b60405161021c9190614984565b60405180910390f35b61022d610739565b60405161023a919061499f565b60405180910390f35b61025d60048036038101906102589190613f92565b6107cb565b60405161026a91906148fb565b60405180910390f35b61028d60048036038101906102889190613e48565b610850565b005b610297610968565b6040516102a49190614c21565b60405180910390f35b6102c760048036038101906102c29190613d42565b610975565b005b6102e360048036038101906102de9190613e48565b6109d5565b6040516102f09190614c21565b60405180910390f35b610313600480360381019061030e9190613d42565b610a7a565b005b61032f600480360381019061032a9190613f92565b610a9a565b60405161033c9190614c21565b60405180910390f35b61035f600480360381019061035a9190613f92565b610b59565b005b61037b60048036038101906103769190613f92565b610bec565b6040516103889190614c21565b60405180910390f35b6103ab60048036038101906103a69190613f92565b610c83565b6040516103b891906148fb565b60405180910390f35b6103db60048036038101906103d69190613f92565b610d35565b6040516103e89190614c21565b60405180910390f35b61040b60048036038101906104069190613cdd565b610df4565b6040516104189190614c21565b60405180910390f35b610429610eac565b005b61044560048036038101906104409190613cdd565b610f34565b005b610461600480360381019061045c9190613f92565b611068565b60405161046e9190614c21565b60405180910390f35b610491600480360381019061048c9190613cdd565b611127565b60405161049e9190614962565b60405180910390f35b6104c160048036038101906104bc9190613f92565b6112a3565b6040516104ce9190614c21565b60405180910390f35b6104df611362565b6040516104ec91906148fb565b60405180910390f35b61050f600480360381019061050a9190613f92565b61138c565b60405161051c9190614c21565b60405180910390f35b61052d61144b565b60405161053a919061499f565b60405180910390f35b61055d60048036038101906105589190613cdd565b6114dd565b005b61057960048036038101906105749190613e84565b611619565b005b61059560048036038101906105909190613e0c565b6117f8565b005b6105b160048036038101906105ac9190613d91565b611979565b005b6105cd60048036038101906105c89190613f92565b6119db565b6040516105da919061499f565b60405180910390f35b6105fd60048036038101906105f89190613f92565b6120e3565b60405161060a9190614c21565b60405180910390f35b61062d60048036038101906106289190613f92565b6121a2565b60405161063a9190614c21565b60405180910390f35b61065d60048036038101906106589190613d06565b612261565b60405161066a9190614984565b60405180910390f35b61068d60048036038101906106889190613cdd565b6122f5565b005b6106a960048036038101906106a49190613f92565b6123ed565b6040516106b69190614c21565b60405180910390f35b60007f780e9d63000000000000000000000000000000000000000000000000000000007bffffffffffffffffffffffffffffffffffffffffffffffffffffffff1916827bffffffffffffffffffffffffffffffffffffffffffffffffffffffff191614806107325750610731826124ac565b5b9050919050565b60606000805461074890614f7f565b80601f016020809104026020016040519081016040528092919081815260200182805461077490614f7f565b80156107c15780601f10610796576101008083540402835291602001916107c1565b820191906000526020600020905b8154815290600101906020018083116107a457829003601f168201915b5050505050905090565b60006107d68261258e565b610815576040517f08c379a000000000000000000000000000000000000000000000000000000000815260040161080c90614b41565b60405180910390fd5b6004600083815260200190815260200160002060009054906101000a900473ffffffffffffffffffffffffffffffffffffffff169050919050565b600061085b82610c83565b90508073ffffffffffffffffffffffffffffffffffffffff168373ffffffffffffffffffffffffffffffffffffffff1614156108cc576040517f08c379a00000000000000000000000000000000000000000000000000000000081526004016108c390614bc1565b60405180910390fd5b8073ffffffffffffffffffffffffffffffffffffffff166108eb6125fa565b73ffffffffffffffffffffffffffffffffffffffff16148061091a5750610919816109146125fa565b612261565b5b610959576040517f08c379a000000000000000000000000000000000000000000000000000000000815260040161095090614ac1565b60405180910390fd5b6109638383612602565b505050565b6000600880549050905090565b6109866109806125fa565b826126bb565b6109c5576040517f08c379a00000000000000000000000000000000000000000000000000000000081526004016109bc90614be1565b60405180910390fd5b6109d0838383612799565b505050565b60006109e083610df4565b8210610a21576040517f08c379a0000000000000000000000000000000000000000000000000000000008152600401610a18906149c1565b60405180910390fd5b600660008473ffffffffffffffffffffffffffffffffffffffff1673ffffffffffffffffffffffffffffffffffffffff168152602001908152602001600020600083815260200190815260200160002054905092915050565b610a9583838360405180602001604052806000815250611979565b505050565b6000610b52826040518060400160405280600281526020017f24490000000000000000000000000000000000000000000000000000000000008152506010805480602002602001604051908101604052809291908181526020018280548015610b4857602002820191906000526020600020906000905b82829054906101000a900460ff1660ff1681526020019060010190602082600001049283019260010382029150808411610b115790505b50505050506129f5565b9050919050565b610b616125fa565b73ffffffffffffffffffffffffffffffffffffffff16610b8082610c83565b73ffffffffffffffffffffffffffffffffffffffff1614610ba057600080fd5b610ba981612ca1565b7fddc940af5dcef10668383e61eaf68e7e128b01a0a5fc272c887d366b188fbe9d81610bd36125fa565b604051610be1929190614c3c565b60405180910390a150565b6000610bf6610968565b8210610c37576040517f08c379a0000000000000000000000000000000000000000000000000000000008152600401610c2e90614c01565b60405180910390fd5b60088281548110610c71577f4e487b7100000000000000000000000000000000000000000000000000000000600052603260045260246000fd5b90600052602060002001549050919050565b6000806002600084815260200190815260200160002060009054906101000a900473ffffffffffffffffffffffffffffffffffffffff169050600073ffffffffffffffffffffffffffffffffffffffff168173ffffffffffffffffffffffffffffffffffffffff161415610d2c576040517f08c379a0000000000000000000000000000000000000000000000000000000008152600401610d2390614b01565b60405180910390fd5b80915050919050565b6000610ded826040518060400160405280600281526020017f24500000000000000000000000000000000000000000000000000000000000008152506010805480602002602001604051908101604052809291908181526020018280548015610de357602002820191906000526020600020906000905b82829054906101000a900460ff1660ff1681526020019060010190602082600001049283019260010382029150808411610dac5790505b50505050506129f5565b9050919050565b60008073ffffffffffffffffffffffffffffffffffffffff168273ffffffffffffffffffffffffffffffffffffffff161415610e65576040517f08c379a0000000000000000000000000000000000000000000000000000000008152600401610e5c90614ae1565b60405180910390fd5b600360008373ffffffffffffffffffffffffffffffffffffffff1673ffffffffffffffffffffffffffffffffffffffff168152602001908152602001600020549050919050565b610eb46125fa565b73ffffffffffffffffffffffffffffffffffffffff16610ed2611362565b73ffffffffffffffffffffffffffffffffffffffff1614610f28576040517f08c379a0000000000000000000000000000000000000000000000000000000008152600401610f1f90614b81565b60405180910390fd5b610f326000612db2565b565b610f3c6125fa565b73ffffffffffffffffffffffffffffffffffffffff16610f5a611362565b73ffffffffffffffffffffffffffffffffffffffff1614610fb0576040517f08c379a0000000000000000000000000000000000000000000000000000000008152600401610fa790614b81565b60405180910390fd5b80600c60008373ffffffffffffffffffffffffffffffffffffffff1673ffffffffffffffffffffffffffffffffffffffff16815260200190815260200160002060006101000a81548173ffffffffffffffffffffffffffffffffffffffff021916908373ffffffffffffffffffffffffffffffffffffffff1602179055507f7a68f36d013025b936cfcf536ded8ac09f742b930c53cab42fb42cb75340095c8160405161105d91906148fb565b60405180910390a150565b6000611120826040518060400160405280600281526020017f2459000000000000000000000000000000000000000000000000000000000000815250601080548060200260200160405190810160405280929190818152602001828054801561111657602002820191906000526020600020906000905b82829054906101000a900460ff1660ff16815260200190600101906020826000010492830192600103820291508084116110df5790505b50505050506129f5565b9050919050565b6060600061113483610df4565b905060008114156111b757600067ffffffffffffffff811115611180577f4e487b7100000000000000000000000000000000000000000000000000000000600052604160045260246000fd5b6040519080825280602002602001820160405280156111ae5781602001602082028036833780820191505090505b5091505061129e565b60008167ffffffffffffffff8111156111f9577f4e487b7100000000000000000000000000000000000000000000000000000000600052604160045260246000fd5b6040519080825280602002602001820160405280156112275781602001602082028036833780820191505090505b50905060005b828110156112975761123f85826109d5565b828281518110611278577f4e487b7100000000000000000000000000000000000000000000000000000000600052603260045260246000fd5b602002602001018181525050808061128f90614fe2565b91505061122d565b8193505050505b919050565b600061135b826040518060400160405280600281526020017f245a000000000000000000000000000000000000000000000000000000000000815250601080548060200260200160405190810160405280929190818152602001828054801561135157602002820191906000526020600020906000905b82829054906101000a900460ff1660ff168152602001906001019060208260000104928301926001038202915080841161131a5790505b50505050506129f5565b9050919050565b6000600a60009054906101000a900473ffffffffffffffffffffffffffffffffffffffff16905090565b6000611444826040518060400160405280600281526020017f2458000000000000000000000000000000000000000000000000000000000000815250601080548060200260200160405190810160405280929190818152602001828054801561143a57602002820191906000526020600020906000905b82829054906101000a900460ff1660ff16815260200190600101906020826000010492830192600103820291508084116114035790505b50505050506129f5565b9050919050565b60606001805461145a90614f7f565b80601f016020809104026020016040519081016040528092919081815260200182805461148690614f7f565b80156114d35780601f106114a8576101008083540402835291602001916114d3565b820191906000526020600020905b8154815290600101906020018083116114b657829003601f168201915b5050505050905090565b6114e56125fa565b73ffffffffffffffffffffffffffffffffffffffff16611503611362565b73ffffffffffffffffffffffffffffffffffffffff1614611559576040517f08c379a000000000000000000000000000000000000000000000000000000000815260040161155090614b81565b60405180910390fd5b8073ffffffffffffffffffffffffffffffffffffffff16600b60009054906101000a900473ffffffffffffffffffffffffffffffffffffffff1673ffffffffffffffffffffffffffffffffffffffff167f5b09f0d0a4cbf8770fd092cf5ee60221e5addb9d44f01f52b1e8c6fe34842e3f60405160405180910390a380600b60006101000a81548173ffffffffffffffffffffffffffffffffffffffff021916908373ffffffffffffffffffffffffffffffffffffffff16021790555050565b600b60009054906101000a900473ffffffffffffffffffffffffffffffffffffffff1673ffffffffffffffffffffffffffffffffffffffff163373ffffffffffffffffffffffffffffffffffffffff16146116a9576040517f08c379a00000000000000000000000000000000000000000000000000000000081526004016116a090614a01565b60405180910390fd5b6000831180156116ba5750600a8311155b6116f9576040517f08c379a00000000000000000000000000000000000000000000000000000000081526004016116f090614b61565b60405180910390fd5b60005b838110156117f15760006001611710610968565b61171a9190614db4565b90506117268682612e78565b600e60009054906101000a900473ffffffffffffffffffffffffffffffffffffffff1673ffffffffffffffffffffffffffffffffffffffff166326ea96b8828887876040518563ffffffff1660e01b81526004016117879493929190614c65565b600060405180830381600087803b1580156117a157600080fd5b505af11580156117b5573d6000803e3d6000fd5b50505050600060405180604001604052808381526020018681525090506117dc8282613046565b505080806117e990614fe2565b9150506116fc565b5050505050565b6118006125fa565b73ffffffffffffffffffffffffffffffffffffffff168273ffffffffffffffffffffffffffffffffffffffff16141561186e576040517f08c379a000000000000000000000000000000000000000000000000000000000815260040161186590614a81565b60405180910390fd5b806005600061187b6125fa565b73ffffffffffffffffffffffffffffffffffffffff1673ffffffffffffffffffffffffffffffffffffffff16815260200190815260200160002060008473ffffffffffffffffffffffffffffffffffffffff1673ffffffffffffffffffffffffffffffffffffffff16815260200190815260200160002060006101000a81548160ff0219169083151502179055508173ffffffffffffffffffffffffffffffffffffffff166119286125fa565b73ffffffffffffffffffffffffffffffffffffffff167f17307eab39ab6107e8899845ad3d59bd9653f200f220920489ca2b5937696c318360405161196d9190614984565b60405180910390a35050565b61198a6119846125fa565b836126bb565b6119c9576040517f08c379a00000000000000000000000000000000000000000000000000000000081526004016119c090614be1565b60405180910390fd5b6119d584848484613075565b50505050565b60606119e5613b14565b6000600f60008581526020019081526020016000206001015490506000600e60009054906101000a900473ffffffffffffffffffffffffffffffffffffffff1673ffffffffffffffffffffffffffffffffffffffff16634c1b2f2e836040518263ffffffff1660e01b8152600401611a5d9190614c21565b60006040518083038186803b158015611a7557600080fd5b505afa158015611a89573d6000803e3d6000fd5b505050506040513d6000823e3d601f19601f82011682018060405250810190611ab29190613f51565b9050611ac5611ac08661138c565b6130d1565b604051602001611ad591906146f9565b60405160208183030381529060405283600060088110611b1e577f4e487b7100000000000000000000000000000000000000000000000000000000600052603260045260246000fd5b6020020181905250611b37611b3286611068565b6130d1565b604051602001611b4791906147ad565b60405160208183030381529060405283600160088110611b90577f4e487b7100000000000000000000000000000000000000000000000000000000600052603260045260246000fd5b6020020181905250611ba9611ba4866112a3565b6130d1565b604051602001611bb99190614726565b60405160208183030381529060405283600260088110611c02577f4e487b7100000000000000000000000000000000000000000000000000000000600052603260045260246000fd5b6020020181905250611c1b611c16866123ed565b6130d1565b604051602001611c2b9190614753565b60405160208183030381529060405283600360088110611c74577f4e487b7100000000000000000000000000000000000000000000000000000000600052603260045260246000fd5b6020020181905250611c8d611c88866120e3565b6130d1565b604051602001611c9d9190614780565b60405160208183030381529060405283600460088110611ce6577f4e487b7100000000000000000000000000000000000000000000000000000000600052603260045260246000fd5b6020020181905250611cff611cfa866121a2565b6130d1565b604051602001611d0f91906148ce565b60405160208183030381529060405283600560088110611d58577f4e487b7100000000000000000000000000000000000000000000000000000000600052603260045260246000fd5b6020020181905250611d71611d6c86610a9a565b6130d1565b604051602001611d8191906146cc565b60405160208183030381529060405283600660088110611dca577f4e487b7100000000000000000000000000000000000000000000000000000000600052603260045260246000fd5b6020020181905250611de3611dde86610d35565b6130d1565b604051602001611df3919061487f565b60405160208183030381529060405283600760088110611e3c577f4e487b7100000000000000000000000000000000000000000000000000000000600052603260045260246000fd5b6020020181905250600083600060088110611e80577f4e487b7100000000000000000000000000000000000000000000000000000000600052603260045260246000fd5b602002015184600160088110611ebf577f4e487b7100000000000000000000000000000000000000000000000000000000600052603260045260246000fd5b602002015185600260088110611efe577f4e487b7100000000000000000000000000000000000000000000000000000000600052603260045260246000fd5b602002015186600360088110611f3d577f4e487b7100000000000000000000000000000000000000000000000000000000600052603260045260246000fd5b602002015187600460088110611f7c577f4e487b7100000000000000000000000000000000000000000000000000000000600052603260045260246000fd5b602002015188600560088110611fbb577f4e487b7100000000000000000000000000000000000000000000000000000000600052603260045260246000fd5b602002015189600660088110611ffa577f4e487b7100000000000000000000000000000000000000000000000000000000600052603260045260246000fd5b60200201518a600760088110612039577f4e487b7100000000000000000000000000000000000000000000000000000000600052603260045260246000fd5b602002015160405160200161205598979695949392919061465a565b604051602081830303815290604052905060006120b2612074886130d1565b8461207e8a6130d1565b866120888c6130d1565b8760405160200161209e969594939291906147da565b60405160208183030381529060405261327e565b9050806040516020016120c591906148ac565b60405160208183030381529060405291508195505050505050919050565b600061219b826040518060400160405280600281526020017f244f000000000000000000000000000000000000000000000000000000000000815250601080548060200260200160405190810160405280929190818152602001828054801561219157602002820191906000526020600020906000905b82829054906101000a900460ff1660ff168152602001906001019060208260000104928301926001038202915080841161215a5790505b50505050506129f5565b9050919050565b600061225a826040518060400160405280600281526020017f2452000000000000000000000000000000000000000000000000000000000000815250601080548060200260200160405190810160405280929190818152602001828054801561225057602002820191906000526020600020906000905b82829054906101000a900460ff1660ff16815260200190600101906020826000010492830192600103820291508084116122195790505b50505050506129f5565b9050919050565b6000600560008473ffffffffffffffffffffffffffffffffffffffff1673ffffffffffffffffffffffffffffffffffffffff16815260200190815260200160002060008373ffffffffffffffffffffffffffffffffffffffff1673ffffffffffffffffffffffffffffffffffffffff16815260200190815260200160002060009054906101000a900460ff16905092915050565b6122fd6125fa565b73ffffffffffffffffffffffffffffffffffffffff1661231b611362565b73ffffffffffffffffffffffffffffffffffffffff1614612371576040517f08c379a000000000000000000000000000000000000000000000000000000000815260040161236890614b81565b60405180910390fd5b600073ffffffffffffffffffffffffffffffffffffffff168173ffffffffffffffffffffffffffffffffffffffff1614156123e1576040517f08c379a00000000000000000000000000000000000000000000000000000000081526004016123d890614a21565b60405180910390fd5b6123ea81612db2565b50565b60006124a5826040518060400160405280600281526020017f2443000000000000000000000000000000000000000000000000000000000000815250601080548060200260200160405190810160405280929190818152602001828054801561249b57602002820191906000526020600020906000905b82829054906101000a900460ff1660ff16815260200190600101906020826000010492830192600103820291508084116124645790505b50505050506129f5565b9050919050565b60007f80ac58cd000000000000000000000000000000000000000000000000000000007bffffffffffffffffffffffffffffffffffffffffffffffffffffffff1916827bffffffffffffffffffffffffffffffffffffffffffffffffffffffff1916148061257757507f5b5e139f000000000000000000000000000000000000000000000000000000007bffffffffffffffffffffffffffffffffffffffffffffffffffffffff1916827bffffffffffffffffffffffffffffffffffffffffffffffffffffffff1916145b8061258757506125868261343c565b5b9050919050565b60008073ffffffffffffffffffffffffffffffffffffffff166002600084815260200190815260200160002060009054906101000a900473ffffffffffffffffffffffffffffffffffffffff1673ffffffffffffffffffffffffffffffffffffffff1614159050919050565b600033905090565b816004600083815260200190815260200160002060006101000a81548173ffffffffffffffffffffffffffffffffffffffff021916908373ffffffffffffffffffffffffffffffffffffffff160217905550808273ffffffffffffffffffffffffffffffffffffffff1661267583610c83565b73ffffffffffffffffffffffffffffffffffffffff167f8c5be1e5ebec7d5bd14f71427d1e84f3dd0314c0f7b2291e5b200ac8c7c3b92560405160405180910390a45050565b60006126c68261258e565b612705576040517f08c379a00000000000000000000000000000000000000000000000000000000081526004016126fc90614aa1565b60405180910390fd5b600061271083610c83565b90508073ffffffffffffffffffffffffffffffffffffffff168473ffffffffffffffffffffffffffffffffffffffff16148061277f57508373ffffffffffffffffffffffffffffffffffffffff16612767846107cb565b73ffffffffffffffffffffffffffffffffffffffff16145b80612790575061278f8185612261565b5b91505092915050565b8273ffffffffffffffffffffffffffffffffffffffff166127b982610c83565b73ffffffffffffffffffffffffffffffffffffffff161461280f576040517f08c379a000000000000000000000000000000000000000000000000000000000815260040161280690614ba1565b60405180910390fd5b600073ffffffffffffffffffffffffffffffffffffffff168273ffffffffffffffffffffffffffffffffffffffff16141561287f576040517f08c379a000000000000000000000000000000000000000000000000000000000815260040161287690614a61565b60405180910390fd5b61288a8383836134a6565b612895600082612602565b6001600360008573ffffffffffffffffffffffffffffffffffffffff1673ffffffffffffffffffffffffffffffffffffffff16815260200190815260200160002060008282546128e59190614e95565b925050819055506001600360008473ffffffffffffffffffffffffffffffffffffffff1673ffffffffffffffffffffffffffffffffffffffff168152602001908152602001600020600082825461293c9190614db4565b92505081905550816002600083815260200190815260200160002060006101000a81548173ffffffffffffffffffffffffffffffffffffffff021916908373ffffffffffffffffffffffffffffffffffffffff160217905550808273ffffffffffffffffffffffffffffffffffffffff168473ffffffffffffffffffffffffffffffffffffffff167fddf252ad1be2c89b69c2b068fc378daa952ba7f163c4a11628f55a4df523b3ef60405160405180910390a4505050565b600080612a2a84612a05876130d1565b604051602001612a16929190614636565b6040516020818303038152906040526135ba565b9050600083845183612a3c919061502b565b81518110612a73577f4e487b7100000000000000000000000000000000000000000000000000000000600052603260045260246000fd5b602002602001015160ff1690506000601583612a8f919061502b565b9050600e811115612b14576012808054905084612aac919061502b565b81548110612ae3577f4e487b7100000000000000000000000000000000000000000000000000000000600052603260045260246000fd5b90600052602060002090602091828204019190069054906101000a900460ff1660ff1682612b119190614db4565b91505b60138110612c94576013811415612c19576012808054905084612b37919061502b565b81548110612b6e577f4e487b7100000000000000000000000000000000000000000000000000000000600052603260045260246000fd5b90600052602060002090602091828204019190069054906101000a900460ff1660ff166011808054905085612ba3919061502b565b81548110612bda577f4e487b7100000000000000000000000000000000000000000000000000000000600052603260045260246000fd5b90600052602060002090602091828204019190069054906101000a900460ff1660ff1683612c089190614e3b565b612c129190614db4565b9150612c93565b6011808054905084612c2b919061502b565b81548110612c62577f4e487b7100000000000000000000000000000000000000000000000000000000600052603260045260246000fd5b90600052602060002090602091828204019190069054906101000a900460ff1660ff1682612c909190614e3b565b91505b5b8193505050509392505050565b6000612cac82610c83565b9050612cba816000846134a6565b612cc5600083612602565b6001600360008373ffffffffffffffffffffffffffffffffffffffff1673ffffffffffffffffffffffffffffffffffffffff1681526020019081526020016000206000828254612d159190614e95565b925050819055506002600083815260200190815260200160002060006101000a81549073ffffffffffffffffffffffffffffffffffffffff021916905581600073ffffffffffffffffffffffffffffffffffffffff168273ffffffffffffffffffffffffffffffffffffffff167fddf252ad1be2c89b69c2b068fc378daa952ba7f163c4a11628f55a4df523b3ef60405160405180910390a45050565b6000600a60009054906101000a900473ffffffffffffffffffffffffffffffffffffffff16905081600a60006101000a81548173ffffffffffffffffffffffffffffffffffffffff021916908373ffffffffffffffffffffffffffffffffffffffff1602179055508173ffffffffffffffffffffffffffffffffffffffff168173ffffffffffffffffffffffffffffffffffffffff167f8be0079c531659141344cd1fd0a4f28419497f9722a3daafe3b4186f6b6457e060405160405180910390a35050565b600073ffffffffffffffffffffffffffffffffffffffff168273ffffffffffffffffffffffffffffffffffffffff161415612ee8576040517f08c379a0000000000000000000000000000000000000000000000000000000008152600401612edf90614b21565b60405180910390fd5b612ef18161258e565b15612f31576040517f08c379a0000000000000000000000000000000000000000000000000000000008152600401612f2890614a41565b60405180910390fd5b612f3d600083836134a6565b6001600360008473ffffffffffffffffffffffffffffffffffffffff1673ffffffffffffffffffffffffffffffffffffffff1681526020019081526020016000206000828254612f8d9190614db4565b92505081905550816002600083815260200190815260200160002060006101000a81548173ffffffffffffffffffffffffffffffffffffffff021916908373ffffffffffffffffffffffffffffffffffffffff160217905550808273ffffffffffffffffffffffffffffffffffffffff16600073ffffffffffffffffffffffffffffffffffffffff167fddf252ad1be2c89b69c2b068fc378daa952ba7f163c4a11628f55a4df523b3ef60405160405180910390a45050565b80600f600084815260200190815260200160002060008201518160000155602082015181600101559050505050565b613080848484612799565b61308c848484846135ed565b6130cb576040517f08c379a00000000000000000000000000000000000000000000000000000000081526004016130c2906149e1565b60405180910390fd5b50505050565b60606000821415613119576040518060400160405280600181526020017f30000000000000000000000000000000000000000000000000000000000000008152509050613279565b600082905060005b6000821461314b57808061313490614fe2565b915050600a826131449190614e0a565b9150613121565b60008167ffffffffffffffff81111561318d577f4e487b7100000000000000000000000000000000000000000000000000000000600052604160045260246000fd5b6040519080825280601f01601f1916602001820160405280156131bf5781602001600182028036833780820191505090505b5090505b60008514613272576001826131d89190614e95565b9150600a856131e7919061502b565b60306131f39190614db4565b60f81b81838151811061322f577f4e487b7100000000000000000000000000000000000000000000000000000000600052603260045260246000fd5b60200101907effffffffffffffffffffffffffffffffffffffffffffffffffffffffffffff1916908160001a905350600a8561326b9190614e0a565b94506131c3565b8093505050505b919050565b606060008251905060008114156132a75760405180602001604052806000815250915050613437565b600060036002836132b89190614db4565b6132c29190614e0a565b60046132ce9190614e3b565b905060006020826132df9190614db4565b67ffffffffffffffff81111561331e577f4e487b7100000000000000000000000000000000000000000000000000000000600052604160045260246000fd5b6040519080825280601f01601f1916602001820160405280156133505781602001600182028036833780820191505090505b50905060006040518060600160405280604081526020016159f9604091399050600181016020830160005b868110156133f45760038101905062ffffff818a015116603f8160121c168401518060081b905060ff603f83600c1c1686015116810190508060081b905060ff603f8360061c1686015116810190508060081b905060ff603f831686015116810190508060e01b9050808452600484019350505061337b565b50600386066001811461340e576002811461341e57613429565b613d3d60f01b6002830352613429565b603d60f81b60018303525b508484525050819450505050505b919050565b60007f01ffc9a7000000000000000000000000000000000000000000000000000000007bffffffffffffffffffffffffffffffffffffffffffffffffffffffff1916827bffffffffffffffffffffffffffffffffffffffffffffffffffffffff1916149050919050565b6134b1838383613784565b600073ffffffffffffffffffffffffffffffffffffffff168373ffffffffffffffffffffffffffffffffffffffff1614156134f4576134ef81613789565b613533565b8173ffffffffffffffffffffffffffffffffffffffff168373ffffffffffffffffffffffffffffffffffffffff16146135325761353183826137d2565b5b5b600073ffffffffffffffffffffffffffffffffffffffff168273ffffffffffffffffffffffffffffffffffffffff161415613576576135718161393f565b6135b5565b8273ffffffffffffffffffffffffffffffffffffffff168273ffffffffffffffffffffffffffffffffffffffff16146135b4576135b38282613a82565b5b5b505050565b6000816040516020016135cd919061461f565b6040516020818303038152906040528051906020012060001c9050919050565b600061360e8473ffffffffffffffffffffffffffffffffffffffff16613b01565b15613777578373ffffffffffffffffffffffffffffffffffffffff1663150b7a026136376125fa565b8786866040518563ffffffff1660e01b81526004016136599493929190614916565b602060405180830381600087803b15801561367357600080fd5b505af19250505080156136a457506040513d601f19601f820116820180604052508101906136a19190613f28565b60015b613727573d80600081146136d4576040519150601f19603f3d011682016040523d82523d6000602084013e6136d9565b606091505b5060008151141561371f576040517f08c379a0000000000000000000000000000000000000000000000000000000008152600401613716906149e1565b60405180910390fd5b805181602001fd5b63150b7a0260e01b7bffffffffffffffffffffffffffffffffffffffffffffffffffffffff1916817bffffffffffffffffffffffffffffffffffffffffffffffffffffffff19161491505061377c565b600190505b949350505050565b505050565b6008805490506009600083815260200190815260200160002081905550600881908060018154018082558091505060019003906000526020600020016000909190919091505550565b600060016137df84610df4565b6137e99190614e95565b90506000600760008481526020019081526020016000205490508181146138ce576000600660008673ffffffffffffffffffffffffffffffffffffffff1673ffffffffffffffffffffffffffffffffffffffff168152602001908152602001600020600084815260200190815260200160002054905080600660008773ffffffffffffffffffffffffffffffffffffffff1673ffffffffffffffffffffffffffffffffffffffff168152602001908152602001600020600084815260200190815260200160002081905550816007600083815260200190815260200160002081905550505b6007600084815260200190815260200160002060009055600660008573ffffffffffffffffffffffffffffffffffffffff1673ffffffffffffffffffffffffffffffffffffffff16815260200190815260200160002060008381526020019081526020016000206000905550505050565b600060016008805490506139539190614e95565b90506000600960008481526020019081526020016000205490506000600883815481106139a9577f4e487b7100000000000000000000000000000000000000000000000000000000600052603260045260246000fd5b9060005260206000200154905080600883815481106139f1577f4e487b7100000000000000000000000000000000000000000000000000000000600052603260045260246000fd5b906000526020600020018190555081600960008381526020019081526020016000208190555060096000858152602001908152602001600020600090556008805480613a66577f4e487b7100000000000000000000000000000000000000000000000000000000600052603160045260246000fd5b6001900381819060005260206000200160009055905550505050565b6000613a8d83610df4565b905081600660008573ffffffffffffffffffffffffffffffffffffffff1673ffffffffffffffffffffffffffffffffffffffff168152602001908152602001600020600083815260200190815260200160002081905550806007600084815260200190815260200160002081905550505050565b600080823b905060008111915050919050565b6040518061010001604052806008905b6060815260200190600190039081613b245790505090565b6000613b4f613b4a84614cd6565b614cb1565b905082815260208101848484011115613b6757600080fd5b613b72848285614f3d565b509392505050565b6000613b8d613b8884614d07565b614cb1565b905082815260208101848484011115613ba557600080fd5b613bb0848285614f3d565b509392505050565b6000613bcb613bc684614d07565b614cb1565b905082815260208101848484011115613be357600080fd5b613bee848285614f4c565b509392505050565b600081359050613c058161599c565b92915050565b600081359050613c1a816159b3565b92915050565b600081359050613c2f816159ca565b92915050565b600081519050613c44816159ca565b92915050565b600082601f830112613c5b57600080fd5b8135613c6b848260208601613b3c565b91505092915050565b600082601f830112613c8557600080fd5b8135613c95848260208601613b7a565b91505092915050565b600082601f830112613caf57600080fd5b8151613cbf848260208601613bb8565b91505092915050565b600081359050613cd7816159e1565b92915050565b600060208284031215613cef57600080fd5b6000613cfd84828501613bf6565b91505092915050565b60008060408385031215613d1957600080fd5b6000613d2785828601613bf6565b9250506020613d3885828601613bf6565b9150509250929050565b600080600060608486031215613d5757600080fd5b6000613d6586828701613bf6565b9350506020613d7686828701613bf6565b9250506040613d8786828701613cc8565b9150509250925092565b60008060008060808587031215613da757600080fd5b6000613db587828801613bf6565b9450506020613dc687828801613bf6565b9350506040613dd787828801613cc8565b925050606085013567ffffffffffffffff811115613df457600080fd5b613e0087828801613c4a565b91505092959194509250565b60008060408385031215613e1f57600080fd5b6000613e2d85828601613bf6565b9250506020613e3e85828601613c0b565b9150509250929050565b60008060408385031215613e5b57600080fd5b6000613e6985828601613bf6565b9250506020613e7a85828601613cc8565b9150509250929050565b60008060008060808587031215613e9a57600080fd5b6000613ea887828801613bf6565b9450506020613eb987828801613cc8565b9350506040613eca87828801613cc8565b925050606085013567ffffffffffffffff811115613ee757600080fd5b613ef387828801613c74565b91505092959194509250565b600060208284031215613f1157600080fd5b6000613f1f84828501613c20565b91505092915050565b600060208284031215613f3a57600080fd5b6000613f4884828501613c35565b91505092915050565b600060208284031215613f6357600080fd5b600082015167ffffffffffffffff811115613f7d57600080fd5b613f8984828501613c9e565b91505092915050565b600060208284031215613fa457600080fd5b6000613fb284828501613cc8565b91505092915050565b6000613fc78383614601565b60208301905092915050565b613fdc81614ec9565b82525050565b6000613fed82614d48565b613ff78185614d76565b935061400283614d38565b8060005b8381101561403357815161401a8882613fbb565b975061402583614d69565b925050600181019050614006565b5085935050505092915050565b61404981614edb565b82525050565b600061405a82614d53565b6140648185614d87565b9350614074818560208601614f4c565b61407d81615118565b840191505092915050565b600061409382614d5e565b61409d8185614d98565b93506140ad818560208601614f4c565b6140b681615118565b840191505092915050565b60006140cc82614d5e565b6140d68185614da9565b93506140e6818560208601614f4c565b80840191505092915050565b60006140ff601e83614da9565b915061410a82615129565b601e82019050919050565b6000614122602b83614d98565b915061412d82615152565b604082019050919050565b6000614145603283614d98565b9150614150826151a1565b604082019050919050565b6000614168602e83614d98565b9150614173826151f0565b604082019050919050565b600061418b602683614d98565b91506141968261523f565b604082019050919050565b60006141ae601e83614da9565b91506141b98261528e565b601e82019050919050565b60006141d1603483614da9565b91506141dc826152b7565b603482019050919050565b60006141f4601c83614d98565b91506141ff82615306565b602082019050919050565b6000614217600383614da9565b91506142228261532f565b600382019050919050565b600061423a601e83614da9565b915061424582615358565b601e82019050919050565b600061425d602483614d98565b915061426882615381565b604082019050919050565b6000614280601983614d98565b915061428b826153d0565b602082019050919050565b60006142a3601e83614da9565b91506142ae826153f9565b601e82019050919050565b60006142c6602c83614d98565b91506142d182615422565b604082019050919050565b60006142e9600283614da9565b91506142f482615471565b600282019050919050565b600061430c603883614d98565b91506143178261549a565b604082019050919050565b600061432f602a83614d98565b915061433a826154e9565b604082019050919050565b6000614352602983614d98565b915061435d82615538565b604082019050919050565b6000614375601e83614da9565b915061438082615587565b601e82019050919050565b6000614398601e83614da9565b91506143a3826155b0565b601e82019050919050565b60006143bb600283614da9565b91506143c6826155d9565b600282019050919050565b60006143de602083614d98565b91506143e982615602565b602082019050919050565b6000614401600d83614da9565b915061440c8261562b565b600d82019050919050565b6000614424602c83614d98565b915061442f82615654565b604082019050919050565b6000614447604783614d98565b9150614452826156a3565b606082019050919050565b600061446a602083614d98565b915061447582615718565b602082019050919050565b600061448d602983614d98565b915061449882615741565b604082019050919050565b60006144b0601283614da9565b91506144bb82615790565b601282019050919050565b60006144d3600283614da9565b91506144de826157b9565b600282019050919050565b60006144f6602183614d98565b9150614501826157e2565b604082019050919050565b6000614519601e83614da9565b915061452482615831565b601e82019050919050565b600061453c601d83614da9565b91506145478261585a565b601d82019050919050565b600061455f601e83614da9565b915061456a82615883565b601e82019050919050565b6000614582603183614d98565b915061458d826158ac565b604082019050919050565b60006145a5600283614da9565b91506145b0826158fb565b600282019050919050565b60006145c8602c83614d98565b91506145d382615924565b604082019050919050565b60006145eb601583614da9565b91506145f682615973565b601582019050919050565b61460a81614f33565b82525050565b61461981614f33565b82525050565b600061462b82846140c1565b915081905092915050565b600061464282856140c1565b915061464e82846140c1565b91508190509392505050565b6000614666828b6140c1565b9150614672828a6140c1565b915061467e82896140c1565b915061468a82886140c1565b915061469682876140c1565b91506146a282866140c1565b91506146ae82856140c1565b91506146ba82846140c1565b91508190509998505050505050505050565b60006146d7826140f2565b91506146e382846140c1565b91506146ee8261420a565b915081905092915050565b6000614704826141a1565b915061471082846140c1565b915061471b8261420a565b915081905092915050565b60006147318261422d565b915061473d82846140c1565b91506147488261420a565b915081905092915050565b600061475e82614296565b915061476a82846140c1565b91506147758261420a565b915081905092915050565b600061478b82614368565b915061479782846140c1565b91506147a28261420a565b915081905092915050565b60006147b88261438b565b91506147c482846140c1565b91506147cf8261420a565b915081905092915050565b60006147e5826144a3565b91506147f182896140c1565b91506147fc826143f4565b915061480882886140c1565b915061481382614598565b915061481f82876140c1565b915061482a826145de565b915061483682866140c1565b9150614841826142dc565b915061484d82856140c1565b9150614858826141c4565b915061486482846140c1565b915061486f826144c6565b9150819050979650505050505050565b600061488a8261450c565b915061489682846140c1565b91506148a1826143ae565b915081905092915050565b60006148b78261452f565b91506148c382846140c1565b915081905092915050565b60006148d982614552565b91506148e582846140c1565b91506148f08261420a565b915081905092915050565b60006020820190506149106000830184613fd3565b92915050565b600060808201905061492b6000830187613fd3565b6149386020830186613fd3565b6149456040830185614610565b8181036060830152614957818461404f565b905095945050505050565b6000602082019050818103600083015261497c8184613fe2565b905092915050565b60006020820190506149996000830184614040565b92915050565b600060208201905081810360008301526149b98184614088565b905092915050565b600060208201905081810360008301526149da81614115565b9050919050565b600060208201905081810360008301526149fa81614138565b9050919050565b60006020820190508181036000830152614a1a8161415b565b9050919050565b60006020820190508181036000830152614a3a8161417e565b9050919050565b60006020820190508181036000830152614a5a816141e7565b9050919050565b60006020820190508181036000830152614a7a81614250565b9050919050565b60006020820190508181036000830152614a9a81614273565b9050919050565b60006020820190508181036000830152614aba816142b9565b9050919050565b60006020820190508181036000830152614ada816142ff565b9050919050565b60006020820190508181036000830152614afa81614322565b9050919050565b60006020820190508181036000830152614b1a81614345565b9050919050565b60006020820190508181036000830152614b3a816143d1565b9050919050565b60006020820190508181036000830152614b5a81614417565b9050919050565b60006020820190508181036000830152614b7a8161443a565b9050919050565b60006020820190508181036000830152614b9a8161445d565b9050919050565b60006020820190508181036000830152614bba81614480565b9050919050565b60006020820190508181036000830152614bda816144e9565b9050919050565b60006020820190508181036000830152614bfa81614575565b9050919050565b60006020820190508181036000830152614c1a816145bb565b9050919050565b6000602082019050614c366000830184614610565b92915050565b6000604082019050614c516000830185614610565b614c5e6020830184613fd3565b9392505050565b6000608082019050614c7a6000830187614610565b614c876020830186613fd3565b614c946040830185614610565b8181036060830152614ca68184614088565b905095945050505050565b6000614cbb614ccc565b9050614cc78282614fb1565b919050565b6000604051905090565b600067ffffffffffffffff821115614cf157614cf06150e9565b5b614cfa82615118565b9050602081019050919050565b600067ffffffffffffffff821115614d2257614d216150e9565b5b614d2b82615118565b9050602081019050919050565b6000819050602082019050919050565b600081519050919050565b600081519050919050565b600081519050919050565b6000602082019050919050565b600082825260208201905092915050565b600082825260208201905092915050565b600082825260208201905092915050565b600081905092915050565b6000614dbf82614f33565b9150614dca83614f33565b9250827fffffffffffffffffffffffffffffffffffffffffffffffffffffffffffffffff03821115614dff57614dfe61505c565b5b828201905092915050565b6000614e1582614f33565b9150614e2083614f33565b925082614e3057614e2f61508b565b5b828204905092915050565b6000614e4682614f33565b9150614e5183614f33565b9250817fffffffffffffffffffffffffffffffffffffffffffffffffffffffffffffffff0483118215151615614e8a57614e8961505c565b5b828202905092915050565b6000614ea082614f33565b9150614eab83614f33565b925082821015614ebe57614ebd61505c565b5b828203905092915050565b6000614ed482614f13565b9050919050565b60008115159050919050565b60007fffffffff0000000000000000000000000000000000000000000000000000000082169050919050565b600073ffffffffffffffffffffffffffffffffffffffff82169050919050565b6000819050919050565b82818337600083830152505050565b60005b83811015614f6a578082015181840152602081019050614f4f565b83811115614f79576000848401525b50505050565b60006002820490506001821680614f9757607f821691505b60208210811415614fab57614faa6150ba565b5b50919050565b614fba82615118565b810181811067ffffffffffffffff82111715614fd957614fd86150e9565b5b80604052505050565b6000614fed82614f33565b91507fffffffffffffffffffffffffffffffffffffffffffffffffffffffffffffffff8214156150205761501f61505c565b5b600182019050919050565b600061503682614f33565b915061504183614f33565b9250826150515761505061508b565b5b828206905092915050565b7f4e487b7100000000000000000000000000000000000000000000000000000000600052601160045260246000fd5b7f4e487b7100000000000000000000000000000000000000000000000000000000600052601260045260246000fd5b7f4e487b7100000000000000000000000000000000000000000000000000000000600052602260045260246000fd5b7f4e487b7100000000000000000000000000000000000000000000000000000000600052604160045260246000fd5b6000601f19601f8301169050919050565b7f7b2274726169745f74797065223a202249222c202276616c7565223a20220000600082015250565b7f455243373231456e756d657261626c653a206f776e657220696e646578206f7560008201527f74206f6620626f756e6473000000000000000000000000000000000000000000602082015250565b7f4552433732313a207472616e7366657220746f206e6f6e20455243373231526560008201527f63656976657220696d706c656d656e7465720000000000000000000000000000602082015250565b7f4f6e6c792047656e6573697320466163746f727920697320616c6c6f7765642060008201527f746f206d696e7420746f6b656e73000000000000000000000000000000000000602082015250565b7f4f776e61626c653a206e6577206f776e657220697320746865207a65726f206160008201527f6464726573730000000000000000000000000000000000000000000000000000602082015250565b7f7b2274726169745f74797065223a202258222c202276616c7565223a20220000600082015250565b7f222c20226465736372697074696f6e223a2022436f646572204d65746170617360008201527f732e222c202261747472696275746573223a205b000000000000000000000000602082015250565b7f4552433732313a20746f6b656e20616c7265616479206d696e74656400000000600082015250565b7f227d2c0000000000000000000000000000000000000000000000000000000000600082015250565b7f7b2274726169745f74797065223a20225a222c202276616c7565223a20220000600082015250565b7f4552433732313a207472616e7366657220746f20746865207a65726f2061646460008201527f7265737300000000000000000000000000000000000000000000000000000000602082015250565b7f4552433732313a20617070726f766520746f2063616c6c657200000000000000600082015250565b7f7b2274726169745f74797065223a202243222c202276616c7565223a20220000600082015250565b7f4552433732313a206f70657261746f7220717565727920666f72206e6f6e657860008201527f697374656e7420746f6b656e0000000000000000000000000000000000000000602082015250565b7f612f000000000000000000000000000000000000000000000000000000000000600082015250565b7f4552433732313a20617070726f76652063616c6c6572206973206e6f74206f7760008201527f6e6572206e6f7220617070726f76656420666f7220616c6c0000000000000000602082015250565b7f4552433732313a2062616c616e636520717565727920666f7220746865207a6560008201527f726f206164647265737300000000000000000000000000000000000000000000602082015250565b7f4552433732313a206f776e657220717565727920666f72206e6f6e657869737460008201527f656e7420746f6b656e0000000000000000000000000000000000000000000000602082015250565b7f7b2274726169745f74797065223a20224f222c202276616c7565223a20220000600082015250565b7f7b2274726169745f74797065223a202259222c202276616c7565223a20220000600082015250565b7f227d000000000000000000000000000000000000000000000000000000000000600082015250565b7f4552433732313a206d696e7420746f20746865207a65726f2061646472657373600082015250565b7f222c2022696d616765223a202200000000000000000000000000000000000000600082015250565b7f4552433732313a20617070726f76656420717565727920666f72206e6f6e657860008201527f697374656e7420746f6b656e0000000000000000000000000000000000000000602082015250565b7f596f752063616e20627579206e6f206c657373207468616e20312c20616e642060008201527f6e6f206d6f7265207468616e2031302024434f4445522070617373657320617460208201527f20612074696d6500000000000000000000000000000000000000000000000000604082015250565b7f4f776e61626c653a2063616c6c6572206973206e6f7420746865206f776e6572600082015250565b7f4552433732313a207472616e73666572206f6620746f6b656e2074686174206960008201527f73206e6f74206f776e0000000000000000000000000000000000000000000000602082015250565b7f7b226e616d65223a202224434f44455220230000000000000000000000000000600082015250565b7f5d7d000000000000000000000000000000000000000000000000000000000000600082015250565b7f4552433732313a20617070726f76616c20746f2063757272656e74206f776e6560008201527f7200000000000000000000000000000000000000000000000000000000000000602082015250565b7f7b2274726169745f74797065223a202250222c202276616c7565223a20220000600082015250565b7f646174613a6170706c69636174696f6e2f6a736f6e3b6261736536342c000000600082015250565b7f7b2274726169745f74797065223a202252222c202276616c7565223a20220000600082015250565b7f4552433732313a207472616e736665722063616c6c6572206973206e6f74206f60008201527f776e6572206e6f7220617070726f766564000000000000000000000000000000602082015250565b7f692f000000000000000000000000000000000000000000000000000000000000600082015250565b7f455243373231456e756d657261626c653a20676c6f62616c20696e646578206f60008201527f7574206f6620626f756e64730000000000000000000000000000000000000000602082015250565b7f222c2022616e696d6174696f6e5f75726c223a20220000000000000000000000600082015250565b6159a581614ec9565b81146159b057600080fd5b50565b6159bc81614edb565b81146159c757600080fd5b50565b6159d381614ee7565b81146159de57600080fd5b50565b6159ea81614f33565b81146159f557600080fd5b5056fe4142434445464748494a4b4c4d4e4f505152535455565758595a6162636465666768696a6b6c6d6e6f707172737475767778797a303132333435363738392b2fa2646970667358221220d7b1bf709d353aa78e124750106a926aed532f72ac2a19e50fad1690804409b264736f6c63430008040033",
  "immutableReferences": {},
  "source": "// CYBER\n// SPDX-License-Identifier: MIT\n\npragma solidity ^0.8.0;\npragma experimental ABIEncoderV2;\n\n// import 'hardhat/console.sol';\n// import 'https://github.com/OpenZeppelin/openzeppelin-contracts/blob/master/contracts/access/Ownable.sol';\n// import 'https://github.com/OpenZeppelin/openzeppelin-contracts/blob/master/contracts/utils/math/SafeMath.sol';\n\nimport '../node_modules/@openzeppelin/contracts/access/Ownable.sol';\nimport '../node_modules/@openzeppelin/contracts/utils/math/SafeMath.sol';\n\nimport './Helper.sol';\nimport './Product.sol';\nimport './CartERC721.sol';\nimport './CartERC1155.sol';\nimport './addOnContract.sol';\n\ncontract GenesisCart is Ownable, Product, Proxy {\n  using Helper for uint256[];\n  using SafeMath for uint256;\n  using SafeMath for uint8;\n  CartERC721 instanceERC721;\n  CartERC1155 instanceERC1155;\n  addOnContract instanceAddOnContract;\n\n  address public vault;\n\n  constructor() {\n    instanceERC721 = new CartERC721(address(this));\n    instanceERC1155 = new CartERC1155(address(this));\n    instanceAddOnContract = new addOnContract(address(this));\n    _approveChildContract(address(instanceERC721));\n    _approveChildContract(address(instanceERC1155));\n    _approveChildContract(address(instanceAddOnContract));\n  }\n\n  function checkOut(uint256[] memory _products, uint256[] memory _qty, string[] memory _data) public payable {\n    require(msg.value >= calculatePrice(_products, _qty), 'Not enough balance');\n\n    for (uint256 i = 0; i < _products.length; i++) {\n      uint256 _productQTY = _qty[i];\n      uint256 _productId = _products[i];\n      string memory _productData = _data[i];\n\n      if (products[_productId].contractType == 1) {\n        instanceERC721.buy(msg.sender, _productQTY, _productId, _productData);\n      } else if (products[_productId].contractType == 2) {\n        instanceERC1155.buy(msg.sender, _productQTY, _productId, _productData); // hoodie & fashion\n      } else {\n        instanceAddOnContract.buy(msg.sender, _productQTY, _productId, _productData); // mint coder pass\n      }\n    }\n  }\n\n  // TODO to make private function\n\n  function calculatePrice(uint256[] memory _products, uint256[] memory _qty)\n    public\n    view\n    virtual\n    returns (uint256 price)\n  {\n    uint256 _price;\n\n    for (uint256 i = 0; i < _products.length; i++) {\n      uint256 _product = _products[i];\n      uint256 _productQTY = _qty[i];\n      require(_products.length == _qty.length, \"Not valid qty for each product\");\n      require(_productQTY > 0 && _productQTY <= 10, \"Can't buy 0 products or mint more than 10\");\n      require(products[_product].id == _product, \"No such product ID\");\n      require(products[_product].qty > 0, \"Not valid qty for each product\");\n\n      _price = _price.add(products[_product].price.mul(_productQTY));\n\n      if (discountedProducts[_product].valid == true) {\n        _price = _price.sub(discountedProducts[_product].amount.mul(_productQTY));\n      }\n    }\n\n    if (\n      keccak256(abi.encodePacked(discountGroup.productIds)) ==\n      keccak256(abi.encodePacked(_products.sort()))\n    ) {\n      uint256[] memory discountPack = _qty.sort();\n      _price = _price.sub(discountGroup.amount.mul(discountPack[0]));\n    }\n\n    return _price;\n  }\n\n  /*\n   * Only GenesisFactory owner can run\n   */\n\n  function productSold(\n    uint256 _tokenId,\n    address _ownerAddress,\n    uint256 _productId,\n    string memory _data\n  ) public onlyChildren {\n    emit ProductSold(\n      _productId,\n      _tokenId,\n      _ownerAddress,\n      products[_productId].name,\n      products[_productId].qty,\n      _data\n    );\n    products[_productId].qty = products[_productId].qty - 1;\n    if (products[_productId].qty == 0) {\n      emit SoldOut(_productId);\n    }\n  }\n\n  function setVault(address _newVaultAddress) public onlyOwner {\n    vault = _newVaultAddress;\n  }\n\n  function withdraw(uint256 _amount) public onlyOwner {\n    require(address(vault) != address(0), 'no vault');\n    require(payable(vault).send(_amount), \"didn't withraw\");\n  }\n\n  function withdrawAll() public payable onlyOwner {\n    require(address(vault) != address(0), 'no vault');\n    require(payable(vault).send(address(this).balance), \"didn't withdraw all\");\n  }\n\n  function getMetaURI(uint256 _id) public view returns (string memory _name) {\n    return products[_id].url;\n  }\n}\n",
  "sourcePath": "/Users/jordan/eliteWeb-v2/src/contracts/contracts/GenesisCart.sol",
  "compiler": {
    "name": "solc",
    "version": "0.8.4+commit.c7e474f2.Emscripten.clang"
  },
  "schemaVersion": "3.4.1",
  "updatedAt": "2021-12-19T22:46:30.322Z",
  "networkType": "ethereum",
  "devdoc": {
    "kind": "dev",
    "methods": {
      "owner()": {
        "details": "Returns the address of the current owner."
      },
      "renounceOwnership()": {
        "details": "Leaves the contract without owner. It will not be possible to call `onlyOwner` functions anymore. Can only be called by the current owner. NOTE: Renouncing ownership will leave the contract without an owner, thereby removing any functionality that is only available to the owner."
      },
      "transferOwnership(address)": {
        "details": "Transfers ownership of the contract to a new account (`newOwner`). Can only be called by the current owner."
      }
    },
    "version": 1
  },
  "userdoc": {
    "kind": "user",
    "methods": {},
    "version": 1
  }
}