{
  "contractName": "Helper",
  "abi": [
    {
      "inputs": [
        {
          "internalType": "uint256[]",
          "name": "data",
          "type": "uint256[]"
        }
      ],
      "name": "sort",
      "outputs": [
        {
          "internalType": "uint256[]",
          "name": "",
          "type": "uint256[]"
        }
      ],
      "stateMutability": "pure",
      "type": "function",
      "constant": true
    }
  ],
  "bytecode": "0x6108d8610053600b82828239805160001a607314610046577f4e487b7100000000000000000000000000000000000000000000000000000000600052600060045260246000fd5b30600052607381538281f3fe73000000000000000000000000000000000000000030146080604052600436106100355760003560e01c80639ec8b0261461003a575b600080fd5b610054600480360381019061004f91906103de565b61006a565b60405161006191906104a4565b60405180910390f35b60606100858260006001855161008091906106e2565b61008d565b819050919050565b60008290506000829050808214156100a657505061032e565b600085600286866100b7919061064e565b6100c191906105e4565b866100cc9190610550565b81518110610103577f4e487b7100000000000000000000000000000000000000000000000000000000600052603260045260246000fd5b602002602001015190505b818313610302575b80868481518110610150577f4e487b7100000000000000000000000000000000000000000000000000000000600052603260045260246000fd5b60200260200101511015610171578280610169906107a4565b935050610116565b5b8582815181106101ab577f4e487b7100000000000000000000000000000000000000000000000000000000600052603260045260246000fd5b60200260200101518110156101cd5781806101c59061072a565b925050610172565b8183136102fd5785828151811061020d577f4e487b7100000000000000000000000000000000000000000000000000000000600052603260045260246000fd5b602002602001015186848151811061024e577f4e487b7100000000000000000000000000000000000000000000000000000000600052603260045260246000fd5b602002602001015187858151811061028f577f4e487b7100000000000000000000000000000000000000000000000000000000600052603260045260246000fd5b602002602001018885815181106102cf577f4e487b7100000000000000000000000000000000000000000000000000000000600052603260045260246000fd5b602002602001018281525082815250505082806102eb906107a4565b93505081806102f99061072a565b9250505b61010e565b818512156103165761031586868461008d565b5b8383121561032a5761032986848661008d565b5b5050505b505050565b6000610346610341846104eb565b6104c6565b9050808382526020820190508285602086028201111561036557600080fd5b60005b85811015610395578161037b88826103c9565b845260208401935060208301925050600181019050610368565b5050509392505050565b600082601f8301126103b057600080fd5b81356103c0848260208601610333565b91505092915050565b6000813590506103d88161088b565b92915050565b6000602082840312156103f057600080fd5b600082013567ffffffffffffffff81111561040a57600080fd5b6104168482850161039f565b91505092915050565b600061042b8383610495565b60208301905092915050565b600061044282610527565b61044c818561053f565b935061045783610517565b8060005b8381101561048857815161046f888261041f565b975061047a83610532565b92505060018101905061045b565b5085935050505092915050565b61049e81610720565b82525050565b600060208201905081810360008301526104be8184610437565b905092915050565b60006104d06104e1565b90506104dc8282610773565b919050565b6000604051905090565b600067ffffffffffffffff8211156105065761050561084b565b5b602082029050602081019050919050565b6000819050602082019050919050565b600081519050919050565b6000602082019050919050565b600082825260208201905092915050565b600061055b82610716565b915061056683610716565b9250817f7fffffffffffffffffffffffffffffffffffffffffffffffffffffffffffffff038313600083121516156105a1576105a06107ed565b5b817f80000000000000000000000000000000000000000000000000000000000000000383126000831216156105d9576105d86107ed565b5b828201905092915050565b60006105ef82610716565b91506105fa83610716565b92508261060a5761060961081c565b5b600160000383147f800000000000000000000000000000000000000000000000000000000000000083141615610643576106426107ed565b5b828205905092915050565b600061065982610716565b915061066483610716565b9250827f80000000000000000000000000000000000000000000000000000000000000000182126000841215161561069f5761069e6107ed565b5b827f7fffffffffffffffffffffffffffffffffffffffffffffffffffffffffffffff0182136000841216156106d7576106d66107ed565b5b828203905092915050565b60006106ed82610720565b91506106f883610720565b92508282101561070b5761070a6107ed565b5b828203905092915050565b6000819050919050565b6000819050919050565b600061073582610716565b91507f8000000000000000000000000000000000000000000000000000000000000000821415610768576107676107ed565b5b600182039050919050565b61077c8261087a565b810181811067ffffffffffffffff8211171561079b5761079a61084b565b5b80604052505050565b60006107af82610716565b91507f7fffffffffffffffffffffffffffffffffffffffffffffffffffffffffffffff8214156107e2576107e16107ed565b5b600182019050919050565b7f4e487b7100000000000000000000000000000000000000000000000000000000600052601160045260246000fd5b7f4e487b7100000000000000000000000000000000000000000000000000000000600052601260045260246000fd5b7f4e487b7100000000000000000000000000000000000000000000000000000000600052604160045260246000fd5b6000601f19601f8301169050919050565b61089481610720565b811461089f57600080fd5b5056fea2646970667358221220bfc19fc483479a24928930f79fcac5a7b85ffd345bde01bd2daa11f806baa1d364736f6c63430008040033",
  "immutableReferences": {},
  "source": "// SPDX-License-Identifier: MIT\npragma solidity ^0.8.0;\npragma experimental ABIEncoderV2;\n\nlibrary Helper {\n  function sort(uint256[] memory data) public pure returns (uint256[] memory) {\n    quickSort(data, int256(0), int256(data.length - 1));\n    return data;\n  }\n\n  function quickSort(\n    uint256[] memory arr,\n    int256 left,\n    int256 right\n  ) internal pure {\n    int256 i = left;\n    int256 j = right;\n    if (i == j) return;\n    uint256 pivot = arr[uint256(left + (right - left) / 2)];\n    while (i <= j) {\n      while (arr[uint256(i)] < pivot) i++;\n      while (pivot < arr[uint256(j)]) j--;\n      if (i <= j) {\n        (arr[uint256(i)], arr[uint256(j)]) = (arr[uint256(j)], arr[uint256(i)]);\n        i++;\n        j--;\n      }\n    }\n    if (left < j) quickSort(arr, left, j);\n    if (i < right) quickSort(arr, i, right);\n  }\n}\n",
  "sourcePath": "/Volumes/Data/Git/cart-art-web/src/contracts/contracts/Helper.sol",
  "compiler": {
    "name": "solc",
    "version": "0.8.4+commit.c7e474f2.Emscripten.clang"
  },
  "schemaVersion": "3.4.3",
  "updatedAt": "2021-12-22T08:24:42.285Z",
  "networkType": "ethereum",
  "devdoc": {
    "kind": "dev",
    "methods": {},
    "version": 1
  },
  "userdoc": {
    "kind": "user",
    "methods": {},
    "version": 1
  }
}