{
  "contractName": "Product",
  "abi": [
    {
      "anonymous": false,
      "inputs": [
        {
          "indexed": false,
          "internalType": "uint256",
          "name": "productId",
          "type": "uint256"
        }
      ],
      "name": "BackInStock",
      "type": "event"
    },
    {
      "anonymous": false,
      "inputs": [
        {
          "indexed": false,
          "internalType": "uint256",
          "name": "productId",
          "type": "uint256"
        }
      ],
      "name": "DeleteProduct",
      "type": "event"
    },
    {
      "anonymous": false,
      "inputs": [
        {
          "indexed": false,
          "internalType": "uint256",
          "name": "productId",
          "type": "uint256"
        }
      ],
      "name": "NewPrice",
      "type": "event"
    },
    {
      "anonymous": false,
      "inputs": [
        {
          "indexed": false,
          "internalType": "uint256",
          "name": "productId",
          "type": "uint256"
        }
      ],
      "name": "NewProduct",
      "type": "event"
    },
    {
      "anonymous": false,
      "inputs": [
        {
          "indexed": true,
          "internalType": "address",
          "name": "previousOwner",
          "type": "address"
        },
        {
          "indexed": true,
          "internalType": "address",
          "name": "newOwner",
          "type": "address"
        }
      ],
      "name": "OwnershipTransferred",
      "type": "event"
    },
    {
      "anonymous": false,
      "inputs": [
        {
          "indexed": false,
          "internalType": "uint256",
          "name": "_productId",
          "type": "uint256"
        },
        {
          "indexed": false,
          "internalType": "uint256",
          "name": "_tokenId",
          "type": "uint256"
        },
        {
          "indexed": false,
          "internalType": "address",
          "name": "_ownerAddress",
          "type": "address"
        },
        {
          "indexed": false,
          "internalType": "string",
          "name": "_name",
          "type": "string"
        },
        {
          "indexed": false,
          "internalType": "uint256",
          "name": "_qty",
          "type": "uint256"
        },
        {
          "indexed": false,
          "internalType": "string",
          "name": "_data",
          "type": "string"
        }
      ],
      "name": "ProductSold",
      "type": "event"
    },
    {
      "anonymous": false,
      "inputs": [
        {
          "indexed": false,
          "internalType": "uint256",
          "name": "productId",
          "type": "uint256"
        }
      ],
      "name": "ProductUpdated",
      "type": "event"
    },
    {
      "anonymous": false,
      "inputs": [
        {
          "indexed": false,
          "internalType": "uint256",
          "name": "productId",
          "type": "uint256"
        }
      ],
      "name": "SoldOut",
      "type": "event"
    },
    {
      "inputs": [],
      "name": "discountGroup",
      "outputs": [
        {
          "internalType": "bool",
          "name": "valid",
          "type": "bool"
        },
        {
          "internalType": "uint256",
          "name": "amount",
          "type": "uint256"
        }
      ],
      "stateMutability": "view",
      "type": "function"
    },
    {
      "inputs": [
        {
          "internalType": "uint256",
          "name": "",
          "type": "uint256"
        }
      ],
      "name": "discountedProducts",
      "outputs": [
        {
          "internalType": "uint256",
          "name": "product",
          "type": "uint256"
        },
        {
          "internalType": "bool",
          "name": "valid",
          "type": "bool"
        },
        {
          "internalType": "uint256",
          "name": "amount",
          "type": "uint256"
        }
      ],
      "stateMutability": "view",
      "type": "function"
    },
    {
      "inputs": [],
      "name": "owner",
      "outputs": [
        {
          "internalType": "address",
          "name": "",
          "type": "address"
        }
      ],
      "stateMutability": "view",
      "type": "function"
    },
    {
      "inputs": [
        {
          "internalType": "uint256",
          "name": "",
          "type": "uint256"
        }
      ],
      "name": "products",
      "outputs": [
        {
          "internalType": "uint256",
          "name": "id",
          "type": "uint256"
        },
        {
          "internalType": "string",
          "name": "name",
          "type": "string"
        },
        {
          "internalType": "uint256",
          "name": "price",
          "type": "uint256"
        },
        {
          "internalType": "uint8",
          "name": "qty",
          "type": "uint8"
        },
        {
          "internalType": "uint256",
          "name": "contractType",
          "type": "uint256"
        },
        {
          "internalType": "uint256",
          "name": "category",
          "type": "uint256"
        },
        {
          "internalType": "bool",
          "name": "sale",
          "type": "bool"
        },
        {
          "internalType": "string",
          "name": "url",
          "type": "string"
        }
      ],
      "stateMutability": "view",
      "type": "function"
    },
    {
      "inputs": [],
      "name": "renounceOwnership",
      "outputs": [],
      "stateMutability": "nonpayable",
      "type": "function"
    },
    {
      "inputs": [
        {
          "internalType": "address",
          "name": "newOwner",
          "type": "address"
        }
      ],
      "name": "transferOwnership",
      "outputs": [],
      "stateMutability": "nonpayable",
      "type": "function"
    },
    {
      "inputs": [
        {
          "internalType": "string",
          "name": "_name",
          "type": "string"
        },
        {
          "internalType": "uint256",
          "name": "_price",
          "type": "uint256"
        },
        {
          "internalType": "uint8",
          "name": "_qty",
          "type": "uint8"
        },
        {
          "internalType": "uint256",
          "name": "_contractType",
          "type": "uint256"
        },
        {
          "internalType": "uint256",
          "name": "_category",
          "type": "uint256"
        },
        {
          "internalType": "bool",
          "name": "_onSale",
          "type": "bool"
        },
        {
          "internalType": "string",
          "name": "_url",
          "type": "string"
        }
      ],
      "name": "addProduct",
      "outputs": [
        {
          "internalType": "bool",
          "name": "success",
          "type": "bool"
        }
      ],
      "stateMutability": "nonpayable",
      "type": "function"
    },
    {
      "inputs": [
        {
          "internalType": "uint256",
          "name": "_id",
          "type": "uint256"
        }
      ],
      "name": "deleteProduct",
      "outputs": [
        {
          "internalType": "bool",
          "name": "success",
          "type": "bool"
        }
      ],
      "stateMutability": "nonpayable",
      "type": "function"
    },
    {
      "inputs": [
        {
          "internalType": "uint256",
          "name": "_id",
          "type": "uint256"
        },
        {
          "internalType": "string",
          "name": "_name",
          "type": "string"
        },
        {
          "internalType": "uint256",
          "name": "_price",
          "type": "uint256"
        },
        {
          "internalType": "uint8",
          "name": "_qty",
          "type": "uint8"
        },
        {
          "internalType": "uint256",
          "name": "_contractType",
          "type": "uint256"
        },
        {
          "internalType": "uint256",
          "name": "_cateogry",
          "type": "uint256"
        },
        {
          "internalType": "bool",
          "name": "_onSale",
          "type": "bool"
        },
        {
          "internalType": "string",
          "name": "_url",
          "type": "string"
        }
      ],
      "name": "updateProduct",
      "outputs": [
        {
          "internalType": "bool",
          "name": "success",
          "type": "bool"
        }
      ],
      "stateMutability": "nonpayable",
      "type": "function"
    },
    {
      "inputs": [
        {
          "internalType": "uint256",
          "name": "_id",
          "type": "uint256"
        },
        {
          "internalType": "uint8",
          "name": "_qty",
          "type": "uint8"
        }
      ],
      "name": "updateStock",
      "outputs": [
        {
          "internalType": "bool",
          "name": "success",
          "type": "bool"
        }
      ],
      "stateMutability": "nonpayable",
      "type": "function"
    },
    {
      "inputs": [
        {
          "internalType": "uint256",
          "name": "_id",
          "type": "uint256"
        },
        {
          "internalType": "uint8",
          "name": "_price",
          "type": "uint8"
        }
      ],
      "name": "updatePrice",
      "outputs": [
        {
          "internalType": "bool",
          "name": "success",
          "type": "bool"
        }
      ],
      "stateMutability": "nonpayable",
      "type": "function"
    },
    {
      "inputs": [],
      "name": "getProducts",
      "outputs": [
        {
          "components": [
            {
              "internalType": "uint256",
              "name": "id",
              "type": "uint256"
            },
            {
              "internalType": "string",
              "name": "name",
              "type": "string"
            },
            {
              "internalType": "uint256",
              "name": "price",
              "type": "uint256"
            },
            {
              "internalType": "uint8",
              "name": "qty",
              "type": "uint8"
            },
            {
              "internalType": "uint256",
              "name": "contractType",
              "type": "uint256"
            },
            {
              "internalType": "uint256",
              "name": "category",
              "type": "uint256"
            },
            {
              "internalType": "bool",
              "name": "sale",
              "type": "bool"
            },
            {
              "internalType": "string",
              "name": "url",
              "type": "string"
            }
          ],
          "internalType": "struct Product.Product[]",
          "name": "",
          "type": "tuple[]"
        }
      ],
      "stateMutability": "view",
      "type": "function"
    },
    {
      "inputs": [
        {
          "internalType": "uint256",
          "name": "_productId",
          "type": "uint256"
        },
        {
          "internalType": "bool",
          "name": "_enabled",
          "type": "bool"
        },
        {
          "internalType": "uint256",
          "name": "_discountAmount",
          "type": "uint256"
        }
      ],
      "name": "setDiscountProduct",
      "outputs": [],
      "stateMutability": "nonpayable",
      "type": "function"
    },
    {
      "inputs": [
        {
          "internalType": "uint256[]",
          "name": "_productIds",
          "type": "uint256[]"
        },
        {
          "internalType": "bool",
          "name": "_enabled",
          "type": "bool"
        },
        {
          "internalType": "uint256",
          "name": "_discountAmount",
          "type": "uint256"
        }
      ],
      "name": "setDiscountGroup",
      "outputs": [],
      "stateMutability": "nonpayable",
      "type": "function"
    }
  ],
  "bytecode": "0x608060405234801561001057600080fd5b5061002d61002261003260201b60201c565b61003a60201b60201c565b6100fe565b600033905090565b60008060009054906101000a900473ffffffffffffffffffffffffffffffffffffffff169050816000806101000a81548173ffffffffffffffffffffffffffffffffffffffff021916908373ffffffffffffffffffffffffffffffffffffffff1602179055508173ffffffffffffffffffffffffffffffffffffffff168173ffffffffffffffffffffffffffffffffffffffff167f8be0079c531659141344cd1fd0a4f28419497f9722a3daafe3b4186f6b6457e060405160405180910390a35050565b612462806200010e6000396000f3fe608060405234801561001057600080fd5b50600436106100ea5760003560e01c80638f3d08211161008c578063da200cac11610066578063da200cac14610269578063e095cda014610285578063ed90c7b7146102b5578063f2fde38b146102e5576100ea565b80638f3d0821146101ff578063a329a1051461021b578063c29b2f201461024b576100ea565b806371709e19116100c857806371709e19146101485780637759ebd41461017a5780637acc0b20146101aa5780638da5cb5b146101e1576100ea565b80631886fe66146100ef5780633877007e1461010e578063715018a61461013e575b600080fd5b6100f7610301565b604051610105929190611e6d565b60405180910390f35b61012860048036038101906101239190611b0f565b610320565b6040516101359190611e52565b60405180910390f35b610146610454565b005b610162600480360381019061015d91906119b5565b6104dc565b60405161017193929190611f51565b60405180910390f35b610194600480360381019061018f9190611a2d565b610513565b6040516101a19190611e52565b60405180910390f35b6101c460048036038101906101bf91906119b5565b61072c565b6040516101d8989796959493929190611f88565b60405180910390f35b6101e961089e565b6040516101f69190611e15565b60405180910390f35b61021960048036038101906102149190611880565b6108c7565b005b61023560048036038101906102309190611b0f565b6109b7565b6040516102429190611e52565b60405180910390f35b610253610ada565b6040516102609190611e30565b60405180910390f35b610283600480360381019061027e91906119de565b610d89565b005b61029f600480360381019061029a91906118e7565b610e77565b6040516102ac9190611e52565b60405180910390f35b6102cf60048036038101906102ca91906119b5565b6110a8565b6040516102dc9190611e52565b60405180910390f35b6102ff60048036038101906102fa9190611857565b6113a3565b005b60038060010160009054906101000a900460ff16908060020154905082565b600061032a61149b565b73ffffffffffffffffffffffffffffffffffffffff1661034861089e565b73ffffffffffffffffffffffffffffffffffffffff161461039e576040517f08c379a000000000000000000000000000000000000000000000000000000000815260040161039590611f16565b60405180910390fd5b60008260ff16116103e4576040517f08c379a00000000000000000000000000000000000000000000000000000000081526004016103db90611ed6565b60405180910390fd5b816001600085815260200190815260200160002060030160006101000a81548160ff021916908360ff1602179055507f43d475c806fc60255eab636e322e96eb8717db52046340f0238acb0dd7c16919836040516104429190611f36565b60405180910390a16001905092915050565b61045c61149b565b73ffffffffffffffffffffffffffffffffffffffff1661047a61089e565b73ffffffffffffffffffffffffffffffffffffffff16146104d0576040517f08c379a00000000000000000000000000000000000000000000000000000000081526004016104c790611f16565b60405180910390fd5b6104da60006114a3565b565b60066020528060005260406000206000915090508060000154908060010160009054906101000a900460ff16908060020154905083565b600061051d61149b565b73ffffffffffffffffffffffffffffffffffffffff1661053b61089e565b73ffffffffffffffffffffffffffffffffffffffff1614610591576040517f08c379a000000000000000000000000000000000000000000000000000000000815260040161058890611f16565b60405180910390fd5b868660ff166000821180156105a65750600081115b6105e5576040517f08c379a00000000000000000000000000000000000000000000000000000000081526004016105dc90611eb6565b60405180910390fd5b60006040518061010001604052808d81526020018c81526020018b81526020018a60ff168152602001898152602001888152602001871515815260200186815250905080600160008e815260200190815260200160002060008201518160000155602082015181600101908051906020019061066292919061158b565b506040820151816002015560608201518160030160006101000a81548160ff021916908360ff1602179055506080820151816004015560a0820151816005015560c08201518160060160006101000a81548160ff02191690831515021790555060e08201518160070190805190602001906106de92919061158b565b509050507feca6714fcf568fb34cf9db4a414cb0cc48e93c5d4e1ba0582a46ea3704cf24d58c6040516107119190611f36565b60405180910390a16001935050505098975050505050505050565b600160205280600052604060002060009150905080600001549080600101805461075590612193565b80601f016020809104026020016040519081016040528092919081815260200182805461078190612193565b80156107ce5780601f106107a3576101008083540402835291602001916107ce565b820191906000526020600020905b8154815290600101906020018083116107b157829003601f168201915b5050505050908060020154908060030160009054906101000a900460ff16908060040154908060050154908060060160009054906101000a900460ff169080600701805461081b90612193565b80601f016020809104026020016040519081016040528092919081815260200182805461084790612193565b80156108945780601f1061086957610100808354040283529160200191610894565b820191906000526020600020905b81548152906001019060200180831161087757829003601f168201915b5050505050905088565b60008060009054906101000a900473ffffffffffffffffffffffffffffffffffffffff16905090565b6108cf61149b565b73ffffffffffffffffffffffffffffffffffffffff166108ed61089e565b73ffffffffffffffffffffffffffffffffffffffff1614610943576040517f08c379a000000000000000000000000000000000000000000000000000000000815260040161093a90611f16565b60405180910390fd5b6000604051806060016040528085815260200184151581526020018381525090508060036000820151816000019080519060200190610983929190611611565b5060208201518160010160006101000a81548160ff0219169083151502179055506040820151816002015590505050505050565b60006109c161149b565b73ffffffffffffffffffffffffffffffffffffffff166109df61089e565b73ffffffffffffffffffffffffffffffffffffffff1614610a35576040517f08c379a0000000000000000000000000000000000000000000000000000000008152600401610a2c90611f16565b60405180910390fd5b60008260ff1611610a7b576040517f08c379a0000000000000000000000000000000000000000000000000000000008152600401610a7290611ef6565b60405180910390fd5b8160ff1660016000858152602001908152602001600020600201819055507f270b316b51ab2cf3a3bb8ca4d22e76a327d05e762fcaa8bd6afaf8cfde9270b783604051610ac89190611f36565b60405180910390a16001905092915050565b60606000610ae86002611567565b67ffffffffffffffff811115610b27577f4e487b7100000000000000000000000000000000000000000000000000000000600052604160045260246000fd5b604051908082528060200260200182016040528015610b6057816020015b610b4d61165e565b815260200190600190039081610b455790505b5090506000805b610b716002611567565b811015610d8057600160008281526020019081526020016000206040518061010001604052908160008201548152602001600182018054610bb190612193565b80601f0160208091040260200160405190810160405280929190818152602001828054610bdd90612193565b8015610c2a5780601f10610bff57610100808354040283529160200191610c2a565b820191906000526020600020905b815481529060010190602001808311610c0d57829003601f168201915b50505050508152602001600282015481526020016003820160009054906101000a900460ff1660ff1660ff16815260200160048201548152602001600582015481526020016006820160009054906101000a900460ff16151515158152602001600782018054610c9990612193565b80601f0160208091040260200160405190810160405280929190818152602001828054610cc590612193565b8015610d125780601f10610ce757610100808354040283529160200191610d12565b820191906000526020600020905b815481529060010190602001808311610cf557829003601f168201915b505050505081525050838381518110610d54577f4e487b7100000000000000000000000000000000000000000000000000000000600052603260045260246000fd5b60200260200101819052508180610d6a906121f6565b9250508080610d78906121f6565b915050610b67565b50819250505090565b610d9161149b565b73ffffffffffffffffffffffffffffffffffffffff16610daf61089e565b73ffffffffffffffffffffffffffffffffffffffff1614610e05576040517f08c379a0000000000000000000000000000000000000000000000000000000008152600401610dfc90611f16565b60405180910390fd5b60006040518060600160405280858152602001841515815260200183815250905080600660008681526020019081526020016000206000820151816000015560208201518160010160006101000a81548160ff0219169083151502179055506040820151816002015590505050505050565b6000610e8161149b565b73ffffffffffffffffffffffffffffffffffffffff16610e9f61089e565b73ffffffffffffffffffffffffffffffffffffffff1614610ef5576040517f08c379a0000000000000000000000000000000000000000000000000000000008152600401610eec90611f16565b60405180910390fd5b868660ff16600082118015610f0a5750600081115b610f49576040517f08c379a0000000000000000000000000000000000000000000000000000000008152600401610f4090611eb6565b60405180910390fd5b6000610f556002611567565b905060006040518061010001604052808381526020018d81526020018c81526020018b60ff1681526020018a815260200189815260200188151581526020018781525090508060016000848152602001908152602001600020600082015181600001556020820151816001019080519060200190610fd492919061158b565b506040820151816002015560608201518160030160006101000a81548160ff021916908360ff1602179055506080820151816004015560a0820151816005015560c08201518160060160006101000a81548160ff02191690831515021790555060e082015181600701908051906020019061105092919061158b565b509050507f4cf76794269f0514dbcdb5cbc4ab9cbdc6bf693c5c45e36dc94b2e7384d49c79826040516110839190611f36565b60405180910390a16110956002611575565b6001945050505050979650505050505050565b60006110b261149b565b73ffffffffffffffffffffffffffffffffffffffff166110d061089e565b73ffffffffffffffffffffffffffffffffffffffff1614611126576040517f08c379a000000000000000000000000000000000000000000000000000000000815260040161111d90611f16565b60405180910390fd5b600060016000848152602001908152602001600020604051806101000160405290816000820154815260200160018201805461116190612193565b80601f016020809104026020016040519081016040528092919081815260200182805461118d90612193565b80156111da5780601f106111af576101008083540402835291602001916111da565b820191906000526020600020905b8154815290600101906020018083116111bd57829003601f168201915b50505050508152602001600282015481526020016003820160009054906101000a900460ff1660ff1660ff16815260200160048201548152602001600582015481526020016006820160009054906101000a900460ff1615151515815260200160078201805461124990612193565b80601f016020809104026020016040519081016040528092919081815260200182805461127590612193565b80156112c25780601f10611297576101008083540402835291602001916112c2565b820191906000526020600020905b8154815290600101906020018083116112a557829003601f168201915b50505050508152505090508281600001511415611398576001600084815260200190815260200160002060008082016000905560018201600061130591906116a8565b60028201600090556003820160006101000a81549060ff0219169055600482016000905560058201600090556006820160006101000a81549060ff021916905560078201600061135591906116a8565b50507f0e10ee3ece1ddd5966cebc571a843f6af8abd1fa7b2ef3d7279c44873b1e7bf8836040516113869190611f36565b60405180910390a1600191505061139e565b60009150505b919050565b6113ab61149b565b73ffffffffffffffffffffffffffffffffffffffff166113c961089e565b73ffffffffffffffffffffffffffffffffffffffff161461141f576040517f08c379a000000000000000000000000000000000000000000000000000000000815260040161141690611f16565b60405180910390fd5b600073ffffffffffffffffffffffffffffffffffffffff168173ffffffffffffffffffffffffffffffffffffffff16141561148f576040517f08c379a000000000000000000000000000000000000000000000000000000000815260040161148690611e96565b60405180910390fd5b611498816114a3565b50565b600033905090565b60008060009054906101000a900473ffffffffffffffffffffffffffffffffffffffff169050816000806101000a81548173ffffffffffffffffffffffffffffffffffffffff021916908373ffffffffffffffffffffffffffffffffffffffff1602179055508173ffffffffffffffffffffffffffffffffffffffff168173ffffffffffffffffffffffffffffffffffffffff167f8be0079c531659141344cd1fd0a4f28419497f9722a3daafe3b4186f6b6457e060405160405180910390a35050565b600081600001549050919050565b6001816000016000828254019250508190555050565b82805461159790612193565b90600052602060002090601f0160209004810192826115b95760008555611600565b82601f106115d257805160ff1916838001178555611600565b82800160010185558215611600579182015b828111156115ff5782518255916020019190600101906115e4565b5b50905061160d91906116e8565b5090565b82805482825590600052602060002090810192821561164d579160200282015b8281111561164c578251825591602001919060010190611631565b5b50905061165a91906116e8565b5090565b604051806101000160405280600081526020016060815260200160008152602001600060ff1681526020016000815260200160008152602001600015158152602001606081525090565b5080546116b490612193565b6000825580601f106116c657506116e5565b601f0160209004906000526020600020908101906116e491906116e8565b5b50565b5b808211156117015760008160009055506001016116e9565b5090565b600061171861171384612039565b612014565b9050808382526020820190508285602086028201111561173757600080fd5b60005b85811015611767578161174d888261182d565b84526020840193506020830192505060018101905061173a565b5050509392505050565b600061178461177f84612065565b612014565b90508281526020810184848401111561179c57600080fd5b6117a7848285612151565b509392505050565b6000813590506117be816123d0565b92915050565b600082601f8301126117d557600080fd5b81356117e5848260208601611705565b91505092915050565b6000813590506117fd816123e7565b92915050565b600082601f83011261181457600080fd5b8135611824848260208601611771565b91505092915050565b60008135905061183c816123fe565b92915050565b60008135905061185181612415565b92915050565b60006020828403121561186957600080fd5b6000611877848285016117af565b91505092915050565b60008060006060848603121561189557600080fd5b600084013567ffffffffffffffff8111156118af57600080fd5b6118bb868287016117c4565b93505060206118cc868287016117ee565b92505060406118dd8682870161182d565b9150509250925092565b600080600080600080600060e0888a03121561190257600080fd5b600088013567ffffffffffffffff81111561191c57600080fd5b6119288a828b01611803565b97505060206119398a828b0161182d565b965050604061194a8a828b01611842565b955050606061195b8a828b0161182d565b945050608061196c8a828b0161182d565b93505060a061197d8a828b016117ee565b92505060c088013567ffffffffffffffff81111561199a57600080fd5b6119a68a828b01611803565b91505092959891949750929550565b6000602082840312156119c757600080fd5b60006119d58482850161182d565b91505092915050565b6000806000606084860312156119f357600080fd5b6000611a018682870161182d565b9350506020611a12868287016117ee565b9250506040611a238682870161182d565b9150509250925092565b600080600080600080600080610100898b031215611a4a57600080fd5b6000611a588b828c0161182d565b985050602089013567ffffffffffffffff811115611a7557600080fd5b611a818b828c01611803565b9750506040611a928b828c0161182d565b9650506060611aa38b828c01611842565b9550506080611ab48b828c0161182d565b94505060a0611ac58b828c0161182d565b93505060c0611ad68b828c016117ee565b92505060e089013567ffffffffffffffff811115611af357600080fd5b611aff8b828c01611803565b9150509295985092959890939650565b60008060408385031215611b2257600080fd5b6000611b308582860161182d565b9250506020611b4185828601611842565b9150509250929050565b6000611b578383611d22565b905092915050565b611b68816120fc565b82525050565b6000611b79826120a6565b611b8381856120c9565b935083602082028501611b9585612096565b8060005b85811015611bd15784840389528151611bb28582611b4b565b9450611bbd836120bc565b925060208a01995050600181019050611b99565b50829750879550505050505092915050565b611bec8161210e565b82525050565b611bfb8161210e565b82525050565b6000611c0c826120b1565b611c1681856120da565b9350611c26818560208601612160565b611c2f816122cc565b840191505092915050565b6000611c45826120b1565b611c4f81856120eb565b9350611c5f818560208601612160565b611c68816122cc565b840191505092915050565b6000611c806026836120eb565b9150611c8b826122dd565b604082019050919050565b6000611ca3600f836120eb565b9150611cae8261232c565b602082019050919050565b6000611cc6600b836120eb565b9150611cd182612355565b602082019050919050565b6000611ce9600d836120eb565b9150611cf48261237e565b602082019050919050565b6000611d0c6020836120eb565b9150611d17826123a7565b602082019050919050565b600061010083016000830151611d3b6000860182611dd9565b5060208301518482036020860152611d538282611c01565b9150506040830151611d686040860182611dd9565b506060830151611d7b6060860182611df7565b506080830151611d8e6080860182611dd9565b5060a0830151611da160a0860182611dd9565b5060c0830151611db460c0860182611be3565b5060e083015184820360e0860152611dcc8282611c01565b9150508091505092915050565b611de28161213a565b82525050565b611df18161213a565b82525050565b611e0081612144565b82525050565b611e0f81612144565b82525050565b6000602082019050611e2a6000830184611b5f565b92915050565b60006020820190508181036000830152611e4a8184611b6e565b905092915050565b6000602082019050611e676000830184611bf2565b92915050565b6000604082019050611e826000830185611bf2565b611e8f6020830184611de8565b9392505050565b60006020820190508181036000830152611eaf81611c73565b9050919050565b60006020820190508181036000830152611ecf81611c96565b9050919050565b60006020820190508181036000830152611eef81611cb9565b9050919050565b60006020820190508181036000830152611f0f81611cdc565b9050919050565b60006020820190508181036000830152611f2f81611cff565b9050919050565b6000602082019050611f4b6000830184611de8565b92915050565b6000606082019050611f666000830186611de8565b611f736020830185611bf2565b611f806040830184611de8565b949350505050565b600061010082019050611f9e600083018b611de8565b8181036020830152611fb0818a611c3a565b9050611fbf6040830189611de8565b611fcc6060830188611e06565b611fd96080830187611de8565b611fe660a0830186611de8565b611ff360c0830185611bf2565b81810360e08301526120058184611c3a565b90509998505050505050505050565b600061201e61202f565b905061202a82826121c5565b919050565b6000604051905090565b600067ffffffffffffffff8211156120545761205361229d565b5b602082029050602081019050919050565b600067ffffffffffffffff8211156120805761207f61229d565b5b612089826122cc565b9050602081019050919050565b6000819050602082019050919050565b600081519050919050565b600081519050919050565b6000602082019050919050565b600082825260208201905092915050565b600082825260208201905092915050565b600082825260208201905092915050565b60006121078261211a565b9050919050565b60008115159050919050565b600073ffffffffffffffffffffffffffffffffffffffff82169050919050565b6000819050919050565b600060ff82169050919050565b82818337600083830152505050565b60005b8381101561217e578082015181840152602081019050612163565b8381111561218d576000848401525b50505050565b600060028204905060018216806121ab57607f821691505b602082108114156121bf576121be61226e565b5b50919050565b6121ce826122cc565b810181811067ffffffffffffffff821117156121ed576121ec61229d565b5b80604052505050565b60006122018261213a565b91507fffffffffffffffffffffffffffffffffffffffffffffffffffffffffffffffff8214156122345761223361223f565b5b600182019050919050565b7f4e487b7100000000000000000000000000000000000000000000000000000000600052601160045260246000fd5b7f4e487b7100000000000000000000000000000000000000000000000000000000600052602260045260246000fd5b7f4e487b7100000000000000000000000000000000000000000000000000000000600052604160045260246000fd5b6000601f19601f8301169050919050565b7f4f776e61626c653a206e6577206f776e657220697320746865207a65726f206160008201527f6464726573730000000000000000000000000000000000000000000000000000602082015250565b7f496e76616c69642070726f647563740000000000000000000000000000000000600082015250565b7f496e76616c696420515459000000000000000000000000000000000000000000600082015250565b7f496e76616c696420507269636500000000000000000000000000000000000000600082015250565b7f4f776e61626c653a2063616c6c6572206973206e6f7420746865206f776e6572600082015250565b6123d9816120fc565b81146123e457600080fd5b50565b6123f08161210e565b81146123fb57600080fd5b50565b6124078161213a565b811461241257600080fd5b50565b61241e81612144565b811461242957600080fd5b5056fea26469706673582212203fd92ab2c7e5b5d97b9eecba1316a6e56d9d08361550842e88b1723908fa387c64736f6c63430008040033",
  "immutableReferences": {},
  "source": "// SPDX-License-Identifier: MIT\npragma solidity ^0.8.0;\npragma experimental ABIEncoderV2;\n\n// import 'https://github.com/OpenZeppelin/openzeppelin-contracts/blob/master/contracts/access/Ownable.sol';\n// import 'https://github.com/OpenZeppelin/openzeppelin-contracts/blob/master/contracts/utils/Counters.sol';\n// import 'https://github.com/OpenZeppelin/openzeppelin-contracts/blob/master/contracts/utils/math/SafeMath.sol';\n// import 'hardhat/console.sol';\n\nimport '../node_modules/@openzeppelin/contracts/access/Ownable.sol';\nimport '../node_modules/@openzeppelin/contracts/utils/Counters.sol';\nimport '../node_modules/@openzeppelin/contracts/utils/math/SafeMath.sol';\n\ncontract Product is Ownable {\n  using Counters for Counters.Counter;\n  using SafeMath for uint256;\n  using SafeMath for uint8;\n\n  // here product struct\n\n  mapping(uint256 => Product) public products;\n  Counters.Counter private _productIds;\n\n  struct Product {\n    uint256 id;\n    string name;\n    uint256 price;\n    uint8 qty;\n    uint256 contractType;\n    uint256 category;\n    bool sale;\n    string url;\n  }\n\n  struct DiscountProduct {\n    uint256 product;\n    bool valid;\n    uint256 amount;\n  }\n\n  struct DiscountGroup {\n    uint256[] productIds;\n    bool valid;\n    uint256 amount;\n  }\n\n  DiscountGroup public discountGroup;\n  mapping(uint256 => DiscountProduct) public discountedProducts;\n\n  event NewProduct(uint256 productId);\n  event ProductSold(\n    uint256 _productId,\n    uint256 _tokenId,\n    address _ownerAddress,\n    string _name,\n    uint256 _qty,\n    string _data\n  );\n  event ProductUpdated(uint256 productId);\n  event DeleteProduct(uint256 productId);\n  event SoldOut(uint256 productId);\n  event BackInStock(uint256 productId);\n  event NewPrice(uint256 productId);\n\n  function addProduct(\n    string memory _name,\n    uint256 _price,\n    uint8 _qty,\n    uint256 _contractType,\n    uint256 _category,\n    bool _onSale,\n    string memory _url\n  ) public onlyOwner checkProductValidity(_price, _qty) returns (bool success) {\n    uint256 newItemId = _productIds.current();\n    Product memory product = Product(\n      newItemId,\n      _name,\n      _price,\n      _qty,\n      _contractType,\n      _category,\n      _onSale,\n      _url\n    );\n    products[newItemId] = product;\n    emit NewProduct(newItemId);\n    _productIds.increment();\n    return true;\n  }\n\n  function deleteProduct(uint256 _id) public onlyOwner returns (bool success) {\n    Product memory product = products[_id];\n    if (product.id == _id) {\n      delete products[_id];\n      emit DeleteProduct(_id);\n      return true;\n    }\n    return false;\n  }\n\n  function updateProduct(\n    uint256 _id,\n    string memory _name,\n    uint256 _price,\n    uint8 _qty,\n    uint256 _contractType,\n    uint256 _cateogry,\n    bool _onSale,\n    string memory _url\n  ) public onlyOwner checkProductValidity(_price, _qty) returns (bool success) {\n    Product memory product = Product(\n      _id,\n      _name,\n      _price,\n      _qty,\n      _contractType,\n      _cateogry,\n      _onSale,\n      _url\n    );\n    products[_id] = product;\n    emit ProductUpdated(_id);\n    return true;\n  }\n\n  function updateStock(uint256 _id, uint8 _qty) public onlyOwner returns (bool success) {\n    require(_qty > 0, 'Invalid QTY');\n    products[_id].qty = _qty;\n    emit BackInStock(_id);\n    return true;\n  }\n\n  function updatePrice(uint256 _id, uint8 _price) public onlyOwner returns (bool success) {\n    require(_price > 0, 'Invalid Price');\n    products[_id].price = _price;\n    emit NewPrice(_id);\n    return true;\n  }\n\n  function getProducts() public view virtual returns (Product[] memory) {\n    Product[] memory allProducts = new Product[](_productIds.current());\n    // console.log('getProducts with _productIds.current()', _productIds.current());\n\n    uint256 counter = 0;\n\n    for (uint256 i = 0; i < _productIds.current(); i++) {\n      allProducts[counter] = products[i];\n      counter++;\n    }\n    return allProducts;\n  }\n\n  function setDiscountProduct(\n    uint256 _productId,\n    bool _enabled,\n    uint256 _discountAmount\n  ) public onlyOwner {\n    DiscountProduct memory discount = DiscountProduct(_productId, _enabled, _discountAmount);\n    discountedProducts[_productId] = discount;\n  }\n\n  function setDiscountGroup(\n    uint256[] memory _productIds,\n    bool _enabled,\n    uint256 _discountAmount\n  ) public onlyOwner {\n    DiscountGroup memory dg = DiscountGroup(_productIds, _enabled, _discountAmount);\n    discountGroup = dg;\n  }\n\n  modifier checkProductValidity(uint256 _price, uint256 _qty) {\n    require(_price > 0 && _qty > 0, 'Invalid product');\n    _;\n  }\n}\n",
  "sourcePath": "/Volumes/Data/Git/cart-art-web/src/contracts/contracts/Product.sol",
  "compiler": {
    "name": "solc",
    "version": "0.8.4+commit.c7e474f2.Emscripten.clang"
  },
  "schemaVersion": "3.4.3",
  "updatedAt": "2021-12-22T08:20:13.945Z",
  "devdoc": {
    "kind": "dev",
    "methods": {
      "owner()": {
        "details": "Returns the address of the current owner."
      },
      "renounceOwnership()": {
        "details": "Leaves the contract without owner. It will not be possible to call `onlyOwner` functions anymore. Can only be called by the current owner. NOTE: Renouncing ownership will leave the contract without an owner, thereby removing any functionality that is only available to the owner."
      },
      "transferOwnership(address)": {
        "details": "Transfers ownership of the contract to a new account (`newOwner`). Can only be called by the current owner."
      }
    },
    "version": 1
  },
  "userdoc": {
    "kind": "user",
    "methods": {},
    "version": 1
  }
}