{
  "contractName": "Proxy",
  "abi": [
    {
      "anonymous": false,
      "inputs": [
        {
          "indexed": true,
          "internalType": "address",
          "name": "previousOwner",
          "type": "address"
        },
        {
          "indexed": true,
          "internalType": "address",
          "name": "newOwner",
          "type": "address"
        }
      ],
      "name": "OwnershipTransferred",
      "type": "event"
    },
    {
      "anonymous": false,
      "inputs": [
        {
          "indexed": false,
          "internalType": "address",
          "name": "_contract",
          "type": "address"
        }
      ],
      "name": "SetStoreContract",
      "type": "event"
    },
    {
      "anonymous": false,
      "inputs": [
        {
          "indexed": true,
          "internalType": "address",
          "name": "previousProxy",
          "type": "address"
        },
        {
          "indexed": true,
          "internalType": "address",
          "name": "newProxy",
          "type": "address"
        }
      ],
      "name": "cartART",
      "type": "event"
    },
    {
      "inputs": [],
      "name": "owner",
      "outputs": [
        {
          "internalType": "address",
          "name": "",
          "type": "address"
        }
      ],
      "stateMutability": "view",
      "type": "function"
    },
    {
      "inputs": [],
      "name": "renounceOwnership",
      "outputs": [],
      "stateMutability": "nonpayable",
      "type": "function"
    },
    {
      "inputs": [
        {
          "internalType": "address",
          "name": "newOwner",
          "type": "address"
        }
      ],
      "name": "transferOwnership",
      "outputs": [],
      "stateMutability": "nonpayable",
      "type": "function"
    },
    {
      "inputs": [
        {
          "internalType": "address",
          "name": "_child",
          "type": "address"
        }
      ],
      "name": "_approveChildContract",
      "outputs": [],
      "stateMutability": "nonpayable",
      "type": "function"
    },
    {
      "inputs": [
        {
          "internalType": "address",
          "name": "_newProxyAddr",
          "type": "address"
        }
      ],
      "name": "setProxy",
      "outputs": [],
      "stateMutability": "nonpayable",
      "type": "function"
    }
  ],
  "bytecode": "0x608060405234801561001057600080fd5b5061002d61002261003260201b60201c565b61003a60201b60201c565b6100fe565b600033905090565b60008060009054906101000a900473ffffffffffffffffffffffffffffffffffffffff169050816000806101000a81548173ffffffffffffffffffffffffffffffffffffffff021916908373ffffffffffffffffffffffffffffffffffffffff1602179055508173ffffffffffffffffffffffffffffffffffffffff168173ffffffffffffffffffffffffffffffffffffffff167f8be0079c531659141344cd1fd0a4f28419497f9722a3daafe3b4186f6b6457e060405160405180910390a35050565b6107b38061010d6000396000f3fe608060405234801561001057600080fd5b50600436106100575760003560e01c8063715018a61461005c5780637f8ea7da146100665780638da5cb5b1461008257806397107d6d146100a0578063f2fde38b146100bc575b600080fd5b6100646100d8565b005b610080600480360381019061007b91906105d2565b610160565b005b61008a610294565b6040516100979190610650565b60405180910390f35b6100ba60048036038101906100b591906105d2565b6102bd565b005b6100d660048036038101906100d191906105d2565b6103f9565b005b6100e06104f1565b73ffffffffffffffffffffffffffffffffffffffff166100fe610294565b73ffffffffffffffffffffffffffffffffffffffff1614610154576040517f08c379a000000000000000000000000000000000000000000000000000000000815260040161014b9061068b565b60405180910390fd5b61015e60006104f9565b565b6101686104f1565b73ffffffffffffffffffffffffffffffffffffffff16610186610294565b73ffffffffffffffffffffffffffffffffffffffff16146101dc576040517f08c379a00000000000000000000000000000000000000000000000000000000081526004016101d39061068b565b60405180910390fd5b80600260008373ffffffffffffffffffffffffffffffffffffffff1673ffffffffffffffffffffffffffffffffffffffff16815260200190815260200160002060006101000a81548173ffffffffffffffffffffffffffffffffffffffff021916908373ffffffffffffffffffffffffffffffffffffffff1602179055507f7a68f36d013025b936cfcf536ded8ac09f742b930c53cab42fb42cb75340095c816040516102899190610650565b60405180910390a150565b60008060009054906101000a900473ffffffffffffffffffffffffffffffffffffffff16905090565b6102c56104f1565b73ffffffffffffffffffffffffffffffffffffffff166102e3610294565b73ffffffffffffffffffffffffffffffffffffffff1614610339576040517f08c379a00000000000000000000000000000000000000000000000000000000081526004016103309061068b565b60405180910390fd5b8073ffffffffffffffffffffffffffffffffffffffff16600160009054906101000a900473ffffffffffffffffffffffffffffffffffffffff1673ffffffffffffffffffffffffffffffffffffffff167f5b09f0d0a4cbf8770fd092cf5ee60221e5addb9d44f01f52b1e8c6fe34842e3f60405160405180910390a380600160006101000a81548173ffffffffffffffffffffffffffffffffffffffff021916908373ffffffffffffffffffffffffffffffffffffffff16021790555050565b6104016104f1565b73ffffffffffffffffffffffffffffffffffffffff1661041f610294565b73ffffffffffffffffffffffffffffffffffffffff1614610475576040517f08c379a000000000000000000000000000000000000000000000000000000000815260040161046c9061068b565b60405180910390fd5b600073ffffffffffffffffffffffffffffffffffffffff168173ffffffffffffffffffffffffffffffffffffffff1614156104e5576040517f08c379a00000000000000000000000000000000000000000000000000000000081526004016104dc9061066b565b60405180910390fd5b6104ee816104f9565b50565b600033905090565b60008060009054906101000a900473ffffffffffffffffffffffffffffffffffffffff169050816000806101000a81548173ffffffffffffffffffffffffffffffffffffffff021916908373ffffffffffffffffffffffffffffffffffffffff1602179055508173ffffffffffffffffffffffffffffffffffffffff168173ffffffffffffffffffffffffffffffffffffffff167f8be0079c531659141344cd1fd0a4f28419497f9722a3daafe3b4186f6b6457e060405160405180910390a35050565b6000813590506105cc81610766565b92915050565b6000602082840312156105e457600080fd5b60006105f2848285016105bd565b91505092915050565b610604816106bc565b82525050565b60006106176026836106ab565b9150610622826106ee565b604082019050919050565b600061063a6020836106ab565b91506106458261073d565b602082019050919050565b600060208201905061066560008301846105fb565b92915050565b600060208201905081810360008301526106848161060a565b9050919050565b600060208201905081810360008301526106a48161062d565b9050919050565b600082825260208201905092915050565b60006106c7826106ce565b9050919050565b600073ffffffffffffffffffffffffffffffffffffffff82169050919050565b7f4f776e61626c653a206e6577206f776e657220697320746865207a65726f206160008201527f6464726573730000000000000000000000000000000000000000000000000000602082015250565b7f4f776e61626c653a2063616c6c6572206973206e6f7420746865206f776e6572600082015250565b61076f816106bc565b811461077a57600080fd5b5056fea2646970667358221220815ee23bfed1035283331bb1a1e52e5ce76cb062be0f8fe4d007202cf39ab6ae64736f6c63430008040033",
  "immutableReferences": {},
  "source": "// SPDX-License-Identifier: MIT\npragma solidity ^0.8.0;\npragma experimental ABIEncoderV2;\n\n// import 'https://github.com/OpenZeppelin/openzeppelin-contracts/blob/master/contracts/access/Ownable.sol';\n\nimport '../node_modules/@openzeppelin/contracts/access/Ownable.sol';\n\ncontract Proxy is Ownable {\n  address private proxyAddr;\n  mapping(address => address) childrenAddresses;\n\n  event cartART(address indexed previousProxy, address indexed newProxy);\n  event SetStoreContract(address _contract);\n\n  modifier onlyProxy() {\n    require(msg.sender == proxyAddr, 'Only Genesis Factory is allowed to mint tokens');\n    _;\n  }\n\n  modifier onlyChildren() {\n    require(msg.sender == childrenAddresses[msg.sender], 'Only cart.art children contracts');\n    _;\n  }\n\n  function _approveChildContract(address _child) public onlyOwner {\n    childrenAddresses[_child] = _child;\n    emit SetStoreContract(_child);\n  }\n\n  function setProxy(address _newProxyAddr) public virtual onlyOwner {\n    emit cartART(proxyAddr, _newProxyAddr);\n    proxyAddr = _newProxyAddr;\n  }\n\n  // check if token onlyOwner\n}\n",
  "sourcePath": "/Users/jordan/eliteWeb-v2/src/contracts/contracts/Proxy.sol",
  "compiler": {
    "name": "solc",
    "version": "0.8.4+commit.c7e474f2.Emscripten.clang"
  },
  "schemaVersion": "3.4.3",
  "updatedAt": "2021-12-19T01:13:13.795Z",
  "devdoc": {
    "kind": "dev",
    "methods": {
      "owner()": {
        "details": "Returns the address of the current owner."
      },
      "renounceOwnership()": {
        "details": "Leaves the contract without owner. It will not be possible to call `onlyOwner` functions anymore. Can only be called by the current owner. NOTE: Renouncing ownership will leave the contract without an owner, thereby removing any functionality that is only available to the owner."
      },
      "transferOwnership(address)": {
        "details": "Transfers ownership of the contract to a new account (`newOwner`). Can only be called by the current owner."
      }
    },
    "version": 1
  },
  "userdoc": {
    "kind": "user",
    "methods": {},
    "version": 1
  }
}